:020000040800F2
:10000000905902207D02000865240008870200083C
:100010006124000859060008A52A00080000000015
:10002000000000000000000000000000C501000802
:10003000890600080000000019020008A124000839
:10004000970200089702000897020008970200082C
:10005000970200089702000897020008970200081C
:10006000970200089702000897020008970200080C
:1000700097020008970200089702000897020008FC
:1000800097020008970200089702000897020008EC
:1000900097020008970200089702000897020008DC
:1000A00097020008970200089702000897020008CC
:1000B00097020008970200089702000897020008BC
:1000C00097020008970200089702000897020008AC
:1000D000970200089702000897020008970200089C
:1000E000970200089702000897020008970200088C
:1000F000970200089702000897020008970200087C
:10010000970200089702000897020008970200086B
:10011000970200089702000897020008970200085B
:10012000970200089702000897020008970200084B
:1001300097020008190700089702000897020008B4
:10014000970200089702000897020008970200082B
:10015000970200089702000897020008970200081B
:10016000970200089702000897020008970200080B
:10017000970200089702000897020008000000009C
:1001800097020008970200089702000897020008EB
:1001900097020008970200089702000897020008DB
:1001A000970200089702000897020008DFF810D0B5
:1001B00000F006F9004800477D6E0008AFF30080AC
:1001C000905902202A4B19680868B0E8F04F80F374
:1001D0000988BFF36F8F4FF0000080F311887047DC
:1001E0000000000006480068006880F3088862B6D6
:1001F00061B6BFF34F8FBFF36F8F00DF00BF00BF4B
:1002000008ED00E0DFF80C00016841F470010160C6
:10021000704700BF88ED00E0EFF30980BFF36F8FF8
:10022000134B1A681EF0100F08BF20ED108A20E94A
:10023000F04F106008B44FF0500080F31188BFF306
:100240004F8FBFF36F8F10F0BFFB4FF0000080F3B4
:10025000118808BC19680868B0E8F04F1EF0100F4C
:1002600008BFB0EC108A80F30988BFF36F8F704726
:100270001C010020EFF3058070470000064880470E
:1002800006480047FEE7FEE7FEE7FEE7FEE7FEE77B
:10029000FEE7FEE7FEE7FEE77D250008AD0100086A
:1002A0002DE9F05F0546002092469B4688460646AB
:1002B000814640241BE0284641464746224600F03E
:1002C0006EF853465A46C01A914110D3114618464B
:1002D000224600F055F82D1A67EB01084F462246DA
:1002E0000120002100F04CF817EB00094E41201EC0
:1002F000A4F10104DFDC484631462A464346BDE806
:10030000F09F10B5431A934209D28318881803E06E
:1003100010F8011D03F8011D521EF9D210BD40EA6C
:1003200001039B0703D009E008C9121F08C0042A73
:10033000FAD203E011F8013B00F8013B521EF9D25A
:1003400010BDD2B201E000F8012B491EFBD270476C
:100350000022F6E710B513460A4604461946FFF791
:10036000F0FF204610BD30B504460020034600E0F3
:100370005B1C934203D2E05CCD5C401BF8D030BDE7
:10038000202A04DB203A00FA02F100207047914055
:10039000C2F1200320FA03F3194390407047202A4A
:1003A00004DB203A21FA02F00021704721FA02F31F
:1003B000D040C2F120029140084319467047000026
:1003C000064C074D06E0E06840F0010394E80700A2
:1003D00098471034AC42F6D3FFF7ECFE741A0108CC
:1003E000941A010870B58C1810F8015B15F007031A
:1003F00001D110F8013B2A1106D110F8012B03E0BE
:1004000010F8016B01F8016B5B1EF9D12B0705D4C5
:100410000023521E0DD401F8013BFAE710F8013B0E
:10042000CB1A921C03E013F8015B01F8015B521E2A
:10043000F9D5A142D8D3002070BD00001CB501241D
:1004400002F0CEF80FF06CFE0FF07EFF1348012192
:1004500000234A02CDE9001011A1144810F032FF28
:100460000446012C02D112A002F01EFB1848022102
:1004700000230A02CDE9001016A1194810F022FF4E
:100480000446012C02D117A002F00EFB1D480068A3
:1004900010F004F90FF09AFF1CBD000014000020BA
:1004A00054657374315F5461736B000099260008C2
:1004B0004372656174652054657374315F54617370
:1004C0006B207375636573732E2E2E0D0A0000006A
:1004D0001800002054657374325F5461736B000020
:1004E000B5260008437265617465205465737432E3
:1004F0005F5461736B207375636573732E2E2E0AC0
:100500000A0000001000002010B501F0EBF900F027
:10051000B1FA01F0DFFF01F04BFF00F09FF802A0FD
:1005200002F0C2FA10BD00002D2D2D2D2D2D2D2DE8
:100530002D2D2D204C7769702064656D6F202D2D39
:100540002D2D2D2D2D2D2D2D2D2D0A001CB528489E
:1005500000F08CFB00F05CFA2648006840F00100D7
:100560002449086002208DF8000000208DF8010069
:100570008DF802008DF803008DF804008DF8050059
:100580001D481B490860012048600021184801826D
:10059000C0F814D0012181610021C1614FF4000134
:1005A000016249128160C910C16000F033FC044649
:1005B0003CB900BF11A002F077FA14A002F074FA5F
:1005C00007E000BF0DA002F06FFA18A002F06CFA6D
:1005D00000BF08231C4A1D49054800F005FB0823FD
:1005E0001B4A1C49024800F0B9FA20461CBD000015
:1005F000C401002000900240008002400D0A5B44CC
:10060000454255475D203E3E20000000657468204D
:10061000686172647761726520696E6974207375B0
:10062000636573732E2E2E0A000000006574682027
:10063000686172647761726520696E6974206661B1
:10064000696C642E2E2E0A00AC3300200C030020AF
:100650000C0400200C02002000BFFEE710B5084883
:10066000084908604FF4E130486000210548816086
:10067000C160016181610C21416101F099FD10BDF2
:1006800000100140840100207047016801F580518D
:10069000896941F00202016801F580518A61704761
:1006A000016801F58051896941F40052016801F542
:1006B00080518A617047000008B508490968C90877
:1006C0004FF47A72B1FBF2F14143009100BF00BFD9
:1006D00000994A1E00920029F9D108BD00000020AF
:1006E00038B5044600200090206800F580508069ED
:1006F00040F48011206800F580508161206800F589
:100700008050806900900120FFF7D6FF0099206893
:1007100000F58050816138BD10B500BF5021EFF366
:10072000118081F31188BFF34F8FBFF36F8F00BF2C
:100730000446044800F01BFB204680F3118800BFEC
:1007400010BD0000C401002030B50346147955796E
:1007500044EA0520084C0C442064D478240695789B
:1007600044EA0544557844EA0524157844EA05002E
:10077000014C0C44606430BD0080024070B5AEB0E6
:1007800004460E46002526B14FF40061E160C90021
:10079000A160002011901290139014901590169063
:1007A000E06918B94FF48060179001E000201790BD
:1007B0004FF400701890002019901A901B901C9014
:1007C0001D9040201E9000201F902090219022908C
:1007D0002390249025902690802027900020289018
:1007E00029902A902B902C902D90206805687148B4
:1007F0000540DDE9110108431399084314990843A2
:10080000A16808431599084316990843E16808430D
:100810001799084318990843199908431A990843E6
:100820001B9908430543206805602068056801207E
:1008300000F080F920680560DDE91C0108431E997D
:1008400008431F9908432099084321990843229996
:1008500008432399084321684860206845680120BF
:1008600000F068F920684560249821688860259820
:100870002168C860206885694FF641700540DDE950
:10088000261040EA014028990843299908432A99EB
:1008900008432B99084305432068856120688569D2
:1008A000012000F047F920688561DDE92C0108434B
:1008B0002168C8612068C569012000F03BF9206803
:1008C000C561002001904FF000700290002003905D
:1008D0004FF40010049000200590069007900890B7
:1008E00004200990C0050A9040120B9080010C90E2
:1008F00040120D9080200E9000200F9010902068E4
:1009000000F5805085692C480540DDE90101084368
:100910000399084304990843059908430699084335
:100920000799084308990843099908430543206833
:1009300000F580508561206800F5805085690120B0
:1009400000F0F8F8206800F580508561DDE90A01C3
:1009500008430C9908430D9908430E9908430F99D1
:1009600040EA81001099084340F40001206800F536
:1009700080500160206800F580500568012000F07B
:10098000D9F8206800F580500560A069012809D1D8
:10099000206800F58050C06908490843216801F5C6
:1009A0008051C861002120466269FFF7CDFE2EB05C
:1009B00070BD00000F8120FF233FDEF840000100E2
:1009C00038B50446002000902068006840F004001C
:1009D000216808602068006800900120FFF76CFE25
:1009E00000982168086038BD38B5044600200090A2
:1009F0002068006840F008002168086020680068EE
:100A000000900120FFF758FE00982168086038BD6B
:100A100000B587B000BF002001901448006840F482
:100A20008070124908600846006800F480700190E8
:100A300000BF00BF012003900490022005900290A7
:100A400002A90B4800F028FE00220221084800F00D
:100A500031FF052000F06EF801220221044800F069
:100A600029FF052000F066F807B000BD30380240CD
:100A70000020024008B500BF002000902C4800680C
:100A800040F080002A4908600846006800F08000B5
:100A9000009000BF00BF00BF002000900846006823
:100AA00040F0040008600846006800F00400009070
:100AB00000BF00BF00BF002000900846006840F063
:100AC000010008600846006800F00100009000BFC7
:100AD00000BF00BF002000900846006840F0020000
:100AE00008600846006800F00200009000BF00BFE8
:100AF00000BF002000900846006840F040000860F9
:100B00000846006800F04000009000BF00BF00BF32
:100B1000002000900846006840F480700860084695
:100B2000006800F48070009000BF00BF08BD0000A6
:100B30003038024070B5044600F0C2FE0646254635
:100B4000681C10B104480078054400BF00F0B8FEEE
:100B5000801BA842FAD370BD0C00002070B504467B
:100B60000D461646002200BF94F84500012801D129
:100B7000022070BD012084F8450000BF022084F8E7
:100B80004400A56200221FE005EB42114FF0004037
:100B9000086044F2F4504860C2EBC21000EB400021
:100BA00006EB80008860A069012803D1486820F026
:100BB00000404860581E904204D905EB4210203096
:100BC000C86000E0CD60521C9A42DDD3206800F579
:100BD0008050C560012084F8440000BF002084F8E4
:100BE000450000BF00BFC4E770B504460D46164679
:100BF000002200BF94F84500012801D1022070BDF9
:100C0000012084F8450000BF022084F84400E5621A
:100C100000221BE005EB42114FF480100860C2EB8C
:100C2000C21000EB400006EB80008860E06918B954
:100C3000086840F440000860581E904204D905EB53
:100C400042102030C86000E0CD60521C9A42E1D3CF
:100C5000206800F580500561012084F8440000BF41
:100C6000002084F8450000BF00BFC8E710B5044667
:100C7000022084F84400204600F01AFA002084F88C
:100C8000440000BF84F8450000BF10BD10B5044605
:100C900000BF04A001F008FF05A001F005FF00BFA0
:100CA00010BD00000D0A5B4552525D203E3E200003
:100CB000657468206572720A000000000146002217
:100CC00000BF91F84500012801D1022070470120A2
:100CD00081F8450000BF022081F84400886A00685E
:100CE00000F00040002838D1886A006800F4807065
:100CF000F0B1886B401C8863886B012801D1886A39
:100D000008638B6A4B63886A0068C0F30D40021F5A
:100D1000CA63086B83680B64886AC06888620120B4
:100D200081F8440000BF002081F8450000BFCDE7F6
:100D3000886A006800F4007048B1886A086300237C
:100D40004B6301238B63886AC068886205E0886B07
:100D5000401C8863886AC0688862012081F844006A
:100D600000BF002081F8450000BF0120AEE710B5AC
:100D70000446206800F58050406900F0400040289B
:100D80000FD1204600F09EFA4021206800F58050E7
:100D90004161012084F8440000BF002084F8450030
:100DA00016E0206800F58050406900F0010078B13D
:100DB000204600F067FB0121206800F5805041616A
:100DC000012084F8440000BF002084F8450000BFE3
:100DD0004FF48031206800F580504161206800F5B3
:100DE0008050406900F40040B0F5004F10D120461B
:100DF000FFF74CFF4FF40041206800F5805041613F
:100E0000012084F8440000BF002084F8450000BFA2
:100E100010BD00002DE9FC41044600250020019092
:100E20009C4E0027804614B90120BDE8FC8194F84F
:100E3000440028B9002084F84500204600F070F9ED
:100E400000BF002000909448006840F48040924920
:100E500008600846006800F48040009000BF00BFB2
:100E60008E48006820F400008C490860084600683D
:100E7000216A084389490860206800F580500068AD
:100E800040F00101206800F58050016000F018FD7D
:100E900007460FE000F014FDC01BB0F5FA7F09D93A
:100EA000032084F8440000BF002084F8450000BF00
:100EB0000320BAE7206800F58050006800F00100C8
:100EC0000028E7D12068056925F01C0500F0B4FE74
:100ED00006467348864205D37248864202D245F0E0
:100EE00008051AE06F48864205D36A48864202D256
:100EF00045F00C0511E06748864203D36A488642F4
:100F000000D20AE06848864205D36848864202D289
:100F100045F0040501E045F01005206805614FF437
:100F200000420021204600F0AEFA48B14FF001081F
:100F300041462046FFF722FC012084F8440074E774
:100F40000520FFF7F7FD6068002871D000F0B8FCBD
:100F5000074600BF01AA0121204600F069F900F010
:100F6000AFFCC01B41F2883188420FD94FF0010815
:100F700041462046FFF702FC012084F8440000BFF0
:100F8000002084F8450000BF03204EE7019800F0E0
:100F900004000428DED182020021204600F073FA0A
:100FA00048B14FF0010841462046FFF7E7FB01201A
:100FB00084F8440039E700F083FC074600BF01AA2B
:100FC0000121204600F034F900F07AFCC01B41F208
:100FD000883188420FD94FF0010841462046FFF77B
:100FE000CDFB012084F8440000BF002084F84500B8
:100FF00000BF032019E7019800F020002028DED16F
:1010000001AA1F21204600F013F948B14FF0010852
:1010100041462046FFF7B2FB012084F8440004E774
:10102000019800F0100020B14FF40061E16002E08F
:101030000DE00021E160019800F00400042802D1D5
:101040000021A1601DE04FF48041A16019E0E0683B
:10105000C0F3CF00A168C1F34F0140EA01020021B3
:10106000204600F010FA48B14FF0010841462046F2
:10107000FFF784FB012084F84400D6E60520FFF743
:1010800059FD41462046FFF779FB012084F84400D2
:101090000020CAE600879303443802400438014028
:1010A000002D3101C00E160200E1F50580D1F008D7
:1010B00010B5044614492068884223D100BF134864
:1010C000006820F08060114908600846006820F040
:1010D000006008600846006820F00070086000BFEB
:1010E00032210B4800F018FA86210A4800F014FA61
:1010F0004FF40061084800F00FFA4FF4C041074870
:1011000000F00AFA10BD00000080024030380240B2
:1011100000080240000002400004024000180240A3
:1011200010B586B004463C492068884271D132200F
:1011300001900220029000200390032004900B20D5
:10114000059001A9354800F0A7FA862001900220F9
:10115000029000200390032004900B20059001A929
:101160002F4800F099FA4FF400600190022002909D
:1011700000200390032004900B20059001A929482A
:1011800000F08AFA4FF4C040019002200290002043
:101190000390032004900B20059001A9224800F041
:1011A0007BFA002206213D2000F0EEFB3D2000F0FE
:1011B000DEFB00BF00BF002000901C48006840F02C
:1011C00000701A4908600846006800F0007000903E
:1011D00000BF00BF00BF002000900846006840F03C
:1011E000806008600846006800F08060009000BFE2
:1011F00000BF00BF002000900846006840F000607B
:1012000008600846006800F00060009000BF00BF62
:1012100000BF06B010BD0000008002400008024080
:101220000000024000040240001802403038024032
:101230002DE9F04104460E4617460025A84694F8CD
:101240004400822802D10220BDE8F081822084F887
:1012500044002068056905F01C05208A4FF4784198
:1012600001EAC0200543481100EA8610054325F035
:10127000020545F001052068056100F021FB80466C
:1012800012E000F01DFBA0EB0800B0F5803F09D391
:10129000012084F8440000BF002084F8450000BF0E
:1012A0000320D1E72068056905F001000028E8D196
:1012B0002068406980B23860012084F84400002032
:1012C000C2E7000038B50446002000906946074890
:1012D00000680FF02FFF009838B14FF0805004499C
:1012E0000860BFF34F8FBFF36F8F38BDE800002059
:1012F00004ED00E010B5044600BF94F84500012855
:1013000001D1022010BD012084F8450000BF022059
:1013100084F844002046FFF767FB2046FFF750FBA8
:101320002046FFF7DDF92046FFF7BAF92046FFF720
:10133000ACF9012084F8440000BF002084F8450087
:1013400000BF00BFDEE770B5024600230025002481
:1013500000BF92F84500012801D1022070BD012094
:1013600082F8450000BF022082F8440049B90120FC
:1013700082F8440000BF002082F8450000BF012031
:10138000ECE7D06A006800F0004048B1122082F813
:10139000440000BF002082F8450000BF0120DDE7C7
:1013A00040F2F450814208D9B1FBF0F3B1FBF0F602
:1013B00000FB161010B15B1C00E00123012B13D1C0
:1013C000D06A006840F04050D66A3060C1F30C002B
:1013D000D66A7060D06A006840F00040D66A30601B
:1013E000D06AC068D06232E000242EE0D06A006883
:1013F00020F04050D66A30602CB9D06A006840F0C6
:101400008050D66A306040F2F450D66A7060581E40
:10141000A04210D1D06A006840F00050D66A306017
:10142000581EC0EBC01000EB4000A1EB8005C5F3D7
:101430000C00D66A7060D06A006840F00040D66A3E
:101440003060D06AC068D062641C9C42CED3106801
:1014500000F58050406900F0040048B1042610688F
:1014600000F5805046610026106800F58050466007
:10147000012082F8440000BF002082F8450000BF30
:1014800000BF6BE770472DE9F04104460E46174652
:101490000025A84694F84400422802D10220BDE865
:1014A000F081422084F844002068056905F01C059D
:1014B000208A4FF4784101EAC0200543481100EA30
:1014C0008610054345F0020545F00105B8B22168D4
:1014D00048612068056100F0F3F9804612E000F0F1
:1014E000EFF9A0EB0800B0F5803F09D3012084F8A4
:1014F000440000BF002084F8450000BF0320CEE771
:101500002068056905F001000028E8D1012084F871
:1015100044000020C3E70000F0B50C46002500227F
:10152000002300219CE0012606FA01F504EA0502E9
:10153000AA427DD106684FEA410C032707FA0CF74F
:10154000BE430660CF0800F1200656F827604F071B
:101550004FEAD76C0F2707FA0CF7BE434FEAD10CBE
:1015600000F1200747F82C6086684FEA410C0327FA
:1015700007FA0CF7BE438660476801268E40B743E2
:101580004760C6684FEA410C032707FA0CF7BE43D1
:10159000C660354E8F0856F827308E07370F0F2656
:1015A000BE403340314EB04201D100262DE0304ED6
:1015B000B04201D1012628E02E4EB04201D10226D0
:1015C00023E02D4EB04201D103261EE02B4EB04247
:1015D00001D1042619E02A4EB04201D1052614E0BB
:1015E000284EB04201D106260FE0274EB04201D16D
:1015F00007260AE0254EB04201D1082605E0244E18
:10160000B04201D1092600E00A268F073F0FBE40F5
:101610009E4224D18E07370F0F2606FA07F3124E8B
:101620008F0856F827609E430F4F4FEA910C00E059
:1016300015E047F82C60174E36689643154F3E600C
:101640003E1D366896433F1D3E603E1D36689643FC
:101650003F1D3E603E1D366896433F1D3E60491C5F
:101660001029FFF460AFF0BD0838014000000240CF
:101670000004024000080240000C0240001002403A
:101680000014024000180240001C024000200240EA
:1016900000240240003C0140F8B502460B460025FC
:1016A000002400200021E6E0012606FA01F51E686C
:1016B00006EA0504AC4273D15E68022E02D05E6871
:1016C000122E13D1CF0802F1200656F827004E073C
:1016D000F70E0F26BE40B0434F07FF0E1E69BE40F7
:1016E0003043CF0802F1200646F8270010684F006B
:1016F0000326BE40B0431E7906F003064F00BE40ED
:10170000304310605E68012E08D05E68022E05D05E
:101710005E68112E02D05E68122E13D190684F00C1
:101720000326BE40B0434F00DE68BE4030439060A9
:10173000506801268E40B0431E79C6F300168E40D5
:1017400030435060D0684F000326BE40B0434F0086
:101750009E68BE403043D0605E6806F08056B6F1A9
:10176000805FA8D100BF00260096454E366846F43B
:101770008046434F3E603E46366806F480460096FB
:1017800000BF00BF3F4E8F0856F827008E07370F67
:101790000F26BE40B0433C4EB24202D100262EE09E
:1017A00068E03A4EB24201D1012628E0384EB242FA
:1017B00001D1022623E0374EB24201D103261EE0BA
:1017C000354EB24201D1042619E0344EB24201D165
:1017D000052614E0324EB24201D106260FE0314E0A
:1017E000B24201D107260AE02F4EB24201D10826AB
:1017F00005E02E4EB24201D1092600E00A268F07ED
:101800003F0FBE4030431F4E8F0846F82700284E3A
:101810003068A0435E6806F48036B6F5803F00D19C
:101820002043234E3060361D3068A0435E6806F4C6
:101830000036B6F5003F00D120431D4E361D306006
:10184000361D3068A0435E6806F48016B6F5801F2A
:1018500000D12043164E08363060361D3068A04354
:101860005E6806F40016B6F5001F00D12043104E46
:101870000C363060491C1029FFF416AFF8BD00008B
:101880004438024008380140000002400004024091
:1018900000080240000C0240001002400014024008
:1018A00000180240001C02400020024000240240B8
:1018B000003C01400AB1816101E00B048361704783
:1018C00001480068704700000400002003480068D9
:1018D0000349097808440149086070470400002062
:1018E0000C00002010B50D48006840F400700B4952
:1018F00008600846006840F4806008600846006898
:1019000040F480700860032000F07CF80F2000F0A5
:1019100007F800F02BF8002010BD0000003C02404A
:1019200070B504460E4800784FF47A71B1FBF0F0C0
:101930000C490968B1FBF0F5284600F01FFC08B11E
:10194000012070BD102C07D200222146501E00F04D
:101950001BF80548046001E00120F2E70020F0E7F1
:101960000C0000200000002008000020704700BF8D
:1019700000F01F02012191404209920002F1E02291
:10198000C2F8001100BF70472DE9F05F80460D4698
:101990001646002700F068FD074639462A463346BA
:1019A00001F00700C0F1070ABAF1040F02D94FF0A5
:1019B000040A01E0C0F1070AD14600F1040ABAF1B5
:1019C000070F02D24FF0000A01E0A0F1030AD4464B
:1019D0004FF0010A0AFA09FAAAF1010A0AEA020A10
:1019E0000AFA0CFA4FF0010B0BFA0CFBABF1010BEE
:1019F0000BEA030B4AEA0B042146404600F03CFD8B
:101A0000BDE8F09F00BF00F00702064B19684FF6D3
:101A1000FF031940044B0B4343EA0221014B1960B9
:101A200000BF70470CED00E00000FA0538B5002457
:101A300000BF002000901D48006840F080501B4906
:101A400008600846006800F08050009000BF00BFAA
:101A5000012017490864FFF733FF044607E0FFF74A
:101A60002FFF001BB0F57A7F01D9032038BD114844
:101A7000406800F48030B0F5803FF0D101200C497F
:101A80004864FFF71DFF044607E0FFF719FF001B3E
:101A9000B0F57A7F01D90320E8E70648406800F4F2
:101AA0000030B0F5003FF0D10020DFE740380240C1
:101AB00000000E420070004070B504460D460CB99F
:101AC000012070BD5848006800F00F00A84209D2FC
:101AD00055490D700846006800F00F00A84201D07B
:101AE0000120EEE7207800F0020002281DD12078C6
:101AF00000F00400042805D14C48006840F4E05090
:101B00004A490860207800F00800082805D14748B5
:101B1000006840F46040454908604448006820F08F
:101B2000F000A168084341490860207800F00100F6
:101B3000A8B36068012807D13C4808380068C0F3A2
:101B40004040B8B90120BCE76068022802D0606854
:101B5000032807D1354808380068C0F3406048B909
:101B60000120AEE7314808380068C0F3400008B9EA
:101B70000120A6E72D48006820F0030061680843B3
:101B80002A490860FFF79CFE064609E0FFF798FE29
:101B9000801B41F28831884202D9032091E707E097
:101BA0002248006800F00C006168B0EB810FEDD1B5
:101BB0001D48006800F00F00A84209D91A490D70AD
:101BC0000846006800F00F00A84201D0012078E725
:101BD000207800F00400042807D11448006820F49D
:101BE000E050E168084311490860207800F00800DF
:101BF000082808D10D48006820F46040216940EAB7
:101C0000C1000A49086000F03DF808490968C1F3BD
:101C10000311074A515CC840064908600F20FFF7CE
:101C20007FFE00204DE70000003C024008380240E3
:101C30006C17010800000020014800687047000090
:101C40000000002000B5FFF7F7FF04490968C1F361
:101C50008221034A515CC84000BD000008380240A0
:101C60007C17010800B5FFF7E7FF04490968C1F3D5
:101C70004231034A515CC84000BD000008380240B0
:101C80007C1701082DE9F047002400250026A14615
:101C90002548006800F00C0020B1042805D0082871
:101CA0003AD105E0DFF8849039E0DFF8849036E03F
:101CB0001D48001F006800F03F041B48001F00681B
:101CC00000F4800078B11A481749091F0968C1F368
:101CD0008811A0FB01700146224600233846FEF71A
:101CE000DFFA05460EE011480F49091F0968C1F3E4
:101CF0008811A0FB01700146224600233846FEF7FA
:101D0000CFFA05460848001F0068C0F30140401C98
:101D10004600B5FBF6F902E0DFF8109000BF00BF07
:101D20004846BDE8F0870000083802400024F4006F
:101D300040787D01F8B504460CB90120F8BD207843
:101D400000F00100002874D0F948006800F00C0091
:101D500004280DD0F648006800F00C00082813D1C4
:101D6000F348001F006800F48000B0F5800F0BD12D
:101D7000EF4808380068C0F34040002859D0606838
:101D8000002856D10120D9E700BF6068B0F5803F38
:101D900008D1E7480838006840F48030E449083941
:101DA00008601EE06068B0F5A02F0DD1E04808384B
:101DB000006840F48020DE49083908600846006861
:101DC00040F4803008600CE0D9480838006820F4FE
:101DD0008030D749083908600846006820F4802020
:101DE000086000BF606890B1FFF76AFD054606E035
:101DF000FFF766FD401B642801D903209EE7CC480D
:101E000008380068C0F340400028F1D011E0FFF727
:101E100057FD054606E0FFF753FD401B642801D936
:101E200003208BE7C24808380068C0F34040002810
:101E3000F1D1207800F0020002285FD1BC48006890
:101E400000F00C0058B1BA48006800F00C000828F7
:101E50001CD1B748001F006800F48000B0B9B44836
:101E600008380068C0F3400020B1E068012801D0C4
:101E7000012063E7AE480838006820F0F8002169C7
:101E800040EAC100AA490839086037E0E06800B3B9
:101E90000120A8490860FFF713FD054606E0FFF79B
:101EA0000FFD401B022801D9032047E7A04808384E
:101EB0000068C0F340000028F1D09D480838006851
:101EC00020F0F800216940EAC1009949083908600A
:101ED00014E0002097490860FFF7F2FC054606E091
:101EE000FFF7EEFC401B022801D9032026E79048AB
:101EF00008380068C0F340000028F1D1207800F0D5
:101F0000080008282CD16069A8B101208A4908601E
:101F1000FFF7D6FC054606E0FFF7D2FC401B02287F
:101F200001D903200AE782486C300068C0F3400002
:101F30000028F1D014E000207F490860FFF7C0FCC2
:101F4000054606E0FFF7BCFC401B022801D9032030
:101F5000F4E677486C300068C0F340000028F1D107
:101F6000207800F00400042870D100267048383032
:101F7000006800F0805090B900BF002000906C48CD
:101F80003830006840F080506949383108600846B0
:101F9000006800F08050009000BF00BF0126674835
:101FA000006800F48070B0B96448006840F4807044
:101FB00062490860FFF784FC054606E0FFF780FCF5
:101FC000401B022801D90320B8E65C48006800F4F1
:101FD00080700028F2D000BFA068012808D15448C2
:101FE0006830006840F001005149683108601DE028
:101FF000A06805280DD14E486830006840F0040004
:102000004B49683108600846006840F001000860EC
:102010000CE047486830006820F00100444968310E
:1020200008600846006820F00400086000BFA0684F
:10203000A8B1FFF745FC054609E0FFF741FC401B4E
:1020400041F28831884202D9032077E626E03848F9
:1020500068300068C0F340000028EED013E0FFF7BE
:102060002FFC054608E0FFF72BFC401B41F28831AE
:10207000884201D9032061E62D4868300068C0F32A
:1020800040000028EFD1012E07D1294838300068E0
:1020900020F0805026493831086000BFA069B8B3ED
:1020A0002348006800F00C0008285ED0A0690228D0
:1020B00046D100201F490866FFF702FC054606E0EE
:1020C000FFF7FEFB401B022801D9032036E6184823
:1020D00008380068C0F340600028F1D1D4E9070156
:1020E0000843616A40EA81110122A06AC2EB5000F4
:1020F00041EA00412C20005D41EA00600C49091FC3
:10210000086001200B490866FFF7DAFB054607E087
:102110002DE0FFF7D5FB401B022801D903200DE677
:10212000034808380068C0F340600028F1D01EE082
:102130000838024000004742800E474200700040CD
:1021400000200C490866FFF7BBFB054606E0FFF7D9
:10215000B7FB401B022801D90320EFE506480068C1
:10216000C0F340600028F2D101E00120E6E5002044
:10217000E4E50000000047420038024070B5044624
:102180002546681EB0F1807F01D301200FE0681E54
:102190004FF0E02148610F214FF0FF3000F06CF963
:1021A00000204FF0E021886107200861002070BD09
:1021B00010B504460CB9012010BDA06900B100E0C3
:1021C00000BF94F8390028B9002084F83800204670
:1021D00000F028F8242084F839002068C06820F432
:1021E00000502168C860204600F072FA206800693B
:1021F00020F49040216808612068406920F02A009E
:10220000216848612068C06840F400502168C860B7
:102210000020E063202084F8390084F83A00002090
:10222000CAE7000010B586B0044600BF0020009049
:102230002748006840F010002549086008460068FB
:1022400000F01000009000BF00BF00BF0020009011
:102250001F481438006840F001001D491439086017
:102260000846006800F00100009000BF00BF00BFFA
:10227000002000900846006840F001000860084611
:10228000006800F00100009000BF00BF48150190F9
:102290000220029001200390032004900720059063
:1022A00001A90C48FFF7F8F94FF48060019007206E
:1022B000059001A90748FFF7EFF901220021252029
:1022C000FFF762FB2520FFF752FB06B010BD0000B0
:1022D00044380240000002402DE9F84304460D4610
:1022E00016461F464FF0000994F8390020285CD1AB
:1022F00005B116B90120BDE8F88300BF94F8380095
:10230000012801D10220F6E7012084F8380000BF3F
:102310000020E063212084F83900FFF7D1FA8146DC
:10232000A684E6842BE0E08C401EE084A068B0F533
:10233000805F16D14B46002280212046009700F096
:102340007BFB08B10320D6E7A846B8F80000C0F32D
:10235000080021684860206908B9AD1C0FE06D1CB9
:102360000DE04B46002280212046009700F064FBE0
:1023700008B10320BFE715F8010B21684860E08C25
:102380000028D0D14B46002240212046009700F083
:1023900053FB08B10320AEE7202084F8390000BFCA
:1023A000002084F8380000BFA5E70220A3E7000062
:1023B00000B587B000BF002001902748006840F0BA
:1023C0008000254908600846006800F08000019000
:1023D00000BF00BF00BF002001900846006840F029
:1023E000800008600846006800F08000019000BF8F
:1023F00000BF00BF002001900846006840F0800048
:1024000008600846006800F08000019000BF00BF2F
:10241000081502900120039004900320059002A962
:102420000E48FFF739F94FF40060029002A90B48FB
:10243000FFF732F94FF48050029002A90748FFF7E6
:102440002BF94FF48060054918310860400008609E
:102450004000086007B000BD30380240001C024058
:1024600000BFFEE77047000002480068C0F302208A
:10247000704700000CED00E010B5002807DA0A07ED
:10248000140E054A00F00F031B1FD45403E00A0783
:10249000130E024A135410BD18ED00E000E400E0F2
:1024A00010B500BF5021EFF3118081F31188BFF305
:1024B0004F8FBFF36F8F00BF0446FFF707FA0EF090
:1024C00031FF012801D00EF081FB00BF84F3118899
:1024D00000BF10BD00B593B000BF0020019025489B
:1024E000006840F08050234908600846006800F00A
:1024F0008050019000BF00BF00BF002001901E4827
:10250000006840F440401C4908600846006800F438
:102510004040019000BF00BF0120029000040390E2
:10252000022008904105099119210A914FF4B471D4
:102530000B9102210C9107210D9102A8FFF7FAFBE4
:1025400008B100BFFEE7FFF771FA0F200E900220DE
:102550000F90002010904FF4A05011904FF4805035
:10256000129005210EA8FFF7A7FA08B100BFFEE7F9
:1025700013B000BD403802400070004014480068AD
:1025800040F47000124908601248006840F00100F1
:102590001049086000200F49083108600D480068A4
:1025A0000D4908400B4908600C48091D0860081FC8
:1025B000006820F48020091F0860002005490C31C4
:1025C00008604FF0006002498039086070470000E1
:1025D00088ED00E000380240FFFFF6FE10300024D6
:1025E0000EB5002108460CF051FF1B481B4908603E
:1025F0001B481C4908601C481C4908601C481D49B0
:1026000000221A4BCDE900210290164A13491A48BC
:1026100005F028FE184805F0EDFF174890F829004E
:10262000C0F3800018B1144806F01CF802E012480C
:1026300005F0E6FF10484068000E00900E48406824
:10264000C0F307430C488088C0F307220A48017989
:102650000AA000F029FA0EBD0AC2020E04010020F1
:10266000FFFF8000080100200AC27FFE0C0100204D
:10267000B1F50008D53D00082CC20120B1BEB5D887
:102680004950B5D8D6B7CAC73A25642E25642E2539
:10269000642E25640A0A000009E00548006880F4F9
:1026A0008060034908604FF47A700DF0BBFFF4E7D7
:1026B000141C024009E00548006880F400600349EA
:1026C00008604FF4FA600DF0ADFFF4E7141C02400F
:1026D0002DE9F041044600252068056925F44055A0
:1026E000E0680543206805612068C56849F20C6010
:1026F00085432169A068084361690843E16908438B
:1027000005432068C5602068456925F44075A069C7
:10271000054320684561E069B0F5004F7ED1C449AA
:102720002068884203D0C349206888425DD1FFF702
:1027300099FA00EBC00101EB001061684900B0FBA1
:10274000F1F06421B0FBF1F00601FFF78BFA00EB2A
:10275000C00101EB001061684900B0FBF1F7FFF721
:1027600081FA00EBC00101EB001061684900B0FB89
:10277000F1F06421B0FBF1F000EBC00101EB0010BF
:10278000A7EB8000322101EBC0006421B0FBF1F027
:1027900000F0F80006EB4006FFF764FA00EBC0011A
:1027A00001EB001061684900B0FBF1F7FFF75AFA3E
:1027B00000EBC00101EB001061684900B0FBF1F0D3
:1027C0006421B0FBF1F000EBC00101EB0010A7EBBE
:1027D0008000322101EBC0006421B0FBF1F000F079
:1027E000070030442168886020E1FFF72BFA00EBF6
:1027F000C00101EB001061684900B0FBF1F06421F9
:10280000B0FBF1F00601FFF71DFA00EBC00101EB90
:10281000001061684900B0FBF1F700E045E0FFF708
:1028200011FA00EBC00101EB001061684900B0FB38
:10283000F1F06421B0FBF1F000EBC00101EB0010FE
:10284000A7EB8000322101EBC0006421B0FBF1F066
:1028500000F0F80006EB4006FFF7F4F900EBC001CA
:1028600001EB001061684900B0FBF1F7FFF7EAF9EE
:1028700000EBC00101EB001061684900B0FBF1F012
:102880006421B0FBF1F000EBC00101EB0010A7EBFD
:102890008000322101EBC0006421B0FBF1F000F0B8
:1028A0000700304421688860C0E0614920688842A0
:1028B00003D06049206888425CD1FFF7D3F900EB70
:1028C000C00101EB001061688900B0FBF1F6FFF771
:1028D000C9F900EBC00101EB001061688900B0FB91
:1028E000F1F06421B0FBF1F000EBC00101EB00104E
:1028F000A6EB8000322101EB00106421B0FBF1F067
:1029000000F0F006FFF7AEF900EBC00101EB00109C
:1029100061688900B0FBF1F06421B0FBF1F006EBD7
:102920000016FFF79FF900EBC00101EB0010616892
:102930008900B0FBF1F7FFF795F900EBC00101EB5F
:10294000001061688900B0FBF1F06421B0FBF1F088
:1029500000EBC00101EB0010A7EB8000322101EB7E
:1029600000106421B0FBF1F000F00F00304421684A
:1029700088605BE0FFF766F900EBC00101EB001037
:1029800061688900B0FBF1F6FFF75CF900EBC0016C
:1029900001EB001061688900B0FBF1F06421B0FB2D
:1029A000F1F000EBC00101EB0010A6EB800032213A
:1029B00001EB00106421B0FBF1F000F0F006FFF72E
:1029C00041F900EBC00101EB001061688900B0FB28
:1029D000F1F06421B0FBF1F006EB0016FFF732F9DD
:1029E00000EBC00101EB001061688900B0FBF1F75A
:1029F000FFF728F900EBC00101EB001061688900C6
:102A0000B0FBF1F06421B0FBF1F000EBC00101EB91
:102A10000010A7EB8000322101EB00106421B0FB15
:102A2000F1F000F00F00304421688860BDE8F081CB
:102A300000100140001401402DE9F04104460D460C
:102A400017469846069E21E0701CF8B12EB1FEF79D
:102A500037FFA0EB0800B04218D92068C06820F406
:102A6000D0702168C8602068406920F001002168AA
:102A70004861202084F8390084F83A0000BF002023
:102A800084F8380000BF0320BDE8F08120680068AA
:102A90002840A84201D1012000E00020B842D3D054
:102AA0000020F1E700BFFEE70FB4054B10B503A906
:102AB000044A029800F018F810BC5DF814FB0000FE
:102AC000D13F00087C01002002E008C8121F08C1A5
:102AD000002AFAD170477047002001E001C1121F9F
:102AE000002AFBD1704700002DE9FF4F8DB09B46B7
:102AF0000F460446002606E025280BD05A460F99BB
:102B00009047641C761C20780028F5D111B030461F
:102B1000BDE8F08F0025A8460122984900E0054352
:102B200014F8013F203B02FA03F00842F7D1207865
:102B30002E2817D114F8010F45F004052A280ED0CD
:102B40006FF02F022078A0F1300109290AD808EB94
:102B5000880102EB410100EB0108641CF2E757F821
:102B6000048B641C20786C280DD004DC4C2812D017
:102B70006A2811D104E074280DD07A280CD10AE01B
:102B800045F4001507E0617845F48015814202D1D3
:102B9000641C05F58015641C2078692844D008DC85
:102BA0000028B3D0582867D063280FD0642808D1F4
:102BB0003AE0702865D0732812D075285AD078284A
:102BC0005AD05A460F999047761CD5E017F8040B57
:102BD0008DF8000000208DF80100E946012003E097
:102BE00057F8049B4FF0FF3069074FF0000501D400
:102BF0000AE06D1C45450DDA8542FADB19F805102F
:102C00000029F6D106E06D1C8542FCDB19F80510A1
:102C10000029F8D12E4404E019F8010B5A460F9907
:102C200090476D1EF8D2A7E00A200021CDE90801E7
:102C3000C5F3025002280CD001CFC117021E71F15A
:102C400000020CDA0023D0EB030063EB01012D221C
:102C500008E0FF1D27F00707F7E80201EEE72A0565
:102C600004D52B228DF8282001223CE0EA073AD037
:102C70002022F7E70A2000E010200021CDE908011A
:102C800007E01020002145F00405CDE908014FF0D0
:102C90000808C5F30250022810D001CF00214FF0E0
:102CA000000A2A0720D52278702A0DD0DDE908C352
:102CB0008CF0100C5CEA030C0CD015E0FF1D27F023
:102CC0000707F7E80201EAE740228DF828204FF0D5
:102CD000010A0CE050EA010306D030238DF82830B9
:102CE0008DF82920022292462278582A04D024A264
:102CF0000DF120090B9209E026A2F9E7DDE908238E
:102D0000FDF7CEFA0B9B9B5C09F8013D50EA0102EE
:102D1000F4D1ADEB090020300890680701D44FF0E2
:102D200001080899884503DD0898A8EB000000E039
:102D300000208046002506E00AA85A46405D0F990B
:102D400090476D1C761C5545F6DB04E030205A4652
:102D50000F999047761CB8F10001A8F10108F5DC45
:102D600005E019F8010B5A460F999047761C08990F
:102D7000481E08900029F4DC641CC4E60928010000
:102D800030313233343536373839616263646566E1
:102D900000000000303132333435363738394142A3
:102DA00043444546000000002DE9F04105460E462B
:102DB000002440E007F075F90746214800EB0410B5
:102DC0000068002833D11E4800EB04100560384627
:102DD00007F090F900201A4901EB0411486000BF88
:102DE000174800EB0410807B20B100BF15A0FFF74F
:102DF0005BFE00BF00BF0020114901EB04110881F8
:102E0000287800F0F000102804D10EB1012002E073
:102E1000002000E001200A4901EB04114881002054
:102E2000074901EB041188812046BDE8F08138464E
:102E300007F060F9641C042CBCDB4FF0FF30F4E7B2
:102E40004C630020736F636B6574735B695D2E73F5
:102E5000656C6563745F77616974696E67203D3D79
:102E6000203000002DE9F04104460D4600BF05F07A
:102E7000030020B100BF09A0FFF716FE00BF00BF8E
:102E80002E4607F00EF90746A06800683060A0687B
:102E90000660384607F02EF9BDE8F0816D656D706B
:102EA0005F667265653A206D656D2070726F706542
:102EB000726C7920616C69676E65640070B5054657
:102EC00007F0EFF80646A86804688CB12068A96886
:102ED000086000BF04F0030020B100BF07A0FFF7A7
:102EE000E3FD00BF00BF304607F004F9204670BD87
:102EF000304607F0FFF80020F9E700006D656D70BF
:102F00005F6D616C6C6F633A206D656D70207072DF
:102F10006F7065726C7920616C69676E6564000022
:102F20002DE9F05F07460E463C4600BF24B900BFBE
:102F300043A0FFF7B9FD00BF00BF07F0B2F883461A
:102F4000002060602672207F40F0010020776578C5
:102F500000206070584607F0CDF8606A20B100226A
:102F600004212046636A9847606A20B10022114616
:102F70002046636A9847606A20B1002202212046F9
:102F8000636A9847304603F0DBFA824604F110008A
:102F900007F021F920B1514604F1100007F00CF9B7
:102FA00004F1140007F017F920B1514604F11400A0
:102FB00007F002F9012D03D0042D01D0032D34D1E7
:102FC000207FC0F3800900BF00BF207F00F0FB001E
:102FD000207700BF00BFB9F1000F25D100BF206AE4
:102FE00020B900BF1AA0FFF75FFD00BF00BF042D8E
:102FF00003D10020216A087101E0206A0671206A6D
:10300000006800F10C0800BF404607F07FF920B9C6
:1030100000BF16A0FFF748FD00BF00BF00202062E0
:10302000404607F055F900BF08E000BF206A20B114
:1030300000BF15A0FFF738FD00BF00BFBDE8F09F3F
:10304000636F6E6E20213D204E554C4C00000000F9
:10305000636F6E6E2D3E63757272656E745F6D7315
:103060006720213D204E554C4C000000696E617672
:103070006C6964206F705F636F6D706C65746564FC
:103080005F73656D00000000636F6E6E2D3E6375AB
:103090007272656E745F6D7367203D3D204E554CB6
:1030A0004C0000000146002902DC4842112801DBE7
:1030B0000520704702484A4250F82200F9E7000014
:1030C0008817010870B50546002411E004EB4400A0
:1030D000094901EBC000067D4EB104EB440001EB51
:1030E000C0008068A84202D1204600F043F9641C69
:1030F0000A2CEBDB70BD00008C6300202DE9FF5F24
:103100000646894617464FF00A0AD346D0460024A1
:103110000A200390002002900190009000BF6FE011
:1031200004EB44006C4901EBC000057DB8F10A0FC7
:1031300002D10DB9A04661E0002D5FD000BF012D86
:1031400006D0022D04DA00BF64A0FFF7ADFC00BF7B
:1031500000BFAEB104EB44015F4A02EBC10130682D
:10316000496888420CD13FB104EB4400114601EBA1
:10317000C0008068B84203D1204604B0BDE8F09F8B
:10318000012D28D104EB4400534951F8300080B19F
:1031900004EB440001EBC000418A029881422DDB20
:1031A000039404EB44004C4901EBC000408A0290B8
:1031B00024E004EB4400484901EBC000418A019837
:1031C00081421BDBA24604EB4400434901EBC000F3
:1031D000408A019012E0022D10DB04EB44003E49CE
:1031E00001EBC000418A0098814207DBA34604EB53
:1031F0004400394901EBC000408A0090601C04B2D1
:103200000A2C8DDB09F0020028B9B8F10A0F05D1AC
:1032100009F0010010B94FF0FF30AEE7B8F10A0F26
:1032200001DA444629E0BBF10A0F0DDA5C4600BF23
:1032300004EB4400284951F8300020B100BF37A00A
:10324000FFF732FC00BF0CE0BAF10A0F01DA544676
:1032500007E003980A2801DA039C02E04FF0FF30F0
:103260008BE700BF0A2C04DB00BF32A0FFF71CFC79
:1032700000BF00BF204600F07DF800BF0A2C04DB31
:1032800000BF2CA0FFF710FC00BF00BF00BF04EB85
:103290004400114901EBC000007D20B100BF2AA00D
:1032A000FFF702FC00BF00BF36B104EB44010A4A3D
:1032B00002EBC10130684860002004EB4401064A7B
:1032C00002EBC101488204EB4400114601EBC0004F
:1032D0008760204651E700008C630020737461749E
:1032E00065203D3D204554484152505F5354415460
:1032F000455F50454E44494E47207C7C20737461A5
:103300007465203E3D204554484152505F5354411E
:1033100054455F535441424C450000006172705F58
:103320007461626C655B695D2E71203D3D204E5578
:103330004C4C000069203C204152505F5441424CAB
:10334000455F53495A4500006172705F7461626C59
:10335000655B695D2E7374617465203D3D20455445
:10336000484152505F53544154455F454D50545964
:103370000000000010B5044604EB44000C4951F86D
:10338000300060B104EB4401094A52F8310005F005
:1033900031FD002004EB4401054A42F831000020D1
:1033A00004EB4401024A02EBC101087510BD0000A4
:1033B0008C630020F0B587B007460D4600BF35B9D5
:1033C00000BF2CA0FFF770FB00BF07B0F0BD00BF2F
:1033D0007C682088B0F5807F08D12079062805D147
:1033E0006079042802D16088082803D0384605F0A7
:1033F00001FDEAE7D4F80E000690A0690590686820
:1034000008B9002607E005986968884201D10120C3
:1034100000E0002006460EB1012000E00220034635
:1034200004F1080206A9284600F0AAFBE088B0F5DE
:10343000807F03D0B0F5007F15D113E086B1022262
:1034400006AB04F10800291DCDE90232CDE90010D8
:1034500005F1220302461E31284600F079FA00E009
:1034600000BF01E000E000BF00BF384605F0C2FC2D
:1034700000BFAAE76E6574696620213D204E554C59
:103480004C0000002DE9FE4304460F461546A946B0
:1034900000BF24B900BF57A0FFF706FB00BF00BF65
:1034A00000BF27B900BF57A0FFF7FEFA00BF00BF5B
:1034B00000BF25B900BF56A0FFF7F6FA00BF00BF56
:1034C0002146286800F0A4FF10B1DFF8548186E09F
:1034D000287800F0F000E02816D101208DF80400D3
:1034E00000208DF805005E208DF80600687800F059
:1034F0007F008DF80700A8788DF80800E8788DF82F
:1035000009000DF1040869E02868A1680840D4E9C1
:103510000112114088420ED0288880B24FF6A9616E
:10352000884208D0E06810B104F10C0903E06FF0A4
:103530000300BDE8FE833B48007800EB40003A49B9
:1035400001EBC000007D02281BDB3648007800EB51
:10355000400001EBC0008068A04212D131490978D7
:1035600001EB4101304A02EBC101D9F80000496882
:10357000884206D12B4802783946204600F056F89A
:10358000D7E7002622E006EB4600274901EBC00002
:10359000007D022818DB06EB460001EBC0008068C6
:1035A000A04211D106EB46011F4A02EBC101D9F836
:1035B00000004968884207D11A48067032463946E9
:1035C000204600F033F8B4E7701CC6B20A2EDADBEE
:1035D0003A464946204600F0A9F8AAE700BF4FF452
:1035E0000060434604F1220239460090204600F074
:1035F000A3FB9EE76E6574696620213D204E554C05
:103600004C0000007120213D204E554C4C00000024
:1036100069706164647220213D204E554C4C00005D
:1036200010190108300000208C630020F8B5054611
:103630000E46144600BF04EB44002F4901EBC000C6
:10364000007D022804DA00BF2CA0FFF72DFA00BF8E
:1036500000BF04EB4400284901EBC000007D0228B4
:1036600039D104EB440001EBC000408AB0F58E7FF5
:1036700011DD04EB44000A4602EBC000011D2846A0
:1036800000F0EEF938BB032004EB44011A4A02EBC8
:10369000C10108751FE004EB4400174901EBC000AD
:1036A000408AB0F5877F16DB04EB44000B4603EB42
:1036B000C00000F10C0204EB440003EBC000011D4C
:1036C000284600F0D9F930B9032004EB44010A4A36
:1036D00002EBC10108754FF40060009004EB440058
:1036E000054901EBC00000F10C0305F1220231464F
:1036F000284600F021FBF8BD8C6300206172705FEA
:103700007461626C655B6172705F6964785D2E7371
:1037100074617465203E3D204554484152505F53CA
:10372000544154455F535441424C45002DE9FE4FEE
:1037300081460F46164609F1220A4FF0FF300290EB
:10374000002001904946386800F062FE38B93878A8
:1037500000F0F000E02802D00FB1386818B96FF01F
:103760000F00BDE8FE8F4A4601213846FFF7C6FC30
:103770008046B8F1000F02DA4FFA88F0F1E700BF97
:10378000B8F17F0F04D300BF57A0FFF78DF900BF3A
:1037900000BF08F0FF0404EB4400574901EBC000F0
:1037A000007D70B90120019004EB4401524A02EB04
:1037B000C101087504EB4400114601EBC000C0F8DC
:1037C000089000BF04EB44004B4901EBC000007DB2
:1037D00001280BD004EB440001EBC000007D02285F
:1037E00004DA00BF45A0FFF75FF900BF00BF0198F2
:1037F00000B93EB93946484600F032F902900EB998
:103800000298AEE700BF26B900BF46A0FFF74CF90B
:1038100000BF00BF04EB4400374901EBC000007D4E
:10382000022811DB424804704FF40060009004EB62
:10383000440001EBC00000F10C03524631464846FB
:1038400000F07AFA02904CE004EB44002A4901EBC4
:10385000C000007D012844D14FF0000B354614E034
:1038600000BF68892989884206D1286820B100BF35
:1038700030A0FFF719F900BF00BF287B00F040001F
:1038800010B14FF0010B02E02D68002DE8D100BF10
:10389000BBF1000F07D032464FF420710E2005F027
:1038A00047F9054603E03546284605F0F9FBA5B182
:1038B00004EB4400104951F8300030B104EB4401EE
:1038C0000D4A52F8310005F095FA04EB44000A491C
:1038D00041F830500020029002E04FF0FF3002909B
:1038E00000BF02983DE7000074797065206F76652F
:1038F00072666C6F770000008C6300206172705FED
:103900007461626C655B695D2E7374617465203DE2
:103910003D2050454E44494E47206F72205354413C
:10392000424C45007120213D204E554C4C0000007A
:10393000300000206E6F207061636B6574207175BC
:103940006575657320616C6C6F776564210000009C
:103950002DE9FC5F06460F4690469946DDE90CAB23
:103960000020019000BF26B900BF2BA0FFF79CF8F4
:1039700000BF00BF4FF420721C210E2004F0ECFEAB
:1039800005461DB94FF0FF30BDE8FC9F00BF6889B8
:103990001C2804DA00BF24A0FFF786F800BF00BF90
:1039A0006C680F9801F0D1FFE08000BF96F8280006
:1039B000062804D000BF2948FFF776F800BF00BFF3
:1039C000D9F80000A060B9F80400A081DBF800007D
:1039D000C4F81200BBF80400E082DAF80000C4F872
:1039E0000E000E980068A0614FF4807020800820BF
:1039F0006080062020710420607140F60600434676
:103A00003A4629460090304600F096F9284605F0DF
:103A1000F1F900250198B7E76E6574696620213DCC
:103A2000204E554C4C000000636865636B20746841
:103A300061742066697273742070627566206361B8
:103A40006E20686F6C642073747275637420657483
:103A5000686172705F686472000000001C190108E0
:103A600070B504460D46034A2946204600F004F886
:103A700070BD0000101901087FB504460D461646BA
:103A80000121074A201D04F122038DE8250003913E
:103A9000324619462046FFF75BFF04B070BD0000B8
:103AA0001619010870B5002464E004EB44003349A2
:103AB00001EBC000057D002D5BD004EB440001EB61
:103AC000C000408A401C04EB44012C4A02EBC101B7
:103AD000488204EB4400114601EBC000408AB0F577
:103AE000967F0DDA04EB440001EBC000007D012855
:103AF0000AD104EB440001EBC000408A052803DB37
:103B00002046FFF737FC34E004EB44001B4901EB8F
:103B1000C000007D032807D1042004EB4401174AAC
:103B200002EBC101087524E004EB4400134901EBEA
:103B3000C000007D042807D1022004EB44010F4A95
:103B400002EBC101087514E004EB44000B4901EBE2
:103B5000C000007D01280CD104EB44020B4603EBAE
:103B6000C202111D04EB440203EBC2029068FFF78E
:103B700077FF641C0A2C98DB70BD00008C6300206A
:103B80002DE9F84305460E461746984600BF95F8BE
:103B90002800062804D000BF2CA0FEF785FF00BF38
:103BA00000BF5EB1306848B12946306800F030FC93
:103BB00020B9307800F0F000E02803D16FF00F005A
:103BC000BDE8F8832A4641463046FFF797FA044697
:103BD000002C01DA60B2F3E7022004EB4401244A2E
:103BE00002EBC101087504EB4400114601EBC00073
:103BF000856004EB440001EBC0003968C160B988FE
:103C00000182002004EB440102EBC101488204EB75
:103C10004400114651F83000B0B104EB440051F8B3
:103C20003090002004EB440142F831004FF4006072
:103C30003B4605F1220249460090284600F07CF8F8
:103C4000484605F0D7F800BF0020B9E76E657469F3
:103C5000662D3E6877616464725F6C656E203D3DE1
:103C6000204554485F4857414444525F4C454E00FC
:103C70008C6300202DE9F04104460E464FF00E08FB
:103C800060890E2800DC4FE0E07B18B996F82C0024
:103C9000401CE0736568AF89287800F00100B0B17E
:103CA0002878012809D1687888B9A8785E280ED1CB
:103CB000607B40F01000607309E006221D49284631
:103CC000FCF751FB18B9607B40F008006073082FC7
:103CD00003D0B7F5C16F22D110E096F8290000F0AB
:103CE000080000B920E04146204605F0FDF900B18A
:103CF0001AE03146204600F0DBFC11E096F829007E
:103D000000F0080000B90FE04146204605F0ECF94C
:103D100000B109E031462046FFF74CFB00E003E02C
:103D200000BF0020BDE8F081204605F063F80020C8
:103D3000F8E70000101901082DE9F04705460E4686
:103D400017469846DDF82090484601F0FEFD824671
:103D50000E21304604F0B2FC00B11EE07468A4F8F5
:103D60000CA0D8F800002060B8F80400A0803868E3
:103D7000C4F80600B888608100BF95F828000628BE
:103D800004D000BF06A0FEF78FFE00BF00BF314683
:103D90002846AA699047BDE8F0876FF00100FAE76E
:103DA0006E657469662D3E6877616464725F6C65E8
:103DB0006E206D757374206265203620666F7220E8
:103DC00065746865726E65745F6F75747075742163
:103DD0000000000070B50446042003F0B3F9054666
:103DE00055B900BF12A0FEF75FFE14A0FEF75CFEFF
:103DF00000BF4FF0FF3070BD00BF24B900BF17A057
:103E0000FEF752FE00BF00BFE561732084F82A0070
:103E100074212B200155154860611548A06120468A
:103E200001F0AAFA04F1220028600020E3E7000074
:103E30000D0A5B4552525D203E3E20006574686568
:103E4000726E657469665F696E69743A206F757425
:103E5000206F66206D656D6F72790A006E657469FA
:103E60006620213D204E554C4C0000008534000852
:103E700079560008054600262C461EE000235A1EEF
:103E800019460E4800680CF041FF012815D10CF0CE
:103E90005BFA204601F036FB06460CF097FA66B155
:103EA0000CF052FA214630462269904718B130464C
:103EB00004F0A0FF00260CF089FADFE7E8000020FC
:103EC0002DE9F84F05460E46DDB1AF69002F12DA35
:103ED00006F0E7F88146A869002808DA16B9A8694B
:103EE000401EA861484606F005F9BDE8F88FAF69A5
:103EF000484606F0FFF8384600F0D8F804460CB9FA
:103F0000F3E7F2E74FF0010806F0CBF88146052E03
:103F100024D2DFE806F0030E151C20002089401C87
:103F200000B22081B4F90800012801DD4FF000083B
:103F30001CE02089401E00B220814FF0000815E0EF
:103F4000608908B14FF00008012060810EE0002078
:103F5000608180460AE00120A08107E000BF00BF29
:103F600017A0FEF7A1FD00BF00BF00BF00BFA07BF0
:103F700000B3B8F1000F1DD0B4F90800002801DD2E
:103F8000012000E000208246608908B1012000E0A5
:103F900000208346A08908B1012000E000200090A5
:103FA000484606F0A7F85A4651463846009B05F0A9
:103FB00057FF02E0484606F09DF800BF95E7000075
:103FC000756E6B6E6F776E206576656E740000009F
:103FD00013B50C464FF47A73012269460248FEF786
:103FE0007BF900981CBD00008401002010B500285A
:103FF00021D0114B0022001F196803E0814203D831
:104000000A4649680029F9D152B11368841A9C42C2
:1040100004D1006818441060104602E0506000E0CF
:10402000186039B102680B1A934203D10B681A4425
:1040300002604968416010BD800100202DE9FC410B
:1040400005460C4606F02DF807466B4601AA2146A8
:10405000284600F01FF80646384606F04BF826B111
:104060006A462046019900F002F8BDE8FC8170B56F
:1040700006460D461446206838B11EB1206804F08B
:10408000B9FE02E0206803F0E5FA15B1284603F016
:104090001BFC70BD10B504466068186000206060AD
:1040A0002068106000202060012010BD70B505461A
:1040B00028460BF065FB044634B900BF09200349CC
:1040C000086000BF002070BD2046FCE7F80000201B
:1040D00070B505460C4622460321284600F00AF931
:1040E00070BD00002DE9FF5F05468A46654880687F
:1040F0000390039800780007860E142E00DAB8E0CB
:104100006889042800D2B4E06868047814B1082CE7
:1041100072D100E0A8E0DFF86C9109F11409594868
:10412000007D00F0F000E02800D1A6E0554A1168BB
:10413000506900F06DF900B19FE02889082800D28D
:1041400097E0284600F039F920B1284604F052FEE5
:10415000BDE8FF9F06F10E01284604F0AFFA0028E3
:104160003CD0288930441FFA80FB2889584500DD5F
:1041700083E04FF4207259460E2004F0EDFA074612
:1041800007B97AE0798906F10800814203D23846FE
:1041900004F030FE71E0324678680399FCF7B1F81C
:1041A0003146384604F0A0FF50B100BF00BF36A032
:1041B000FEF77AFC00BF00BF384604F01BFE5CE04F
:1041C0002946384604F0DCFC18B1384604F012FEEB
:1041D00053E0284604F00EFE3D460EE006F10E01C7
:1041E000284604F081FF40B100BF00BF34A0FEF7B5
:1041F0005BFC00BF00BF40E024E0D5F804803146FE
:10420000284604F05BFAE0B96F68D9F80000F8605E
:104210001C4800693861002088F80000A8F80200F6
:10422000FF2038720020788101200021FF230A46F8
:10423000CDE9010A00914946284600F021FB83465A
:1042400000BF11E0032C0ED00B2C0CD00C2C0AD08C
:10425000042C08D0052C06D00D2C04D00E2C02D036
:10426000112C00D000BF00BF00BF284604F0C2FDE3
:104270006EE7284604F0BEFD6AE7284604F0BAFD62
:1042800000BF65E78C64002069636D705F696E70C4
:1042900075743A206D6F76696E6720722D3E70617D
:1042A000796C6F616420746F2069636D702068653C
:1042B00061646572206661696C65640A00000000D3
:1042C00069636D705F696E7075743A20726573749E
:1042D0006F72696E67206F726967696E616C2070BA
:1042E0002D3E7061796C6F6164206661696C6564F4
:1042F0000A0000002DE9FF470746884691464FF423
:1043000020722421222004F027FA05460DB9BDE8C9
:10431000FF8700BF6889242804D200BF17A0FEF7DA
:10432000C3FB00BF00BFD7F804A06C6884F800800E
:1043300084F801900020A080E08079686A6802F12A
:1043400008001C22FBF7DDFFDAF80C00039003A83D
:1043500000F08AFC06465EB100206080012000214A
:10436000FF2303AACDE901060091284600F088FA50
:10437000284604F03FFD00BFC9E70000636865639D
:104380006B20746861742066697273742070627542
:10439000662063616E20686F6C642069636D7020B5
:1043A0006D6573736167650070B505460C462246FE
:1043B0000B212846FFF79EFF70BDF0B5064600278B
:1043C0000024354619E06989686802F027FD044435
:1043D000A0B200EB1444688900EBD0714910A0EB47
:1043E000410149B10FB9012000E000200746E0B2C9
:1043F000C4F3072141EA00242D68002DE3D127B141
:10440000E0B2C4F3072141EA0024E04380B2F0BDEA
:1044100018B502460092D04300B10AB9012018BD78
:1044200091F8290000F0020008B90020F7E7486879
:10443000904201D10020F2E700988B681840D1E942
:1044400001342340984208D1886822EA00008C6831
:10445000E343984201D10120E1E70020DFE70000BB
:104460002DE9F74F8CB004460F464FF00008398C09
:10447000A1F11400C11700EB5171C1F3CF0A142050
:10448000059060680990DDF8249099F8000000F02C
:104490000F001421B1EB800F04D06FF005000FB0B6
:1044A000BDE8F08F00BF6089142807DA00BF6CA058
:1044B000FEF7FAFA00BF6FF00500F0E700BFB9F8A9
:1044C000060001F042FA04900498C0F30C00079033
:1044D000049800F400500390208914381FFA80FBE0
:1044E000B5E04FF6FF7000EACA00584501DD5846B6
:1044F00003E04FF6FF7000EACA0008904FF4207204
:1045000014210E2004F028F9054605B9A5E000BFE6
:104510006889142804DA00BF58A0FEF7C5FA00BF66
:1045200000BF142268680999FBF7EBFED5F80490E8
:1045300008980A9050E061890598081A80B20290A4
:1045400000BF61890598814204DA00BF53A0FEF7DD
:10455000ABFA00BF00BF02990A98884201DA0A98B4
:1045600000E002988046B8F1000F03D100200590CA
:10457000246831E000F020FC06461EB9284604F00D
:1045800039FC6AE061680598084433464122414697
:10459000CDE90008002004F01FFA0B900B9830B909
:1045A000304600F00FFC284604F024FC55E020467D
:1045B00004F076FD74613D48306128460B9904F0A3
:1045C00035FA0A98A0EB080080B20A900A9810B158
:1045D00000200590246800BF0A980028ABD10598F8
:1045E000404480B20590388C1438584501DB0120D6
:1045F00000E0002006900798C0F30C000490069895
:1046000008B1039818B1049840F40050049004983D
:1046100001F09BF9A9F806000899143188B201F05D
:1046200094F9A9F802000020A9F80A007B6929463C
:1046300038460E9A9847284604F0DCFB0898ABEB06
:1046400000001FFA80FB0798504480B20790BBF12E
:10465000000F7FF446AF002021E74FF0FF301EE748
:104660006970345F6672616728293A2070627566E6
:1046700020746F6F2073686F7274000074686973C0
:10468000206E656564732061207062756620696EB6
:10469000206F6E652070696563652100702D3E6C2A
:1046A000656E203E3D20706F666600002553000851
:1046B0002DE9F04707460E467D6828780421B1EBC6
:1046C000201F05D0384604F095FB0020BDE8F08798
:1046D000287800074FEA9068688801F036F981462B
:1046E0003989494503DD4946384604F061FC78893B
:1046F000404505DB3889484502DBB8F1140F04DA80
:10470000384604F077FB0020E0E728694D4948610E
:10471000E86808610846007D00F0F000E0280AD152
:1047200096F8290000F0010018B1706808B134460D
:104730001CE000241AE0304600F088F808B1344646
:1047400014E000243F48007D7F280FD03E480468D5
:1047500009E0B44200D105E0204600F077F800B14E
:1047600003E000BF2468002CF3D100BF354908697D
:104770003146FFF74DFE28B93248007C00F0F000CA
:10478000E02804D1384604F035FB00209EE724B928
:10479000384604F02FFB002098E7E8884FF63F7179
:1047A000084038B1384600F01FF907460FB900201D
:1047B0008CE77D68234804604660856028780007A0
:1047C000800E204988814146384604F08DFC687A85
:1047D00001280DD0062806D011280ED131463846C2
:1047E0000BF056F822E03146384606F007FD1DE092
:1047F00031463846FFF776FC18E0124948692146F1
:10480000FFF706FE70B90F48007D00F0F000E028C9
:1048100008D00FFA88F1384604F0A0FB0221384690
:10482000FFF756FC384604F0E5FA00BF00BF002051
:10483000044908604860886088810861486100BF59
:1048400044E700008C6400208000002010B504467E
:1048500094F8290000F0010070B1606860B1074869
:1048600040696168884205D0044948692146FFF7DC
:10487000CFFD08B1012010BD0020FCE78C640020B2
:104880002DE9FE4F07460C4615469846DDE90C9A81
:104890000E9EA34625B10CB1206808B906F1040BA1
:1048A00043462A4659463846CDE9009A029600F01A
:1048B00003F8BDE8FE8F00002DE9F84F05460F46CE
:1048C00090469A46DDF828B00C9E00BFA87B0128D0
:1048D00004D000BF33A0FEF7E7F800BF00BFB8F177
:1048E000000F42D04FF014091421284603F0E6FED1
:1048F00018B16FF00100BDE8F88F6C6800BF6889DF
:10490000142804D200BF2AA0FEF7CEF800BF00BFD3
:1049100084F808A00B986072D8F80000206148461F
:104920004FEAE97109EB9171C1F3870141F0400150
:10493000217084F801B0288901F007F86080002018
:10494000E0802748008801F000F8A0802448008813
:10495000401C234908801FB922480068E06001E03C
:104960003868E0600020608109E06889142802DA74
:104970006FF00100BFE76C6820690090E846308C5A
:1049800048B12889318C884205DD424631462846A7
:10499000FFF766FDAFE74246294630467369984700
:1049A000A9E70000702D3E726566203D3D20310074
:1049B000636865636B2074686174206669727374E0
:1049C00020706275662063616E20686F6C6420736E
:1049D00074727563742069705F686472000000000F
:1049E00032000020CC1701082DE9F14F84B0049863
:1049F0004568287800F00F001421B1EB800F00D03B
:104A000005E1E88800F0A1FFC0F30C004FF6FF714C
:104A100001EAC00A688800F098FF07462878000776
:104A2000810E02910299B94200DDF0E00298381A35
:104A300087B2049804F073F806467748018888190D
:104A40000A280ADD3146284600F00EFC20B17248E3
:104A5000008830440A2800DDD9E07048046811E07D
:104A60006069E968884209D1A0692969884205D14D
:104A7000A089A988884201D1012000E0002000B16E
:104A800002E02468002CEBD100BF34B9314628463F
:104A900000F012FB044694B9B9E0E88800F055FF35
:104AA000C0F30C0058B9E08900F04FFFC0F30C00D0
:104AB00028B11422294604F10800FBF722FCE888FB
:104AC000012121EA50100190019850B10AEB070131
:104AD00088B2504503DB4FF6EB71884200DD7CE085
:104AE00000BF2046019A049900F082F983460BF139
:104AF000010000B971E04848008830444649088008
:104B0000019840B10AEB070188B2A083A17F41F070
:104B10000101A17700BFBBF1010F5CD1A08B143064
:104B200080B2009060684068D0F800906068456886
:104B3000142204F108012846FBF7E3FB009800F07B
:104B400004FF68800020E8806881606804900DE0C0
:104B5000D9F8040003901421484604F0C5FA4946E8
:104B6000049803F063FF0398D0F80090B9F1000FA8
:104B7000EED12A480068844202D14FF000080EE0CE
:104B80002648D0F8008006E0D8F80000A04200D106
:104B900004E0D8F80080B8F1000FF5D100BF41461D
:104BA000204600F05FFA049803F0B9FF064600BF04
:104BB00019480088B04204DA00BF19A0FDF774FF5D
:104BC00000BF00BF14480088801B13490880049868
:104BD00005B0BDE8F08F0020FAE700BF24B900BFA0
:104BE00016A0FDF761FF00BF00BF606870B900BF8D
:104BF0000A480068844204D000BF13A0FDF754FFA8
:104C000000BF00BF0021204600F02CFA00BF04982E
:104C100004F0F0F80020DBE738000020340000202A
:104C200069705F72656173735F70627566636F75DB
:104C30006E74203E3D20636C656E000069707220CA
:104C4000213D204E554C4C006E6F74206669727386
:104C500074616C74686F756768206A757374206519
:104C60006E7175657565640010B50246214801686E
:104C700021E091F8290000F00100D8B191F8290055
:104C8000C0F38000B0B14868A0B110688B681840CC
:104C9000D1E901342340984201D1084610BD91F872
:104CA000290000F0020028B91068CB68984201D1B1
:104CB0000846F3E709680029DBD10F480068A0B176
:104CC0000D48006890F8290000F0010068B10A481A
:104CD000006890F82900C0F3800030B106480068F1
:104CE000406810B110787F2801D10020D6E7024833
:104CF0000068D3E7800000208400002010B504463F
:104D000010220249204600F003F810BD7C64002008
:104D10002DE9FC4706460B4614464FF0000C306860
:104D20000190194601AA00273CE0002500BF107839
:104D30004FF00A0990FBF9FA09FB1A0000F0FF088E
:104D4000107890FBF9F0107008F1300000F0FF0AC5
:104D5000284605F1010909F0FF050DF800A01078BB
:104D60000028E4D10BE060460CF1010CA04202DB0C
:104D70000020BDE8FC871DF8050001F8010B281E86
:104D8000A5F1010909F0FF05EDD160460CF1010C18
:104D9000A04201DB0020ECE72E2001F8010B521CA1
:104DA000781CC7B2042FC0DB4FF00009481E014633
:104DB00080F800901846DCE710B5052002F022FCD0
:104DC00010BD000010B5044600BF24B900BF05A007
:104DD000FDF76AFE00BF00BF2146052002F0C4FBBC
:104DE00010BD00007020213D204E554C4C000000AD
:104DF0002DE9F74F84B00646884600250120019032
:104E0000D8F8040002900299488800F09EFD83467D
:104E1000029800780007800E03900398584503DD40
:104E2000681E07B0BDE8F08F0398ABEB00001FFAD7
:104E300080FB0299C88800F088FDC0F30C004FF693
:104E4000FF7101EAC00A00BF00BFD8F8044000208B
:104E50002060A4F804A00AEB0B00E080E088504535
:104E600002DA4FF0FF30DCE7D6F804903EE0D9F8E4
:104E70000470A088B988884220DAC4F800909DB1F7
:104E8000A088E988884203DBE088B988884202DD8F
:104E90004FF0FF30C5E7C5F80080E888A188884258
:104EA0000BD00020019008E0E088B988884202DD3C
:104EB0004FF0FF30B5E7C6F804801AE0A088B98843
:104EC000884202D14FF0FF30ABE7A088F9888842D2
:104ED00002DA4FF0FF30A4E72DB1E888B9888842A4
:104EE00001D000200190D7F800903D46B9F1000FA5
:104EF000BDD100BFB9F1000F1FD19DB100BFE8883F
:104F0000A188884204DD00BF33A0FDF7CDFD00BFBE
:104F100000BFC5F80080E888A18888420DD0002035
:104F200001900AE000BF706820B100BF32A0FDF719
:104F3000BBFD00BF00BFC6F80480069820B9B07F53
:104F400000F00100002844D0019800283BD0706890
:104F500018B170684068808810B10020019032E07C
:104F60002546D4F800900BE0D9F80440E888A188E1
:104F7000884202D00020019005E02546D4F8009038
:104F8000B9F1000FF0D100BF0198E0B100BF706827
:104F900020B900BF26A0FDF787FD00BF00BF00BFFE
:104FA00070684068A04204D100BF21A0FDF77CFDDD
:104FB00000BF00BF00BF206820B100BF20A0FDF7E8
:104FC00073FD00BF00BF019808B1012029E7002050
:104FD00027E7002025E70000636865636B206672A1
:104FE00061676D656E747320646F6E2774206F76D1
:104FF00065726C61700000006E6F2070726576697A
:105000006F757320667261676D656E742C207468AD
:105010006973206D757374206265207468652066FD
:105020006972737420667261676D656E7421000029
:1050300073616E69747920636865636B00000000BA
:1050400076616C69646174655F64617461677261E3
:105050006D3A6E6578745F70627566213D4E554C91
:105060004C00000070B504460D460B480068A04295
:1050700003D109492068086009E000BF25B900BFD5
:1050800006A0FDF711FD00BF00BF20682860214683
:10509000042002F069FA70BD3400002073616E696B
:1050A000747920636865636B206C696E6B6564203E
:1050B0006C6973740000000070B505460E4604204C
:1050C00002F0A0FA044664B93146284600F0CCF854
:1050D000B04203DB042002F095FA04460CB900202C
:1050E00070BD20212046FBF733F90F20E0770648FA
:1050F00000682060044804601422294604F1080076
:10510000FBF7FFF82046EBE7340000202DE9F047DD
:1051100004468846002500BFA04504D100BF38A042
:10512000FDF7C2FC00BF00BFB8F1000F0AD000BFFE
:10513000D8F80000A04204D000BF34A0FDF7B4FCB2
:1051400000BF00BF6068D0F80490B9F8040008BB45
:105150006768D9F800006060142204F108017868DB
:10516000FBF7CFF801213846FFF71EF9384603F068
:10517000D6FC064600BFA819B0F5803F04DB00BF8F
:1051800027A0FDF791FC00BF00BFA81985B23846E3
:1051900003F030FE676819E0D7F80490BA46D9F8F2
:1051A0000070504603F0BBFC064600BFA819B0F5DE
:1051B000803F04DB00BF1AA0FDF776FC00BF00BFF4
:1051C000A81985B2504603F015FE00BF002FE3D1A9
:1051D00041462046FFF746FF00BF19480088A84215
:1051E00004DA00BF17A0FDF75FFC00BF00BF144842
:1051F0000088401B124908802846BDE8F08700005F
:105200007072657620213D2069707200707265763B
:105210002D3E6E657874203D3D206970720000005F
:1052200070627566735F6672656564202B20636CBF
:10523000656E203C3D2030786666666600000000A2
:105240003800002069705F72656173735F7062750A
:1052500066636F756E74203E3D2070627566735F85
:1052600066726565640000002DE9F84F05468946C1
:10527000002700BF0026B2460020009083461B484E
:10528000046821E06069E968884207D1A06929695A
:10529000884203D1A089A988884201D0012000E07A
:1052A000002068B10BF1010B1EB92646CDF800A015
:1052B00006E0E07FF17F884202DC2646CDF800A0C0
:1052C000206800B1A2462468002CDBD12EB1304604
:1052D0000099FFF71BFF804647444F4502DABBF1B8
:1052E000010FC7DC3846BDE8F88F0000340000200D
:1052F00070B500250A4804680FE0E07F002805DD4E
:10530000E07F401EE0772546246806E026462468B4
:1053100029463046FFF7FAFE00BF002CEDD170BDE4
:105320003400002070B505462C4600BF24B900BFEC
:105330000BA0FDF7B9FB00BF00BF00BFAC4204D01B
:1053400000BF0AA0FDF7B0FB00BF00BF606910B14D
:10535000606903F04FFD2046FFF734FD70BD00008B
:1053600070637220213D204E554C4C0070637220BA
:105370003D3D20700000000038B50446FBF7E6F81C
:1053800005462DB994F8290040F0040084F829005E
:10539000062084F8280046484069007884F82200F6
:1053A000434840694178232001554148406981784C
:1053B000242001553E484069C178252001553C48CC
:1053C00040690179262001553948406941792720F3
:1053D000015540F2DC50208494F8290040F00A0086
:1053E00084F82900002128200BF00AFC31490860CC
:1053F0000021314804F03AFF38B900BF2FA0FDF773
:1054000053FB32A0FDF750FB00BF3221334804F0BC
:10541000C0FE38B900BF29A0FDF746FB30A0FDF75C
:1054200043FB00BF03204FF48063224631490090C4
:1054300031A004F073FF002206213D20FCF7A4FAFE
:105440003D20FCF794FA00BF00BF002000902C48DC
:10545000006840F000702A4908600846006800F0C3
:105460000070009000BF00BF00BF00200090084601
:10547000006840F0806008600846006800F08060C6
:10548000009000BF00BF00BF0020009008460068E9
:1054900040F0006008600846006800F0006000907E
:1054A00000BF00BF00BF0248FBF724FF38BD00006B
:1054B000C4010020E8000020EC0000200D0A5B443D
:1054C000454255475D203E3E200000007379735FE2
:1054D00073656D5F6E6577206F6B0A00F0000020CA
:1054E0007379735F6D626F785F6E6577206F6B0A9B
:1054F00000000000753E0008455448494E00000079
:10550000303802402DE9F84F4FF000080026B3462E
:105510000024A2460027002000904348FBF7CEFB62
:1055200050B100BF41A0FDF7BFFA43A0FDF7BCFAA0
:1055300000BF0020BDE8F88F3B48808F1FFA80FB3A
:105540003948D0F8409000BF41A0FDF7ADFA594668
:1055500043A0FDF7A9FA00BFBBF1000F06DD4FF431
:10556000C1725946002003F0F7F88046B8F1000FE9
:105570002FD02D48056B0024464628E077894FF050
:10558000000A15E040F2F4531A1B09EB040173689A
:1055900003EB0A00FAF7B5FEED68D5F8089040F283
:1055A000F450001B3F1A40F2F450001B82440024C8
:1055B000381940F2F4518842E4D809EB04017268CA
:1055C00002EB0A003A46FAF79CFE3C443668002E8D
:1055D000D4D11548056B0020009007E0286840F002
:1055E00000402860ED680098401C00900E48816BD8
:1055F00000988142F2D800210B488163006800F5D1
:105600008050406900F0800058B180210648006851
:1056100000F58050416100210348006800F580508A
:105620008160404686E70000C40100200D0A5B450A
:1056300052525D203E3E20007265636569766520AA
:105640006672616D65206661696C640A0000000025
:105650000D0A5B494E464F5D203E3E200000000093
:1056600072656365697665206672616D65206C653B
:105670006E203A2025640A002DE9F35F3C4800685B
:1056800030B900213A4804F0F1FD394804F020FE19
:105690003848C06AD0F808B04FF00009002400264E
:1056A000A2463448C76A00BF386800F0004010B115
:1056B0006FF0070842E000212D4804F0F7FC019D3F
:1056C00034E06E894FF0000A20E040F2F4531A1BD8
:1056D0006B6803EB0A010BEB0400FAF712FEFF689C
:1056E000386800F0004010B16FF0070826E0D7F8E6
:1056F00008B040F2F450001B361A40F2F450001B80
:10570000824440F2F450001B81440024301940F2DE
:10571000F4518842D9D86A6802EB0A010BEB040005
:105720003246FAF7EEFD3444B1442D68002DC8D15D
:1057300049461048FBF707FEA84600BF0D48006821
:1057400000F58050406900F0200058B12021094840
:10575000006800F58050416100210648006800F5AE
:1057600080504160024804F0B3FD4046BDE8FC9F14
:10577000F4000020C40100202DE9F84F81460C46BA
:1057800016464846FEF792FC07461FB94FF0FF3019
:10579000BDE8F88F00BF102E05D16078022802D135
:1057A00004F00300B0B100BF1EA0FDF77DF900BFFB
:1057B00000BF6FF00F00FDF775FC804600BFB8F129
:1057C000000F02D01E48C0F8008000BF00BF4FF09D
:1057D000FF30DDE700BF00BF60680090608800F028
:1057E000B4F8824600BF52466946386802F00EF8A7
:1057F000054685B100BF2846FDF754FC804600BF32
:10580000B8F1000F02D00E48C0F8008000BF00BF02
:105810004FF0FF30BCE700BF002000BF00BF00BF5B
:1058200000BFB5E76C7769705F62696E643A2069A2
:105830006E76616C696420616464726573730000E4
:10584000F80000202DE9F04107464FF000083846E7
:10585000FEF72CFC04461CB94FF0FF30BDE8F08188
:10586000206850B12068007800F0F000102801D1C5
:10587000012000E00020804608E000BF606820B101
:1058800000BF10A0FDF710F900BF00BF206802F0B4
:1058900015FA05466DB100BF2846FDF703FC064624
:1058A00000BF0EB10D48066000BF00BF4FF0FF30D3
:1058B000D4E741462046FEF7C1FB00BF00BF0020F1
:1058C000CCE70000736F636B2D3E6C617374646191
:1058D0007461203D3D204E554C4C0000F8000020E6
:1058E0002DE9F041044625466868804704F0ACFC89
:1058F00006460D49286809684718B81BB0F1004FE3
:1059000001D3012000E0002030B129688819224627
:10591000064904F06FFD04E022460449384604F0CD
:1059200069FDBDE8F0810000D8000020E1580008C2
:105930000146080601F47F4240EA022001F47F029A
:1059400040EA122040EA1160704701460806000C48
:1059500040EA11207047000008B50020009000BF09
:105960006846804204D000BF0A48FDF79DF800BF9A
:1059700000BF00BF00BF04F0EDFB01F06DFB01F0C4
:105980001BFE02F0C9FD09F081FF05F035FC04F0B3
:105990009FFD08BD6019010870B5064634462068B1
:1059A0004068D8B12068007800F0F000102809D0D5
:1059B00020280FD1A2892368A168586809F004FF44
:1059C00005460AE0A2892368A168586804F0ECFE45
:1059D000054602E06FF0050500BF01E06FF0050528
:1059E000257170BD70B505462C4620684678206844
:1059F0004068002851D02068007800F0F00010289E
:105A00004BD1207A032801D0022E46D0032E02D19A
:105A1000F520207143E0012E02D1FB2020713EE0F1
:105A2000207A00F0010010B1206801F05CFF00BF97
:105A30002068006A20B100BF1AA0FDF735F800BF4A
:105A400000BF04202168487020680462002120689B
:105A500000F03CF800B300BF20684078042804D070
:105A600000BF17A0FDF720F800BF00BF164804F0E4
:105A7000E1FB216801F10C00002104F017FB124842
:105A800004F0B0FB00BF2068407820B100BF0CA03C
:105A9000FDF70AF800BF00BF70BDF520207100BF00
:105AA000FAE70000616C726561647920777269744D
:105AB000696E67206F7220636C6F73696E67000098
:105AC00073746174652100002C0000202DE9FC5FD7
:105AD00004468B460020019000BF24B900BF7BA084
