:020000040800F2
:10000000F8C40120C5010008B9220008E901000870
:10001000B52200088504000815280008000000002B
:10002000000000000000000000000000F7220008AF
:10003000B504000800000000F5220008F9220008BD
:10004000DF010008DF010008DF010008DF01000810
:10005000DF010008DF010008DF010008DF01000800
:10006000DF010008DF010008DF010008DF010008F0
:10007000DF010008DF010008DF010008DF010008E0
:10008000DF010008DF010008DF010008DF010008D0
:10009000DF010008DF010008DF010008DF010008C0
:1000A000DF010008DF010008DF010008DF010008B0
:1000B000DF010008DF010008DF010008DF010008A0
:1000C000DF010008DF010008DF010008DF01000890
:1000D000DF010008DF010008DF010008DF01000880
:1000E000DF010008DF010008DF010008DF01000870
:1000F000DF010008DF010008DF010008DF01000860
:10010000DF010008DF010008DF010008DF0100084F
:10011000DF010008DF010008DF010008DF0100083F
:10012000DF010008DF010008DF010008DF0100082F
:10013000DF01000845050008DF010008DF010008B5
:10014000DF010008DF010008DF010008DF0100080F
:10015000DF010008DF010008DF010008DF010008FF
:10016000DF010008DF010008DF010008DF010008EF
:10017000DF010008DF010008DF01000800000000C7
:10018000DF010008DF010008DF010008DF010008CF
:10019000DF010008DF010008DF010008DF010008BF
:1001A000DF010008DF010008DF010008DFF810D0E0
:1001B00000F0B0F8004800477D6F0008AFF3008002
:1001C000F8C401200648804706480047FEE7FEE7DE
:1001D000FEE7FEE7FEE7FEE7FEE7FEE7FEE7FEE7F7
:1001E000A9230008AD0100087046694602F00EFE22
:1001F000FFF7FEFF2DE9F05F0546002092469B4683
:1002000088460646814640241BE02846414647462C
:10021000224600F06EF853465A46C01A914110D358
:1002200011461846224600F055F82D1A67EB0108D2
:100230004F4622460120002100F04CF817EB000940
:100240004E41201EA4F10104DFDC484631462A4617
:100250004346BDE8F09F10B5431A934209D2831874
:10026000881803E010F8011D03F8011D521EF9D291
:1002700010BD40EA01039B0703D009E008C9121F23
:1002800008C0042AFAD203E011F8013B00F8013B50
:10029000521EF9D210BDD2B201E000F8012B491E66
:1002A000FBD270470022F6E710B513460A46044613
:1002B0001946FFF7F0FF204610BD30B50446002078
:1002C000034600E05B1C934203D2E05CCD5C401B24
:1002D000F8D030BD202A04DB203A00FA02F10020D9
:1002E00070479140C2F1200320FA03F31943904074
:1002F0007047202A04DB203A21FA02F000217047DF
:1003000021FA02F3D040C2F120029140084319467D
:1003100070470000064C074D06E0E06840F001031E
:1003200094E8070098471034AC42F6D3FFF742FF39
:1003300094ED0008B4ED000810B501F0C1F900F02B
:100340009FFA01F0DDFF01F021FF00F09DF802A00F
:1003500002F062FA10BD00002D2D2D2D2D2D2D2D1A
:100360002D2D2D204C7769702064656D6F202D2D0B
:100370002D2D2D2D2D2D2D2D2D2D0A001CB5274871
:1003800000F07AFB00F04AFA2548006840F00100CE
:100390002349086002208DF8000000208DF801003C
:1003A0008DF802008DF803008DF804008DF805002B
:1003B0001C481A4908600120486000211748018242
:1003C000C0F814D08161C1614FF40001016249128B
:1003D0008160C910C16000F023FC04463CB900BF35
:1003E00011A002F019FA14A002F016FA07E000BFFB
:1003F0000DA002F011FA18A002F00EFA00BF0823B7
:100400001C4A1D49054800F0F5FA08231B4A1C49FF
:10041000024800F0A9FA20461CBD00007801002027
:1004200000900240008002400D0A5B44454255475F
:100430005D203E3E200000006574682068617264A3
:100440007761726520696E69742073756365737373
:100450002E2E2E0A00000000657468206861726408
:100460007761726520696E6974206661696C642EBB
:100470002E2E0A0060330020C0020020C00300209E
:10048000C001002000BFFEE710B508480849086019
:100490004FF4E1304860002105488160C16001618E
:1004A00081610C21416101F071FD10BD001001401E
:1004B000380100207047016801F58051896941F0D9
:1004C0000202016801F580518A617047016801F5F7
:1004D0008051896941F40052016801F580518A61B7
:1004E0007047000008B508490968C9084FF47A72D6
:1004F000B1FBF2F14143009100BF00BF00994A1ED9
:1005000000920029F9D108BD0000002038B504464A
:1005100000200090206800F58050806940F4801130
:10052000206800F580508161206800F58050806966
:1005300000900120FFF7D6FF0099206800F5805059
:10054000816138BD10B5024800F017FB10BD0000F6
:100550007801002030B503461479557944EA052026
:10056000084C0C442064D4782406957844EA054469
:10057000557844EA0524157844EA0500014C0C44FA
:10058000606430BD0080024070B5AEB004460E46D7
:10059000002526B14FF40061E160C900A160002090
:1005A000119012901390149015901690E06918B95C
:1005B0004FF48060179001E0002017904FF4007016
:1005C0001890002019901A901B901C901D904020AC
:1005D0001E9000201F902090219022902390249024
:1005E00025902690802027900020289029902A90FE
:1005F0002B902C902D902068056871480540DDE90E
:10060000110108431399084314990843A16808434A
:100610001599084316990843E16808431799084358
:1006200018990843199908431A9908431B990843D4
:1006300005432068056020680568012000F080F906
:1006400020680560DDE91C0108431E9908431F99D5
:100650000843209908432199084322990843239984
:1006600008432168486020684568012000F068F967
:100670002068456024982168886025982168C860B2
:10068000206885694FF641700540DDE9261040EA93
:10069000014028990843299908432A9908432B992E
:1006A000084305432068856120688569012000F0C2
:1006B00047F920688561DDE92C0108432168C8619C
:1006C0002068C569012000F03BF92068C561002061
:1006D00001904FF000700290002003904FF4001042
:1006E000049000200590069007900890042009903F
:1006F000C0050A9040120B9080010C9040120D90A2
:1007000080200E9000200F901090206800F58050FF
:1007100085692C480540DDE9010108430399084338
:100720000499084305990843069908430799084323
:1007300008990843099908430543206800F580504B
:100740008561206800F580508569012000F0F8F887
:10075000206800F580508561DDE90A0108430C99A5
:1007600008430D9908430E9908430F9940EA810008
:100770001099084340F40001206800F580500160A2
:10078000206800F580500568012000F0D9F8206845
:1007900000F580500560A069012809D1206800F5A6
:1007A0008050C06908490843216801F58051C8613B
:1007B000002120466269FFF7CDFE2EB070BD00001B
:1007C0000F8120FF233FDEF84000010038B50446CA
:1007D000002000902068006840F004002168086054
:1007E0002068006800900120FFF77CFE00982168D7
:1007F000086038BD38B504460020009020680068C5
:1008000040F008002168086020680068009001201E
:10081000FFF768FE00982168086038BD00B587B012
:1008200000BF002001901448006840F48070124915
:1008300008600846006800F48070019000BF00BFA7
:1008400001200390049002200590029002A90B4819
:1008500000F010FE00220221084800F019FF0520D8
:1008600000F06EF801220221044800F011FF05207B
:1008700000F066F807B000BD3038024000200240AA
:1008800008B500BF002000902C48006840F08000B0
:100890002A4908600846006800F08000009000BF08
:1008A00000BF00BF002000900846006840F0040030
:1008B00008600846006800F00400009000BF00BF18
:1008C00000BF002000900846006840F0010008606A
:1008D0000846006800F00100009000BF00BF00BFA4
:1008E000002000900846006840F0020008600846BA
:1008F000006800F00200009000BF00BF00BF0020B1
:1009000000900846006840F0400008600846006813
:1009100000F04000009000BF00BF00BF002000902A
:100920000846006840F4807008600846006800F4DB
:100930008070009000BF00BF08BD0000303802404A
:1009400070B5044600F0AAFE06462546681C10B1A4
:1009500004480078054400BF00F0A0FE801BA842B8
:10096000FAD370BD0C00002070B504460D46164643
:10097000002200BF94F84500012801D1022070BD7B
:10098000012084F8450000BF022084F84400A562DD
:1009900000221FE005EB42114FF00040086044F2D6
:1009A000F4504860C2EBC21000EB400006EB800040
:1009B0008860A069012803D1486820F000404860A1
:1009C000581E904204D905EB42102030C86000E068
:1009D000CD60521C9A42DDD3206800F58050C5607E
:1009E000012084F8440000BF002084F8450000BFC7
:1009F00000BFC4E770B504460D461646002200BF8E
:100A000094F84500012801D1022070BD012084F82E
:100A1000450000BF022084F84400E56200221BE08C
:100A200005EB42114FF480100860C2EBC21000EBDE
:100A3000400006EB80008860E06918B9086840F45F
:100A400040000860581E904204D905EB4210203047
:100A5000C86000E0CD60521C9A42E1D3206800F5E6
:100A600080500561012084F8440000BF002084F814
:100A7000450000BF00BFC8E710B50446022084F857
:100A80004400204600F01AFA002084F8440000BF19
:100A900084F8450000BF10BD10B5044600BF04A097
:100AA00001F0BAFE05A001F0B7FE00BF10BD0000C6
:100AB0000D0A5B4552525D203E3E20006574682061
:100AC0006572720A000000000146002200BF91F822
:100AD0004500012801D102207047012081F845001E
:100AE00000BF022081F84400886A006800F00040DE
:100AF000002838D1886A006800F48070F0B1886BF3
:100B0000401C8863886B012801D1886A08638B6A5E
:100B10004B63886A0068C0F30D40021FCA63086B0C
:100B200083680B64886AC0688862012081F8440089
:100B300000BF002081F8450000BFCDE7886A00684B
:100B400000F4007048B1886A086300234B630123F6
:100B50008B63886AC068886205E0886B401C886384
:100B6000886AC0688862012081F8440000BF0020C4
:100B700081F8450000BF0120AEE710B504462068AB
:100B800000F58050406900F0400040280FD1204619
:100B900000F09DFA4021206800F58050416101205D
:100BA00084F8440000BF002084F8450016E0206867
:100BB00000F58050406900F0010078B1204600F057
:100BC0004FFB0121206800F580504161012084F82D
:100BD000440000BF002084F8450000BF4FF480317E
:100BE000206800F580504161206800F58050406920
:100BF00000F40040B0F5004F10D12046FFF74CFF45
:100C00004FF40041206800F580504161012084F8D4
:100C1000440000BF002084F8450000BF10BD000064
:100C20002DE9FC4104460025002001909C4E002740
:100C3000804614B90120BDE8FC8194F8440028B92D
:100C4000002084F84500204600F070F900BF002025
:100C500000909448006840F480409249086008463B
:100C6000006800F48040009000BF00BF8E4800681C
:100C700020F400008C49086008460068216A084397
:100C800089490860206800F58050006840F0010143
:100C9000206800F58050016000F000FD07460FE07D
:100CA00000F0FCFCC01BB0F5FA7F09D9032084F8E2
:100CB000440000BF002084F8450000BF0320BAE7CD
:100CC000206800F58050006800F001000028E7D19E
:100CD0002068056925F01C0500F09CFE0646734857
:100CE000864205D37248864202D245F008051AE0D2
:100CF0006F48864205D36A48864202D245F00C0509
:100D000011E06748864203D36A48864200D20AE06F
:100D10006848864205D36848864202D245F00405F9
:100D200001E045F01005206805614FF40042002104
:100D3000204600F096FA48B14FF00108414620469F
:100D4000FFF722FC012084F8440074E70520FFF738
:100D5000F7FD6068002871D000F0A0FC074600BFD6
:100D600001AA0121204600F069F900F097FCC01BA0
:100D700041F2883188420FD94FF0010841462046A0
:100D8000FFF702FC012084F8440000BF002084F833
:100D9000450000BF03204EE7019800F0040004283E
:100DA000DED182020021204600F05BFA48B14FF00C
:100DB000010841462046FFF7E7FB012084F8440084
:100DC00039E700F06BFC074600BF01AA012120466D
:100DD00000F034F900F062FCC01B41F28831884217
:100DE0000FD94FF0010841462046FFF7CDFB012007
:100DF00084F8440000BF002084F8450000BF0320B1
:100E000019E7019800F020002028DED101AA1F2157
:100E1000204600F013F948B14FF001084146204642
:100E2000FFF7B2FB012084F8440004E7019800F0CA
:100E3000100020B14FF40061E16002E00DE00021FC
:100E4000E160019800F00400042802D10021A160B3
:100E50001DE04FF48041A16019E0E068C0F3CF00CD
:100E6000A168C1F34F0140EA01020021204600F0D1
:100E7000F8F948B14FF0010841462046FFF784FBDE
:100E8000012084F84400D6E60520FFF759FD4146CD
:100E90002046FFF779FB012084F844000020CAE6D1
:100EA000008793034438024004380140002D31018B
:100EB000C00E160200E1F50580D1F00810B5044619
:100EC00014492068884223D100BF1348006820F0ED
:100ED0008060114908600846006820F000600860E2
:100EE0000846006820F00070086000BF32210B48FF
:100EF00000F000FA86210A4800F0FCF94FF4006186
:100F0000084800F0F7F94FF4C041074800F0F2F943
:100F100010BD00000080024030380240000802404E
:100F200000000240000402400018024010B586B0E4
:100F300004463C492068884271D132200190022049
:100F4000029000200390032004900B20059001A93B
:100F5000354800F08FFA8620019002200290002090
:100F60000390032004900B20059001A92F4800F066
:100F700081FA4FF40060019002200290002003905B
:100F8000032004900B20059001A9294800F072FA73
:100F90004FF4C040019002200290002003900320F3
:100FA00004900B20059001A9224800F063FA00226A
:100FB00006213D2000F0D6FB3D2000F0C6FB00BF1F
:100FC00000BF002000901C48006840F000701A49E3
:100FD00008600846006800F00070009000BF00BF85
:100FE00000BF002000900846006840F08060086064
:100FF0000846006800F08060009000BF00BF00BF9E
:10100000002000900846006840F000600860084634
:10101000006800F00060009000BF00BF00BF06B095
:1010200010BD0000008002400008024000000240A5
:101030000004024000180240303802402DE9F0411F
:1010400004460E4617460025A84694F84400822818
:1010500002D10220BDE8F081822084F8440020689B
:10106000056905F01C05208A4FF4784101EAC0208B
:101070000543481100EA8610054325F0020545F0B6
:1010800001052068056100F009FB804612E000F0D0
:1010900005FBA0EB0800B0F5803F09D3012084F8E0
:1010A000440000BF002084F8450000BF0320D1E7C2
:1010B0002068056905F001000028E8D12068406932
:1010C00080B23860012084F844000020C2E77047F5
:1010D00010B5044600BF94F84500012801D1022054
:1010E00010BD012084F8450000BF022084F84400B0
:1010F0002046FFF77FFB2046FFF768FB2046FFF7FF
:1011000005FA2046FFF7E2F92046FFF7D4F901205F
:1011100084F8440000BF002084F8450000BF00BFF1
:10112000DEE770B5024600230025002400BF92F8D8
:101130004500012801D1022070BD012082F8450040
:1011400000BF022082F8440049B9012082F844001F
:1011500000BF002082F8450000BF0120ECE7D06A04
:10116000006800F0004048B1122082F8440000BF3F
:10117000002082F8450000BF0120DDE740F2F45076
:10118000814208D9B1FBF0F3B1FBF0F600FB161079
:1011900010B15B1C00E00123012B13D1D06A006861
:1011A00040F04050D66A3060C1F30C00D66A7060DF
:1011B000D06A006840F00040D66A3060D06AC068EB
:1011C000D06232E000242EE0D06A006820F0405067
:1011D000D66A30602CB9D06A006840F08050D66A78
:1011E000306040F2F450D66A7060581EA04210D1B0
:1011F000D06A006840F00050D66A3060581EC0EBDC
:10120000C01000EB4000A1EB8005C5F30C00D66ACE
:101210007060D06A006840F00040D66A3060D06AE2
:10122000C068D062641C9C42CED3106800F5805028
:10123000406900F0040048B10426106800F58050B1
:1012400046610026106800F580504660012082F853
:10125000440000BF002082F8450000BF00BF6BE7DC
:1012600070472DE9F04104460E4617460025A84672
:1012700094F84400422802D10220BDE8F0814220C7
:1012800084F844002068056905F01C05208A4FF4A5
:10129000784101EAC0200543481100EA8610054361
:1012A00045F0020545F00105B8B2216848612068A3
:1012B000056100F0F3F9804612E000F0EFF9A0EBD1
:1012C0000800B0F5803F09D3012084F8440000BF36
:1012D000002084F8450000BF0320CEE720680569A0
:1012E00005F001000028E8D1012084F84400002026
:1012F000C3E70000F0B50C460025002200230021C2
:101300009CE0012606FA01F504EA0502AA427DD115
:1013100006684FEA410C032707FA0CF7BE43066044
:10132000CF0800F1200656F827604F074FEAD76C28
:101330000F2707FA0CF7BE434FEAD10C00F1200744
:1013400047F82C6086684FEA410C032707FA0CF730
:10135000BE438660476801268E40B7434760C66833
:101360004FEA410C032707FA0CF7BE43C660354E1F
:101370008F0856F827308E07370F0F26BE403340B0
:10138000314EB04201D100262DE0304EB04201D1A5
:10139000012628E02E4EB04201D1022623E02D4E38
:1013A000B04201D103261EE02B4EB04201D10426EB
:1013B00019E02A4EB04201D1052614E0284EB04271
:1013C00001D106260FE0274EB04201D107260AE0E0
:1013D000254EB04201D1082605E0244EB04201D18D
:1013E000092600E00A268F073F0FBE409E4224D107
:1013F0008E07370F0F2606FA07F3124E8F0856F89E
:1014000027609E430F4F4FEA910C00E015E047F82C
:101410002C60174E36689643154F3E603E1D366869
:1014200096433F1D3E603E1D366896433F1D3E601D
:101430003E1D366896433F1D3E60491C1029FFF44F
:1014400060AFF0BD083801400000024000040240D7
:1014500000080240000C024000100240001402404C
:1014600000180240001C02400020024000240240FC
:10147000003C0140F8B502460B4600250024002040
:101480000021E6E0012606FA01F51E6806EA0504D9
:10149000AC4273D15E68022E02D05E68122E13D168
:1014A000CF0802F1200656F827004E07F70E0F2648
:1014B000BE40B0434F07FF0E1E69BE403043CF0809
:1014C00002F1200646F8270010684F000326BE40B0
:1014D000B0431E7906F003064F00BE403043106053
:1014E0005E68012E08D05E68022E05D05E68112E5F
:1014F00002D05E68122E13D190684F000326BE40C2
:10150000B0434F00DE68BE40304390605068012613
:101510008E40B0431E79C6F300168E4030435060B3
:10152000D0684F000326BE40B0434F009E68BE40C7
:101530003043D0605E6806F08056B6F1805FA8D177
:1015400000BF00260096454E366846F48046434F5D
:101550003E603E46366806F48046009600BF00BFF7
:101560003F4E8F0856F827008E07370F0F26BE40D4
:10157000B0433C4EB24202D100262EE068E03A4E23
:10158000B24201D1012628E0384EB24201D10226F2
:1015900023E0374EB24201D103261EE0354EB2425F
:1015A00001D1042619E0344EB24201D1052614E0DF
:1015B000324EB24201D106260FE0314EB24201D185
:1015C00007260AE02F4EB24201D1082605E02E4E32
:1015D000B24201D1092600E00A268F073F0FBE4024
:1015E00030431F4E8F0846F82700284E3068A0432E
:1015F0005E6806F48036B6F5803F00D12043234E66
:101600003060361D3068A0435E6806F40036B6F5DB
:10161000003F00D120431D4E361D3060361D30681E
:10162000A0435E6806F48016B6F5801F00D1204303
:10163000164E08363060361D3068A0435E6806F4EA
:101640000016B6F5001F00D12043104E0C36306056
:10165000491C1029FFF416AFF8BD000044380240C1
:101660000838014000000240000402400008024027
:10167000000C02400010024000140240001802401A
:10168000001C02400020024000240240003C0140B7
:101690000AB1816101E00B04836170470148006871
:1016A00070470000040000200348006803490978DF
:1016B0000844014908607047040000200C00002025
:1016C00010B50D48006840F400700B4908600846EA
:1016D000006840F4806008600846006840F480704C
:1016E0000860032000F07CF80F2000F007F800F0FD
:1016F0002BF8002010BD0000003C024070B50446ED
:101700000E4800784FF47A71B1FBF0F00C4909688B
:10171000B1FBF0F5284600F01FFC08B1012070BDB8
:10172000102C07D200222146501E00F01BF805485D
:10173000046001E00120F2E70020F0E70C00002047
:101740000000002008000020704700BF00F01F02CA
:10175000012191404209920002F1E022C2F80011F9
:1017600000BF70472DE9F05F80460D461646002702
:1017700000F0A4FD074639462A46334601F007002B
:10178000C0F1070ABAF1040F02D94FF0040A01E0D0
:10179000C0F1070AD14600F1040ABAF1070F02D2DC
:1017A0004FF0000A01E0A0F1030AD4464FF0010A0D
:1017B0000AFA09FAAAF1010A0AEA020A0AFA0CFA72
:1017C0004FF0010B0BFA0CFBABF1010B0BEA030B17
:1017D0004AEA0B042146404600F078FDBDE8F09F40
:1017E00000BF00F00702064B19684FF6FF031940CF
:1017F000044B0B4343EA0221014B196000BF7047C1
:101800000CED00E00000FA0538B5002400BF002010
:1018100000901D48006840F080501B490860084651
:10182000006800F08050009000BF00BF0120174901
:101830000864FFF733FF044607E0FFF72FFF001BA4
:10184000B0F57A7F01D9032038BD1148406800F413
:101850008030B0F5803FF0D101200C494864FFF79B
:101860001DFF044607E0FFF719FF001BB0F57A7F64
:1018700001D90320E8E70648406800F40030B0F5DD
:10188000003FF0D10020DFE74038024000000E4268
:101890000070004070B504460D460CB9012070BDC3
:1018A0005848006800F00F00A84209D255490D7051
:1018B0000846006800F00F00A84201D00120EEE7C2
:1018C000207800F0020002281DD1207800F00400EA
:1018D000042805D14C48006840F4E0504A490860AB
:1018E000207800F00800082805D14748006840F437
:1018F0006040454908604448006820F0F000A16855
:10190000084341490860207800F00100A8B36068EE
:10191000012807D13C4808380068C0F34040B8B9F6
:101920000120BCE76068022802D06068032807D164
:10193000354808380068C0F3406048B90120AEE778
:10194000314808380068C0F3400008B90120A6E714
:101950002D48006820F00300616808432A490860A8
:10196000FFF79CFE064609E0FFF798FE801B41F258
:101970008831884202D9032091E707E022480068B5
:1019800000F00C006168B0EB810FEDD11D480068DC
:1019900000F00F00A84209D91A490D7008460068E6
:1019A00000F00F00A84201D0012078E7207800F075
:1019B0000400042807D11448006820F4E050E168CE
:1019C000084311490860207800F00800082808D171
:1019D0000D48006820F46040216940EAC1000A49CE
:1019E000086000F03DF808490968C1F30311074A8F
:1019F000515CC840064908600F20FFF77FFE0020B9
:101A00004DE70000003C024008380240CCE10008ED
:101A1000000000200148006870470000000000201E
:101A200000B5FFF7F7FF04490968C1F38221034AB3
:101A3000515CC84000BD000008380240DCE10008ED
:101A400000B5FFF7E7FF04490968C1F34231034AD3
:101A5000515CC84000BD000008380240DCE10008CD
:101A60002DE9F047002400250026A14625480068FE
:101A700000F00C0020B1042805D008283AD105E078
:101A8000DFF8849039E0DFF8849036E01D48001FCD
:101A9000006800F03F041B48001F006800F480004D
:101AA00078B11A481749091F0968C1F38811A0FBCA
:101AB00001700146224600233846FEF79BFB05468F
:101AC0000EE011480F49091F0968C1F38811A0FBF6
:101AD00001700146224600233846FEF78BFB05467F
:101AE0000848001F0068C0F30140401C4600B5FBD9
:101AF000F6F902E0DFF8109000BF00BF4846BDE8ED
:101B0000F0870000083802400024F40040787D018E
:101B1000F8B504460CB90120F8BD207800F00100AA
:101B2000002874D0F948006800F00C0004280DD09B
:101B3000F648006800F00C00082813D1F348001F95
:101B4000006800F48000B0F5800F0BD1EF48083832
:101B50000068C0F34040002859D06068002856D182
:101B60000120D9E700BF6068B0F5803F08D1E748A1
:101B70000838006840F48030E449083908601EE005
:101B80006068B0F5A02F0DD1E0480838006840F437
:101B90008020DE49083908600846006840F480303B
:101BA00008600CE0D9480838006820F48030D74934
:101BB000083908600846006820F48020086000BFEB
:101BC000606890B1FFF76AFD054606E0FFF766FD25
:101BD000401B642801D903209EE7CC4808380068E0
:101BE000C0F340400028F1D011E0FFF757FD054653
:101BF00006E0FFF753FD401B642801D903208BE763
:101C0000C24808380068C0F340400028F1D120786D
:101C100000F0020002285FD1BC48006800F00C0010
:101C200058B1BA48006800F00C0008281CD1B74829
:101C3000001F006800F48000B0B9B448083800689C
:101C4000C0F3400020B1E068012801D0012063E723
:101C5000AE480838006820F0F800216940EAC10069
:101C6000AA490839086037E0E06800B30120A849B4
:101C70000860FFF713FD054606E0FFF70FFD401B68
:101C8000022801D9032047E7A04808380068C0F3BC
:101C900040000028F1D09D480838006820F0F80086
:101CA000216940EAC10099490839086014E0002020
:101CB00097490860FFF7F2FC054606E0FFF7EEFCE7
:101CC000401B022801D9032026E790480838006805
:101CD000C0F340000028F1D1207800F00800082867
:101CE0002CD16069A8B101208A490860FFF7D6FCB1
:101CF000054606E0FFF7D2FC401B022801D903206D
:101D00000AE782486C300068C0F340000028F1D038
:101D100014E000207F490860FFF7C0FC054606E09C
:101D2000FFF7BCFC401B022801D90320F4E67748EA
:101D30006C300068C0F340000028F1D1207800F03A
:101D40000400042870D1002670483830006800F084
:101D5000805090B900BF002000906C483830006877
:101D600040F080506949383108600846006800F04A
:101D70008050009000BF00BF01266748006800F453
:101D80008070B0B96448006840F4807062490860AF
:101D9000FFF784FC054606E0FFF780FC401B0228A5
:101DA00001D90320B8E65C48006800F48070002880
:101DB000F2D000BFA068012808D1544868300068FC
:101DC00040F001005149683108601DE0A068052815
:101DD0000DD14E486830006840F004004B4968312E
:101DE00008600846006840F0010008600CE04748C1
:101DF0006830006820F001004449683108600846F6
:101E0000006820F00400086000BFA068A8B1FFF7D8
:101E100045FC054609E0FFF741FC401B41F28831D3
:101E2000884202D9032077E626E038486830006807
:101E3000C0F340000028EED013E0FFF72FFC05466A
:101E400008E0FFF72BFC401B41F28831884201D9A2
:101E5000032061E62D4868300068C0F34000002888
:101E6000EFD1012E07D129483830006820F080508A
:101E700026493831086000BFA069B8B3234800681C
:101E800000F00C0008285ED0A069022846D100208E
:101E90001F490866FFF702FC054606E0FFF7FEFB58
:101EA000401B022801D9032036E61848083800688C
:101EB000C0F340600028F1D1D4E907010843616A0A
:101EC00040EA81110122A06AC2EB500041EA0041C0
:101ED0002C20005D41EA00600C49091F08600120C8
:101EE0000B490866FFF7DAFB054607E02DE0FFF730
:101EF000D5FB401B022801D903200DE60348083812
:101F00000068C0F340600028F1D01EE008380240AD
:101F100000004742800E47420070004000200C49FC
:101F20000866FFF7BBFB054606E0FFF7B7FB401B63
:101F3000022801D90320EFE506480068C0F340609D
:101F40000028F2D101E00120E6E50020E4E50000F0
:101F5000000047420038024070B504462546681E1E
:101F6000B0F1807F01D301200FE0681E4FF0E02127
:101F700048610F214FF0FF3000F0A8F900204FF02A
:101F8000E021886107200861002070BD10B504467B
:101F90000CB9012010BDA06900B100E000BF94F8A9
:101FA000390028B9002084F83800204600F028F8CD
:101FB000242084F839002068C06820F4005021688B
:101FC000C860204600F03CFA2068006920F4904088
:101FD000216808612068406920F02A002168486172
:101FE0002068C06840F400502168C8600020E063A9
:101FF000202084F8390084F83A000020CAE7000065
:1020000010B586B0044600BF002000902748006845
:1020100040F01000254908600846006800F01000F4
:10202000009000BF00BF00BF002000901F48143880
:10203000006840F001001D49143908600846006836
:1020400000F00100009000BF00BF00BF0020009022
:102050000846006840F0010008600846006800F08B
:102060000100009000BF00BF4815019002200290BF
:1020700001200390032004900720059001A90C483B
:10208000FFF7F8F94FF4806001900720059001A94F
:102090000748FFF7EFF9012200212520FFF762FB37
:1020A0002520FFF752FB06B010BD00004438024067
:1020B000000002402DE9F84304460D4616461F462F
:1020C0004FF0000994F8390020285CD105B116B909
:1020D0000120BDE8F88300BF94F83800012801D141
:1020E0000220F6E7012084F8380000BF0020E063FA
:1020F000212084F83900FFF7D1FA8146A684E684CE
:102100002BE0E08C401EE084A068B0F5805F16D123
:102110004B46002280212046009700F045FB08B185
:102120000320D6E7A846B8F80000C0F308002168ED
:102130004860206908B9AD1C0FE06D1C0DE04B46EE
:10214000002280212046009700F02EFB08B10320DA
:10215000BFE715F8010B21684860E08C0028D0D15A
:102160004B46002240212046009700F01DFB08B19D
:102170000320AEE7202084F8390000BF002084F857
:10218000380000BFA5E70220A3E7000000B587B034
:1021900000BF002001902748006840F080002549DA
:1021A00008600846006800F08000019000BF00BF92
:1021B00000BF002001900846006840F080000860E1
:1021C0000846006800F08000019000BF00BF00BF1B
:1021D000002001900846006840F080000860084632
:1021E000006800F08000019000BF00BF0815029059
:1021F0000120039004900320059002A90E48FFF7E8
:1022000039F94FF40060029002A90B48FFF732F948
:102210004FF48050029002A90748FFF72BF94FF4C2
:10222000806005491831086040000860400008607F
:1022300007B000BD30380240001C02400EB5144803
:102240001449086014481549086015481549086084
:1022500004F046FE144815490022124BCDE9002136
:1022600002900E4A0B49124805F00CFA104805F08E
:10227000D1FB0F4890F82D00C0F3800018B10C4836
:1022800005F000FC02E00A4805F0CAFB0EBD0000A4
:102290000AC2020E10000020FFFF80001400002080
:1022A0000AC27FFE1800002059540008B9550008E2
:1022B0000401002000BFFEE77047000002480068EC
:1022C000C0F30220704700000CED00E010B50028BC
:1022D00007DA0A07140E054A00F00F031B1FD45437
:1022E00003E00A07130E024A135410BD18ED00E074
:1022F00000E400E07047704710B5FFF7D5F910BD56
:1023000000B593B000BF002001902548006840F060
:102310008050234908600846006800F08050019012
:1023200000BF00BF00BF002001901E48006840F4BD
:1023300040401C4908600846006800F44040019095
:1023400000BF00BF0120029000040390022008900B
:102350004105099119210A914FF4B4710B910221A1
:102360000C9107210D9102A8FFF7D2FB08B100BF25
:10237000FEE7FFF749FA0F200E9002200F90002091
:1023800010904FF4A05011904FF4805012900521FE
:102390000EA8FFF77FFA08B100BFFEE713B000BD3B
:1023A00040380240007000401448006840F470005B
:1023B000124908601248006840F0010010490860A6
:1023C00000200F49083108600D4800680D49084099
:1023D0000B4908600C48091D0860081F006820F4BC
:1023E0008020091F0860002005490C3108604FF06B
:1023F00000600249803908607047000088ED00E005
:1024000000380240FFFFF6FE1030002410B5002413
:1024100007F0AAFF044641F289320749204606F038
:10242000CBFBFF21204607F08BFE044603492046E4
:1024300006F037FB10BD0000E4E1000869D8000891
:102440002DE9F041044600252068056925F4405532
:10245000E0680543206805612068C56849F20C60A2
:1024600085432169A068084361690843E16908431D
:1024700005432068C5602068456925F44075A0695A
:10248000054320684561E069B0F5004F7ED1C4493D
:102490002068884203D0C349206888425DD1FFF795
:1024A000CFFA00EBC00101EB001061684900B0FBFE
:1024B000F1F06421B0FBF1F00601FFF7C1FA00EB87
:1024C000C00101EB001061684900B0FBF1F7FFF7B4
:1024D000B7FA00EBC00101EB001061684900B0FBE6
:1024E000F1F06421B0FBF1F000EBC00101EB001052
:1024F000A7EB8000322101EBC0006421B0FBF1F0BA
:1025000000F0F80006EB4006FFF79AFA00EBC00176
:1025100001EB001061684900B0FBF1F7FFF790FA9A
:1025200000EBC00101EB001061684900B0FBF1F065
:102530006421B0FBF1F000EBC00101EB0010A7EB50
:102540008000322101EBC0006421B0FBF1F000F00B
:10255000070030442168886020E1FFF761FA00EB52
:10256000C00101EB001061684900B0FBF1F064218B
:10257000B0FBF1F00601FFF753FA00EBC00101EBED
:10258000001061684900B0FBF1F700E045E0FFF79B
:1025900047FA00EBC00101EB001061684900B0FB95
:1025A000F1F06421B0FBF1F000EBC00101EB001091
:1025B000A7EB8000322101EBC0006421B0FBF1F0F9
:1025C00000F0F80006EB4006FFF72AFA00EBC00126
:1025D00001EB001061684900B0FBF1F7FFF720FA4A
:1025E00000EBC00101EB001061684900B0FBF1F0A5
:1025F0006421B0FBF1F000EBC00101EB0010A7EB90
:102600008000322101EBC0006421B0FBF1F000F04A
:102610000700304421688860C0E061492068884232
:1026200003D06049206888425CD1FFF709FA00EBCB
:10263000C00101EB001061688900B0FBF1F6FFF703
:10264000FFF900EBC00101EB001061688900B0FBED
:10265000F1F06421B0FBF1F000EBC00101EB0010E0
:10266000A6EB8000322101EB00106421B0FBF1F0F9
:1026700000F0F006FFF7E4F900EBC00101EB0010F9
:1026800061688900B0FBF1F06421B0FBF1F006EB6A
:102690000016FFF7D5F900EBC00101EB00106168EF
:1026A0008900B0FBF1F7FFF7CBF900EBC00101EBBC
:1026B000001061688900B0FBF1F06421B0FBF1F01B
:1026C00000EBC00101EB0010A7EB8000322101EB11
:1026D00000106421B0FBF1F000F00F0030442168DD
:1026E00088605BE0FFF79CF900EBC00101EB001094
:1026F00061688900B0FBF1F6FFF792F900EBC001C9
:1027000001EB001061688900B0FBF1F06421B0FBBF
:10271000F1F000EBC00101EB0010A6EB80003221CC
:1027200001EB00106421B0FBF1F000F0F006FFF7C0
:1027300077F900EBC00101EB001061688900B0FB84
:10274000F1F06421B0FBF1F006EB0016FFF768F939
:1027500000EBC00101EB001061688900B0FBF1F7EC
:10276000FFF75EF900EBC00101EB00106168890022
:10277000B0FBF1F06421B0FBF1F000EBC00101EB24
:102780000010A7EB8000322101EB00106421B0FBA8
:10279000F1F000F00F00304421688860BDE8F0815E
:1027A00000100140001401402DE9F04104460D469F
:1027B00017469846069E21E0701CF8B12EB1FEF730
:1027C0006DFFA0EB0800B04218D92068C06820F463
:1027D000D0702168C8602068406920F0010021683D
:1027E0004861202084F8390084F83A0000BF0020B6
:1027F00084F8380000BF0320BDE8F081206800683D
:102800002840A84201D1012000E00020B842D3D0E6
:102810000020F1E700BFFEE70FB4054B10B503A998
:10282000044A029800F02CF810BC5DF814FB00007C
:1028300089590008000100200FB4084B10B504A905
:1028400002AA039800F01CF8044602A9002000F038
:1028500042FA204610BC5DF814FB0000D72C00089B
:1028600002E008C8121F08C1002AFAD17047704759
:10287000002001E001C1121F002AFBD170470000B7
:102880002DE9FF4F8DB00F460546002606E02528AE
:102890000BD0DDE90F1290476D1C761C28780028BC
:1028A000F5D111B03046BDE8F08F0024A246A14614
:1028B0000122E94900E0044315F8013F203B02FAF8
:1028C00003F00842F7D128782A2810D06FF02F02A1
:1028D0002878A0F13001092914D80AEB8A0102EB0B
:1028E000410144F0020400EB010A6D1CF0E701CF46
:1028F0005FEA000A03D544F40054CAF1000A44F028
:1029000002046D1C28782E2817D115F8010F44F009
:1029100004042A280ED06FF02F022878A0F130018D
:1029200009290AD809EB890102EB410100EB0109F1
:102930006D1CF2E757F8049B6D1C28786C280FD0AB
:1029400006DC4C2817D068280DD06A2814D104E082
:10295000742810D07A280FD10DE044F400140AE056
:1029600044F4801401E044F440146978814202D1B7
:1029700004F580146D1C6D1C28786E281ED00CDCAC
:10298000632830D004DC00288BD0582811D19FE078
:10299000642867D069280CD164E073282DD004DC4A
:1029A0006F2872D0702804D194E075286ED07828F2
:1029B0006DD0DDE90F129047761C4BE1C4F3025055
:1029C000022806D0032809D0042801CF09D00660C8
:1029D00040E101CFF117C0E900613BE101CF068082
:1029E00038E1067036E117F8040B8DF8000000207E
:1029F0008DF80100EB46012003E057F804BB4FF0CF
:102A0000FF3061074FF0000102D40DE008F1010131
:102A1000884649450FDA8045F8DB1BF80810002985
:102A2000F4D108E008F1010188468142FADB1BF885
:102A300008100029F6D1DDE90F23AAEB0800814632
:102A4000214600F031F9304400EB080604E0DDE9EE
:102A50000F121BF8010B9047B8F10108F7D221467D
:102A60004846F2E00A21C4F302524FF0000B0891ED
:102A7000022A04D001CFC117032A09D00AE0FF1DA2
:102A800027F00707F7E8020108E02CE01EE01FE04E
:102A900000B2C117042A01D140B2C117021E71F160
:102AA000000206DA0023D0EB030063EB01012D22C4
:102AB00002E0220504D52B228DF82420012203E018
:102AC000E20701D02022F7E7904653E00A210BE00D
:102AD000102109E010214FF0000B44F004044FF0E6
:102AE0000809089103E008214FF0000B0891C4F396
:102AF0000252022A04D001CF0021032A06D006E0A8
:102B0000FF1D27F00707F7E8020103E080B2042A5F
:102B100000D1C0B24FF0000822072BD52A78702AC6
:102B200007D0DDF820C08CF0100C5CEA0B0C05D04F
:102B30000EE040228DF82420012208E050EA010333
:102B400006D030238DF824308DF8252002229046BF
:102B5000089B83F0080353EA0B030BD150EA0102F0
:102B600001D1620706D530228DF824204FF00108EC
:102B7000A9F101092A78582A04D038A20B9208AA90
:102B80000A920BE03AA2F9E75B46089AFDF732FB9E
:102B90000B9B9B5C0A9A521E0A92137050EA010228
:102BA000F2D10A98ADEB000000F1200B600702D5CE
:102BB00024F4803401E04FF00109D94502DDA9EB8E
:102BC0000B0000E0002000EB0B0141440890AAEB51
:102BD000010AE00306D4DDE90F232146504600F048
:102BE00063F806444FF0000908E009A911F809004C
:102BF000DDE90F12904709F10109761CC145F4DBAC
:102C0000E0030CD5DDE90F232146504600F04CF8D7
:102C1000064404E0DDE90F1230209047761C089945
:102C2000481E08900029F5DC08E00A980A99007807
:102C3000491C0A91DDE90F129047761CBBF1000197
:102C4000ABF1010BF1DC21465046DDE90F2300F02A
:102C500019F806446D1C21E6092801003031323391
:102C600034353637383961626364656600000000C8
:102C700030313233343536373839414243444546B2
:102C8000000000002DE9F041044600251E461746CD
:102C9000880404D405E039462020B0476D1C641E2A
:102CA000F9D52846BDE8F0812DE9F041044600251C
:102CB0001E469046C80301D5302700E0202788042F
:102CC00004D505E041463846B0476D1C641EF9D571
:102CD0002846BDE8F0810A68531C0B6010707047ED
:102CE0002DE9F04303460D46DFF804C1DCF800404F
:102CF0000020DFF800C1DCF800600027DFF8F8C032
:102D00009CF800C0BCF1000F2ED0DFF8F0C09CF89A
:102D100000C0BCF1000F27D1DFF8E4C0DCF8189048
:102D20008446401C43F82C90DFF8D4C0DCF814C073
:102D3000ACF10401DFF8CCC0DCF800C0614513D36E
:102D4000DFF8C0C0DCF800C0DFF8BC80D8F8008035
:102D5000C4448C4508D3102806D2A84204D2844625
:102D6000401C43F82C100127DFF890C09CF800C0ED
:102D7000BCF1000F08D0A24201D2224604E004EBCD
:102D8000060C944500D2A2192CE0D2F800C0ACF198
:102D9000040101F0010CBCF1000F00D121E0DFF8CB
:102DA00064C0DCF800C061451AD3DFF858C0DCF815
:102DB00000C0DFF85480D8F80080C4448C450FD39D
:102DC00010280DD2A8420BD2022805D127B1D3F882
:102DD00004C08C4500D104E08446401C43F82C100C
:102DE00000BF121D04EB060C9445CED8BDE8F0835D
:102DF000E8000020EC000020F9000020FA0000208C
:102E0000B4C00120F0000020F40000202DE9F043C0
:102E10008DB081460E4635462C462022634905A8D2
:102E2000FDF719FA624807686248D0F800806248E6
:102E3000007848B9614A62A163A0FFF7EDFC6AA07F
:102E4000FFF7EAFC00BFFEE76848007848B15B4A3C
:102E500067A15DA0FFF7E0FC63A0FFF7DDFC00BF0A
:102E6000FEE701206149087064A0FFF7D5FC5EA071
:102E7000FFF7D2FC00F002F96149886AFFF7CCFC49
:102E800059A0FFF7C9FC20352946484605F05AFCF1
:102E90000546BD4203D307EB0800A84202D2012039
:102EA000584908702A464146384601F091FC554879
:102EB000007800284BD15249C86AFFF7ADFC4AA000
:102EC000FFF7AAFC50492068086060684860A06865
:102ED0008860E068C8602069086160694861A0692D
:102EE0008861E069C8610846C068474A08999268E5
:102EF000079BCDE90132CDE90310434840680090BB
:102F00004148069B026841A00599FFF785FC36A061
:102F1000FFF782FC3C48C0693B4A0C9992690B9BC5
:102F2000CDE90132CDE903103748406900903648B9
:102F30000A9B026935A00999FFF76EFC2AA0FFF7EA
:102F40006BFC3DA0FFF768FC27A0FFF765FC4A4833
:102F500000682D4908624848001D007881F8240067
:102F600045481030006888624348401D007881F869
:102F70002C0041481430006808633F48801D0088D9
:102F800088863D480830006888633B480C300088DC
:102F9000C863394818300088086402F071FB28467D
:102FA00005F07CFB0DB0BDE8F0830000C0E3000835
:102FB000E8000020EC000020F8000020ACE300084E
:102FC000696E69745F6F6B002825732920686173CF
:102FD00020617373657274206661696C6564206139
:102FE000742025732E0000000D0A0000F900002057
:102FF000216F6E5F6661756C740000000000000058
:1030000004E30008FA000020B4C00120202025734A
:103010003A2025303878202025733A20253038781A
:10302000202025733A2025303878202025733A2037
:1030300025303878000000003D3D3D3D3D3D3D3DA3
:103040003D3D3D3D3D3D3D3D3D3D3D3D3D3D3D3DB0
:103050003D3D3D3D3D3D3D3D3D3D3D3D3D3D3D3DA0
:103060003D3D3D3D3D3D3D3D3D3D3D3D3D3D3D3D90
:103070003D3D3D3D3D3D000024ED00E010B50549DE
:10308000054B064A08680649FFF7C6FB05A0FFF78F
:10309000C3FB10BD04E3000804C00120E4BF01200D
:1030A000C4BF01200D0A000070B505460E4600BFE2
:1030B0002DB900BF09A0FFF7AFFB00BF70BD00BF77
:1030C0002C6A4CB16079082806D13068E1698842E1
:1030D00002D1284600F008FA00BFEFE76E65746978
:1030E0006620213D204E554C4C0000007CB5064624
:1030F00000BF2EB900BF42A0FFF78EFB00BF7CBD12
:1031000000BF346A00BF2CB900BF44A0FFF784FBA6
:1031100000BFF4E700BF00206082A06A401C70B1CD
:10312000A06A1E303C21B0FBF1F5B5F5803F01D31C
:103130004FF6FF75A582A08A08B90120A082E06A37
:10314000401C80B1E06A1E303C21B0FBF1F5B5F5C2
:10315000803F01D34FF6FF756581608908B9012072
:1031600060816089E081206B401C80B1206B1E3043
:103170003C21B0FBF1F5B5F5803F01D34FF6FF756B
:10318000A581A08908B90120A081A0892082608939
:10319000A189884204DBA089002801DD002060812C
:1031A000E07910B1206A01900FE0207F7F2802DCD7
:1031B000FF21019108E0C02803DB6FF07F410191FE
:1031C00002E04FF6FF71019100BF606A0090009825
:1031D00048B900BFE06901990840009000BF00981D
:1031E00040F0807000900A21204601F097F96B466C
:1031F00001AA04F11C01304604F0DCFB00BF7EE7AD
:10320000646863705F62696E643A206E65746966B3
:1032100020213D204E554C4C000000006468637036
:103220005F62696E643A206468637020213D204EBD
:10323000554C4C002DE9F04105462C6A08212046EA
:1032400001F06CF9002204F11C01284601F060FE37
:103250000746A079FF2802DAA079401CA0714FF43C
:10326000FA7606F2F310314690FBF1F02081BDE8CA
:10327000F081000070B51848056829E02C6A34B365
:10328000607920B3A08A68B1608A401C80B26082F5
:10329000A18A884206D1284600F086FF284601F020
:1032A00045F914E0208A40B1218A481E2082012974
:1032B00003D1284601F0E1F909E0E08938B1E1895C
:1032C000481EE081012902D1284601F0B5F92D6898
:1032D000002DD3D170BD0000800000202DE9F05FEB
:1032E00007460D4616469A4600BF3FB900BF43A0A9
:1032F000FFF792FA00BF0020BDE8F09F00BF00BFBB
:1033000035B900BF45A0FFF787FA00BF0020F3E7FB
:1033100000BF4FF420724FF49A71362004F02CFC59
:103320008146B9F1000F01D10020E5E700BFB9F8EF
:103330000A00B0F59A7F04D200BF40A0FFF76CFAF4
:1033400000BF00BF032E02D16879032809D1A879F4
:1033500020B94A480068401C48490860474800684E
:103360002860D9F804404FF49A712046FCF79AFF80
:1033700001202070607097F82C00A070286803F07E
:103380009BFD6060082E0BD0042E09D0072E07D0BD
:10339000032E07D16879052802D06879042801D165
:1033A0007868E0604FF000080BE007F1260010F8A5
:1033B000081004F11C0000F8081008F101001FFAC1
:1033C00080F8B8F1060FF0D32D48C4F8EC000123C3
:1033D000352204F1F001002000F03CFA8346324629
:1033E00004F1F001584600F053FA8346BAF1000F99
:1033F00001D0AAF800B048467EE700006468637018
:103400005F6372656174655F6D73673A206E6574A2
:10341000696620213D204E554C4C00006468637065
:103420005F6372656174655F6D73673A206468639A
:103430007020213D204E554C4C00000064686370A4
:103440005F6372656174655F6D73673A2063686579
:10345000636B207468617420666972737420706293
:1034600075662063616E20686F6C6420737472757A
:10347000637420646863705F6D73670040000020B0
:103480006382536310B500BF0C480078002804DC49
:1034900000BF0BA0FFF7C0F900BF00BF07480078CE
:1034A000401E064908700846007830B90D4800688B
:1034B0000AF0B2FC00200B49086010BD3C0000205F
:1034C000646863705F7063625F726566636F756E78
:1034D0007428293A20726566636F756E7420657270
:1034E000726F7200380000202DE9FE4F0646346AE4
:1034F0000C21204601F012F802AB0422214630468E
:10350000FFF7ECFE054665B3D5F8048004233222AC
:1035100008F1F001BDF8080000F09CF90290E069A4
:1035200003F0CAFC8246524608F1F001BDF80800DB
:1035300000F0DEF902902A4608F1F001BDF808001B
:1035400000F052FA11484323114A2946CDE90060A0
:10355000104800680AF026FD0746284604F05AFE87
:1035600001E04FF0FF37A079FF2802DAA079401C74
:10357000A07142F2107909F2F3104FF4FA7190FB46
:10358000F1F020813846BDE8FE8F0000E4E100083C
:10359000E8E10008380000202DE9FE4F07463C6AAC
:1035A0004FF0000A0020E0610621204600F0B6FF3F
:1035B00002AB012221463846FFF790FE0546002D5A
:1035C00042D06E680223392206F1F001BDF80800EE
:1035D00000F040F90290BA8C06F1F001BDF8080045
:1035E00000F0CAF902900323372206F1F001BDF87A
:1035F000080000F02FF90290D0460DE0224810F8A4
:10360000082006F1F001BDF8080000F041F9029031
:1036100008F1010000F0FF08B8F1030FEED32A46CD
:1036200006F1F001BDF8080000F0DEF91748432369
:10363000174A2946CDE90070164800680AF0B2FC26
:10364000284604F0E7FD00BFA079FF2802DAA07940
:10365000401CA071A079062803DAA17901208840D6
:1036600000E03C2000EB4001C1EBC0104FF6FF71C1
:1036700001EAC00909F2F3104FF4FA7190FBF1F07E
:1036800020815046BDE8FE8F34000020E4E10008B0
:10369000E8E100083800002070B50C48056812E029
:1036A0002C6A7CB12089012803DD2089401E2081FD
:1036B00008E02089012805D12089401E2081284664
:1036C00000F0FFFF2D68002DEAD170BD80000020C2
:1036D00070B505460E462C6A0020206260621A48CA
:1036E000C07810B11948C068A0621748007918B1B5
:1036F00016480069E06202E0A06A4008E0621248F1
:10370000407918B111484069206304E0A06AC0EB19
:10371000C000C00820633069E0610B48807938B18F
:103720000A49886903F0C8FB20620120E07101E0CA
:103730000020E0710448C07920B10449C86903F051
:10374000BBFB606270BD00002C0000200063002005
:1037500070B50446256A0C21284600F0DFFE054BB3
:103760001A461146204604F025F92046FFF714FFBB
:1037700070BD0000E4E1000870B505460E462C6AF5
:103780000748807858B1002020810649886803F0F6
:1037900093FBA0613069E061284600F0E1FD70BD57
:1037A0002C0000200063002010B51C480078002881
:1037B0002DD100BF1A48006820B100BF19A0FFF743
:1037C0002BF800BF00BF0AF0CFFA15490860084681
:1037D000006810B94FF0FF3010BD11480068407A02
:1037E00040F020000E4909684872442217490C48ED
:1037F00000680AF083F843221449094800680AF077
:10380000DFF800221249064800680AF0E7FA034888
:103810000078401C014908700020DDE73C000020D2
:1038200038000020646863705F696E635F70636274
:103830005F726566636F756E7428293A206D656DD9
:103840006F7279206C65616B00000000E4E1000894
:10385000814000082DE9F04104460D4617461E46FA
:1038600000BFA01C3044442804D900BF0748FEF71D
:10387000D3FF00BF00BF2046611C8CB22F542046EE
:10388000611C8CB22E542046BDE8F081E0E30008B4
:1038900070B504460D46164600BF442C04D300BF45
:1038A00005A0FEF7B9FF00BF00BF2046611C8CB227
:1038B0002E54204670BD0000646863705F6F7074A2
:1038C000696F6E5F627974653A206F7074696F6EAC
:1038D000735F6F75745F6C656E203C204448435085
:1038E0005F4F5054494F4E535F4C454E000000000F
:1038F00070B504460D46164600BF201D442804D965
:1039000000BF0EA0FEF788FF00BF00BF320E2046AA
:10391000611C8CB22A54C6F307422046611C8CB24B
:103920002A54C6F307222046611C8CB22A54204632
:10393000611C8CB22E54204670BD00006468637018
:103940005F6F7074696F6E5F6C6F6E673A206F7037
:1039500074696F6E735F6F75745F6C656E202B207A
:1039600034203C3D20444843505F4F5054494F4E13
:10397000535F4C454E00000070B504460D46164698
:1039800000BFA01C442804D900BF08A0FEF744FFD4
:1039900000BF00BF320A2046611C8CB22A54204668
:1039A000611C8CB22E54204670BD000064686370A8
:1039B0005F6F7074696F6E5F73686F72743A206FB7
:1039C0007074696F6E735F6F75745F6C656E202BBA
:1039D0002032203C3D20444843505F4F5054494FD3
:1039E0004E535F4C454E000070B504460D461646DA
:1039F000FF222046611C8CB22A5404E0002220469B
:103A0000611C8CB22A54442C02D304F0030008B188
:103A1000442CF3D304F1F00081B2304604F0B2FC40
:103A200070BD00002DE9F04F8BB08146002007905B
:103A30000690E848002101604160B9F80A002C288E
:103A400003D2881E0BB0BDE8F08FD9F804000590B2
:103A50004FF0F00AB9F80800089000BF4C460AE0A1
:103A60006089AAEB00001FFA80FA61890898401A61
:103A700080B20890246814B160895045F0DD14B913
:103A80006FF00100DEE755460898099060680A90DB
:103A90006BE10A98405D049000274FF0FF38A81CA6
:103AA0001FFA80FBAB4501DAB81ECBE76189681CC1
:103AB000814203DD691C0A98465C07E0206818B162
:103AC00020684068007800E00020064637460498E9
:103AD000342843D007DC78B1012811D003281ED048
:103AE000332871D12BE0352854D0362861D03A28BC
:103AF00070D03B28F5D17CE00020064607468BE0DD
:103B000000BF042E07D000BFB3A0FEF785FE00BFA4
:103B10006FF0050096E700BF4FF006087CE0042731
:103B200000BFBE4207DA00BFAEA0FEF775FE00BFC1
:103B30006FF0050086E700BF4FF007086CE000BF9C
:103B4000042E07D000BFA4A0FEF766FE00BF6FF0F2
:103B5000050077E700BF4FF003085DE000BF012ECE
:103B600007D000BFA4A0FEF757FE00BF6FF005000E
:103B700068E700BF00BFBAF1F00F07D000BFA1A0F7
:103B8000FEF74AFE00BF6FF005005BE700BF4FF095
:103B9000000841E000BF012E07D000BF96A0FEF74D
:103BA0003BFE00BF6FF005004CE700BF4FF001087F
:103BB00032E000BF042E09D000BF87A0FEF72CFE24
:103BC00000BF6FF005003DE722E003E000BF4FF0CB
:103BD000020821E000BF042E07D000BF7EA0FEF740
:103BE0001BFE00BF6FF005002CE700BF4FF004087C
:103BF00012E000BF042E07D000BF77A0FEF70CFE36
:103C000000BF6FF005001DE700BF4FF0050803E09F
:103C1000002700BF00BF00BF00BF049810B9681C98
:103C200085B281E0A819801CB0F5803F02DB6FF0FF
:103C3000010007E7A819801C85B2002F74DD002061
:103C4000039000BF00BFB8F1000F02DBB8F1080F0E
:103C500004DB00BF71A0FEF7DFFD00BF00BF5D48C1
:103C600010F8080000285ED1042F01DA384600E081
:103C7000042002905B4603A92046029A04F05EFAF3
:103C800001460298814202D06FF00100DAE6042F6B
:103C90002BDD00BFF91707EB91718910A7EB8101AC
:103CA00039B100BF62A0FEF7B7FD00BF6FF005009D
:103CB000C8E600BF0120474901F80800039803F057
:103CC000FBF8614941F82800381FC7B20BF1040026
:103CD00080B201900198584502DA6FF00100B1E618
:103CE000DDF804B008F10108ACE7042F04D1039813
:103CF00003F0E2F803900EE000BF012F07D000BFF1
:103D000052A0FEF789FD00BF6FF005009AE600BFE4
:103D10009DF80C00039001202E4901F808004A4943
:103D2000039841F8280000BF6089A8421CDC608924
:103D3000281A85B261890998401A80B209900998B9
:103D400085420EDA246800BF3CB900BF44A0FEF7EC
:103D500063FD00BF6FF0050074E600BF60680A9065
:103D600002E06FF001006DE600BF3CB109988542AA
:103D700004DA0A98405DFF287FF48BAE154800787E
:103D8000A0B1314908680021124A1170012802D1FE
:103D90000121079109E0022802D10121069104E0E6
:103DA000032802D101210691079100BF079830B185
:103DB000002007904FF06C0AEC2008904EE6069821
:103DC00030B1002006904FF02C0A6C20089045E698
:103DD000002037E62C0000206C656E203D3D20342D
:103DE000000000006C656E203E3D206465636F64DA
:103DF000655F6C656E0000006C656E203D3D203196
:103E0000000000006F7665726C6F616420696E203F
:103E100066696C652F736E616D650000636865632C
:103E20006B206465636F64655F69647800000000FF
:103E30006465636F64655F6C656E202525203420A2
:103E40003D3D20300000000000630020696E766177
:103E50006C6964206465636F64655F6C656E000007
:103E60006E657874207062756620776173206E7558
:103E70006C6C00002DE9FC4707463C6A0421204693
:103E800000F04CFB01AB032221463846FFF726FA2F
:103E90000546002D42D06E680223392206F1F0015A
:103EA000BDF80400FFF7D6FC0190BA8C06F1F001D2
:103EB000BDF80400FFF760FD01900323372206F1EF
:103EC000F001BDF80400FFF7C5FC01904FF00008B9
:103ED0000DE0224810F8082006F1F001BDF80400BA
:103EE000FFF7D6FC019008F1010000F0FF08B8F1DF
:103EF000030FEED32A4606F1F001BDF80400FFF7E8
:103F000073FD4323164A294616480097006809F0B6
:103F1000BBFF8146284604F07DF901E04FF0FF39F0
:103F2000A079FF2802DAA079401CA071A0790A28A4
:103F300005DAA0794FF47A7110FB01F001E042F24A
:103F400010701FFA80FA0AF2F3104FF4FA7190FB26
:103F5000F1F020814846BDE8FC87000034000020D5
:103F6000E8E10008380000202DE9FC5F8046D8F821
:103F700020400321204600F0D1FA01AB0322214664
:103F80004046FFF7ABF90646002E54D07568022371
:103F9000392205F1F001BDF80400FFF75BFC019048
:103FA0004FF4107205F1F001BDF80400FFF7E4FCD6
:103FB00001900423322205F1F001BDF80400FFF75F
:103FC00049FC0190E06902F077FF83465A4605F10B
:103FD000F001BDF80400FFF78BFC019003233722AA
:103FE00005F1F001BDF80400FFF734FC0190002753
:103FF0000AE02048C25D05F1F001BDF80400FFF7BA
:1040000047FC0190781CC7B2032FF2D3324605F16A
:10401000F001BDF80400FFF7E7FC4323164A3146E0
:104020001648CDF80080006809F02EFF8146304622
:1040300004F0F0F801E04FF0FF39A079FF2802DA30
:10404000A079401CA071A0790A2805DAA0794FF464
:104050007A7110FB01F001E042F210701FFA80FA51
:104060000AF2F3104FF4FA7190FBF1F02081484608
:10407000BDE8FC9F34000020E8E100083800002083
:104080002DE9F05F1646DDF828B0444847683C6AE1
:10409000D6F804900CB1207900B97AE000BF00BFD7
:1040A00070892C2800DA74E099F80000022800D00A
:1040B0006FE000250AE007F12600415D09F11C00D0
:1040C000405D814200D064E0681CC5B297F82C00C6
:1040D000A84201DD062DEED3D9F8040002F0ECFE73
:1040E0002168884200D054E021463046FFF79AFC10
:1040F00000B14EE02A48407800B94AE0D6F804A062
:10410000284890F80480B8F1050F24D1607901287F
:1041100010D151463846FFF7DBFA97F82D0000F032
:10412000080018B13846FFF785F831E03846FEF749
:10413000DDFF2DE06079032805D06079042802D0E6
:104140006079052824D151463846FFF7C1FA384630
:10415000FEF7CCFF1CE0B8F1060F0FD16079032801
:1041600008D06079012805D06079042802D06079F0
:10417000052803D13846FFF7EBFA09E0B8F1020F42
:1041800006D16079062803D151463846FFF7F4FA84
:1041900000BF304604F03EF8BDE8F09F10640020F8
:1041A0002C000020006300202DE9FE430646346AFF
:1041B0000CB9BDE8FE83607900B9FAE7A069029006
:1041C0000020A061E061206260622063E062A06282
:1041D000A08260822082E081304600F019FA88B324
:1041E00001AB072221463046FFF778F8054645B374
:1041F0006F680423362207F1F001BDF80400FFF7D1
:1042000029FB0190029802F057FE8046424607F1D2
:10421000F001BDF80400FFF76BFB01902A4607F19F
:10422000F001BDF80400FFF7DFFB432302AA294693
:104230000D480096006809F027FE284603F0EAFFC3
:1042400000BF00BF094B1A461146304603F0B2FBCF
:104250000021204600F062F9207918B1FFF712F929
:104260000020207100BFA4E738000020E4E100082E
:104270002DE9FC4707463C6A0521204600F04EF92F
:1042800001AB032221463846FFF728F80546002DEA
:1042900043D06E680223392206F1F001BDF8040014
:1042A000FFF7D8FA0190BA8C06F1F001BDF80400CE
:1042B000FFF762FB01900323372206F1F001BDF8FE
:1042C0000400FFF7C7FA01904FF000080DE0224804
:1042D00010F8082006F1F001BDF80400FFF7D8FA45
:1042E000019008F1010000F0FF08B8F1030FEED3D0
:1042F0002A4606F1F001BDF80400FFF775FB4323E1
:1043000004F11802294615480097006809F0BCFD21
:104310008146284603F07EFF01E04FF0FF39A07987
:10432000FF2802DAA079401CA071A0790A2805DADA
:10433000A0794FF4FA6110FB01F001E044F620602F
:104340001FFA80FA0AF2F3104FF4FA7190FBF1F0C1
:1043500020814846BDE8FC8734000020380000205A
:104360002DE9FE4F074600BF47B900BF59A0FEF731
:1043700053FA00BF6FF00F00BDE8FE8F00BF3C6A2C
:1043800000BF3CB900BF5AA0FEF746FA00BF6FF06D
:104390000500F1E700BF0121204600F0BFF802ABA5
:1043A000032221463846FEF799FF0646002E6FD0BD
:1043B00075680223392205F1F001BDF80800FFF706
:1043C00049FA0290BA8C05F1F001BDF80800FFF738
:1043D000D3FA02900423322205F1F001BDF808005F
:1043E000FFF738FA0290E06902F066FD83465A460C
:1043F00005F1F001BDF80800FFF77AFA02900423F6
:10440000362205F1F001BDF80800FFF723FA02900B
:10441000A06902F051FD83465A4605F1F001BDF84E
:104420000800FFF765FA02900323372205F1F00137
:10443000BDF80800FFF70EFA02904FF000080DE0FB
:10444000324810F8082005F1F001BDF80800FFF728
:104450001FFA029008F1010000F0FF08B8F1030F05
:10446000EED3324605F1F001BDF80800FFF7BCFAC3
:1044700027484323274A3146CDE900702648006883
:1044800009F090FD8146304603F0C4FE02E0FFE7EC
:104490004FF0FF39A079FF2802DAA079401CA07103
:1044A000A079062803DAA1790120884000E03C20A9
:1044B00000EB4001C1EBC0104FF6FF7101EAC00AEA
:1044C0000AF2F3104FF4FA7190FBF1F020814846A4
:1044D00052E70000646863705F73656C6563743AEB
:1044E000206E6574696620213D204E554C4C0000BD
:1044F000646863705F73656C6563743A20646863B5
:104500007020213D204E554C4C000000340000200E
:10451000E4E10008E8E100083800002042798A421E
:1045200003D04171002282710281704770B5044648
:1045300000BF3CB900BF29A0FEF76EF900BF6FF0C5
:104540000F0070BD00BF00BF94F82D0000F0010007
:1045500038B900BF25A0FEF75FF900BF6FF00F006C
:10456000EFE700BF256AA08CB0F5107F02DA4FF0AC
:10457000FF30E6E74DB9342002F014FE054615B9C8
:104580004FF0FF30DDE7256203E0287908B1FEF740
:1045900079FF34212846FBF785FEFFF705F910B1B6
:1045A0004FF0FF30CDE70120287194F82D00C0F3C3
:1045B000800028B902212846FFF7B0FF0020C0E79D
:1045C0002046FEF7E9FF06462EB12046FFF7ECFD38
:1045D0004FF0FF30B5E73046B3E700006E65746911
:1045E0006620213D204E554C4C0000006E657469DC
:1045F00066206973206E6F742075702C206F6C6458
:10460000207374796C6520706F72743F0000000035
:10461000014679B1086A68B10A6A50790A2805D05A
:104620005079052802D05079042801D10120704723
:104630000020FCE70020FAE770B505462C6A607997
:10464000012805D060790A2802D06079052813D1A5
:104650002846FFF70DFEA189628A881A00EBD07107
:104660000122B2EB610F07DCA189628A881A00EB94
:10467000D071C1F34F01E18170BD70B505462C6A60
:104680006079012808D060790A2805D0607905286A
:1046900002D06079042813D12846FFF7EBFBA18AEA
:1046A000628A881A00EBD0710122B2EB610F07DC3D
:1046B000A18A628A881A00EBD071C1F34F0121826E
:1046C00070BD70B505462C6A60790C2802D06079FF
:1046D000062803D12846FEF75FFF2BE0607901280A
:1046E0000DD1A079052803DC2846FFF739FE21E02B
:1046F0002846FFF759FD2846FFF718FF1AE06079B2
:1047000008280AD1A079012803DC2846FEF792FD8B
:1047100010E02846FEF7EAFC0CE06079032809D196
:10472000A079022803DA2846FFF71EFC02E028469B
:10473000FEF732FF70BD000070B504460D4600BFA5
:1047400005F0030020B100BF05A0FEF765F800BF2B
:1047500000BF2E46A06800683060A068066070BD8B
:104760006D656D705F667265653A206D656D207070
:10477000726F7065726C7920616C69676E65640038
:1047800070B50546A868046874B12068A968086017
:1047900000BF04F0030020B100BF04A0FEF73CF806
:1047A00000BF00BF204670BD0020FCE76D656D7046
:1047B0005F6D616C6C6F633A206D656D7020707217
:1047C0006F7065726C7920616C69676E656400005A
:1047D00070B505460E4614461C480078D8B11C48F2
:1047E000007840B11B4948692146FEF715F81AA028
:1047F000FEF712F807E0174988692146FEF70CF822
:1048000015A0FEF709F8AC4201D22C4603E0A81926
:10481000A04200D2AC190F49C868FDF7FDFF0EA0F9
:10482000FDF7FAFF08E021460CA02268FDF7F4FF2F
:1048300009A0FDF7F1FF241DA819A042F3D80EA08E
:10484000FDF7EAFF04A0FDF7E7FF70BDFA000020C6
:10485000FC00002004E300080D0A00002020616431
:1048600064723A20253038782020202064617461F9
:104870003A202530387800003D3D3D3D3D3D3D3DF1
:104880003D3D3D3D3D3D3D3D3D3D3D3D3D3D3D3D58
:104890003D3D3D3D3D3D3D3D3D3D3D3D000000003C
:1048A00070B50546002411E004EB4400094901EB12
:1048B000C000067D4EB104EB440001EBC0008068EF
:1048C000A84202D1204600F043F9641C0A2CEBDB1D
:1048D00070BD0000206300202DE9FF5F0646894679
:1048E00017464FF00A0AD346D04600240A20039008
:1048F000002002900190009000BF6FE004EB4400A4
:104900006C4901EBC000057DB8F10A0F02D10DB969
:10491000A04661E0002D5FD000BF012D06D0022D22
:1049200004DA00BF64A0FDF777FF00BF00BFAEB19F
:1049300004EB44015F4A02EBC101306849688842D8
:104940000CD13FB104EB4400114601EBC00080687C
:10495000B84203D1204604B0BDE8F09F012D28D114
:1049600004EB4400534951F8300080B104EB44009B
:1049700001EBC000418A029881422DDB039404EBD5
:1049800044004C4901EBC000408A029024E004EB53
:104990004400484901EBC000418A019881421BDB79
:1049A000A24604EB4400434901EBC000408A019059
:1049B00012E0022D10DB04EB44003E4901EBC00085
:1049C000418A0098814207DBA34604EB4400394941
:1049D00001EBC000408A0090601C04B20A2C8DDB01
:1049E00009F0020028B9B8F10A0F05D109F0010059
:1049F00010B94FF0FF30AEE7B8F10A0F01DA4446C4
:104A000029E0BBF10A0F0DDA5C4600BF04EB44005D
:104A1000284951F8300020B100BF37A0FDF7FCFE57
:104A200000BF0CE0BAF10A0F01DA544607E0039820
:104A30000A2801DA039C02E04FF0FF308BE700BF49
:104A40000A2C04DB00BF32A0FDF7E6FE00BF00BF6A
:104A5000204600F07DF800BF0A2C04DB00BF2CA02C
:104A6000FDF7DAFE00BF00BF00BF04EB44001149B0
:104A700001EBC000007D20B100BF2AA0FDF7CCFEF5
:104A800000BF00BF36B104EB44010A4A02EBC1018A
:104A900030684860002004EB4401064A02EBC10183
:104AA000488204EB4400114601EBC00087602046B9
:104AB00051E70000206300207374617465203D3D60
:104AC000204554484152505F53544154455F50452E
:104AD0004E44494E47207C7C207374617465203EAF
:104AE0003D204554484152505F53544154455F5313
:104AF0005441424C450000006172705F7461626C09
:104B0000655B695D2E71203D3D204E554C4C00008B
:104B100069203C204152505F5441424C455F53490B
:104B20005A4500006172705F7461626C655B695D1B
:104B30002E7374617465203D3D20455448415250A8
:104B40005F53544154455F454D5054590000000097
:104B500010B5044604EB44000C4951F8300060B134
:104B600004EB4401094A52F8310003F053FB0020E2
:104B700004EB4401054A42F83100002004EB4401F3
:104B8000024A02EBC101087510BD0000206300203D
:104B9000F0B587B007460D4600BF35B900BF2EA05F
:104BA000FDF73AFE00BF07B0F0BD00BF7C6820886B
:104BB000B0F5807F08D12079062805D160790428D6
:104BC00002D16088082803D0384603F023FBEAE7C7
:104BD000D4F80E000690A0690590686808B9002610
:104BE00007E005986968884201D1012000E00020B3
:104BF00006460EB1012000E00220034604F108023F
:104C000006A9284600F0AEFBE088B0F5807F03D00F
:104C1000B0F5007F19D113E086B1022206AB04F192
:104C20000800291DCDE90232CDE9001005F1260367
:104C300002462231284600F07DFA00E000BF05E080
:104C400006A92846FEF730FA00E000BF00BF38464C
:104C500003F0E0FA00BFA6E76E6574696620213DA7
:104C6000204E554C4C0000002DE9FE4304460F46F3
:104C70001546A94600BF24B900BF57A0FDF7CCFDDB
:104C800000BF00BF00BF27B900BF57A0FDF7C4FD9C
:104C900000BF00BF00BF25B900BF56A0FDF7BCFD97
:104CA00000BF00BF2146286801F01CF810B1DFF8F2
:104CB000548186E0287800F0F000E02816D1012029
:104CC0008DF8040000208DF805005E208DF80600A8
:104CD000687800F07F008DF80700A8788DF808004C
:104CE000E8788DF809000DF1040869E02868A168EA
:104CF0000840D4E90112114088420ED0288880B2C1
:104D00004FF6A961884208D0E06810B104F10C099F
:104D100003E06FF00300BDE8FE833B48007800EB42
:104D200040003A4901EBC000007D02281BDB3648F9
:104D3000007800EB400001EBC0008068A04212D177
:104D40003149097801EB4101304A02EBC101D9F840
:104D500000004968884206D12B480278394620462F
:104D600000F056F8D7E7002622E006EB4600274978
:104D700001EBC000007D022818DB06EB460001EBCA
:104D8000C0008068A04211D106EB46011F4A02EB29
:104D9000C101D9F800004968884207D11A48067055
:104DA00032463946204600F033F8B4E7701CC6B2EC
:104DB0000A2EDADB3A464946204600F0A9F8AAE76F
:104DC00000BF4FF40060434604F1260239460090CC
:104DD000204600F0A3FB9EE76E6574696620213DC6
:104DE000204E554C4C0000007120213D204E554C6A
:104DF0004C00000069706164647220213D204E55B2
:104E00004C4C0000F8E20008440000202063002021
:104E1000F8B505460E46144600BF04EB44002F4982
:104E200001EBC000007D022804DA00BF2CA0FDF7D2
:104E3000F3FC00BF00BF04EB4400284901EBC000B5
:104E4000007D022839D104EB440001EBC000408A08
:104E5000B0F58E7F11DD04EB44000A4602EBC00082
:104E6000011D284600F0EEF938BB032004EB440195
:104E70001A4A02EBC10108751FE004EB4400174910
:104E800001EBC000408AB0F5877F16DB04EB4400DD
:104E90000B4603EBC00000F10C0204EB440003EBF3
:104EA000C000011D284600F0D9F930B9032004EBF9
:104EB00044010A4A02EBC10108754FF400600090FA
:104EC00004EB4400054901EBC00000F10C0305F1BF
:104ED00026023146284600F021FBF8BD2063002061
:104EE0006172705F7461626C655B6172705F69644E
:104EF000785D2E7374617465203E3D2045544841B1
:104F000052505F53544154455F535441424C450005
:104F10002DE9FE4F81460F46164609F1260A4FF04D
:104F2000FF300290002001904946386800F0DAFE18
:104F300038B9387800F0F000E02802D00FB13868B6
:104F400018B96FF00F00BDE8FE8F4A4601213846C0
:104F5000FFF7C2FC8046B8F1000F02DA4FFA88F082
:104F6000F1E700BFB8F17F0F04D300BF57A0FDF7F2
:104F700053FC00BF00BF08F0FF0404EB4400574996
:104F800001EBC000007D70B90120019004EB4401E9
:104F9000524A02EBC101087504EB4400114601EBD3
:104FA000C000C0F8089000BF04EB44004B4901EB7F
:104FB000C000007D01280BD004EB440001EBC000D1
:104FC000007D022804DA00BF45A0FDF725FC00BFE4
:104FD00000BF019800B93EB93946484600F032F9A1
:104FE00002900EB90298AEE700BF26B900BF46A0F6
:104FF000FDF712FC00BF00BF04EB4400374901EB92
:10500000C000007D022811DB424804704FF40060AC
:10501000009004EB440001EBC00000F10C03524689
:105020003146484600F07AFA02904CE004EB440026
:105030002A4901EBC000007D012844D14FF0000B4C
:10504000354614E000BF68892989884206D128685E
:1050500020B100BF30A0FDF7DFFB00BF00BF287B01
:1050600000F0400010B14FF0010B02E02D68002D60
:10507000E8D100BFBBF1000F07D032464FF42071DA
:105080000E2002F065FF054603E03546284603F092
:10509000F1F9A5B104EB4400104951F8300030B1EA
:1050A00004EB44010D4A52F8310003F0B3F804EB6D
:1050B00044000A4941F830500020029002E04FF0CD
:1050C000FF30029000BF02983DE7000074797065E0
:1050D000206F766572666C6F770000002063002099
:1050E0006172705F7461626C655B695D2E7374617F
:1050F0007465203D3D2050454E44494E47206F7217
:1051000020535441424C45007120213D204E554CC6
:105110004C000000440000206E6F207061636B65DE
:10512000742071756575657320616C6C6F7765644B
:10513000210000002DE9FC5F06460F469046994687
:10514000DDE90CAB0020019000BF26B900BF2BA009
:10515000FDF762FB00BF00BF4FF420721C210E2040
:1051600002F00AFD05461DB94FF0FF30BDE8FC9F77
:1051700000BF68891C2804DA00BF24A0FDF74CFB9F
:1051800000BF00BF6C680F9801F0A3FEE08000BF75
:1051900096F82C00062804D000BF2948FDF73CFBF8
:1051A00000BF00BFD9F80000A060B9F80400A081DA
:1051B000DBF80000C4F81200BBF80400E082DAF863
:1051C0000000C4F80E000E980068A0614FF48070D3
:1051D000208008206080062020710420607140F645
:1051E000060043463A4629460090304600F096F9BC
:1051F000284603F00FF800250198B7E76E6574693B
:105200006620213D204E554C4C00000063686563CC
:105210006B207468617420666972737420706275A3
:10522000662063616E20686F6C64207374727563AE
:1052300074206574686172705F68647200000000B9
:1052400024E4000870B504460D46034A294620466A
:1052500000F004F870BD0000F8E200087FB50446D5
:105260000D4616460121074A201D04F126038DE84C
:1052700025000391324619462046FFF75BFF04B034
:1052800070BD0000FEE2000870B5002464E004EB8D
:105290004400334901EBC000057D002D5BD004EBD9
:1052A000440001EBC000408A401C04EB44012C4A3E
:1052B00002EBC101488204EB4400114601EBC0003F
:1052C000408AB0F5967F0DDA04EB440001EBC00094
:1052D000007D01280AD104EB440001EBC000408AA4
:1052E000052803DB2046FFF733FC34E004EB4400E1
:1052F0001B4901EBC000007D032807D1042004EB0B
:105300004401174A02EBC101087524E004EB440094
:10531000134901EBC000007D042807D1022004EBF3
:1053200044010F4A02EBC101087514E004EB44008C
:105330000B4901EBC000007D01280CD104EB4402B5
:105340000B4603EBC202111D04EB440203EBC20245
:105350009068FFF777FF641C0A2C98DB70BD000093
:10536000206300202DE9F84305460E46174698466F
:1053700000BF95F82C00062804D000BF2CA0FDF734
:105380004BFA00BF00BF5EB1306848B129463068B3
:1053900000F0A8FC20B9307800F0F000E02803D13C
:1053A0006FF00F00BDE8F8832A4641463046FFF70C
:1053B00093FA0446002C01DA60B2F3E7022004EB12
:1053C0004401244A02EBC101087504EB4400114674
:1053D00001EBC000856004EB440001EBC0003968BC
:1053E000C160B9880182002004EB440102EBC101D5
:1053F000488204EB4400114651F83000B0B104EB90
:10540000440051F83090002004EB440142F8310090
:105410004FF400603B4605F12602494600902846BD
:1054200000F07CF8484602F0F5FE00BF0020B9E726
:105430006E657469662D3E6877616464725F6C6541
:105440006E203D3D204554485F4857414444525FDB
:105450004C454E00206300202DE9F04104460E46E5
:105460004FF00E0860890E2800DC4FE0E07B18B991
:1054700096F83000401CE0736568AF89287800F02A
:105480000100B0B12878012809D1687888B9A878D6
:105490005E280ED1607B40F01000607309E00622A8
:1054A0001D492846FAF709FF18B9607B40F008004B
:1054B0006073082F03D0B7F5C16F22D110E096F8C2
:1054C0002D0000F0080000B920E04146204602F01F
:1054D000EFFF00B11AE03146204600F053FD11E025
:1054E00096F82D0000F0080000B90FE04146204674
:1054F00002F0DEFF00B109E031462046FFF748FB2D
:1055000000E003E000BF0020BDE8F081204602F08B
:1055100081FE0020F8E70000F8E200082DE9F047DE
:1055200005460E4617469846DDF82090484601F09D
:10553000D0FC82460E21304602F0D0FA00B11EE0C7
:105540007468A4F80CA0D8F800002060B8F8040033
:10555000A0803868C4F80600B888608100BF95F85C
:105560002C00062804D000BF06A0FDF755F900BFA7
:1055700000BF31462846AA699047BDE8F0876FF022
:105580000100FAE76E657469662D3E6877616464B0
:10559000725F6C656E206D757374206265203620B5
:1055A000666F722065746865726E65745F6F75747E
:1055B000707574210000000070B50446042001F0ED
:1055C000F1FD054655B900BF12A0FDF725F914A05D
:1055D000FDF722F900BF4FF0FF3070BD00BF24B9C6
:1055E00000BF17A0FDF718F900BF00BFE5617320E9
:1055F00084F82E0074212F2001551548606115484C
:10560000A061204601F0DAFA04F1260028600020AB
:10561000E3E700000D0A5B4552525D203E3E20004C
:1056200065746865726E657469665F696E69743AFF
:10563000206F7574206F66206D656D6F72790A003A
:105640006E6574696620213D204E554C4C0000006B
:10565000694C0008816D000870B50446204601F0D1
:10566000E9FA064606B970BD2146304622699047E0
:1056700005461DB1304602F0CDFD002600BFF2E721
:1056800010B5BE4890F83800C0F3400030B1BC49B6
:10569000086BFDF7C1F8BBA0FDF7BEF8B748806BFB
:1056A000C0F3807000287DD0B44890F82400002812
:1056B0005BD0B24890F8240000F0010030B1B0494E
:1056C000486BFDF7A9F8AFA0FDF7A6F8AB4890F836
:1056D0002400C0F3400030B1A949886BFDF79CF865
:1056E000A8A0FDF799F8A54890F82400C0F3C000E1
:1056F00030B1A349C86BFDF78FF8A2A0FDF78CF875
:105700009E4890F82400C0F3001030B19C49086C0A
:10571000FDF782F89BA0FDF77FF8984890F82400E9
:10572000C0F3401030B19649486CFDF775F895A06C
:10573000FDF772F8914890F82400C009A8B18F488D
:1057400090F8240000F0010028B98C4890F824005B
:10575000C0F3400048B1894A916A894AD2F88C0066
:10576000FDF75AF887A0FDF757F8844890F82C0009
:10577000002864D0814890F82C0000F0010030B17E
:105780007F49886CFDF748F87EA0FDF745F87B4817
:1057900090F82C00C0F3400040B17949C86CFDF787
:1057A0003BF800E09BE077A0FDF736F8734890F8EF
:1057B0002C00C0F3800030B17149086DFDF72CF862
:1057C00070A0FDF729F86D4890F82C00C0F3C000D8
:1057D00030B16B49486DFDF71FF86AA0FDF71CF862
:1057E000664890F82C00C0F3001030B16449886D11
:1057F000FDF712F863A0FDF70FF8604890F82C0051
:10580000C0F3401030B15E49C86DFDF705F85DA0EA
:10581000FDF702F8594890F82C00C00978B15748B4
:1058200090F82C00C0F3400048B1544A116B544A20
:10583000D2F89000FCF7F0FF52A0FCF7EDFF4F48C4
:10584000808E00284BD04D4890F8340000F00100C5
:1058500030B14B49086EFCF7DFFF4AA0FCF7DCFFD4
:10586000464890F83400C0F3400030B14449486ED7
:10587000FCF7D2FF43A0FCF7CFFF404890F834007C
:10588000C0F3800030B13E49886EFCF7C5FF3DA0F3
:10589000FCF7C2FF394890F83400C0F3C00030B1C3
:1058A0003749C86EFCF7B8FF36A0FCF7B5FF3348A0
:1058B000808EC0F3002030B13149086FFCF7ACFF97
:1058C00030A0FCF7A9FF2D48808EC0F3402030B1F6
:1058D0002B49486FFCF7A0FF2AA0FCF79DFF274843
:1058E000806BC00F002847D02448C06B002843D0ED
:1058F000224890F83C0000F0010030B12049886F48
:10590000FCF78AFF1FA0FCF787FF1C4890F83C00BB
:10591000C0F3400030B11A49C86FFCF77DFF19A0F1
:10592000FCF77AFF154890F83C00C0F3800038B1CE
:105930001349D1F88000FCF76FFF12A0FCF76CFF51
:105940000E4890F83C00C0F3C00038B10C49D1F8C3
:105950008400FCF761FF0BA0FCF75EFF074890F89E
:105960003C00C0F3001038B10549D1F88800FCF7BD
:1059700053FF04A0FCF750FF10BD0000B4C001208D
:1059800004E300080D0A000013B50C464FF47A73C7
:10599000012269460248FCF78DFB00981CBD0000FF
:1059A0003801002070B505460C46224603212846E2
:1059B00000F00AF970BD00002DE9FF5F05468A4638
:1059C000654880680390039800780007860E142EBF
:1059D00000DAB8E06889042800D2B4E06868047886
:1059E00014B1082C72D100E0A8E0DFF86C9109F145
:1059F00014095948007D00F0F000E02800D1A6E02D
:105A0000554A1168506900F06DF900B19FE028898E
:105A1000082800D297E0284600F039F920B128463E
:105A200002F0F8FBBDE8FF9F06F10E01284602F0E8
:105A300055F800283CD0288930441FFA80FB28897B
:105A4000584500DD83E04FF4207259460E2002F0E5
:105A500093F8074607B97AE0798906F10800814290
:105A600003D2384602F0D6FB71E0324678680399DB
:105A7000FAF7F1FB3146384602F01AFD50B100BF8B
:105A800000BF36A0FCF7C8FE00BF00BF384602F0DA
:105A9000C1FB5CE02946384602F082FA18B138466C
:105AA00002F0B8FB53E0284602F0B4FB3D460EE09E
:105AB00006F10E01284602F0FBFC40B100BF00BF1A
:105AC00034A0FCF7A9FE00BF00BF40E024E0D5F8F9
:105AD00004803146284602F001F8E0B96F68D9F831
