:020000040800F2
:1000000008980020E1010008F1110008F311000830
:10001000F7110008FB110008FF11000800000000A4
:10002000000000000000000000000000490100087E
:1000300003120008000000008D01000805120008EE
:10004000FB010008FB010008FB010008FB010008A0
:10005000FB010008FB010008FB010008FB01000890
:10006000FB010008FB010008FB010008FB01000880
:10007000FB010008FB010008FB010008FB01000870
:10008000FB010008FB010008FB010008FB01000860
:10009000FB010008FB010008FB010008FB01000850
:1000A000FB010008FB010008FB010008FB01000840
:1000B000FB010008FB010008FB010008FB01000830
:1000C000FB010008FB010008FB010008FB01000820
:1000D000FB010008FB010008FB010008FB01000810
:1000E000FB010008FB010008FB010008FB01000800
:1000F000FB010008FB010008FB010008FB010008F0
:10010000FB010008FB010008FB010008FB010008DF
:10011000FB010008FB010008FB010008FB010008CF
:10012000FB010008FB010008FB010008FB010008BF
:10013000DFF810D003F0D8FF00480047C7100008D0
:10014000AFF3008008980020224B19680868B0E8D7
:10015000F00F80F30988BFF36F8F4FF0000080F33A
:1001600011884EF00D0E7047000000000648006830
:10017000006880F3088862B661B6BFF34F8FBFF3A3
:100180006F8F00DF00BF00BF08ED00E0EFF30980D4
:10019000BFF36F8F0F4B1A6820E9F00F106008B59E
:1001A0004FF0500080F31188BFF34F8FBFF36F8F74
:1001B00002F0DBFB4FF0000080F31188BDE808403F
:1001C00019680868B0E8F00F80F30988BFF36F8FF3
:1001D000704700BF34000020EFF305807047000037
:1001E0000648804706480047FEE7FEE7FEE7FEE7D1
:1001F000FEE7FEE7FEE7FEE7FEE7FEE7E3020008B4
:10020000310100080CB50020019000906C48006896
:1002100040F480306A49086000BF6948006800F413
:10022000003000900198401C0190009818B9019886
:10023000B0F5A06FF1D16248006800F4003010B151
:100240000120009001E0002000900098012843D197
:100250005C48006840F010005A4908600846006891
:1002600020F0030008600846006840F002000860C3
:10027000534840685249486008464068486008460C
:10028000406840F4806048600846406820F47C1074
:1002900048600846406840F4E81048600846006836
:1002A00040F08070086000BF4548006800F00070B2
:1002B0000028F9D04248406820F0030040494860D7
:1002C0000846406840F00200486000BF3C48406873
:1002D00000F00C000828F9D10CBD10B5FFF792FF13
:1002E00010BD10B53648006840F001003449086080
:1002F000084640683449084031494860084600686B
:10030000324908402E4908600846006820F48020E1
:1003100008600846406820F4FE0048604FF41F0063
:100320008860FFF7DAFF4FF000602949086010BDD0
:1003300010B5002100200022214B5B6803F00C0166
:1003400021B1042906D0082928D107E0214B224CED
:10035000236027E01F4B204C236023E0184B5B6891
:1003600003F47010164B5B6803F48032022303EB36
:10037000904022B9194B4343174C23600DE0104BBA
:100380005B6803F4003323B1144B4343124C2360E6
:1003900003E0104B4343104C236003E00D4B0E4C25
:1003A000236000BF00BF064B5B68C3F303130C4C14
:1003B000E15C094B1B68CB40074C236010BD00007B
:1003C00000100240002002400000FFF8FFFFF6FE90
:1003D00008ED00E000127A000000002000093D0056
:1003E0000400002031490143314A1160704770B563
:1003F000002100230F22C47804B32D4C246804F498
:10040000E064C4F5E064210AC1F10403CA40447801
:1004100004FA03F18478144021430901254C06783D
:10042000A155047804F01F050124AC4005786D1136
:10043000AD0005F1E025C5F8004109E0047804F0BD
:100440001F050124AC401C4D0678761145F8264066
:1004500070BD1A4A0A400243154B1B1F1A607047B1
:1004600039B1134A121D12680243114B1B1D1A6049
:1004700006E00F4A121D126882430D4B1B1D1A60C5
:100480007047042808D14FF0E021096941F00401C8
:100490004FF0E022116107E04FF0E021096921F0FF
:1004A00004014FF0E0221161704700000000FA05DE
:1004B0000CED00E000E400E080E100E080FFFF1FC1
:1004C00010B50446CC48844208D10121042000F034
:1004D0002DFB0021042000F029FB46E0C7488442A0
:1004E00008D10121082000F021FB0021082000F0A4
:1004F0001DFB3AE0C248844208D10121102000F0DF
:1005000015FB0021102000F011FB2EE0BD488442B5
:1005100008D10121202000F009FB0021202000F05B
:1005200005FB22E0B848844208D10121402000F0B8
:10053000FDFA0021402000F0F9FA16E0B3488442A9
:1005400008D10121802000F0F1FA0021802000F084
:10055000EDFA0AE0AE48844207D10121801500F08F
:10056000E5FA0021A01500F0E1FA10BD10B5012157
:10057000084600F0DBFA0021012000F0D7FA10BD98
:100580002DE9F0410246002500260020002300242A
:10059000002791F803C00CF00F0591F803C00CF090
:1005A000100CBCF1000F03D091F802C04CEA050515
:1005B00091F800C0BCF1000F31D0146800202BE08E
:1005C0004FF0010C0CFA00F3B1F800C00CEA03067E
:1005D0009E4220D183004FF00F0C0CFA03F7BC436E
:1005E00005FA03FC4CEA040491F803C0BCF1280F9F
:1005F00006D14FF0010C0CFA00FCC2F814C00AE05E
:1006000091F803C0BCF1480F05D14FF0010C0CFA72
:1006100000FCC2F810C0401C0828D1D31460B1F807
:1006200000C0BCF1FF0F34DD546800202EE000F163
:10063000080C4FF0010808FA0CF3B1F800C00CEAFE
:1006400003069E4221D183004FF00F0C0CFA03F7F2
:10065000BC4305FA03FC4CEA040491F803C0BCF166
:10066000280F05D100F1080C08FA0CF8C2F8148024
:1006700091F803C0BCF1480F07D100F1080C4FF00E
:10068000010808FA0CF8C2F81080401C0828CED3E4
:100690005460BDE8F0814FF6FF7101800221817046
:1006A0000421C17070470246002093680B400BB1D3
:1006B000012000E0002070470146886880B2704742
:1006C00002460020D3680B400BB1012000E000205F
:1006D00070470146C86880B2704701617047416148
:1006E00070470AB1016100E041617047C160704725
:1006F0004FF480320A43826181618261826982693A
:10070000704702460020434B18684FF6807318402C
:1007100040EA021008433F4B186070473E49C861E9
:100720007047F0B50A46002300240021002500F0A0
:100730000046B6F1004F02D1364EF16901E0354E68
:100740007168C0F3034583B200F44016B6F5401F4C
:1007500008D121F070612F4E766826F070662D4F1B
:100760007E6012E000F48016B6F5801F06D10326E5
:1007700006FA05F4A14341F0706106E0460D36012A
:1007800003FA06F6B14341F0706122B1460D36011D
:1007900003FA06F6314300F00046B6F1004F02D1ED
:1007A0001C4EF16101E01B4E7160F0BD30B50022BE
:1007B0008B071C0F0F2303FA04F2164B08338C101F
:1007C00053F824309343134C08348D1044F82530EB
:1007D00023468C1053F824308C07240F00FA04F4BD
:1007E00023430C4C08348D1044F8253030BD0A49A1
:1007F000DC3108607047000000080140000C014037
:10080000001001400014014000180140001C01408C
:10081000002001400000014000002042DF48006845
:1008200040F00100DD49086008464068DC490840A6
:10083000DA49486008460068DA490840D749086044
:100840000846006820F4802008600846406820F4CC
:10085000FE0048604FF41F0088607047CF49096868
:1008600021F48031CD4A11601146096821F48021BC
:100870001160B0F5803F03D0B0F5802F0ED106E0B7
:10088000C649096841F48031C44A116007E0C34990
:10089000096841F4A021C14A116000E000BF00BF17
:1008A000704710B501460022002300204A11012A9A
:1008B00002D1BA4C236806E0022A02D1B74C236A5F
:1008C00001E0B64C636A01F01F02012494401C4011
:1008D0000CB1012000E0002010BD38B500200090D0
:1008E0000024002500BF3120FFF7DBFF05460098FC
:1008F000401C00900098B0F5A06F01D0002DF2D000
:100900003120FFF7CEFF08B1012400E0002420468B
:1009100038BD01460020A14A106820F0F80040EAE6
:10092000C10010607047A04908607047024600206F
:100930009A4B586820F47C1042EA01031843974B05
:100940005860704798490866704701460020934AEE
:10095000506820F003000843506070478F4840689B
:1009600000F00C007047014600208C4A506820F0CF
:10097000F00008435060704701460020874A5068E5
:1009800020F4E06008435060704701460020834A2D
:10099000506820F4605040EAC1005060704729B1AF
:1009A0007E4A527A02437D4B5A7204E07B4A527A65
:1009B00082437A4B5A7270477B49D831086070473E
:1009C00001460020754A506820F4404008435060BA
:1009D00070470021714A20321170704A82F820104D
:1009E000012802D004280AD104E001216B4A2032F8
:1009F000117005E00521694A2032117000E000BF46
:100A000000BF70476949086070476449096A01433B
:100A1000624A11627047654944390860704730B5D1
:100A200000210022002400235C4D6D6805F00C01BC
:100A300021B1042905D0082923D105E05C4D0560CA
:100A400022E05B4D05601FE0544D6D6805F47012A7
:100A5000524D6D6805F48034022505EB92421CB9B5
:100A6000544D554305600BE04C4D6D6805F4003561
:100A70001DB1504D5543056002E04D4D5543056095
:100A800002E04B4D056000BF00BF444D6D6805F0AE
:100A9000F0010909484D6B5C0568DD4045603F4D3C
:100AA0006D6805F4E061090A434D6B5C4568DD4003
:100AB00085603A4D6D6805F46051C90A3E4D6B5C26
:100AC0004568DD40C560354D6D6805F44041890BD2
:100AD0003A4D6B5CC568B5FBF3F5056130BD29B1D6
:100AE0002E4A526902432D4B5A6104E02B4A526947
:100AF00082432A4B5A61704729B1284A92690243BE
:100B0000264B9A6104E0254A92698243234B9A61FD
:100B1000704729B1214AD2690243204BDA6104E0CF
:100B20001E4AD26982431D4BDA61704729B11B4AC4
:100B3000D2680243194BDA6004E0184AD268824353
:100B4000164BDA60704729B1144A12690243134BFD
:100B50001A6104E0114A12698243104B1A6170470E
:100B600012494039086070470F49C86470470B4903
:100B7000C87170470948406A40F080700749486270
:100B8000704701460020054A92680A400AB10120D8
:100B900000E0002070470149887270470010024051
:100BA0000000FFF8FFFFF6FE0000424280044242D0
:100BB00000127A0000093D001400002024000020EB
:100BC00010B50446FB48844209D101218803FFF790
:100BD000ADFF00214FF48040FFF7A8FF32E0F64858
:100BE000844209D101214804FFF7ADFF00214FF4F1
:100BF0000030FFF7A8FF25E0F048844209D1012129
:100C00008804FFF7A0FF00214FF48020FFF79BFF2F
:100C100018E0EB48844209D10121C804FFF793FF93
:100C200000214FF40020FFF78EFF0BE0E5488442DF
:100C300008D101210805FFF786FF00214FF480103D
:100C4000FFF781FF10BD2DE9F04786B005460E463F
:100C50000024A24600BFA1460027B08900B100BF12
:100C60002F462C8A4CF6FF700440F08804432C82F7
:100C7000AC894EF6F3100440B0883189084371897D
:100C800008430443AC81AC8A4FF6FF400440B0896E
:100C90000443AC8201A8FFF7C2FEC648874202D1D6
:100CA000DDF810A001E0DDF80CA0A88900F40040F8
:100CB00040B10AEBCA0000EB0A1031684900B0FBF2
:100CC000F1F807E00AEBCA0000EB0A10316889006E
:100CD000B0FBF1F86420B8FBF0F0040120096421B6
:100CE00001FB1089A88900F4004040B1322000EBDC
:100CF000C900B0FBF1F000F00700044308E0322027
:100D000000EB09106421B0FBF1F000F00F00044388
:100D10002C8106B0BDE8F0874FF416510160002128
:100D20008180C18001810C21418100218181704736
:100D300010B502460020108A4FF2FF0318400B88BE
:100D40004C8823438C882343CC8823431843108248
:100D500010BD0021018041808180C180704721B198
:100D6000828942F40052828104E082894DF6FF7349
:100D70001A4082817047F0B5034600240026002502
:100D8000002040F66A17B94200D100BF1846C1F3EF
:100D9000421401F01F06012707FA06F5012C01D1C4
:100DA0000C3004E0022C01D1103000E014301AB1F4
:100DB00007682F43076002E00768AF430760F0BD94
:100DC0001AB1838A0B43838202E0838A8B43838236
:100DD0007047028A4FF6F0731A400282028A0A4371
:100DE0000282704782894FF2FF731A4082818289A2
:100DF0000A438281704721B1828942F002028281D6
:100E000004E082894FF6FD731A4082817047028A9E
:100E10004FF6DF731A400282028A0A430282704749
:100E200021B1028A42F48042028204E0028A4BF637
:100E3000FF731A4002827047C1F308028280704734
:100E400001468888C0F308007047818941F001019C
:100E500081817047028BD2B20283028B42EA012267
:100E600002837047028B02F47F420283028B0A43A3
:100E70000283704721B1828A42F02002828204E01C
:100E8000828A4FF6DF731A408282704721B1828ACC
:100E900042F01002828204E0828A4FF6EF731A4019
:100EA0008282704721B1828A42F00802828204E085
:100EB000828A4FF6F7731A408282704721B1828985
:100EC00042F40042828103E08289C2F30E028281F1
:100ED000704721B1828A42F40062828204E0828AF1
:100EE0004FF2FF731A4082827047828A4FF6FB737B
:100EF0001A408282828A0A438282704721B1828AA2
:100F000042F00202828204E0828A4FF6FD731A40A8
:100F10008282704702460020B1F5007F00D100BFF9
:100F200013880B400BB1012000E00020704701F452
:100F30000072B2F5007F00D100BFCA430280704743
:100F400070B50246002400230025002040F66A16F2
:100F5000B14200D100BFC1F3421501F01F030126C9
:100F600006FA03F3012D02D19689334006E0022DE3
:100F700002D1168A334001E0968A33400C120126D2
:100F800006FA04F41688344013B10CB1012000E0D5
:100F9000002070BD10B50022002340F66A14A14263
:100FA00000D100BF0A1201249440A3B2DC430480A4
:100FB00010BD0000003801400044004000480040DF
:100FC000004C00400050004023E001214D4800F05B
:100FD0003EFA012809D14CA003F098F80023012221
:100FE00011464C48006802F06DF94FF400514A4830
:100FF00000F02DFA012809D148A003F087F800235A
:10100000012202214348006802F05CF9142001F03B
:1010100083FBDAE708B5002000900024012519E0E1
:101020004FF0FF336A461946002002F000F90546EA
:10103000012D0FD100980443032C0AD100243AA0BB
:1010400003F064F83D48006880F020003B490860E8
:1010500000E0009CE4E71CB5012402F020FE2D48CE
:10106000022100230A02CDE9001035A1374801F022
:10107000D1F80446012C02D135A003F047F83B48D3
:10108000032100234FF40072CDE9001038A13B4842
:1010900001F0C0F80446012C02D139A003F036F863
:1010A0003E48006801F004F902F01CFE1CBD10B5BA
:1010B0004FF44070FFF796F900F0ACF800F0EDF84F
:1010C00000F0AAF910BD1CB50124FFF7F0FF344869
:1010D00003F01CF833A003F019F830480121002375
:1010E0004A02CDE900103DA1404801F093F80446C2
:1010F000012C02D101F0BBFD02E04FF0FF301CBD1E
:1011000000BFFEE7000801404B455931B1BBB0B408
:10111000CFC20A002C000020001001404B4559327C
:10112000B1BBB0B4CFC20A004B455931D3EB4B45EC
:101130005932B6BCB0B4CFC20D0A00000C0C01404D
:101140004C45445F5461736B0000000015100008AB
:10115000B4B4BDA84C45445F5461736B20C8CECE77
:10116000F1B3C9B9A6210D0A00000000300000202B
:101170004B45595F5461736B00000000C90F0008B4
:10118000B4B4BDA84B45595F5461736B20C8CECE33
:10119000F1B3C9B9A6210D0A000000002800002003
:1011A00004430008B3B5CEBBC4ACC8CFD6B5CEAAF5
:1011B00030B8F6A3ACB0B4CFC24B455931C9EAC779
:1011C000EBB3B5CEBBA3ACB0B4CFC24B455932CA1A
:1011D000CDB7C5B3B5CEBBA3A10A0A004170705408
:1011E00061736B43726561746500000057100008FD
:1011F000704700BFFEE700BFFEE700BFFEE700BF8D
:10120000FEE7704710B501F0FAFE012801D002F0A8
:1012100081FD10BD08B501210820FFF76DFC2020DD
:10122000ADF8000010208DF8030003208DF80200B7
:1012300069460F48FFF7A4F90120ADF800006946A0
:101240000B48FFF79DF90220ADF8000069460848F9
:10125000FFF796F920210648FFF73FFA01210448DD
:10126000FFF73BFA02210248FFF737FA08BD0000FA
:10127000000C014008B54FF4A060FFF7B3F825203B
:101280008DF8000001208DF801008DF802008DF826
:1012900003006846FFF7ABF808BD00B585B0012133
:1012A0000420FFF729FC01218803FFF725FC4FF4F8
:1012B0000070ADF8100018208DF8130003208DF891
:1012C000120004A95248FFF75BF94FF48060ADF8B3
:1012D000100004208DF8130004A94D48FFF750F9C1
:1012E0004FF4E13000900020ADF80400ADF80600A6
:1012F000ADF80800ADF80C000C20ADF80A00694606
:101300004448FFF7A0FCFFF7B5FF012240F225514A
:101310004048FFF730FD01213E48FFF720FD05B0B2
:1013200000BD70B504460D4629462046FFF784FDF2
:1013300000BF80212046FFF7EDFD0028F9D070BDE9
:101340002DE9F04107460D461646002405E0295DCB
:101350003846FFF7E6FF601CC4B2B442F7DB00BFBB
:1013600040213846FFF7D6FD0028F9D0BDE8F081CE
:1013700070B506460C46002500BF615D3046FFF79C
:10138000D0FF6D1C605D0028F7D100BF40213046C2
:10139000FFF7C0FD0028F9D070BD2DE9F0410546EA
:1013A0000C46260AE7B231462846FFF745FD00BF46
:1013B00080212846FFF7AEFD0028F9D0394628469F
:1013C000FFF73AFD00BF80212846FFF7A3FD002864
:1013D000F9D0BDE8F08170B504460D46E1B20D4884
:1013E000FFF72AFD00BF80210A48FFF793FD002880
:1013F000F9D0204670BD10B5044600BF2021054835
:10140000FFF788FD0028F9D00248FFF719FD10BD4D
:10141000000801400038014008B501211420FFF701
:101420006BFB0120ADF8000004208DF80300694635
:101430001148FFF7A5F84FF40050ADF80000042064
:101440008DF8030069460D48FFF79AF808BD70B59E
:1014500004460D4629462046FFF725F9012808D104
:1014600000BF29462046FFF71EF90128F9D00120C8
:1014700070BD0020FCE700000008014000100140A2
:1014800000F1080141604FF0FF31816000F1080177
:10149000C160016100210160704700210161704756
:1014A00042684A6093688B609368596091600861F4
:1014B00003685B1C0360704710B502460B685C1C38
:1014C0000CB9106907E002F1080000E040684468C8
:1014D00024689C42FAD944684C604C68A1608860DA
:1014E00041600A611468641C146010BD01460A69F9
:1014F000D1E901309860D1E9010358605068884211
:1015000001D188685060002008611068401E10609A
:101510001068704770B505460E462C462CB940F24F
:101520001B12F8A1FEA002F0F1FD02F0B8FBD4E915
:101530000F12206801FB020060600020A063206899
:10154000A060E06B401E226C216800FB0210E0608E
:10155000FF2084F8440084F845009EB9206908B94A
:10156000012000E00020A8B904F1100001F06CFC9B
:1015700080B14FF08050EE490860BFF34F8FBFF34A
:101580006F8F07E004F11000FFF77AFF04F12400E9
:10159000FFF776FF02F0A6FB012070BD2DE9F041B8
:1015A00006460D4617469846069C0DB9246000E095
:1015B0002760E663256401212046FFF7ABFFBDE805
:1015C000F0812DE9F84305460E4690460DB1012005
:1015D00000E0002028B94FF4C472CAA1D0A002F0E4
:1015E00095FD0EB9002701E005FB06F707F148005D
:1015F00002F061FC044644B104F1480943464A46FE
:10160000314628460094FFF7C9FF2046BDE8F8831D
:1016100070B5044602F043FB94F9455010E0606A4F
:1016200008B9012000E0002038B904F1240001F0DD
:101630000BFC18B101F0DCFC00E003E0681E45B2D1
:10164000002DECDC00BFFF2084F8450002F04AFBCF
:1016500002F025FB94F9445010E0206908B90120FC
:1016600000E0002048B904F1100001F0EDFB08B1E2
:1016700001F0BEFC681E45B200E001E0002DECDC8C
:1016800000BFFF2084F8440002F02CFB70BD70B551
:10169000054602F004FBA86BE96B884201D10124E6
:1016A00000E0002402F01EFB204670BD2DE9F04151
:1016B00004460F4615464FF00008A66B206C40B953
:1016C000206860BB606801F0F8FC80460020606024
:1016D00025E07DB93946226CA06802F0DDFC216C62
:1016E000A0680844A060D4E90110884217D320689C
:1016F000A06014E03946226CE06802F0CDFC216C59
:10170000E068401AE0602168E068884203D2216CFA
:101710006068401AE060022D01D106B1761E701C8F
:10172000A0634046BDE8F0812DE9FF4383B0064643
:1017300088461D464FF0000934462CB940F2D922A4
:1017400070A177A002F0E2FCB8F1000F01D1206C8B
:1017500008B9012000E0002028B940F2DA2269A18E
:101760006FA002F0D3FC022D02D1E06B012801D161
:10177000012000E0002028B940F2DB2261A168A02E
:1017800002F0C4FC01F03BFC08B9059808B901203F
:1017900000E0002028B940F2DE225AA160A002F049
:1017A000B5FC00BF02F07BFAA06BE16B884201D36D
:1017B000022D28D12A4641462046FFF777FF0746EB
:1017C000606A08B9012000E0002068B904F1240033
:1017D00001F03AFB88B14FF0805055490860BFF3E3
:1017E0004F8FBFF36F8F08E03FB14FF080505049EB
:1017F0000860BFF34F8FBFF36F8F02F073FA0120C1
:1018000007B0BDE8F083059818B902F06BFA002024
:10181000F6E7B9F1000F04D101A801F099FB4FF0F0
:10182000010902F05FFA00F016FF02F038FA94F9AD
:101830004400401C10B9002084F8440094F945008D
:10184000401C10B9002084F8450002F04BFA05A9AD
:1018500001A801F08FFBF0B92046FFF718FFA0B1F7
:1018600004F11000059901F091FA2046FFF7D0FE2F
:1018700000F046FE002895D14FF080502C490860BA
:10188000BFF34F8FBFF36F8F8CE72046FFF7C0FE8B
:1018900000F036FE86E72046FFF7BAFE00F030FE85
:1018A0000020ADE710B504464CB100206060206018
:1018B000E06000231A4619462046FFF735FF10BDA9
:1018C0002DE9F0410446012600272246002101208F
:1018D000FFF777FE05462846FFF7E4FF2846BDE8F8
:1018E000F08170B5064634462CB940F2412205A17C
:1018F0000BA002F00BFC01F07FFB6168884225D150
:10190000E06817E02E2E5C2E2E5C46726565525400
:101910004F535C7372635C71756575652E6300006F
:101920004572726F723A25732C25640D0A0000000F
:1019300004ED00E0401EE060E06828B900231A468C
:1019400019462046FFF7F0FE012500E00025284655
:1019500070BD70B5054602F0A2F9A86B08B9012464
:1019600000E0002402F0BEF9204670BD70B50446C8
:101970000D46206C70B1216CE0680844E06061683D
:10198000E068884201D32068E0602846226CE16864
:1019900002F082FB70BD2DE9FF4782B005460E467E
:1019A0001F464FF0000A2C463CB940F2DC42AFF231
:1019B000AC01AFF2940002F0A9FB0EB9206C08B99B
:1019C000012000E0002038B940F2DD42AFF2CC0146
:1019D000AFF2B40002F09AFB01F011FB08B90498D1
:1019E00008B9012000E0002038B94FF49C62AFF242
:1019F000EC01AFF2D40002F089FB00BF02F04FF916
:101A0000D4F83890B9F1000F3DD0D4F80C803146AD
:101A10002046FFF7ABFFDFB9A9F10100A063206802
:101A200010B901F0C1FB6060206908B9012000E035
:101A3000002010BB04F1100001F006FAE8B14FF0ED
:101A40008050FB490860BFF34F8FBFF36F8F14E0E6
:101A5000C4F80C80606A08B9012000E0002060B979
:101A600004F1240001F0F0F938B14FF08050F04952
:101A70000860BFF34F8FBFF36F8F02F033F901207F
:101A800006B0BDE8F087049818B902F02BF90020E1
:101A9000F6E7BAF1000F04D1684601F059FA4FF0A9
:101AA000010A02F01FF900F0D6FD02F0F8F894F9EF
:101AB0004400401C10B9002084F8440094F945000B
:101AC000401C10B9002084F8450002F00BF904A96D
:101AD000684601F04FFA40BB2046FFF73AFFF0B1ED
:101AE000206830B902F0DBF8606801F094FA02F087
:101AF000F9F804F12400049901F048F92046FFF7B1
:101B000087FD00F0FDFC00287FF478AF4FF0805097
:101B1000C7490860BFF34F8FBFF36F8F6EE7204652
:101B2000FFF776FD00F0ECFC68E72046FFF770FD5C
:101B300000F0E6FC2046FFF70CFF0028EED0002066
:101B40009EE72DE9F04106460F4634463CB94FF476
:101B50001E72AFF25021AFF2382002F0D7FA01F036
:101B60004BFA6168884204D1E068401CE0600125BE
:101B70000AE000233A4619462046FFF70CFF0546C7
:101B800015B1E068401CE0602846BDE8F08170B502
:101B900005460E460DB1012000E0002038B940F2A4
:101BA000BD22AFF2A021AFF2882002F0AFFAAE4220
:101BB00001D8012000E0002038B940F2BE22AFF287
:101BC000BC21AFF2A42002F0A1FA02220021284693
:101BD000FFF7F7FC044604B1A663204670BD2DE96B
:101BE000F05F07468A4690461E463C463CB940F2A6
:101BF0009F32AFF2F021AFF2D82002F087FABAF1AB
:101C0000000F01D1206C08B9012000E0002038B994
:101C10004FF46872AFF21431AFF2FC2002F076FAA2
:101C2000022E02D1E06B012801D1012000E000204A
:101C300038B940F2A132AFF23431AFF21C3002F0C9
:101C400065FA02F07FF800BF5021EFF3118081F3B5
:101C50001188BFF34F8FBFF36F8F00BF0546A06B96
:101C6000E16B884201D3022E23D194F945B032466C
:101C700051462046FFF71AFD0BF1010088B9606A52
:101C800008B9012000E0002080B904F1240001F02F
:101C9000DBF858B1B8F1000F08D00120C8F80000F7
:101CA00004E00BF1010040B284F845004FF0010957
:101CB00001E04FF0000900BF85F3118800BF4846DE
:101CC000BDE8F09F2DE9F04706460F4634463CB983
:101CD00040F23C42AFF2D431AFF2BC3002F016FA1F
:101CE000206C08B9012000E0002038B94FF4886268
:101CF000AFF2F031AFF2D83002F008FA206808B93C
:101D0000606808B9012000E0002038B940F245427F
:101D1000AFF21041AFF2F83002F0F8F902F012F829
:101D200000BF5021EFF3118081F31188BFF34F8F73
:101D3000BFF36F8F00BF0546D4F83890E06B48457D
:101D40001ED994F945A009F10100A0630AF1010030
:101D500070B9606A08B9012000E0002068B904F198
:101D6000240001F071F840B13FB10120386004E077
:101D70000AF1010040B284F845004FF0010801E08B
:101D80004FF0000800BF85F3118800BF4046BDE852
:101D9000F0872DE9F05F06468946174634463CB980
:101DA0004FF4B462AFF2A441AFF28C4002F0AEF94E
:101DB000B9F1000F01D1206C08B9012000E000202A
:101DC00038B940F2A152AFF2C441AFF2AC4002F0D8
:101DD0009DF901F0B7FF00BF5021EFF3118081F3AF
:101DE0001188BFF34F8FBFF36F8F00BF0546D4F844
:101DF00038A0BAF1000F25D094F944B049462046E6
:101E0000FFF7B4FDAAF10100A0630BF1010088B94E
:101E1000206908B9012000E0002080B904F1100019
:101E200001F012F858B157B10120386007E0000006
:101E300004ED00E00BF1010040B284F844004FF0E3
:101E4000010801E04FF0000800BF85F3118800BFD2
:101E50004046BDE8F09F2DE9F047064688463446E7
:101E60003CB940F2FC52AFF26451AFF24C5002F078
:101E70004DF9B8F1000F01D1206C08B9012000E044
:101E8000002038B940F2FD52AFF28851AFF27050E5
:101E900002F03CF9206C08B1012000E0002038B9C4
:101EA00040F2FE52AFF2A451AFF28C5002F02EF984
:101EB00001F048FF00BF5021EFF3118081F311883A
:101EC000BFF34F8FBFF36F8F00BF0546A06B48B1C4
:101ED000D4F80C9041462046FFF748FDC4F80C901A
:101EE000012700E0002700BF85F3118800BF3846B6
:101EF000BDE8F08770B504463CB940F22F62AFF2FE
:101F0000FC51AFF2E45002F001F901F0C8FEA56BFC
:101F100001F0E8FE284670BD70B5044625463DB97F
:101F200040F24162AFF22461AFF20C6002F0EEF8D1
:101F300001F0B5FED5E90E10461A01F0D3FE304689
:101F400070BD70B504463CB940F25162AFF24C61CD
:101F5000AFF2346002F0DAF8A56B284670BD014696
:101F600000200EE04B4A02EBC00252688A4207D1C1
:101F70000022484B43F8302003EBC0035A6002E0D4
:101F8000401C0A28EED300BF704770B504462546B2
:101F90003DB940F25D62AFF29461AFF27C6002F055
:101FA000B5F82846FFF7DBFF284602F007F870BDBA
:101FB00070B505463DB940F29372AFF2B861AFF229
:101FC000A06002F0A3F8A86B08B9012400E0002487
:101FD000204670BD70B504463CB940F2BA72AFF20B
:101FE000DC61AFF2C46002F091F8A06BE16B884253
:101FF00001D1012500E00025284670BD02460020E1
:102000000BE0244B53F8303033B9224B43F83010F7
:1020100003EBC0035A6002E0401C0A28F1D300BF62
:1020200070470246002000210AE01A4B03EBC1036F
:102030005B68934203D1174B53F8310002E0491C0F
:102040000A29F2D300BF70472DE9F04105460E463C
:1020500017462C4601F023FE94F94400401C10B9A9
:10206000002084F8440094F94500401C10B9002079
:1020700084F8450001F036FEA06B28B93A46314697
:1020800004F1240000F0C5FE2046FFF7C1FABDE8C8
:10209000F0810000AC00002010B5002407E004EB44
:1020A0008401F74A02EB8100FFF7EAF9641C202C57
:1020B000F5D3F448FFF7E4F9F348FFF7E1F9F34803
:1020C000FFF7DEF9F248FFF7DBF9F248FFF7D8F93E
:1020D000EC48F1490860EC48F049086010BD10B5C3
:1020E000044601F0DCFDEE480068401CEC49086045
:1020F000EC48006840B9EB480460084600680128D5
:102100000DD1FFF7C9FF0AE0E748006838B9E54894
:102110000068C06AE16A884201D8E2480460E34886
:102120000068401CE149086094F82C1001208840A8
:10213000DF4909680843DE490860E16A01EB810173
:10214000CF4A02EB8100211DFFF7AAF901F0CAFD79
:10215000D548006868B1D3480068C06AE16A88421F
:1021600007D24FF08050D3490860BFF34F8FBFF3C1
:102170006F8F10BD2DE9FF5F81460F469246DDE966
:102180000E6B109CAAF10100216B01EB800828F076
:10219000070808F0070008B9012000E0002028B96E
:1021A00040F22B32C4A1CBA001F0B0FF002507E024
:1021B000795D04F134004155785D00B902E06D1C91
:1021C000102DF5D300BF002143200155202E00D350
:1021D0001F26E66266640020A064201DFFF75DF9FB
:1021E00004F11800FFF759F92461C6F12000A0613D
:1021F00064620020E06484F8500049464046039A37
:1022000001F0DAFC2060BBF1000F01D0CBF80040F8
:10221000BDE8FF9F2DE9FF4F85B0804689461746F0
:10222000DDE912ABB80001F046FE064656B1542077
:1022300001F041FE04460CB1266304E0304601F093
:10224000BDFE00E000247CB10020CDE900ABCDE96B
:1022500002403A4649464046089BFFF78BFF20461E
:10226000FFF73DFF012501E04FF0FF35284609B09B
:10227000BDE8F08F88490968096809B9012100E0C3
:10228000002121B14FF0FF31964A116006E08249EA
:102290000968C968C868934A41681160704710B5F9
:1022A0000446206B01F08AFE204601F087FE10BD37
:1022B00070B5054601F0F3FC15B97A48006800E0F6
:1022C00028460446201DFFF711F978B9E06A00EBB3
:1022D00080006B4951F8200040B994F82C1001207F
:1022E000884073490968814371480160A06A18B148
:1022F00004F11800FFF7FAF86C480068401C6B49BD
:10230000086068480068844209D1211D6048FFF7D1
:10231000C7F875480068401C7349086009E06048C8
:102320000068401E5E4908602046FFF7B8FFFFF7CF
:10233000A1FF01F0D7FC5C480068C0B159480068B3
:10234000844214D16948006808B9012000E00020E7
:1023500028B940F2654258A15EA001F0D7FE4FF0C7
:10236000805054490860BFF34F8FBFF36F8F70BD2B
:102370002DE9F0414FF000085C480068002872D158
:102380005B480068451C5A480560EDB94248006842
:10239000006808B9012000E0002028B940F6D912F1
:1023A00045A14CA001F0B2FE3B4807683B480068DD
:1023B00039490860394807604E480068401C4D495B
:1023C0000860FFF757FF00BF4648006885423CD3CE
:1023D00000BF31480068006808B9012000E0002013
:1023E00020B14FF0FF303F4908602DE02A480068D7
:1023F000C068C4686668B54202D23A48066023E005
:10240000201DFFF773F8A06A18B104F11800FFF758
:102410006DF894F82C10012088402549096808437C
:1024200023490860E16A01EB8101154A02EB810052
:10243000211DFFF735F81B49E06A0968C96A88421F
:10244000C7D34FF00108C4E700BF16480068C06A50
:1024500000EB80000A4951F82000012801D94FF013
:10246000010805E0FFE724480068401C2249086095
:102470002248006808B14FF001084046BDE8F081ED
:10248000FC0000207C03002090030020A403002017
:10249000B8030020CC030020380000203C000020BE
:1024A0004400002034000020500000206000002084
:1024B0004C00002004ED00E02E2E5C2E2E5C4672B7
:1024C000656552544F535C7372635C7461736B73D4
:1024D0002E6300004572726F723A25732C25640DCD
:1024E0000A00000064000020400000206C00002072
:1024F000480000205C00002054000020580000200C
:1025000070B500240026FE48006838B94FF4FD621B
:10251000AFF25C01AFF2440001F0F8FD01F0BFFB47
:10252000F7480068401EF649086008460068002821
:102530004FD1F448006800284BD024E0F248C0682E
:10254000C46804F11800FEF7D1FF201DFEF7CEFF8E
:1025500094F82C1001208840EC4909680843EB49A5
:102560000860E16A01EB8101E94A02EB8100211D6B
:10257000FEF796FFE749E06A0968C96A884202D314
:102580000120E5490860E048006808B9012000E042
:1025900000200028D2D00CB1FFF76CFEDF480568A0
:1025A00065B100BFFFF7E4FE10B10120DA49086011
:1025B0006D1E002DF6D10020D8490860D64800686D
:1025C00038B101263007D6490860BFF34F8FBFF3FB
:1025D0006F8F01F087FB304670BD2DE9F041054655
:1025E0000E46D0480768CB480068001DFEF77EFF06
:1025F00050B9C848006890F82C1001208840C349A1
:1026000009688143C1480160681C38B936B1C148C6
:102610000168091DC448FEF743FF1AE07C19BD4854
:1026200000684460BC4207D2BA480168091DBF482F
:102630000068FEF741FF0CE0B6480168091DBC4880
:102640000068FEF739FFBB480068844201D2B948F0
:102650000460BDE8F081AA480068401CA8490860F1
:1026600070472DE9F04704460F464FF000093CB98A
:1026700040F27942AFF2C011AFF2A81001F046FD6E
:102680000FB1012000E0002038B940F27A42AFF2E9
:10269000D811AFF2C01001F039FD9948006808B9AF
:1026A000012000E0002038B940F27B42AFF2F8117F
:1026B000AFF2E01001F02AFDFFF7CDFF9948066860
:1026C0002068C5192068B04207D92068A8420BD9F4
:1026D000B54209D94FF0010906E02068A84201D8A7
:1026E000B54201D94FF001092560B9F1000F03D0BF
:1026F000A81B0021FFF771FFFFF702FF8046B8F12A
:10270000000F07D14FF0805085490860BFF34F8F0D
:10271000BFF36F8FBDE8F08770B504460025BCB1EC
:102720007748006808B9012000E0002038B940F27D
:10273000CF42AFF27C21AFF2642001F0E7FCFFF75B
:102740008AFF00212046FFF748FFFFF7D9FE054624
:102750003DB94FF0805072490860BFF34F8FBFF30F
:102760006F8F70BD2DE9F04107463E463EB940F2FD
:10277000FB42AFF2BC21AFF2A42001F0C7FC6548D8
:102780000068864201D100241EE001F088FA7569D4
:1027900001F0A8FA66480068854203D063480068E3
:1027A000854201D102240FE05F48854205D1B06A1D
:1027B00008B9032408E0022406E05F48854200D0FF
:1027C0000DB9042400E001242046BDE8F08170B575
:1027D000044601F064FA14B94E48006800E020464F
:1027E0000646F56A01F07EFA284670BD2DE9F041F3
:1027F000054601F0A7FA00BF5021EFF3118081F3E5
:102800001188BFF34F8FBFF36F8F00BF044615B918
:102810004048006800E028460746FE6A00BF84F38F
:10282000118800BF3046BDE8F0812DE9F0478046B1
:102830000D464FF00009202D01D2012000E00020BC
:1028400038B94FF4B062AFF29031AFF2783001F0A6
:102850005DFC202D00D31F2501F021FAB8F1000FF7
:1028600002D12C48006800E040460446666CAE4247
:1028700077D0B5420BD92748006884420DD025484F
:102880000068C06AA84208D84FF0010905E0214855
:102890000068844201D14FF00109E76AE16A606C87
:1028A000884200D1E5626564A06900F0004010B97B
:1028B000C5F12000A06107EB8701154A02EB8101F9
:1028C0006069884201D1012000E00020B0B3201DE2
:1028D000FEF70CFE30B90120B8400C49096881436D
:1028E0000A48016094F82C100120884007490968C3
:1028F000084306490860E16A01EB8101044A1FE0D0
:102900006C00002044000020A40300204C000020A4
:10291000FC0000203400002058000020540000205B
:1029200004ED00E048000020CC0300203C00002023
:102930003800002064000020B803002005E010E00B
:1029400002EB8100211DFEF7ABFDB9F1000F07D0AE
:102950004FF08050FB490860BFF34F8FBFF36F8F7C
:1029600000BF01F0BFF9BDE8F08710B5F648006878
:1029700018B10120F54908602FE00020F3490860F4
:10298000F3480068B0FA80F0C0F11F0404EB840043
:10299000F04951F8200008B1012000E0002038B9CA
:1029A00040F6F622AFF2F041AFF2D84001F0AEFBB4
:1029B00004EB8401E74A02EB810041684968416009
:1029C00000F1080142688A4202D1416849684160C9
:1029D0004168C968E04A116000BF10BD70B5054686
:1029E00001F05DF915B9DC48006800E028460446AE
:1029F000201DFEF77BFD78B9E06A00EB8000D54929
:102A000051F8200040B994F82C1001208840D0499A
:102A100009688143CE480160A06A18B104F118002A
:102A2000FEF764FD211DCD48FEF73AFD01F05AF98D
:102A3000CB48006828B101F032F9FFF71BFC01F028
:102A400051F9C5480068844226D1C5480068B8B12C
:102A5000BD48006808B9012000E0002038B940F204
:102A60005762AFF2AC51AFF2945001F04FFB4FF010
:102A70008050B4490860BFF34F8FBFF36F8F0BE0F6
:102A8000B6480068B7490968884203D10020B249B6
:102A9000086001E0FFF769FF70BD70B505460026CC
:102AA0002C463DB940F28162AFF2F451AFF2DC50F6
:102AB00001F02CFBA9496069884201D1012000E0A6
:102AC000002070B1A849A06A884201D1012000E02D
:102AD000002030B9A06A08B9012000E0002000B150
:102AE0000126304670BD70B505462C463DB940F212
:102AF000AB62AFF23C61AFF2246001F007FB74B34C
:102B00009548006884422AD001F0C9F82046FFF7B2
:102B1000C4FF10B3201DFEF7E9FC94F82C1001202F
:102B200088408B490968084389490860E16A01EBDC
:102B30008101884A02EB8100211DFEF7B1FC864924
:102B4000E06A0968C96A884207D34FF080507D491E
:102B50000860BFF34F8FBFF36F8F01F0C3F870BDF4
:102B60002DE9F0410646002734463EB940F2E262C4
:102B7000AFF2BC61AFF2A46001F0C8FA01F0E2F874
:102B800000BF5021EFF3118081F31188BFF34F8F05
:102B9000BFF36F8F00BF05462046FFF77EFF20B3CF
:102BA00069480068E0B96C49E06A0968C96A884206
:102BB00000D30127201DFEF799FC94F82C1001206A
:102BC000884063490968084361490860E16A01EB8C
:102BD0008101604A02EB8100211DFEF761FC04E0E7
:102BE00004F118016048FEF75BFC00BF85F3118813
:102BF00000BF3846BDE8F08170B523E0FFF72BFD3C
:102C00005A48006808B9012000E000200546FFF797
:102C100077FCBDB901F043F85448C068C468201D72
:102C2000FEF764FC4F480068401E4E49086050485B
:102C30000068401E4E49086001F054F82046FFF736
:102C40002EFB00BF4A4800680028D7D170BD00BFE6
:102C5000FFF7D2FF3F4800680128F9D94FF08050B4
:102C600038490860BFF34F8FBFF36F8FF0E71CB593
:102C7000404800210B468022CDE900103EA140488B
:102C8000FFF7C8FA0446012C02D100F076FE044694
:102C9000012C15D100BF502080F31188BFF34F8F56
:102CA000BFF36F8F00BF4FF0FF303649086001203F
:102CB0002B49086000203449086000F099FF0DE0BE
:102CC000601C08B1012000E0002038B940F2847295
:102CD000AFF61C01AFF6040001F018FA1CBD10B5E8
:102CE00000BF502080F31188BFF34F8FBFF36F8F69
:102CF00000BF00201A49086000F0C0FF10BD224943
:102D00000868704770B501F01DF800251E4804687A
:102D1000204670BD13480068704770B5044614B96A
:102D20000D48006800E0204605463DB940F68C029B
:102D3000AFF67C01AFF6640001F0E8F905F134006C
:102D400070BD000004ED00E06C0000205800002081
:102D50004C000020FC00002034000020CC030020A8
:102D60005000002044000020A4030020B8030020ED
:102D7000400000206800002049444C45000000004D
:102D80004F2C0008640000204800002070B5044665
:102D90000D463CB940F60632AFF6E401AFF6CC0082
:102DA00001F0B4F9F748016818312046FEF784FBBA
:102DB00001212846FFF711FC70BD70B504460D4691
:102DC00016463CB940F61732AFF61411AFF6FC00C8
:102DD00001F09CF9EC48006808B1012000E00020F7
:102DE00038B940F61B32AFF63011AFF6181001F0CB
:102DF0008DF945F00040E34909688861E1480168C0
:102E000018312046FEF74CFB01213046FFF7E5FB69
:102E100070BD70B505460E4614463DB940F63132D8
:102E2000AFF66C11AFF6541001F070F9D548016897
:102E300018312846FEF734FB0CB14FF0FF3621461F
:102E40003046FFF7CAFB70BD70B50646F068C4682F
:102E50003CB940F66132AFF6A011AFF6881001F030
:102E600055F904F11800FEF741FBC7480068A8B9FE
:102E7000201DFEF73BFB94F82C1001208840C3492D
:102E800009680843C1490860E16A01EB8101C04A51
:102E900002EB8100211DFEF703FB04E004F11801A1
:102EA000BC48FEF7FDFAB749E06A0968C96A88427A
:102EB00004D901250120B849086000E00025284612
:102EC00070BD2DE9F04105460F46AF48006808B1D6
:102ED000012000E0002038B940F69932AFF62821F1
:102EE000AFF6102001F012F947F000402860EC68BE
:102EF0003CB940F6A132AFF64021AFF6282001F0F0
:102F000005F92846FEF7F2FA201DFEF7EFFA94F8CD
:102F10002C10012088409D49096808439B4908609E
:102F2000E16A01EB81019A4A02EB8100211DFEF763
:102F3000B7FA9449E06A0968C96A884204D9012647
:102F400001209549086000E000263046BDE8F08188
:102F500010B504463CB940F6C132AFF6A421AFF635
:102F60008C2001F0D3F88D48006820608C48006800
:102F7000606010BD2DE9F04104460D463CB940F6B5
:102F8000CB32AFF6CC21AFF6B42001F0BFF83DB99B
:102F900040F6CC32AFF6E021AFF6C82001F0B6F82B
:102FA00000F07DFE7E4807682868401C08B90026AE
:102FB00019E07A4920680968884204D06068B842FC
:102FC00001D801260FE06068381A2968884209D2C2
:102FD00028686168791A401A28602046FFF7B8FF10
:102FE000002600E0012600F07DFE3046BDE8F081BD
:102FF000012069490860704762490868704769495B
:10300000096809B9012005E05F49096809B902208A
:1030100000E00020704770B505462C46002D4BD0CF
:103020005849E06A0968C96A884245D2A06900F037
:10303000004028B953480068C06AC0F12000A06170
:10304000E16A01EB8101524A02EB81016069884229
:1030500001D1012000E0002050B3201DFEF746FA08
:1030600078B9E06A00EB8000494951F8200040B986
:1030700094F82C1001208840444909688143434852
:10308000016040480068C06AE06294F82C1001209A
:1030900088403E49096808433C490860E16A01EB01
:1030A00081013B4A02EB8100211DFEF7F9F903E0A3
:1030B00034480068C06AE06270BD70B505462C46B1
:1030C0000026002D4FD02F480068844201D10120F6
:1030D00000E0002038B940F6C762AFF62441AFF6F1
:1030E0000C4001F013F8A06C38B940F6C962AFF695
:1030F0003841AFF6204001F009F8A06C401EA064F2
:10310000616CE06A88422ED0A06C60BB201DFEF787
:10311000EDF978B9E06A00EB80001D4951F8200014
:1031200040B994F82C10012088401849096881435F
:1031300016480160606CE062E06AC0F12000A061A6
:1031400094F82C10012088401049096808430F4961
:103150000860E16A01EB81010D4A02EB8100211D4B
:10316000FEF79EF90126304670BD06490968886958
:1031700004490968C96AC1F12001024A12689161D3
:1031800070470000340000206C0000204C0000203C
:10319000FC000020A4030020580000205C00002058
:1031A0004800002050000020F948006830B1F8497C
:1031B000096801F14800896C491C0160F448006805
:1031C000704770B506460D4600F069FDF04800688E
:1031D000C06C88B90120EE49096881F850005DB1E2
:1031E00001212846FFF7F9F94FF08050E9490860BE
:1031F000BFF34F8FBFF36F8F00F074FD00F04FFDF2
:10320000E3480068C46C4CB126B10020E04909686D
:10321000C86403E0601EDE490968C8640020DC4918
:10322000096881F8500000F05DFD204670BD2DE971
:10323000F0410746884614461D4600F030FDD4484C
:10324000006890F85000022818D0D149096801F1AF
:103250004C00C96CB94301600120CD49096881F86F
:1032600050005DB101212846FFF7B7F94FF08050BB
:10327000C8490860BFF34F8FBFF36F8F00F032FD76
:1032800000F00DFD1CB1C2480068C06C2060C04851
:10329000006890F85000012801D1002608E0BC49E0
:1032A000096801F14C00C96C21EA0801016001269E
:1032B0000020B749096881F8500000F013FD30463E
:1032C000BDE8F0812DE9F04706460D4617469846C1
:1032D0004FF0010A3EB941F2FD02AFF62461AFF6AC
:1032E0000C6000F013FF344600F0D9FCB8F1000F79
:1032F00002D0E06CC8F8000094F85090022084F8E6
:103300005000052F17D2DFE807F01503070B0D005B
:10331000E06C2843E0640EE0E06C401CE0640AE0EE
:10332000E56408E0B9F1020F01D0E56401E04FF077
:10333000000A00E000BF00BFB9F1010F30D1201D2D
:10334000FEF7D4F894F82C100120884092490968BF
:10335000084391490860E16A01EB81018F4A02EB61
:103360008100211DFEF79CF8A06A08B9012000E049
:10337000002038B941F23512AFF6C461AFF6AC6047
:1033800000F0C4FE8249E06A0968C96A884207D928
:103390004FF080507F490860BFF34F8FBFF36F8FAE
:1033A00000F0A0FC5046BDE8F0872DE9F84F074635
:1033B0000E4690469946DDF828B0012000903FB9AE
:1033C00041F26812AFF61071AFF6F86000F09EFEA1
:1033D00000F0B8FC3C4600BF5021EFF3118081F3B0
:1033E0001188BFF34F8FBFF36F8F00BF0546B9F150
:1033F000000F02D0E06CC9F8000094F850A0022041
:1034000084F85000B8F1050F17D2DFE808F0150373
:10341000070B0D00E06C3043E0640EE0E06C401CF4
:10342000E0640AE0E66408E0BAF1020F01D0E66465
:1034300001E00020009000E000BF00BFBAF1010FE2
:103440003BD1A06A08B9012000E0002038B941F260
:10345000AF12AFF69C71AFF6847000F057FE504883
:103460000068A8B9201DFEF741F894F82C1001203F
:10347000884049490968084347490860E16A01EB07
:103480008101464A02EB8100211DFEF709F804E0A4
:1034900004F118014348FEF703F83D49E06A096862
:1034A000C96A884209D9BBF1000F03D00120CBF8CB
:1034B000000002E001203C49086000BF85F311884C
:1034C00000BF0098BDE8F88F2DE9F04105460F4692
:1034D00035B941F2E312354901F11C0000F016FE46
:1034E00000F030FC2C4600BF5021EFF3118081F337
:1034F0001188BFF34F8FBFF36F8F00BF064694F85C
:103500005080022084F85000E06C401CE064B8F168
:10351000010F37D1A06A08B9012000E0002030B9BE
:1035200041F20922214901F11C0000F0EFFD1C4885
:103530000068A8B9201DFDF7D9FF94F82C100120D0
:10354000884015490968084313490860E16A01EB9E
:103550008101124A02EB8100211DFDF7A1FF04E069
:1035600004F118010F48FDF79BFF0949E06A09685B
:10357000C96A884206D917B10120386002E00120EB
:103580000949086000BF86F3118800BFBDE8F081DB
:103590003400002004ED00E04C000020FC0000207E
:1035A0006C000020A403002058000020B82400086C
:1035B00070B5054615B90A48006800E02846064679
:1035C00000F06DFB96F85000022804D1002086F828
:1035D0005000012400E0002400F084FB204670BD70
:1035E000340000202DE9F04104460D4616461F46E2
:1035F0004FF0000865602461B5420CD8F01BA1694A
:10360000884202D34FF0010811E0211DFA480068FA
:10361000FDF752FF0BE0BE4204D2BD4202D34FF091
:10362000010804E0211DF5480068FDF745FF40460C
:10363000BDE8F0812DE9FE4304460D4616461F46BF
:10364000DDF828804FF000092CB94FF4D372ECA1BB
:10365000F2A000F05BFDF548006810B300950196FC
:103660000294062D15DAFFF7CAFC022808D10023C0
:1036700042466946ED480068FEF756F8814610E07C
:1036800000231A466946E9480068FEF74DF881466E
:1036900007E000233A466946E4480068FEF79FFACF
:1036A00081464846BDE8FE832DE9F8432DE0D34826
:1036B0000068C0680568D1480068C068C468201DFB
:1036C000FDF714FF2046616A8847E06901281CD194
:1036D000A0694619AE4207D966602461211DC7481A
:1036E0000068FDF7E9FE10E0002003462A46014687
:1036F00000902046FFF79EFF07462FB940F2923216
:10370000BFA1C6A000F002FD00BFBC480068006871
:1037100008B9012000E000200028C8D0B748D0F840
:103720000080B5480068B5490860B348C0F800801B
:10373000BDE8F88370B50446FFF7E1FA0546BC48DA
:103740000068854204D2FFF7AFFF0120206001E04E
:1037500000202060B6480560284670BD70B586B070
:1037600060E0039800285DDB059C606908B90120D2
:1037700000E0002010B9201DFDF7B8FE02A8FFF7F9
:10378000D9FF054603980A284AD2DFE800F0090568
:10379000072C2E4506082D2F00BF00BF00BF00BF1D
:1037A0000498A269811803462A462046FFF71AFFAB
:1037B000C0B12046616A8847E069012812D1002023
:1037C00000900498A1694218002319462046FFF78B
:1037D00031FF06462EB940F2213289A18FA000F0B8
:1037E00095FC00BF1DE000BF1BE000BF0498A06176
:1037F000A06908B1012000E0002028B94FF44E7202
:103800007FA186A000F082FCA06941192B462A46C0
:103810002046FFF7E7FE04E0204600F0CFFB00E083
:1038200000BF00BF00231A4603A980480068FEF7C6
:10383000B2F8002895D106B070BDF8B505460F4620
:103840006E480068C068C468201DFDF74FFEE0693F
:10385000012818D1A06941192B463A462046FFF7A6
:10386000C1FE80B1002003462A4601460090204652
:10387000FFF7E0FE06462EB94FF4027260A167A082
:1038800000F044FC00BF2046616A8847F8BDF8B5E7
:1038900005460C46FEF7DFFE6846FFF74BFF06467F
:1038A000009820BB44B9B54206D8FEF729FE314640
:1038B0002846FFF7C2FF1CE03CB14F480068006893
:1038C00008B9012000E000200446A91B2246574801
:1038D0000068FEF7B9FBFEF713FE50B94FF08050B9
:1038E00054490860BFF34F8FBFF36F8F01E0FEF7BD
:1038F00007FEF8BD0146414A126812680AB9012262
:1039000000E000220A600A6822B93C4A1268D268C4
:10391000106800E00020704708B500BF6846FFF758
:10392000E9FF044620460099FFF7B1FFFFF716FFB5
:10393000F4E710B500F0B3F93C480068D0B93E4850
:10394000FDF79EFD3D48FDF79BFD3B482B49086078
:103950003A482949086000220C210A20FDF731FE6F
:10396000324908600846006820B135A12F48006838
:10397000FEF744FB00F0B6F910BD1CB50024FFF7BC
:10398000D8FF2A48006858B12F481F2100234FF460
:103990008072CDE900102DA12E48FEF73BFC0446B5
:1039A0002CB940F2331216A11CA000F0AFFB204648
:1039B0001CBD2DE9F04706460D4617469846DDE941
:1039C00008940DB1012000E0002028B94FF4C67220
:1039D0000BA112A000F09AFB5CB1FFF7AAFF2660D2
:1039E000A561E761C4F82080C4F82490201DFDF78C
:1039F00054FDBDE8F0870000740000207000002036
:103A00002E2E5C2E2E5C4672656552544F535C73AD
:103A100072635C74696D6572732E63004572726FB8
:103A2000723A25732C25640D0A00000078000020EE
:103A30008000002004ED00E0E0030020F4030020FB
:103A4000546D7251000000007C000020546D722003
:103A500053766300193900082DE9FC4705460E46E8
:103A600017469846DDF82890282000F024FA0446EE
:103A70003CB143463A4631462846CDE90094FFF72B
:103A800098FF2046BDE8FC8710B53E48006808B1A5
:103A9000012000E0002038B94FF4E872AFF2A00135
:103AA000AFF2880000F032FB3648006810BD70B5F8
:103AB000044625463CB940F2D912AFF2BC01AFF240
:103AC000A40000F023FBA86970BD70B5044625462C
:103AD0003CB940F2E312AFF2D801AFF2C00000F0FF
:103AE00015FB6E68304670BD70B5044625463CB97E
:103AF00040F2ED12AFF2F801AFF2E00000F006FB89
:103B0000286870BD70B5044626463CB940F2DA32EA
:103B1000AFF21411AFF2FC0000F0F8FA00F0BFF8B9
:103B2000706908B9012000E0002080F0010500F074
:103B3000D9F8284670BD70B5044626463CB940F217
:103B4000EF32AFF24411AFF22C1000F0DFFA00F0C8
:103B5000A6F8356A00F0C6F8284670BD70B5044670
:103B60000D4626463CB940F2FF32AFF26C11AFF27F
:103B7000541000F0CBFA00F092F8356200F0B2F881
:103B800070BD00007C00002084480068401C08B91B
:103B9000012000E0002020B9F42281A18BA000F0D8
:103BA000B5FA00BF502080F31188BFF34F8FBFF3E9
:103BB0006F8F00BF00BFFEE7001F4FF080730360F0
:103BC000001F21F001030360001F844B03601438C1
:103BD000026020387047824800684FF47A71B0FB69
:103BE000F1F0401E4FF0E021486107200861704766
:103BF0001CB57C48014609780191FF2102461170ED
:103C00000146097800919DF8001001F05001764AB4
:103C100011700721754A116009E074490968491E4D
:103C2000724A11609DF800104906090E00919DF836
:103C3000001001F080018029EFD06C490968090269
:103C40006A4A11601146098801F4E0611160654A11
:103C5000019911706648006840F47000644908607A
:103C60000846006840F070400860FFF7B4FF00208D
:103C70004A490860FCF77AFA00201CBD10B5474895
:103C80000068B0F57A7F01D1012000E0002028B95A
:103C90004FF4B57242A14DA000F038FA10BD10B536
:103CA00000BF502080F31188BFF34F8FBFF36F8F99
:103CB00000BF3A480068401C384908600846006860
:103CC00001280ED14A481C380068C0B208B901204A
:103CD00000E0002028B94FF4BD7231A13BA000F0F4
:103CE00015FA10BD10B52D48006828B940F28112B0
:103CF0002BA136A000F00AFA28480068401E274988
:103D000008600846006820B9002080F3118800BFD1
:103D100000BF10BD10B500BF502080F31188BFF365
:103D20004F8FBFF36F8F00BFFEF722FB20B14FF024
:103D300080502F491C39086000BF002080F3118893
:103D400000BF10BD70B5FCF747FA0546102D11D322
:103D500005F1E02090F8F04323480078844201DB2D
:103D6000012000E0002028B94FF42A720CA117A00E
:103D700000F0CCF91E481438006800F4E0601B49DC
:103D80000968884201D8012000E0002028B94FF4DA
:103D90002E7203A10DA000F0B9F970BD84000020BF
:103DA0002E2E5C2E2E5C4672656552544F535C700D
:103DB000726F7461626C655C525644535C41524D43
:103DC0005F434D335C706F72742E63004572726F87
:103DD000723A25732C25640D0A000000893B000807
:103DE0000000002000E400E0880000208C0000209B
:103DF00020ED00E010B50146924800E0006803683D
:103E00008B42FBD30246436813448B4204D1436880
:103E10004C682344436001460A464B6813440468D7
:103E2000A34211D1884C03682468A34208D04B6890
:103E30000468646823444B6003681B680B6005E0FA
:103E4000814B1B680B6001E003680B60884200D067
:103E5000016010BD30B54FF410437C4800F00704FA
:103E60002CB1C01D20F00700784C041B1B1B024620
:103E7000744C22600024734D6C60D018083820F018
:103E80000700714C206000246F4D2D686C606E4DF2
:103E90002D682C601146441A4C606B4C24680C60F1
:103EA0006B4D4C682C606B4D4C682C604FF000449F
:103EB000694D2C6030BD2DE9F04104464FF00008FB
:103EC000FEF7C9FB6048006808B9FFF7C3FF624806
:103ED0000068204000285FD1A4B1083404F0070036
:103EE00080B104F00700C0F10800044404F00700AA
:103EF00008B9012000E0002020B9BF2257A162A02C
:103F000000F004F9002C47D052480068844243D89E
:103F10004C4E3046056801E02E462D686868A04288
:103F200002D228680028F7D147480068854233D07C
:103F3000306800F10808286830606868001B1028A5
:103F400013D92F1907F0070008B9012000E000205D
:103F500020B9EC2241A14CA000F0D8F86868001B01
:103F600078606C603846FFF745FF3A496868096831
:103F7000081A3849086008460068354909688842C7
:103F800003D23448006832490860334968680968D8
:103F90000843686000202860FEF7B2FA08F00700C6
:103FA00008B9012000E0002028B94FF496722BA137
:103FB00035A000F0ABF84046BDE8F08170B506468C
:103FC0003546002E35D0083D2C46234960680968E7
:103FD000084008B1012000E0002028B94FF4A07289
:103FE0001EA129A000F092F8206808B9012000E085
:103FF000002028B940F2411218A123A000F086F851
:10400000154960680968084098B1206888B9124964
:104010006068096888436060FEF71DFB0D496068B1
:10402000096808440B4908602046FFF7E3FEFEF7E5
:1040300067FA70BD07480068704705480068704718
:104040007047000090000020980000200804002025
:10405000A00000209C000020A40000202E2E5C2E3A
:104060002E5C4672656552544F535C70726F74617A
:10407000626C655C4D656D4D616E675C6865617015
:104080005F342E63000000004572726F723A257330
:104090002C25640D0A00000040EA01039B0703D0B1
:1040A00009E008C9121F08C0042AFAD203E011F877
:1040B000013B00F8013B521EF9D2704730B50B4668
:1040C000014600202022012409E021FA02F59D4248
:1040D00005D303FA02F5491B04FA02F52844151E1C
:1040E000A2F10102F1DC30BD064C074D06E0E068AC
:1040F00040F0010394E8070098471034AC42F6D32F
:10410000FCF71AF84C4300086C4300080FB4054B49
:1041100010B503A9044A029800F018F810BC5DF825
:1041200014FB0000D7130008A800002002E008C814
:10413000121F08C1002AFAD170477047002001E021
:1041400001C1121F002AFBD1704700002DE9FF4F6B
:104150008BB09A460F460546002606E025280BD070
:1041600052460D9990476D1C761C28780028F5D191
:104170000FB03046BDE8F08F0024A0460122604910
:1041800000E0044315F8013F203B02FA03F0084227
:10419000F7D128782E2817D115F8010F44F0040420
:1041A0002A280ED06FF02F022878A0F130010929BB
:1041B0000AD808EB880102EB410100EB01086D1CF5
:1041C000F2E757F8048B6D1C287869283ED006DC8E
:1041D0000028CDD063280BD0642804D136E07328A2
:1041E00010D075284BD052460D999047761C85E02B
:1041F00017F8040B8DF8000000208DF80100E94647
:10420000012003E057F8049B4FF0FF3061074FF0A7
:10421000000401D40AE0641C44450DDA8442FADB50
:1042200019F804100029F6D106E0641C8442FCDB76
:1042300019F804100029F8D1264404E019F8010BFC
:1042400052460D999047641EF8D257E001CF4FF0C7
:104250000A0B002802DA40422D2102E0210504D594
:104260002B218DF82410012103E0E10705D0202146
:10427000F7E70DF1200908910CE00021F9E701CFE3
:104280004FF00A0BF9E75946FFF718FF01F130022A
:1042900009F8012D0028F6D1ADEB090000F1200B43
:1042A000600701D44FF00108D84502DDA8EB0B00F0
:1042B00000E000208046002406E009A85246005D88
:1042C0000D999047641C761C08988442F5DB04E045
:1042D000302052460D999047761CB8F10001A8F1A4
:1042E0000108F5DC05E019F8010B52460D999047DD
:1042F000761CBBF10001ABF1010BF4DC6D1C34E763
:1043000009280100D5E2CAC7D2BBB8F65BD2B0BB60
:10431000F05D2D53544D3332C8ABCFB5C1D0BFAAD9
:10432000B7A2B0E52D4672656552544F53C8CECE44
:10433000F1CDA8D6AAB4FACCE6BCC6CAFDD0C5BA9F
:10434000C5C1BFCAB5D1E9A3A10A00006C430008EA
:1043500000000020AC0000002C41000818440008B8
:10436000AC0000205C9700003C41000800A24A0419
:104370000000000000000000010203040607080915
:1043800000000000010203040102030406070809FB
:104390000204060800000000000000000000000009
:1043A000000000000000000000000000000000000D
:1043B00000000000000000000000000000000000FD
:1043C00000000000000000000000000000000000ED
:1043D00000000000000000000000000000000000DD
:1043E00000000000000000000000000000000000CD
:1043F000AAAAAAAA00000000000000000000000015
:1044000000000000000000000000000000000000AC
:084410000000000000000000A4
:0400000508000131BD
:00000001FF
