:020000040800F2
:10000000D0970020E1010008991200089B12000817
:100010009F120008A3120008A712000800000000A9
:10002000000000000000000000000000490100087E
:10003000AB120008000000008D010008AD1200089E
:10004000FB010008FB010008FB010008FB010008A0
:10005000FB010008FB010008FB010008FB01000890
:10006000FB010008FB010008FB010008FB01000880
:10007000FB010008FB010008FB010008FB01000870
:10008000FB010008FB010008FB010008FB01000860
:10009000FB010008FB010008FB010008FB01000850
:1000A000FB010008FB010008FB010008FB01000840
:1000B000FB010008FB010008FB010008FB01000830
:1000C000FB010008FB010008FB010008FB01000820
:1000D000FB010008FB010008FB010008FB01000810
:1000E000FB010008FB010008FB010008FB01000800
:1000F000FB010008FB010008FB010008FB010008F0
:10010000FB010008FB010008FB010008FB010008DF
:10011000FB010008FB010008FB010008FB010008CF
:10012000FB010008FB010008FB010008FB010008BF
:10013000DFF810D003F0C8FB00480047C7100008E4
:10014000AFF30080D0970020224B19680868B0E810
:10015000F00F80F30988BFF36F8F4FF0000080F33A
:1001600011884EF00D0E7047000000000648006830
:10017000006880F3088862B661B6BFF34F8FBFF3A3
:100180006F8F00DF00BF00BF08ED00E0EFF30980D4
:10019000BFF36F8F0F4B1A6820E9F00F106008B59E
:1001A0004FF0500080F31188BFF34F8FBFF36F8F74
:1001B00002F07AFB4FF0000080F31188BDE80840A0
:1001C00019680868B0E8F00F80F30988BFF36F8FF3
:1001D000704700BF38000020EFF305807047000033
:1001E0000648804706480047FEE7FEE7FEE7FEE7D1
:1001F000FEE7FEE7FEE7FEE7FEE7FEE7E3020008B4
:10020000310100080CB50020019000906C48006896
:1002100040F480306A49086000BF6948006800F413
:10022000003000900198401C0190009818B9019886
:10023000B0F5A06FF1D16248006800F4003010B151
:100240000120009001E0002000900098012843D197
:100250005C48006840F010005A4908600846006891
:1002600020F0030008600846006840F002000860C3
:10027000534840685249486008464068486008460C
:10028000406840F4806048600846406820F47C1074
:1002900048600846406840F4E81048600846006836
:1002A00040F08070086000BF4548006800F00070B2
:1002B0000028F9D04248406820F0030040494860D7
:1002C0000846406840F00200486000BF3C48406873
:1002D00000F00C000828F9D10CBD10B5FFF792FF13
:1002E00010BD10B53648006840F001003449086080
:1002F000084640683449084031494860084600686B
:10030000324908402E4908600846006820F48020E1
:1003100008600846406820F4FE0048604FF41F0063
:100320008860FFF7DAFF4FF000602949086010BDD0
:1003300010B5002100200022214B5B6803F00C0166
:1003400021B1042906D0082928D107E0214B224CED
:10035000236027E01F4B204C236023E0184B5B6891
:1003600003F47010164B5B6803F48032022303EB36
:10037000904022B9194B4343174C23600DE0104BBA
:100380005B6803F4003323B1144B4343124C2360E6
:1003900003E0104B4343104C236003E00D4B0E4C25
:1003A000236000BF00BF064B5B68C3F303130C4C14
:1003B000E15C094B1B68CB40074C236010BD00007B
:1003C00000100240002002400000FFF8FFFFF6FE90
:1003D00008ED00E000127A000000002000093D0056
:1003E0000400002031490143314A1160704770B563
:1003F000002100230F22C47804B32D4C246804F498
:10040000E064C4F5E064210AC1F10403CA40447801
:1004100004FA03F18478144021430901254C06783D
:10042000A155047804F01F050124AC4005786D1136
:10043000AD0005F1E025C5F8004109E0047804F0BD
:100440001F050124AC401C4D0678761145F8264066
:1004500070BD1A4A0A400243154B1B1F1A607047B1
:1004600039B1134A121D12680243114B1B1D1A6049
:1004700006E00F4A121D126882430D4B1B1D1A60C5
:100480007047042808D14FF0E021096941F00401C8
:100490004FF0E022116107E04FF0E021096921F0FF
:1004A00004014FF0E0221161704700000000FA05DE
:1004B0000CED00E000E400E080E100E080FFFF1FC1
:1004C00010B50446CC48844208D10121042000F034
:1004D0002DFB0021042000F029FB46E0C7488442A0
:1004E00008D10121082000F021FB0021082000F0A4
:1004F0001DFB3AE0C248844208D10121102000F0DF
:1005000015FB0021102000F011FB2EE0BD488442B5
:1005100008D10121202000F009FB0021202000F05B
:1005200005FB22E0B848844208D10121402000F0B8
:10053000FDFA0021402000F0F9FA16E0B3488442A9
:1005400008D10121802000F0F1FA0021802000F084
:10055000EDFA0AE0AE48844207D10121801500F08F
:10056000E5FA0021A01500F0E1FA10BD10B5012157
:10057000084600F0DBFA0021012000F0D7FA10BD98
:100580002DE9F0410246002500260020002300242A
:10059000002791F803C00CF00F0591F803C00CF090
:1005A000100CBCF1000F03D091F802C04CEA050515
:1005B00091F800C0BCF1000F31D0146800202BE08E
:1005C0004FF0010C0CFA00F3B1F800C00CEA03067E
:1005D0009E4220D183004FF00F0C0CFA03F7BC436E
:1005E00005FA03FC4CEA040491F803C0BCF1280F9F
:1005F00006D14FF0010C0CFA00FCC2F814C00AE05E
:1006000091F803C0BCF1480F05D14FF0010C0CFA72
:1006100000FCC2F810C0401C0828D1D31460B1F807
:1006200000C0BCF1FF0F34DD546800202EE000F163
:10063000080C4FF0010808FA0CF3B1F800C00CEAFE
:1006400003069E4221D183004FF00F0C0CFA03F7F2
:10065000BC4305FA03FC4CEA040491F803C0BCF166
:10066000280F05D100F1080C08FA0CF8C2F8148024
:1006700091F803C0BCF1480F07D100F1080C4FF00E
:10068000010808FA0CF8C2F81080401C0828CED3E4
:100690005460BDE8F0814FF6FF7101800221817046
:1006A0000421C17070470246002093680B400BB1D3
:1006B000012000E0002070470146886880B2704742
:1006C00002460020D3680B400BB1012000E000205F
:1006D00070470146C86880B2704701617047416148
:1006E00070470AB1016100E041617047C160704725
:1006F0004FF480320A43826181618261826982693A
:10070000704702460020434B18684FF6807318402C
:1007100040EA021008433F4B186070473E49C861E9
:100720007047F0B50A46002300240021002500F0A0
:100730000046B6F1004F02D1364EF16901E0354E68
:100740007168C0F3034583B200F44016B6F5401F4C
:1007500008D121F070612F4E766826F070662D4F1B
:100760007E6012E000F48016B6F5801F06D10326E5
:1007700006FA05F4A14341F0706106E0460D36012A
:1007800003FA06F6B14341F0706122B1460D36011D
:1007900003FA06F6314300F00046B6F1004F02D1ED
:1007A0001C4EF16101E01B4E7160F0BD30B50022BE
:1007B0008B071C0F0F2303FA04F2164B08338C101F
:1007C00053F824309343134C08348D1044F82530EB
:1007D00023468C1053F824308C07240F00FA04F4BD
:1007E00023430C4C08348D1044F8253030BD0A49A1
:1007F000DC3108607047000000080140000C014037
:10080000001001400014014000180140001C01408C
:10081000002001400000014000002042DF48006845
:1008200040F00100DD49086008464068DC490840A6
:10083000DA49486008460068DA490840D749086044
:100840000846006820F4802008600846406820F4CC
:10085000FE0048604FF41F0088607047CF49096868
:1008600021F48031CD4A11601146096821F48021BC
:100870001160B0F5803F03D0B0F5802F0ED106E0B7
:10088000C649096841F48031C44A116007E0C34990
:10089000096841F4A021C14A116000E000BF00BF17
:1008A000704710B501460022002300204A11012A9A
:1008B00002D1BA4C236806E0022A02D1B74C236A5F
:1008C00001E0B64C636A01F01F02012494401C4011
:1008D0000CB1012000E0002010BD38B500200090D0
:1008E0000024002500BF3120FFF7DBFF05460098FC
:1008F000401C00900098B0F5A06F01D0002DF2D000
:100900003120FFF7CEFF08B1012400E0002420468B
:1009100038BD01460020A14A106820F0F80040EAE6
:10092000C10010607047A04908607047024600206F
:100930009A4B586820F47C1042EA01031843974B05
:100940005860704798490866704701460020934AEE
:10095000506820F003000843506070478F4840689B
:1009600000F00C007047014600208C4A506820F0CF
:10097000F00008435060704701460020874A5068E5
:1009800020F4E06008435060704701460020834A2D
:10099000506820F4605040EAC1005060704729B1AF
:1009A0007E4A527A02437D4B5A7204E07B4A527A65
:1009B00082437A4B5A7270477B49D831086070473E
:1009C00001460020754A506820F4404008435060BA
:1009D00070470021714A20321170704A82F820104D
:1009E000012802D004280AD104E001216B4A2032F8
:1009F000117005E00521694A2032117000E000BF46
:100A000000BF70476949086070476449096A01433B
:100A1000624A11627047654944390860704730B5D1
:100A200000210022002400235C4D6D6805F00C01BC
:100A300021B1042905D0082923D105E05C4D0560CA
:100A400022E05B4D05601FE0544D6D6805F47012A7
:100A5000524D6D6805F48034022505EB92421CB9B5
:100A6000544D554305600BE04C4D6D6805F4003561
:100A70001DB1504D5543056002E04D4D5543056095
:100A800002E04B4D056000BF00BF444D6D6805F0AE
:100A9000F0010909484D6B5C0568DD4045603F4D3C
:100AA0006D6805F4E061090A434D6B5C4568DD4003
:100AB00085603A4D6D6805F46051C90A3E4D6B5C26
:100AC0004568DD40C560354D6D6805F44041890BD2
:100AD0003A4D6B5CC568B5FBF3F5056130BD29B1D6
:100AE0002E4A526902432D4B5A6104E02B4A526947
:100AF00082432A4B5A61704729B1284A92690243BE
:100B0000264B9A6104E0254A92698243234B9A61FD
:100B1000704729B1214AD2690243204BDA6104E0CF
:100B20001E4AD26982431D4BDA61704729B11B4AC4
:100B3000D2680243194BDA6004E0184AD268824353
:100B4000164BDA60704729B1144A12690243134BFD
:100B50001A6104E0114A12698243104B1A6170470E
:100B600012494039086070470F49C86470470B4903
:100B7000C87170470948406A40F080700749486270
:100B8000704701460020054A92680A400AB10120D8
:100B900000E0002070470149887270470010024051
:100BA0000000FFF8FFFFF6FE0000424280044242D0
:100BB00000127A0000093D001400002024000020EB
:100BC00010B50446FB48844209D101218803FFF790
:100BD000ADFF00214FF48040FFF7A8FF32E0F64858
:100BE000844209D101214804FFF7ADFF00214FF4F1
:100BF0000030FFF7A8FF25E0F048844209D1012129
:100C00008804FFF7A0FF00214FF48020FFF79BFF2F
:100C100018E0EB48844209D10121C804FFF793FF93
:100C200000214FF40020FFF78EFF0BE0E5488442DF
:100C300008D101210805FFF786FF00214FF480103D
:100C4000FFF781FF10BD2DE9F04786B005460E463F
:100C50000024A24600BFA1460027B08900B100BF12
:100C60002F462C8A4CF6FF700440F08804432C82F7
:100C7000AC894EF6F3100440B0883189084371897D
:100C800008430443AC81AC8A4FF6FF400440B0896E
:100C90000443AC8201A8FFF7C2FEC648874202D1D6
:100CA000DDF810A001E0DDF80CA0A88900F40040F8
:100CB00040B10AEBCA0000EB0A1031684900B0FBF2
:100CC000F1F807E00AEBCA0000EB0A10316889006E
:100CD000B0FBF1F86420B8FBF0F0040120096421B6
:100CE00001FB1089A88900F4004040B1322000EBDC
:100CF000C900B0FBF1F000F00700044308E0322027
:100D000000EB09106421B0FBF1F000F00F00044388
:100D10002C8106B0BDE8F0874FF416510160002128
:100D20008180C18001810C21418100218181704736
:100D300010B502460020108A4FF2FF0318400B88BE
:100D40004C8823438C882343CC8823431843108248
:100D500010BD0021018041808180C180704721B198
:100D6000828942F40052828104E082894DF6FF7349
:100D70001A4082817047F0B5034600240026002502
:100D8000002040F66A17B94200D100BF1846C1F3EF
:100D9000421401F01F06012707FA06F5012C01D1C4
:100DA0000C3004E0022C01D1103000E014301AB1F4
:100DB00007682F43076002E00768AF430760F0BD94
:100DC0001AB1838A0B43838202E0838A8B43838236
:100DD0007047028A4FF6F0731A400282028A0A4371
:100DE0000282704782894FF2FF731A4082818289A2
:100DF0000A438281704721B1828942F002028281D6
:100E000004E082894FF6FD731A4082817047028A9E
:100E10004FF6DF731A400282028A0A430282704749
:100E200021B1028A42F48042028204E0028A4BF637
:100E3000FF731A4002827047C1F308028280704734
:100E400001468888C0F308007047818941F001019C
:100E500081817047028BD2B20283028B42EA012267
:100E600002837047028B02F47F420283028B0A43A3
:100E70000283704721B1828A42F02002828204E01C
:100E8000828A4FF6DF731A408282704721B1828ACC
:100E900042F01002828204E0828A4FF6EF731A4019
:100EA0008282704721B1828A42F00802828204E085
:100EB000828A4FF6F7731A408282704721B1828985
:100EC00042F40042828103E08289C2F30E028281F1
:100ED000704721B1828A42F40062828204E0828AF1
:100EE0004FF2FF731A4082827047828A4FF6FB737B
:100EF0001A408282828A0A438282704721B1828AA2
:100F000042F00202828204E0828A4FF6FD731A40A8
:100F10008282704702460020B1F5007F00D100BFF9
:100F200013880B400BB1012000E00020704701F452
:100F30000072B2F5007F00D100BFCA430280704743
:100F400070B50246002400230025002040F66A16F2
:100F5000B14200D100BFC1F3421501F01F030126C9
:100F600006FA03F3012D02D19689334006E0022DE3
:100F700002D1168A334001E0968A33400C120126D2
:100F800006FA04F41688344013B10CB1012000E0D5
:100F9000002070BD10B50022002340F66A14A14263
:100FA00000D100BF0A1201249440A3B2DC430480A4
:100FB00010BD0000003801400044004000480040DF
:100FC000004C00400050004001241AE04FF4005152
:100FD0004C4800F090FA012810D100231A46194617
:100FE0004948006800F00FFC0446012C03D147A0DB
:100FF00002F07CFC02E04DA002F078FC142001F02D
:1010000031FBE3E7012419E00121514800F073FAB4
:10101000012810D100231A4619463B48006800F009
:10102000F2FB0446012C03D14AA002F05FFC02E06F
:1010300051A002F05BFC142001F014FBE4E71CB5A6
:10104000012402F01CFA0521084600F035FB2E4968
:1010500008600846006810B151A002F047FC5B48E8
:10106000022100230A02CDE9001059A15B4801F0DA
:1010700078F80446012C02D159A002F037FC5D48F3
:10108000032100234FF40072CDE900105AA15D48FE
:1010900001F067F80446012C02D15BA002F026FCA7
:1010A0005F48006801F0ABF802F00CFA1CBD10B507
:1010B0004FF44070FFF796F900F000F900F041F9A5
:1010C00000F0FEF910BD1CB50124FFF7F0FF55A09C
:1010D00002F00CFC5DA002F009FC51480121002344
:1010E0004A02CDE9001067A16A4801F03AF80446C7
:1010F000012C02D101F05AFD02E04FF0FF301CBD7F
:1011000000BFFEE700100140340000204B4559327B
:10111000B1BBB0B4CFC2A3ACCACDB7C531B8F6CD60
:10112000A3B3B5CEBB210A0A000000004B455932DB
:10113000B1BBB0B4CFC2A3ACB5ABD2D1CEDEB3B5E8
:10114000CEBBBFC9D2D4CACDB7C50A0A00000000C1
:10115000000801404B455931B1BBB0B4CFC2A3AC7C
:10116000B3C9B9A6C9EAC7EBB5BDD2BBB8F6CDA322
:10117000B3B5CEBB210A0A004B455931B1BBB0B45F
:10118000CFC2A3ACB2BBBAC3D2E2CBBCA3ACCFD666
:10119000D4DACDA3B3B5B3A1D2D1C2FA210A0A00E1
:1011A000B4B4BDA8436F756E7453656D5F48616ECE
:1011B000646C65BCC6CAFDD0C5BAC5C1BFB4B4BDF8
:1011C000A8B3C9B9A6A3A10D0A0000002C000020F5
:1011D0005461736B5F5461736B000000051000086D
:1011E000B4B4BDA854616B655F5461736BB3C9B986
:1011F000A60D0A0030000020476976655F546173D0
:101200006B000000C90F0008476976655F54617381
:101210006BC8CECEF1B4B4BDA8B3C9B9A600000066
:1012200028000020D5E2CAC7D2BBB8F64672656571
:1012300052544F532DB6AFCCACC8CECEF1B4B4BDE2
:10124000A8B5A5C8CECEF1A3A10D0A00B3B5CEBBFB
:10125000C4ACC8CFCAC735B8F6A3ACB0B4CFC24B84
:10126000455931C9EAC7EBB3B5CEBBA3ACB0B4CFD7
:10127000C24B455932CACDB7C5B3B5CEBBA3A10D3C
:101280000A0000004170705461736B4372656174B1
:10129000650000003F100008704700BFFEE700BF78
:1012A000FEE700BFFEE700BFFEE7704710B501F0A4
:1012B00021FE012801D002F01DF910BD08B5012161
:1012C0000820FFF719FC2020ADF8000010208DF851
:1012D000030003208DF8020069460F48FFF750F91C
:1012E0000120ADF8000069460B48FFF749F90220DC
:1012F000ADF8000069460848FFF742F9202106488A
:10130000FFF7EBF901210448FFF7E7F90221024852
:10131000FFF7E3F908BD0000000C014008B54FF4E9
:10132000A060FFF75FF825208DF8000001208DF800
:1013300001008DF802008DF803006846FFF757F8AA
:1013400008BD00B585B001210420FFF7D5FB0121C0
:101350008803FFF7D1FB4FF40070ADF810001820A0
:101360008DF8130003208DF8120004A95248FFF7EE
:1013700007F94FF48060ADF8100004208DF81300D9
:1013800004A94D48FFF7FCF84FF4E130009000202D
:10139000ADF80400ADF80600ADF80800ADF80C009B
:1013A0000C20ADF80A0069464448FFF74CFCFFF7F3
:1013B000B5FF012240F225514048FFF7DCFC012136
:1013C0003E48FFF7CCFC05B000BD70B504460D46A5
:1013D00029462046FFF730FD00BF80212046FFF759
:1013E00099FD0028F9D070BD2DE9F04107460D4662
:1013F0001646002405E0295D3846FFF7E6FF601C2D
:10140000C4B2B442F7DB00BF40213846FFF782FD8B
:101410000028F9D0BDE8F08170B506460C460025DD
:1014200000BF615D3046FFF7D0FF6D1C605D002896
:10143000F7D100BF40213046FFF76CFD0028F9D0FE
:1014400070BD2DE9F04105460C46260AE7B231464B
:101450002846FFF7F1FC00BF80212846FFF75AFD20
:101460000028F9D039462846FFF7E6FC00BF802166
:101470002846FFF74FFD0028F9D0BDE8F08170B590
:1014800004460D46E1B20D48FFF7D6FC00BF8021AF
:101490000A48FFF73FFD0028F9D0204670BD10B57F
:1014A000044600BF20210548FFF734FD0028F9D08D
:1014B0000248FFF7C5FC10BD00080140003801409C
:1014C00008B501211420FFF717FB0120ADF800003B
:1014D00004208DF8030069461148FFF751F84FF4D6
:1014E0000050ADF8000004208DF8030069460D4857
:1014F000FFF746F808BD70B504460D46294620465C
:10150000FFF7D1F8012808D100BF29462046FFF790
:10151000CAF80128F9D0012070BD0020FCE70000C6
:10152000000801400010014000F1080141604FF047
:10153000FF31816000F10801C1600161002101609B
:10154000704700210161704742684A6093688B6070
:10155000936859609160086103685B1C0360704781
:1015600010B502460B685C1C0CB9106907E002F16B
:10157000080000E04068446824689C42FAD9446846
:101580004C604C68A160886041600A611468641C0A
:10159000146010BD01460A69D1E901309860D1E9B3
:1015A000010358605068884201D18868506000206B
:1015B00008611068401E10601068704770B50546DD
:1015C0000E462C462CB940F21B12F8A1FEA002F0E8
:1015D0008DF901F054FFD4E90F12206801FB0200DD
:1015E00060600020A0632068A060E06B401E226C59
:1015F000216800FB0210E060FF2084F8440084F8BA
:1016000045009EB9206908B9012000E00020A8B972
:1016100004F1100001F096FB80B14FF08050EE49CC
:101620000860BFF34F8FBFF36F8F07E004F1100026
:10163000FFF77AFF04F12400FFF776FF01F042FF85
:10164000012070BD2DE9F04106460D46174698462B
:10165000069C0DB9246000E02760E6632564012143
:101660002046FFF7ABFFBDE8F0812DE9F8430546C2
:101670000E4690460DB1012000E0002028B94FF43D
:10168000C472CAA1D0A002F031F90EB9002701E05E
:1016900005FB06F707F1480001F0FDFF044644B1E1
:1016A00004F1480943464A46314628460094FFF76C
:1016B000C9FF2046BDE8F88370B505460E460DB15A
:1016C000012000E0002028B940F2BD22B7A1BEA051
:1016D00002F00CF9AE4201D8012000E0002028B948
:1016E00040F2BE22B1A1B8A002F000F9022200210E
:1016F0002846FFF7BAFF044604B1A663204670BD32
:1017000070B5044601F0BBFE94F9455010E0606AE4
:1017100008B9012000E0002038B904F1240001F0EC
:1017200011FB18B101F0E2FB00E003E0681E45B2D6
:10173000002DECDC00BFFF2084F8450001F0C2FE64
:1017400001F09DFE94F9445010E0206908B9012091
:1017500000E0002048B904F1100001F0F3FA08B1EC
:1017600001F0C4FB681E45B200E001E0002DECDC96
:1017700000BFFF2084F8440001F0A4FE70BD70B5E6
:10178000054601F07CFEA86BE96B884201D101247B
:1017900000E0002401F096FE204670BD2DE9F041E6
:1017A00004460F4615464FF00008A66B206C28B380
:1017B0007DB93946226CA06802F05EF8216CA06801
:1017C0000844A060D4E90110884217D32068A060C3
:1017D00014E03946226CE06802F04EF8216CE068B3
:1017E000401AE0602168E068884203D2216C60689A
:1017F000401AE060022D01D106B1761E701CA06374
:101800004046BDE8F0812DE9FF4383B00646884697
:101810001D464FF0000934462CB940F2D92263A18D
:1018200069A002F063F8B8F1000F01D1206C08B98B
:10183000012000E0002028B940F2DA225BA162A07A
:1018400002F054F8022D02D1E06B012801D10120F1
:1018500000E0002028B940F2DB2254A15AA002F097
:1018600045F801F047FB08B9059808B9012000E0E8
:10187000002028B940F2DE224CA153A002F036F835
:1018800000BF01F0FCFDA06BE16B884201D3022D8B
:1018900028D12A4641462046FFF780FF0746606A66
:1018A00008B9012000E0002068B904F1240001F02B
:1018B00049FA88B14FF0805047490860BFF34F8F15
:1018C000BFF36F8F08E03FB14FF08050424908608E
:1018D000BFF34F8FBFF36F8F01F0F4FD012007B00E
:1018E000BDE8F083059818B901F0ECFD0020F6E79B
:1018F000B9F1000F04D101A801F0A8FA4FF00109D5
:1019000001F0E0FD00F04DFE01F0B9FD94F9440056
:10191000401C10B9002084F8440094F94500401C94
:1019200010B9002084F8450001F0CCFD05A901A8FC
:1019300001F09EFAF0B92046FFF721FFA0B104F1B3
:101940001000059901F097F92046FFF7D9FE00F045
:101950003EFD002895D14FF080501F490860BFF32D
:101960004F8FBFF36F8F8CE72046FFF7C9FE00F063
:101970002EFD86E72046FFF7C3FE00F028FD00207D
:10198000ADE72DE9F05F07468A4690461E463C4685
:101990002CB940F29F3205A10BA001F0A7FFBAF1CC
:1019A000000F01D1206CC8B9012018E02E2E5C2E4A
:1019B0002E5C4672656552544F535C7372635C7162
:1019C000756575652E6300004572726F723A2573F6
:1019D0002C25640D0A00000004ED00E0002038B959
:1019E0004FF46872AFF23C01AFF2240001F07EFFC9
:1019F000022E02D1E06B012801D1012000E000207D
:101A000038B940F2A132AFF25C01AFF2440001F00C
:101A10006DFF01F087FD00BF5021EFF3118081F3CE
:101A20001188BFF34F8FBFF36F8F00BF0546A06BC8
:101A3000E16B884201D3022E23D194F945B032469E
:101A400051462046FFF7AAFE0BF1010088B9606AF3
:101A500008B9012000E0002080B904F1240001F061
:101A600071F958B1B8F1000F08D00120C8F8000092
:101A700004E00BF1010040B284F845004FF0010989
:101A800001E04FF0000900BF85F3118800BF484610
:101A9000BDE8F09F2DE9F04706460F4634463CB9B5
:101AA00040F23C42AFF2FC01AFF2E40001F01EFF55
:101AB000206C08B9012000E0002038B94FF488629A
:101AC000AFF21811AFF2001001F010FF206808B952
:101AD000606808B9012000E0002038B940F24542B2
:101AE000AFF23811AFF2201001F000FF01F01AFD43
:101AF00000BF5021EFF3118081F31188BFF34F8FA6
:101B0000BFF36F8F00BF0546D4F83890E06B4845AF
:101B10001ED994F945A009F10100A0630AF1010062
:101B200070B9606A08B9012000E0002068B904F1CA
:101B3000240001F007F940B13FB10120386004E012
:101B40000AF1010040B284F845004FF0010801E0BD
:101B50004FF0000800BF85F3118800BF4046BDE884
:101B6000F08770B5054601F08AFCA86B08B901241E
:101B700000E0002401F0A6FC204670BD70B50446CC
:101B80000D46206C70B1216CE0680844E06061682B
:101B9000E068884201D32068E0602846226CE16852
:101BA00001F06AFE70BD2DE9FF4782B005460E4682
:101BB0001F464FF0000A2C463CB940F2DC42AFF21F
:101BC0001421AFF2FC1001F091FE0EB9206C08B99F
:101BD000012000E0002038B940F2DD42AFF23421AC
:101BE000AFF21C2001F082FE01F084F908B90498DC
:101BF00008B9012000E0002038B94FF49C62AFF230
:101C00005421AFF23C2001F071FE00BF01F037FC1F
:101C1000D4F83890B9F1000F38D0D4F80C803146A0
:101C20002046FFF7ABFFB7B9A9F10100A063206917
:101C300008B9012000E0002010BB04F1100001F001
:101C400081F8E8B14FF08050E6490860BFF34F8F4C
:101C5000BFF36F8F14E0C4F80C80606A08B90120EC
:101C600000E0002060B904F1240001F06BF838B105
:101C70004FF08050DB490860BFF34F8FBFF36F8F89
:101C800001F020FC012006B0BDE8F087049818B9E7
:101C900001F018FC0020F6E7BAF1000F04D1684605
:101CA00001F0D4F84FF0010A01F00CFC00F079FCCF
:101CB00001F0E5FB94F94400401C10B9002084F8C1
:101CC000440094F94500401C10B9002084F84500F8
:101CD00001F0F8FB04A9684601F0CAF8F0B9204603
:101CE000FFF73FFFA0B104F12400049900F0C3FF07
:101CF0002046FFF705FD00F06AFB002886D14FF073
:101D00008050B8490860BFF34F8FBFF36F8F7DE7F6
:101D10002046FFF7F5FC00F05AFB77E72046FFF777
:101D2000EFFC00F054FB2046FFF71BFF0028EED02D
:101D30000020A8E72DE9F05F06468946174634469D
:101D40003CB94FF4B462AFF29C31AFF2843001F091
:101D5000CDFDB9F1000F01D1206C08B9012000E0E0
:101D6000002038B940F2A152AFF2C031AFF2A83032
:101D700001F0BCFD01F0D6FB00BF5021EFF3118054
:101D800081F31188BFF34F8FBFF36F8F00BF0546FC
:101D9000D4F838A0BAF1000F22D094F944B04946E3
:101DA0002046FFF7EBFEAAF10100A0630BF1010052
:101DB00070B9206908B9012000E0002068B904F179
:101DC000100000F0BFFF40B13FB10120386004E0D7
:101DD0000BF1010040B284F844004FF0010801E02B
:101DE0004FF0000800BF85F3118800BF4046BDE8F2
:101DF000F09F2DE9F0470646884634463CB940F24C
:101E0000FC52AFF25841AFF2404001F06FFDB8F123
:101E1000000F01D1206C08B9012000E0002038B982
:101E200040F2FD52AFF27C41AFF2644001F05EFD42
:101E3000206C08B1012000E0002038B940F2FE52C9
:101E4000AFF29841AFF2804001F050FD01F06AFB23
:101E500000BF5021EFF3118081F31188BFF34F8F42
:101E6000BFF36F8F00BF0546A06B48B1D4F80C904C
:101E700041462046FFF782FEC4F80C90012700E09F
:101E8000002700BF85F3118800BF3846BDE8F08702
:101E900070B504463CB940F22F62AFF2F041AFF2A8
:101EA000D84001F023FD01F0EAFAA56B01F00AFB2E
:101EB000284670BD70B5044625463DB940F24162E2
:101EC000AFF21851AFF2005001F010FD01F0D7FA57
:101ED000D5E90E10461A01F0F5FA304670BD70B51E
:101EE00004463CB940F25162AFF24051AFF2285083
:101EF00001F0FCFCA56B284670BD014600200EE0F9
:101F0000394A02EBC00252688A4207D10022364B9E
:101F100043F8302003EBC0035A6002E0401C0A285B
:101F2000EED300BF704770B5044625463DB940F278
:101F30005D62AFF28851AFF2705001F0D7FC2846D5
:101F4000FFF7DBFF284601F029FC70BD70B50546A0
:101F50003DB940F29372AFF2AC51AFF2945001F040
:101F6000C5FCA86B08B9012400E00024204670BD20
:101F700070B504463CB940F2BA72AFF2D051AFF23C
:101F8000B85001F0B3FCA06BE16B884201D1012590
:101F900000E00025284670BD024600200BE0124BF1
:101FA00053F8303033B9104B43F8301003EBC00313
:101FB0005A6002E0401C0A28F1D300BF7047024675
:101FC000002000210AE0084B03EBC1035B68934249
:101FD00003D1054B53F8310002E0491C0A29F2D322
:101FE00000BF704704ED00E09C00002010B5002405
:101FF00007E004EB8401FE4A02EB8100FFF794FA4C
:10200000641C202CF5D3FB48FFF78EFAFA48FFF743
:102010008BFAFA48FFF788FAF948FFF785FAF9488A
:10202000FFF782FAF348F8490860F348F749086077
:1020300010BD10B5044601F022FAF5480068401CB6
:10204000F3490860F348006840B9F2480460084664
:10205000006801280DD1FFF7C9FF0AE0EE480068CB
:1020600038B9EC480068C06AE16A884201D8E9489A
:102070000460EA480068401CE849086094F82C10A5
:1020800001208840E64909680843E5490860E16A9B
:1020900001EB8101D64A02EB8100211DFFF754FAC2
:1020A00001F010FADC48006868B1DA480068C06ADC
:1020B000E16A884207D24FF08050DA490860BFF3E6
:1020C0004F8FBFF36F8F10BD2DE9FF5F81460E4626
:1020D0009246DDE90E7B109CAAF10100216B01EB19
:1020E000800828F0070808F0070008B9012000E080
:1020F000002028B940F22B32CBA1D2A001F0F6FB90
:10210000002507E0715D04F134004155705D00B9B0
:1021100002E06D1C102DF5D300BF002143200155B6
:10212000202F00D31F27E762201DFFF70AFA04F1D2
:102130001800FFF706FA2461C7F12000A06164626D
:102140000020606484F8480049464046039A01F044
:1021500023F92060BBF1000F01D0CBF80040BDE8AF
:10216000FF9F2DE9FF4F85B0804689461746DDE980
:1021700012ABB80001F08FFA064656B14C2001F0C0
:102180008AFA04460CB1266304E0304601F006FBEF
:1021900000E000247CB10020CDE900ABCDE9024095
:1021A0003A4649464046089BFFF78EFF2046FFF718
:1021B00040FF012501E04FF0FF35284609B0BDE89A
:1021C000F08F91490968096809B9012100E00021EF
:1021D00021B14FF0FF319F4A116006E08A4909683A
:1021E000C968C8689B4A41681160704710B50446C9
:1021F000206B01F0D3FA204601F0D0FA10BD70B583
:10220000054601F03CF915B98248006800E028460F
:102210000446201DFFF7BEF978B9E06A00EB8000A4
:10222000734951F8200040B994F82C1001208840DF
:102230007B49096881437A480160A06A18B104F1BA
:102240001800FFF7A7F975480068401C734908603B
:1022500070480068844209D1211D6948FFF774F96C
:102260007D480068401C7C49086009E068480068B7
:10227000401E674908602046FFF7B8FFFFF7A1FF3F
:1022800001F020F964480068C0B1624800688442E7
:1022900014D17248006808B9012000E0002028B974
:1022A00040F2654260A167A001F020FB4FF0805032
:1022B0005C490860BFF34F8FBFF36F8F70BD2DE98E
:1022C000F0414FF0000865480068002872D164486A
:1022D0000068451C62480560EDB94B48006800681D
:1022E00008B9012000E0002028B940F6D9124EA11B
:1022F00054A001F0FBFA444807684448006842498A
:1023000008604248076057480068401C554908600B
:10231000FFF757FF00BF4F48006885423CD300BF1E
:1023200039480068006808B9012000E0002020B1A9
:102330004FF0FF30474908602DE033480068C0681F
:10234000C4686668B54202D24248066023E0201D98
:10235000FFF720F9A06A18B104F11800FFF71AF985
:1023600094F82C10012088402D49096808432C4915
:102370000860E16A01EB81011D4A02EB8100211D29
:10238000FFF7E2F82349E06A0968C96A8842C7D3BF
:102390004FF00108C4E700BF1E480068C06A00EBA8
:1023A0008000134951F82000012801D94FF001089D
:1023B00005E0FFE72C480068401C2B4908602B48CB
:1023C000006808B14FF001084046BDE8F08170B5E3
:1023D000002400262148006828B94FF4FD6212A1AC
:1023E00018A001F083FA01F04AF81C4800683FE0A9
:1023F000EC0000206C0300208003002094030020E8
:10240000A8030020BC0300203C0000204000002066
:102410004800002038000020540000206400002004
:102420005000002004ED00E02E2E5C2E2E5C467243
:10243000656552544F535C7372635C7461736B7364
:102440002E6300004572726F723A25732C25640D5D
:102450000A000000680000204400002070000020F6
:102460004C00002060000020580000205C0000208C
:10247000401EFE4908600846006800284FD1FC480D
:10248000006800284BD024E0FA48C068C46804F112
:102490001800FFF77FF8201DFFF77CF894F82C1048
:1024A00001208840F44909680843F3490860E16A5B
:1024B00001EB8101F14A02EB8100211DFFF744F895
:1024C000EF49E06A0968C96A884202D30120ED49F0
:1024D0000860E848006808B9012000E000200028F2
:1024E000D2D00CB1FFF76DFEE748056865B100BFBB
:1024F000FFF7E5FE10B10120E24908606D1E002DD6
:10250000F6D10020E0490860DE48006838B10126B5
:102510003007DE490860BFF34F8FBFF36F8F00F0C5
:10252000D1FF304670BD2DE9F04105460E46D84832
:102530000768D3480068001DFFF72CF850B9D04851
:10254000006890F82C1001208840CB49096881432D
:10255000C9480160681C38B936B1C9480168091D0D
:10256000CC48FEF7F1FF1AE07C19C54800684460CA
:10257000BC4207D2C2480168091DC7480068FEF77F
:10258000EFFF0CE0BE480168091DC4480068FEF773
:10259000E7FFC3480068844201D2C1480460BDE837
:1025A000F081B2480068401CB049086070472DE9CE
:1025B000F04704460F464FF000093CB940F279421B
:1025C000AFF29C11AFF2841001F090F90FB101202D
:1025D00000E0002038B940F27A42AFF2B411AFF215
:1025E0009C1001F083F9A148006808B9012000E0BF
:1025F000002038B940F27B42AFF2D411AFF2BC10E8
:1026000001F074F9FFF7CDFFA14806682068C519ED
:102610002068B04207D92068A8420BD9B54209D931
:102620004FF0010906E02068A84201D8B54201D95F
:102630004FF001092560B9F1000F03D0A81B00215C
:10264000FFF771FFFFF7C3FE8046B8F1000F07D117
:102650004FF080508D490860BFF34F8FBFF36F8FED
:10266000BDE8F08770B504460025BCB17F4800681E
:1026700008B9012000E0002038B940F2CF42AFF2A3
:102680005821AFF2402001F031F9FFF78AFF002115
:102690002046FFF748FFFFF79AFE05463DB94FF089
:1026A00080507A490860BFF34F8FBFF36F8F70BDC2
:1026B0002DE9F04107463E463EB940F2FB42AFF2FB
:1026C0009821AFF2802001F011F96D480068864230
:1026D00001D100241EE000F0D2FE756900F0F2FE88
:1026E0006E480068854203D06B480068854201D17E
:1026F00002240FE06748854205D1B06A08B9032477
:1027000008E0022406E06748854200D00DB90424A1
:1027100000E001242046BDE8F08170B5044600F0D9
:10272000AEFE14B95648006800E020460646F56A39
:1027300000F0C8FE284670BD2DE9F041054600F0C6
:10274000F1FE00BF5021EFF3118081F31188BFF338
:102750004F8FBFF36F8F00BF044615B9484800681C
:1027600000E028460746FE6A00BF84F3118800BFD8
:102770003046BDE8F0812DE9F04780460D464FF028
:102780000009202D01D2012000E0002038B94FF4CB
:10279000B062AFF26C31AFF2543001F0A7F8202DE7
:1027A00000D31F2500F06BFEB8F1000F02D13448B2
:1027B000006800E040460446E66AAE4251D0B542A9
:1027C0000BD92F48006884420DD02D480068C06A9C
:1027D000A84208D84FF0010905E029480068844262
:1027E00001D14FF00109E76AE562A06900F00040FD
:1027F00010B9C5F12000A06107EB87011F4A02EB69
:1028000081016069884201D1012000E00020E0B12F
:10281000201DFEF7BFFE30B90120B84016490968F7
:1028200081431548016094F82C100120884012491A
:102830000968084310490860E16A01EB81010F4A09
:1028400002EB8100211DFEF77FFEB9F1000F07D0DA
:102850004FF080500D490860BFF34F8FBFF36F8F6B
:1028600000BF00F02FFEBDE8F087000070000020E0
:10287000480000209403002050000020EC000020BD
:10288000380000205C0000205800002004ED00E02B
:102890004C000020BC030020400000203C00002031
:1028A00068000020A803002010B5FE48006818B199
:1028B0000120FD4908602FE00020FB490860FB482B
:1028C0000068B0FA80F0C0F11F0404EB8400F849FE
:1028D00051F8200008B1012000E0002038B940F68E
:1028E000F622AFF2BC41AFF2A44000F0FFFF04EBD0
:1028F0008401EF4A02EB810041684968416000F1C0
:10290000080142688A4202D14168496841604168D1
:10291000C968E84A116000BF10BD70B5054600F0F7
:10292000AEFD15B9E348006800E028460446201DC6
:10293000FEF730FE78B9E06A00EB8000DC4951F820
:10294000200040B994F82C1001208840D74909682C
:102950008143D6480160A06A18B104F11800FEF75F
:1029600019FE211DD448FEF7EFFD00F0ABFDD34862
:10297000006828B100F083FDFFF723FC00F0A2FD02
:10298000CC480068844226D1CC480068B8B1C5481C
:10299000006808B9012000E0002038B940F2576211
:1029A000AFF27C51AFF2645000F0A0FF4FF08050C6
:1029B000C3490860BFF34F8FBFF36F8F0BE0BE4872
:1029C0000068C0490968884203D10020B9490860FD
:1029D00001E0FFF769FF70BD70B5054600262C4683
:1029E0003DB940F28162AFF2C051AFF2A85000F0A1
:1029F0007DFFB1496069884201D1012000E00020DB
:102A000070B1B149A06A884201D1012000E00020E4
:102A100030B9A06A08B9012000E0002000B1012609
:102A2000304670BD70B505462C463DB940F2AB62EC
:102A3000AFF20C61AFF2F45000F058FF74B39D4850
:102A4000006884422AD000F01AFD2046FFF7C4FF38
:102A500010B3201DFEF79EFD94F82C100120884035
:102A600092490968084391490860E16A01EB8101D4
:102A70008F4A02EB8100211DFEF766FD8D49E06A59
:102A80000968C96A884207D34FF080508C490860B2
:102A9000BFF34F8FBFF36F8F00F014FD70BD2DE9B2
:102AA000F0410646002734463EB940F2E262AFF2FA
:102AB0008861AFF2706000F019FF00F033FD00BFD5
:102AC0005021EFF3118081F31188BFF34F8FBFF3D3
:102AD0006F8F00BF05462046FFF77EFF20B3714889
:102AE0000068E0B97349E06A0968C96A884200D39E
:102AF0000127201DFEF74EFD94F82C100120884080
:102B00006A490968084369490860E16A01EB810183
:102B1000674A02EB8100211DFEF716FD04E004F177
:102B200018016948FEF710FD00BF85F3118800BF4A
:102B30003846BDE8F08170B523E0FFF732FD634809
:102B4000006808B9012000E000200546FFF73FFCBF
:102B5000BDB900F094FC5D48C068C468201DFEF754
:102B600019FD58480068401E5649086058480068DA
:102B7000401E5749086000F0A5FC2046FFF736FBD1
:102B800000BF534800680028D7D170BD00BFFFF7D1
:102B9000D2FF474800680128F9D94FF080504849D2
:102BA0000860BFF34F8FBFF36F8FF0E71CB5494844
:102BB00000210B468022CDE9001047A14848FFF7CD
:102BC000D0FA0446012C15D100BF502080F31188A3
:102BD000BFF34F8FBFF36F8F00BF4FF0FF304149FE
:102BE000086001203549086000203F49086000F076
:102BF000EFFB0DE0601C08B1012000E0002038B9B7
:102C000040F28472AFF2E071AFF2C87000F06EFE75
:102C10001CBD10B500BF502080F31188BFF34F8F4B
:102C2000BFF36F8F00BF00202449086000F016FC3E
:102C300010BD2D490868704770B500F073FC002581
:102C400029480468204670BD1E480068704770B56A
:102C5000044614B91748006800E0204605463DB90F
:102C600040F68C02AFF64001AFF6280000F03EFEC1
:102C700005F1340070BD70B504460D463CB940F610
:102C80000632AFF65C01AFF6440000F02FFE0948B3
:102C9000016818312046FEF763FC01212846FFF742
:102CA00042FC70BD700000205C000020500000203D
:102CB000EC00002038000020BC030020540000205D
:102CC00004ED00E04800002094030020A803002049
:102CD000440000206C00002049444C4500000000E6
:102CE0008D2B0008680000204C00002070B50446C1
:102CF0000D4616463CB940F61732AFF6D401AFF692
:102D0000BC0000F0F3FDFE48006808B1012000E0BF
:102D1000002038B940F61B32AFF6F401AFF6DC0004
:102D200000F0E4FD45F00040F64909688861F54887
:102D3000016818312046FEF707FC01213046FFF7F5
:102D4000F2FB70BD70B50646F068C4683CB940F649
:102D50006132AFF62C11AFF6141000F0C7FD04F18C
:102D60001800FEF717FCE6480068A8B9201DFEF71A
:102D700011FC94F82C1001208840E34909680843AD
:102D8000E1490860E16A01EB8101E04A02EB810060
:102D9000211DFEF7D9FB04E004F11801DC48FEF721
:102DA000D3FBD849E06A0968C96A884204D9012579
:102DB0000120D849086000E00025284670BD2DE9B3
:102DC000F04105460F46CE48006808B1012000E0FA
:102DD000002038B940F69932AFF6B411AFF69C1026
:102DE00000F084FD47F000402860EC683CB940F6F4
:102DF000A132AFF6CC11AFF6B41000F077FD284643
:102E0000FEF7C8FB201DFEF7C5FB94F82C1001202F
:102E10008840BD4909680843BB490860E16A01EB85
:102E20008101BA4A02EB8100211DFEF78DFBB549F5
:102E3000E06A0968C96A884204D901260120B549B7
:102E4000086000E000263046BDE8F08110B5044679
:102E50003CB940F6C132AFF63021AFF6182000F091
:102E600045FDAD4800682060AC480068606010BD5A
:102E70002DE9F04104460D463CB940F6CB32AFF6A1
:102E80005821AFF6402000F031FD3DB940F6CC327C
:102E9000AFF66C21AFF6542000F028FD00F0EFFAF9
:102EA0009E4807682868401C08B9002619E09A491E
:102EB00020680968884204D06068B84201D80126B9
:102EC0000FE06068381A2968884209D2286861686A
:102ED000791A401A28602046FFF7B8FF002600E064
:102EE000012600F0EFFA3046BDE8F0810120894963
:102EF000086070478A49096809B9012005E08049DE
:102F0000096809B9022000E0002070477D4909687E
:102F100088697C490968C96AC1F12001794A126847
:102F20009161704770B506460D4600F0A8FA7548E5
:102F30000068406C88B901207249096881F848002E
:102F40005DB101212846FFF7EEFA4FF08050754938
:102F50000860BFF34F8FBFF36F8F00F0B3FA00F03C
:102F60008EFA68480068446C4CB126B1002065496F
:102F70000968486403E0601E6249096848640020EB
:102F80006049096881F8480000F09CFA204670BD4D
:102F90002DE9F0410746884614461D4600F06FFAB9
:102FA0005848006890F84800022818D05549096828
:102FB00001F14400496CB94301600120514909689D
:102FC00081F848005DB101212846FFF7ACFA4FF0C7
:102FD000805054490860BFF34F8FBFF36F8F00F0EC
:102FE00071FA00F04CFA1CB146480068406C206051
:102FF0004448006890F84800012801D1002608E004
:103000004049096801F14400496C21EA0801016066
:10301000012600203B49096881F8480000F052FA77
:103020003046BDE8F0812DE9F04706460D461746CB
:1030300098464FF0010A3EB941F2FD02AFF6184141
:10304000AFF6004000F052FC344600F018FAB8F138
:10305000000F02D0606CC8F8000094F8489002207D
:1030600084F84800052F17D2DFE807F01503070B97
:103070000D00606C284360640EE0606C401C60646E
:103080000AE0656408E0B9F1020F01D0656401E06F
:103090004FF0000A00E000BF00BFB9F1010F45D1B9
:1030A000201DFEF777FA94F82C100120884016496D
:1030B0000968084314490860E16A01EB8101134A79
:1030C00002EB8100211DFEF73FFAA06A08B901203A
:1030D00000E0002038B941F23512AFF6B441AFF646
:1030E0009C4000F003FC0749E06A0968C96A88420D
:1030F0001CD94FF080500B490860BFF34F8F13E08D
:10310000700000203800002050000020EC0000205B
:10311000940300205C000020600000204C00002090
:103120005400002004ED00E0BFF36F8F00F0CAF9F7
:103130005046BDE8F0872DE9F84F07460E46904609
:103140009946DDF828B0012000903FB941F268129D
:10315000AFF62C51AFF6145000F0C8FB00F0E2F9C6
:103160003C4600BF5021EFF3118081F31188BFF37B
:103170004F8FBFF36F8F00BF0546B9F1000F02D02C
:10318000606CC9F8000094F848A0022084F8480058
:10319000B8F1050F17D2DFE808F01503070B0D0093
:1031A000606C304360640EE0606C401C60640AE058
:1031B000666408E0BAF1020F01D0666401E0002005
:1031C000009000E000BF00BFBAF1010F3BD1A06A40
:1031D00008B9012000E0002038B941F2AF12AFF683
:1031E000B851AFF6A05000F081FB59480068A8B96B
:1031F000201DFEF7CFF994F82C1001208840554986
:103200000968084353490860E16A01EB8101524AA9
:1032100002EB8100211DFEF797F904E004F118018B
:103220004E48FEF791F94E49E06A0968C96A88423A
:1032300009D9BBF1000F03D00120CBF8000002E058
:1032400001204849086000BF85F3118800BF00983D
:10325000BDE8F88F2DE9F04105460F463DB941F232
:10326000E312AFF63C61AFF6246000F03FFB00F0E4
:1032700059F92C4600BF5021EFF3118081F31188DA
:10328000BFF34F8FBFF36F8F00BF064694F848809F
:10329000022084F84800606C401C6064B8F1010FA3
:1032A00038D1A06A08B9012000E0002038B941F205
:1032B0000922AFF68C61AFF6746000F017FB24486A
:1032C0000068A8B9201DFEF765F994F82C100120BC
:1032D00088402049096808431E490860E16A01EBFB
:1032E00081011D4A02EB8100211DFEF72DF904E04A
:1032F00004F118011948FEF727F91949E06A09682D
:10330000C96A884206D917B10120386002E001205D
:103310001449086000BF86F3118800BFBDE8F08142
:1033200070B5054615B90E48006800E02846064607
:1033300000F0A5F896F84800022804D1002086F88D
:103340004800012400E0002400F0BCF8204670BDD5
:103350007000002050000020EC00002094030020AA
:10336000380000205C00002084480068401C08B938
:10337000012000E0002020B9F42281A18BA000F000
:10338000B5FA00BF502080F31188BFF34F8FBFF311
:103390006F8F00BF00BFFEE7001F4FF08073036018
:1033A000001F21F001030360001F844B03601438E9
:1033B000026020387047824800684FF47A71B0FB91
:1033C000F1F0401E4FF0E02148610720086170478E
:1033D0001CB57C48014609780191FF210246117015
:1033E0000146097800919DF8001001F05001764ADD
:1033F00011700721754A116009E074490968491E76
:10340000724A11609DF800104906090E00919DF85E
:10341000001001F080018029EFD06C490968090291
:103420006A4A11601146098801F4E0611160654A39
:10343000019911706648006840F4700064490860A2
:103440000846006840F070400860FFF7B4FF0020B5
:103450004A490860FCF78AFE00201CBD10B54748A9
:103460000068B0F57A7F01D1012000E0002028B982
:103470004FF4B57242A14DA000F038FA10BD10B55E
:1034800000BF502080F31188BFF34F8FBFF36F8FC1
:1034900000BF3A480068401C384908600846006888
:1034A00001280ED14A481C380068C0B208B9012072
:1034B00000E0002028B94FF4BD7231A13BA000F01C
:1034C00015FA10BD10B52D48006828B940F28112D8
:1034D0002BA136A000F00AFA28480068401E2749B0
:1034E00008600846006820B9002080F3118800BFFA
:1034F00000BF10BD10B500BF502080F31188BFF38E
:103500004F8FBFF36F8F00BFFEF7D9FE20B14FF092
:1035100080502F491C39086000BF002080F31188BB
:1035200000BF10BD70B5FCF757FE0546102D11D336
:1035300005F1E02090F8F04323480078844201DB55
:10354000012000E0002028B94FF42A720CA117A036
:1035500000F0CCF91E481438006800F4E0601B4904
:103560000968884201D8012000E0002028B94FF402
:103570002E7203A10DA000F0B9F970BD74000020F7
:103580002E2E5C2E2E5C4672656552544F535C7035
:10359000726F7461626C655C525644535C41524D6B
:1035A0005F434D335C706F72742E63004572726FAF
:1035B000723A25732C25640D0A0000006933000857
:1035C0000000002000E400E0780000207C000020E3
:1035D00020ED00E010B50146924800E00068036865
:1035E0008B42FBD30246436813448B4204D14368A9
:1035F0004C682344436001460A464B681344046800
:10360000A34211D1884C03682468A34208D04B68B8
:103610000468646823444B6003681B680B6005E022
:10362000814B1B680B6001E003680B60884200D08F
:10363000016010BD30B54FF410437C4800F0070422
:103640002CB1C01D20F00700784C041B1B1B024648
:10365000744C22600024734D6C60D018083820F040
:103660000700714C206000246F4D2D686C606E4D1A
:103670002D682C601146441A4C606B4C24680C6019
:103680006B4D4C682C606B4D4C682C604FF00044C7
:10369000694D2C6030BD2DE9F04104464FF0000823
:1036A000FEF77FFF6048006808B9FFF7C3FF624874
:1036B0000068204000285FD1A4B1083404F007005E
:1036C00080B104F00700C0F10800044404F00700D2
:1036D00008B9012000E0002020B9BF2257A162A054
:1036E00000F004F9002C47D052480068844243D8C7
:1036F0004C4E3046056801E02E462D686868A042B1
:1037000002D228680028F7D147480068854233D0A4
:10371000306800F10808286830606868001B1028CD
:1037200013D92F1907F0070008B9012000E0002085
:1037300020B9EC2241A14CA000F0D8F86868001B29
:1037400078606C603846FFF745FF3A496868096859
:10375000081A3849086008460068354909688842EF
:1037600003D2344800683249086033496868096800
:103770000843686000202860FEF729FE08F0070073
:1037800008B9012000E0002028B94FF496722BA15F
:1037900035A000F0ABF84046BDE8F08170B50646B4
:1037A0003546002E35D0083D2C462349606809680F
:1037B000084008B1012000E0002028B94FF4A072B1
:1037C0001EA129A000F092F8206808B9012000E0AD
:1037D000002028B940F2411218A123A000F086F879
:1037E000154960680968084098B1206888B912498D
:1037F0006068096888436060FEF7D3FE0D49606821
:10380000096808440B4908602046FFF7E3FEFEF70D
:10381000DEFD70BD074800687047054800687047C6
:10382000704700008000002088000020D0030020A6
:10383000900000208C000020940000202E2E5C2E92
:103840002E5C4672656552544F535C70726F7461A2
:10385000626C655C4D656D4D616E675C686561703D
:103860005F342E63000000004572726F723A257358
:103870002C25640D0A00000040EA01039B0703D0D9
:1038800009E008C9121F08C0042AFAD203E011F89F
:10389000013B00F8013B521EF9D2704730B50B4690
:1038A000014600202022012409E021FA02F59D4270
:1038B00005D303FA02F5491B04FA02F52844151E44
:1038C000A2F10102F1DC30BD064C074D06E0E068D4
:1038D00040F0010394E8070098471034AC42F6D357
:1038E000FCF72AFCE43A0008043B00080FB4054B3F
:1038F00010B503A9044A029800F018F810BC5DF84E
:1039000014FB00007F1400089800002002E008C8A3
:10391000121F08C1002AFAD170477047002001E049
:1039200001C1121F002AFBD1704700002DE9FF4F93
:103930008BB09A460F460546002606E025280BD098
:1039400052460D9990476D1C761C28780028F5D1B9
:103950000FB03046BDE8F08F0024A0460122604938
:1039600000E0044315F8013F203B02FA03F008424F
:10397000F7D128782E2817D115F8010F44F0040448
:103980002A280ED06FF02F022878A0F130010929E3
:103990000AD808EB880102EB410100EB01086D1C1D
:1039A000F2E757F8048B6D1C287869283ED006DCB6
:1039B0000028CDD063280BD0642804D136E07328CA
:1039C00010D075284BD052460D999047761C85E053
:1039D00017F8040B8DF8000000208DF80100E9466F
:1039E000012003E057F8049B4FF0FF3061074FF0D0
:1039F000000401D40AE0641C44450DDA8442FADB79
:103A000019F804100029F6D106E0641C8442FCDB9E
:103A100019F804100029F8D1264404E019F8010B24
:103A200052460D999047641EF8D257E001CF4FF0EF
:103A30000A0B002802DA40422D2102E0210504D5BC
:103A40002B218DF82410012103E0E10705D020216E
:103A5000F7E70DF1200908910CE00021F9E701CF0B
:103A60004FF00A0BF9E75946FFF718FF01F1300252
:103A700009F8012D0028F6D1ADEB090000F1200B6B
:103A8000600701D44FF00108D84502DDA8EB0B0018
:103A900000E000208046002406E009A85246005DB0
:103AA0000D999047641C761C08988442F5DB04E06D
:103AB000302052460D999047761CB8F10001A8F1CC
:103AC0000108F5DC05E019F8010B52460D99904705
:103AD000761CBBF10001ABF1010BF4DC6D1C34E78B
:103AE00009280100043B0008000000209C000000A1
:103AF0000C390008A03B00089C000020349700000F
:103B00001C39000800A24A04000000000000000068
:103B10000102030406070809000000000102030473
:103B20000102030406070809020406080000000059
:103B30000000000000000000000000000000000085
:103B40000000000000000000000000000000000075
:103B50000000000000000000000000000000000065
:103B60000000000000000000000000000000000055
:103B70000000000000000000AAAAAAAA000000009D
:103B80000000000000000000000000000000000035
:103B90000000000000000000000000000000000025
:0400000508000131BD
:00000001FF
