:020000040800F2
:1000000078FA02207D020008592A0008A10200089F
:10001000552A00084D0C0008993000080000000027
:10002000000000000000000000000000C501000802
:100030007D0C00080000000019020008952A000845
:10004000970200089702000897020008970200082C
:10005000970200089702000897020008970200081C
:10006000970200089702000897020008970200080C
:1000700097020008970200089702000897020008FC
:1000800097020008970200089702000897020008EC
:1000900097020008970200089702000897020008DC
:1000A00097020008970200089702000897020008CC
:1000B00097020008970200089702000897020008BC
:1000C00097020008970200089702000897020008AC
:1000D000970200089702000897020008970200089C
:1000E000970200089702000897020008970200088C
:1000F000970200089702000897020008970200087C
:10010000970200089702000897020008970200086B
:10011000970200089702000897020008970200085B
:10012000970200089702000897020008970200084B
:10013000970200080D0D00089702000897020008BA
:10014000970200089702000897020008970200082B
:10015000970200089702000897020008970200081B
:10016000970200089702000897020008970200080B
:10017000970200089702000897020008000000009C
:1001800097020008970200089702000897020008EB
:1001900097020008970200089702000897020008DB
:1001A000970200089702000897020008DFF810D0B5
:1001B00000F036FB00480047CD7F0008AFF3008019
:1001C00078FA02202A4B19680868B0E8F04F80F3EB
:1001D0000988BFF36F8F4FF0000080F311887047DC
:1001E0000000000006480068006880F3088862B6D6
:1001F00061B6BFF34F8FBFF36F8F00DF00BF00BF4B
:1002000008ED00E0DFF80C00016841F470010160C6
:10021000704700BF88ED00E0EFF30980BFF36F8FF8
:10022000134B1A681EF0100F08BF20ED108A20E94A
:10023000F04F106008B44FF0500080F31188BFF306
:100240004F8FBFF36F8F11F0C7FA4FF0000080F3AC
:10025000118808BC19680868B0E8F04F1EF0100F4C
:1002600008BFB0EC108A80F30988BFF36F8F704726
:100270001C010020EFF3058070470000064880470E
:1002800006480047FEE7FEE7FEE7FEE7FEE7FEE77B
:10029000FEE7FEE7FEE7FEE7712B0008AD01000870
:1002A0007046694603F06CFCFFF7FEFF2DE9F05F36
:1002B0000546002092469B468846064681464024D5
:1002C0001BE0284641464746224600F0AAF853461E
:1002D0005A46C01A914110D311461846224600F0E2
:1002E00091F82D1A67EB01084F46224601200021A4
:1002F00000F088F817EB00094E41201EA4F101041C
:10030000DFDC484631462A464346BDE8F09F000000
:10031000004870478C28010810B5431A934209D24F
:100320008318881803E010F8011D03F8011D521E00
:10033000F9D210BD40EA01039B0703D009E008C9C8
:10034000121F08C0042AFAD203E011F8013B00F89A
:10035000013B521EF9D210BDD2B201E000F8012BD0
:10036000491EFBD270470022F6E710B513460A4635
:1003700004461946FFF7F0FF204610BD30B504468D
:100380000020034600E05B1C934203D2E05CCD5C9E
:10039000401BF8D030BD30B40446962308002146F7
:1003A00004D0B62330BC002200F054B8204600210F
:1003B000F8E700F0004230F000400AD0C10D01F52E
:1003C0006071C0F3160042EA0151C20840071143B0
:1003D000704700200146704730B50B4601460020AB
:1003E0002022012409E021FA02F59D4205D303FAF7
:1003F00002F5491B04FA02F52844151EA2F1010278
:10040000F1DC30BD202A04DB203A00FA02F10020A2
:1004100070479140C2F1200320FA03F31943904042
:100420007047202A04DB203A21FA02F000217047AD
:1004300021FA02F3D040C2F120029140084319464C
:1004400070470029A8BF7047401C490008BF20F032
:100450000100704710B4B0FA80FC00FA0CF050EACA
:10046000010404BF10BC704749B1CCF1200421FA4B
:1004700004F411FA0CF118BF012121430843A3EB46
:100480000C01CB1D4FEA00614FEA102042BF002053
:1004900010BC704700EBC35010440029A4BF10BC2F
:1004A0007047401C490008BF20F0010010BC704795
:1004B0002DE9FE4F804681EA0300C00F0C460090F4
:1004C00021F0004123F00045B8EB0200A94105D21C
:1004D0004046214690461C460B46024623F000400B
:1004E000104347D0270DC7F30A00C3F30A51029007
:1004F000401A019040286BDAC3F3130040F4801BCC
:100500000098924620B10023D2EB030A63EB0B0B59
:1005100001985946C0F140025046FFF773FF064666
:100520000D4650465946019A00F08CF910EB080030
:100530006141002487EA115284EAE7731A4340D0EC
:10054000009A62B3019A012A4FEA075215DC001B98
:1005500061EB02014FF0004202EA0752CDE900428E
:10056000001C41F5801132462B4600F08CF903B097
:10057000BDE8F08F40462146F9E7001B61EB020120
:10058000001C41F5801300185B412018A2F50017EC
:1005900047EB030140EAD570B6196D4111E06D08D3
:1005A0004FEA360645EAC0754FEA0752001B61EB79
:1005B0000201001C41F5801149084FEA3000001982
:1005C000514132462B4603B0BDE8F04F00F04CB924
:1005D0000098012240000023D0EB020263EBE0739D
:1005E000009821464FEAE074B8EB000061EB04018B
:1005F000E9E783F000435BE781F0004158E72DE92C
:10060000FE4F81EA030404F0004421F0004100940D
:100610004FF0000B23F0004350EA01045ED052EA91
:1006200003045BD0C3F30A54C1F30A552C44A4F26B
:10063000F3340194A0FB0254C1F3130141F480117F
:10064000C3F3130343F4801301FB024400FB034E86
:10065000840A970A44EA815447EA8357A4FB07684F
:1006600002958D0A05FB07854FEA932C04FB0C5479
:100670002705029D4FEA065847EA1637B5EB0805ED
:100680006EEB070C870E920E47EA811742EA83123F
:10069000A7FB0201B6EB0B0164EB00042B0D43EA50
:1006A0000C335E1844EB1C50DA465146E7FB02015E
:1006B000C5F313044FEA0B3343EA14534FEA0432F1
:1006C000019C43EA0603A4F10C040294009CCDE9CA
:1006D00000B400F0D8F803B0BDE8F08F0020014668
:1006E000F9E72DE9F04D81EA030404F0004B21F015
:1006F000004514464FF0000A23F0004150EA05027D
:1007000020D054EA01021DD0C5F30A570246C5F3B2
:100710001303C1F31300C1F30A5640F4801543F4E8
:100720008013A7EB0608101BD64608F2FD3873EBC2
:10073000050002D308F1010801E092185B41B8F10D
:10074000000F03DA00200146BDE8F08D00204FF4D1
:100750008011064684460EE0171B73EB050705D390
:10076000121B63EB050306434CEA010C49084FEAF0
:10077000300092185B4150EA0107EDD152EA0300C4
:1007800012D082EA040083EA0501084305D0101B59
:10079000AB4106D20122002306E000224FF00043C5
:1007A00002E06FF0010253101AEB06004CEB085107
:1007B00010EB0A0041EB0B01BDE8F04D00F054B81E
:1007C000C1F30A52C1F3130140F2FF3341F4801127
:1007D0009A4202DA00200146704740F233439A42BF
:1007E000A2F2334202DC5242FFF71BBEFFF70ABE01
:1007F00030B5041E71F1000404DB4FF000444042A8
:1008000064EB0101141E73F1000405DB1C464FF07C
:100810000043524263EB0403994208BF904230BD4B
:10082000064C074D06E0E06840F0010394E807003D
:1008300098471034AC42F6D3FFF7BCFC8C32010869
:10084000AC320108202A06DBCB17203A41FA02F02D
:1008500043EAE07306E041FA02F3D040C2F120021D
:10086000914008431946704710B5141E73F10004F7
:1008700008DA401C41F1000192185B411A4301D192
:1008800020F0010010BD2DE9F04D92469B4611B1BC
:10089000B1FA81F202E0B0FA80F220329046FFF71E
:1008A000B1FD04460F4640EA0A0041EA0B015346F7
:1008B0005A46084313D0114653EA010019D0C8F133
:1008C00040025046FFF7ADFD05460E4650465946DC
:1008D0004246FFF797FD084305D0012004E020467B
:1008E0003946BDE8F08D0020054346EAE0762C430A
:1008F00037430A986305E40AA0EB08000022FD0ACA
:1009000044EA47540A3002D500200146E9E70105D0
:1009100010196941DDE9084500196941BDE8F04D4C
:10092000A2E770B58C1810F8015B15F0070301D130
:1009300010F8013B2A1106D110F8012B03E010F842
:10094000016B01F8016B5B1EF9D12B0705D4002365
:10095000521E0DD401F8013BFAE710F8013BCB1A07
:10096000921C03E013F8015B01F8015B521EF9D5FC
:10097000A142D8D3002070BD1CB5012402F02AF991
:1009800005F0D2FF1BA002F089FB23A002F086FB3A
:10099000304802F083FB30A002F080FB3B4802F0BD
:1009A0007DFB10F0D9FB3A48012100234A02CDE932
:1009B000001038A13A4811F08DFB0446012C02D1F9
:1009C00038A002F06BFB3F48022100230A02CDE968
:1009D00000103DA13F4811F07DFB0446012C02D1DF
:1009E0003DA002F05BFB4448006810F05FFD10F092
:1009F000F5FB1CBDB1BEC0FDB3CCD1DDCABEBFAAE4
:100A0000B7A2B0E5B7A2CBCDCAFDBEDDB5BDB7FE7E
:100A1000CEF1C6F70A0A0000CDF8C2E7C1ACBDD3DB
:100A2000C4A3D0CDC8E7CFC2A3BA0A0920B5E7C492
:100A3000D43C2D2DCDF8CFDF2D2D3EC2B7D3C93CF0
:100A40002D2DCDF8CFDF2D2D3EBFAAB7A2B0E50AE0
:100A50000A00000090280108B1BEC0FDB3CCB5C4A7
:100A60004950B5D8D6B7BEF9D4DA557365722F613F
:100A70007263682F7379735F617263682E68CEC486
:100A8000BCFED6D0D0DEB8C40A0A0000D8280108BF
:100A90001400002054657374315F5461736B00005F
:100AA0008D2C000843726561746520546573743140
:100AB0005F5461736B207375636573732E2E2E0DF7
:100AC0000A0000001800002054657374325F5461FE
:100AD000736B0000A92C0008437265617465205493
:100AE000657374325F5461736B20737563657373E0
:100AF0002E2E2E0A0A0000001000002010B501F072
:100B0000EBF900F0B1FA01F0DFFF01F04BFF00F06C
:100B10009FF802A002F0C2FA10BD00002D2D2D2D6D
:100B20002D2D2D2D2D2D2D204C7769702064656D78
:100B30006F202D2D2D2D2D2D2D2D2D2D2D2D0A0000
:100B40001CB5284800F08CFB00F05CFA26480068D1
:100B500040F001002449086002208DF800000020C8
:100B60008DF801008DF802008DF803008DF8040067
:100B70008DF805001D481B490860012048600021D0
:100B800018480182C0F814D0012181610021C1619F
:100B90004FF40001016249128160C910C16000F088
:100BA00033FC04463CB900BF11A002F077FA14A050
:100BB00002F074FA07E000BF0DA002F06FFA18A06F
:100BC00002F06CFA00BF08231C4A1D49054800F0DA
:100BD00005FB08231B4A1C49024800F0B9FA2046CD
:100BE0001CBD0000D801002000900240008002409F
:100BF0000D0A5B44454255475D203E3E2000000003
:100C000065746820686172647761726520696E69D5
:100C100074207375636573732E2E2E0A0000000016
:100C200065746820686172647761726520696E69B5
:100C300074206661696C642E2E2E0A00C033002079
:100C400020030020200400202002002000BFFEE737
:100C500010B50848084908604FF4E13048600021A9
:100C600005488160C160016181610C21416101F031
:100C700099FD10BD001001409801002070470168E7
:100C800001F58051896941F00202016801F5805146
:100C90008A617047016801F58051896941F4005209
:100CA000016801F580518A617047000008B5084964
:100CB0000968C9084FF47A72B1FBF2F1414300911F
:100CC00000BF00BF00994A1E00920029F9D108BD5B
:100CD0000000002038B5044600200090206800F590
:100CE0008050806940F48011206800F58050816157
:100CF000206800F58050806900900120FFF7D6FF42
:100D00000099206800F58050816138BD10B500BFA2
:100D10005021EFF3118081F31188BFF34F8FBFF3A0
:100D20006F8F00BF0446044800F01BFB204680F391
:100D3000118800BF10BD0000D801002030B5034667
:100D40001479557944EA0520084C0C442064D47881
:100D50002406957844EA0544557844EA0524157834
:100D600044EA0500014C0C44606430BD0080024040
:100D700070B5AEB004460E46002526B14FF40061B2
:100D8000E160C900A16000201190129013901490AE
:100D900015901690E06918B94FF48060179001E043
:100DA000002017904FF400701890002019901A90AE
:100DB0001B901C901D9040201E9000201F902090A2
:100DC0002190229023902490259026908020279097
:100DD0000020289029902A902B902C902D9020680C
:100DE000056871480540DDE911010843139908437E
:100DF00014990843A16808431599084316990843B4
:100E0000E16808431799084318990843199908435A
:100E10001A9908431B990843054320680560206818
:100E20000568012000F080F920680560DDE91C01FB
:100E300008431E9908431F990843209908432199A4
:100E40000843229908432399084321684860206891
:100E50004568012000F068F9206845602498216801
:100E6000886025982168C860206885694FF64170C0
:100E70000540DDE9261040EA0140289908432999F8
:100E800008432A9908432B99084305432068856144
:100E900020688569012000F047F920688561DDE957
:100EA0002C0108432168C8612068C569012000F051
:100EB0003BF92068C561002001904FF0007002905E
:100EC000002003904FF4001004900020059006903D
:100ED0000790089004200990C0050A9040120B90DA
:100EE00080010C9040120D9080200E9000200F90F9
:100EF0001090206800F5805085692C480540DDE998
:100F000001010843039908430499084305990843DC
:100F10000699084307990843089908430999084323
:100F20000543206800F580508561206800F58050F9
:100F30008569012000F0F8F8206800F5805085618F
:100F4000DDE90A0108430C9908430D9908430E99FD
:100F500008430F9940EA81001099084340F40001CA
:100F6000206800F580500160206800F58050056819
:100F7000012000F0D9F8206800F580500560A069D4
:100F8000012809D1206800F58050C069084908434C
:100F9000216801F58051C861002120466269FFF790
:100FA000CDFE2EB070BD00000F8120FF233FDEF884
:100FB0004000010038B50446002000902068006819
:100FC00040F004002168086020680068009001205B
:100FD000FFF76CFE00982168086038BD38B50446FC
:100FE000002000902068006840F008002168086038
:100FF0002068006800900120FFF758FE00982168E3
:10100000086038BD00B587B000BF002001901448CB
:10101000006840F48070124908600846006800F4D7
:101020008070019000BF00BF012003900490022057
:101030000590029002A90B4800F028FE0022022130
:10104000084800F031FF052000F06EF8012202216F
:10105000044800F029FF052000F066F807B000BD45
:10106000303802400020024008B500BF0020009048
:101070002C48006840F080002A4908600846006853
:1010800000F08000009000BF00BF00BF0020009073
:101090000846006840F0040008600846006800F058
:1010A0000400009000BF00BF00BF00200090084671
:1010B000006840F0010008600846006800F0010088
:1010C000009000BF00BF00BF0020009008460068ED
:1010D00040F0020008600846006800F0020000903E
:1010E00000BF00BF00BF002000900846006840F02D
:1010F000400008600846006800F04000009000BF13
:1011000000BF00BF002000900846006840F48070D7
:1011100008600846006800F48070009000BF00BFBF
:1011200008BD00003038024070B5044600F0C2FE31
:1011300006462546681C10B104480078054400BFE7
:1011400000F0B8FE801BA842FAD370BD0C0000204E
:1011500070B504460D461646002200BF94F84500BF
:10116000012801D1022070BD012084F8450000BF94
:10117000022084F84400A56200221FE005EB421122
:101180004FF00040086044F2F4504860C2EBC210D7
:1011900000EB400006EB80008860A069012803D1C5
:1011A000486820F000404860581E904204D905EB82
:1011B00042102030C86000E0CD60521C9A42DDD35E
:1011C000206800F58050C560012084F8440000BF0D
:1011D000002084F8450000BF00BFC4E770B5044696
:1011E0000D461646002200BF94F84500012801D1A3
:1011F000022070BD012084F8450000BF022084F861
:101200004400E56200221BE005EB42114FF4801020
:101210000860C2EBC21000EB400006EB8000886063
:10122000E06918B9086840F440000860581E904210
:1012300004D905EB42102030C86000E0CD60521C9C
:101240009A42E1D3206800F580500561012084F8BE
:10125000440000BF002084F8450000BF00BFC8E77D
:1012600010B50446022084F84400204600F01AFA23
:10127000002084F8440000BF84F8450000BF10BD82
:1012800010B5044600BF04A001F008FF05A001F05E
:1012900005FF00BF10BD00000D0A5B4552525D20E6
:1012A0003E3E2000657468206572720A00000000EE
:1012B0000146002200BF91F84500012801D102201B
:1012C0007047012081F8450000BF022081F84400EA
:1012D000886A006800F00040002838D1886A0068F9
:1012E00000F48070F0B1886B401C8863886B012823
:1012F00001D1886A08638B6A4B63886A0068C0F30F
:101300000D40021FCA63086B83680B64886AC0685B
:101310008862012081F8440000BF002081F8450068
:1013200000BFCDE7886A006800F4007048B1886AA1
:10133000086300234B6301238B63886AC06888625B
:1013400005E0886B401C8863886AC0688862012059
:1013500081F8440000BF002081F8450000BF012053
:10136000AEE710B50446206800F58050406900F0F3
:10137000400040280FD1204600F09EFA402120680E
:1013800000F580504161012084F8440000BF002036
:1013900084F8450016E0206800F58050406900F0B0
:1013A000010078B1204600F067FB0121206800F5BC
:1013B00080504161012084F8440000BF002084F87F
:1013C000450000BF4FF48031206800F58050416136
:1013D000206800F58050406900F40040B0F5004FEF
:1013E00010D12046FFF74CFF4FF40041206800F574
:1013F00080504161012084F8440000BF002084F83F
:10140000450000BF10BD00002DE9FC410446002549
:10141000002001909C4E0027804614B90120BDE8B1
:10142000FC8194F8440028B9002084F84500204647
:1014300000F070F900BF002000909448006840F46C
:101440008040924908600846006800F4804000909F
:1014500000BF00BF8E48006820F400008C4908607F
:1014600008460068216A084389490860206800F539
:101470008050006840F00101206800F58050016054
:1014800000F018FD07460FE000F014FDC01BB0F59A
:10149000FA7F09D9032084F8440000BF002084F8B3
:1014A000450000BF0320BAE7206800F580500068BF
:1014B00000F001000028E7D12068056925F01C052F
:1014C00000F0B4FE06467348864205D37248864251
:1014D00002D245F008051AE06F48864205D36A48F3
:1014E000864202D245F00C0511E06748864203D3DC
:1014F0006A48864200D20AE06848864205D36848B6
:10150000864202D245F0040501E045F0100520684E
:1015100005614FF400420021204600F0AEFA48B1C8
:101520004FF0010841462046FFF722FC012084F8D5
:10153000440074E70520FFF7F7FD6068002871D0CC
:1015400000F0B8FC074600BF01AA0121204600F0C8
:1015500069F900F0AFFCC01B41F2883188420FD915
:101560004FF0010841462046FFF702FC012084F8B5
:10157000440000BF002084F8450000BF03204EE770
:10158000019800F004000428DED1820200212046E8
:1015900000F073FA48B14FF0010841462046FFF7CA
:1015A000E7FB012084F8440039E700F083FC07469C
:1015B00000BF01AA0121204600F034F900F07AFCB6
:1015C000C01B41F2883188420FD94FF001084146D3
:1015D0002046FFF7CDFB012084F8440000BF002027
:1015E00084F8450000BF032019E7019800F02000AF
:1015F0002028DED101AA1F21204600F013F948B1AE
:101600004FF0010841462046FFF7B2FB012084F865
:10161000440004E7019800F0100020B14FF400618D
:10162000E16002E00DE00021E160019800F00400BB
:10163000042802D10021A1601DE04FF48041A16087
:1016400019E0E068C0F3CF00A168C1F34F0140EAA0
:1016500001020021204600F010FA48B14FF00108C5
:1016600041462046FFF784FB012084F84400D6E67B
:101670000520FFF759FD41462046FFF779FB012081
:1016800084F844000020CAE60087930344380240EF
:1016900004380140002D3101C00E160200E1F505AD
:1016A00080D1F00810B5044614492068884223D13F
:1016B00000BF1348006820F08060114908600846A8
:1016C000006820F0006008600846006820F00070A4
:1016D000086000BF32210B4800F018FA86210A4842
:1016E00000F014FA4FF40061084800F00FFA4FF4CC
:1016F000C041074800F00AFA10BD00000080024017
:10170000303802400008024000000240000402405D
:101710000018024010B586B004463C492068884253
:1017200071D132200190022002900020039003200A
:1017300004900B20059001A9354800F0A7FA8620F7
:1017400001900220029000200390032004900B20BF
:10175000059001A92F4800F099FA4FF4006001901C
:101760000220029000200390032004900B2005909B
:1017700001A9294800F08AFA4FF4C04001900220E4
:10178000029000200390032004900B20059001A9F3
:10179000224800F07BFA002206213D2000F0EEFBFB
:1017A0003D2000F0DEFB00BF00BF002000901C4881
:1017B000006840F000701A4908600846006800F0B0
:1017C0000070009000BF00BF00BF002000900846DE
:1017D000006840F0806008600846006800F08060A3
:1017E000009000BF00BF00BF0020009008460068C6
:1017F00040F0006008600846006800F0006000905B
:1018000000BF00BF00BF06B010BD00000080024056
:10181000000802400000024000040240001802409C
:10182000303802402DE9F04104460E4617460025A7
:10183000A84694F84400822802D10220BDE8F08135
:10184000822084F844002068056905F01C05208A80
:101850004FF4784101EAC0200543481100EA8610A0
:10186000054325F0020545F001052068056100F0FB
:1018700021FB804612E000F01DFBA0EB0800B0F554
:10188000803F09D3012084F8440000BF002084F881
:10189000450000BF0320D1E72068056905F001007D
:1018A0000028E8D12068406980B23860012084F8BF
:1018B00044000020C2E7000038B504460020009034
:1018C00069460748006810F03DFB009838B14FF0BA
:1018D000805004490860BFF34F8FBFF36F8F38BD4E
:1018E000E800002004ED00E010B5044600BF94F8C5
:1018F0004500012801D1022010BD012084F84500D7
:1019000000BF022084F844002046FFF767FB204612
:10191000FFF750FB2046FFF7DDF92046FFF7BAF945
:101920002046FFF7ACF9012084F8440000BF0020F6
:1019300084F8450000BF00BFDEE770B50246002313
:101940000025002400BF92F84500012801D10220A3
:1019500070BD012082F8450000BF022082F84400DB
:1019600049B9012082F8440000BF002082F84500F8
:1019700000BF0120ECE7D06A006800F0004048B1E9
:10198000122082F8440000BF002082F8450000BF0A
:101990000120DDE740F2F450814208D9B1FBF0F3B9
:1019A000B1FBF0F600FB161010B15B1C00E0012348
:1019B000012B13D1D06A006840F04050D66A3060E5
:1019C000C1F30C00D66A7060D06A006840F0004035
:1019D000D66A3060D06AC068D06232E000242EE05F
:1019E000D06A006820F04050D66A30602CB9D06AC6
:1019F000006840F08050D66A306040F2F450D66AF9
:101A00007060581EA04210D1D06A006840F00050AB
:101A1000D66A3060581EC0EBC01000EB4000A1EB4E
:101A20008005C5F30C00D66A7060D06A006840F08B
:101A30000040D66A3060D06AC068D062641C9C42A4
:101A4000CED3106800F58050406900F0040048B122
:101A50000426106800F5805046610026106800F5E5
:101A600080504660012082F8440000BF002082F8C8
:101A7000450000BF00BF6BE770472DE9F041044609
:101A80000E4617460025A84694F84400422802D185
:101A90000220BDE8F081422084F8440020680569F6
:101AA00005F01C05208A4FF4784101EAC020054367
:101AB000481100EA8610054345F0020545F001058E
:101AC000B8B2216848612068056100F0F3F98046EA
:101AD00012E000F0EFF9A0EB0800B0F5803F09D369
:101AE000012084F8440000BF002084F8450000BFB6
:101AF0000320CEE72068056905F001000028E8D141
:101B0000012084F844000020C3E70000F0B50C4633
:101B100000250022002300219CE0012606FA01F5A1
:101B200004EA0502AA427DD106684FEA410C032768
:101B300007FA0CF7BE430660CF0800F1200656F8FE
:101B400027604F074FEAD76C0F2707FA0CF7BE4301
:101B50004FEAD10C00F1200747F82C6086684FEA65
:101B6000410C032707FA0CF7BE438660476801263D
:101B70008E40B7434760C6684FEA410C032707FA17
:101B80000CF7BE43C660354E8F0856F827308E07D7
:101B9000370F0F26BE403340314EB04201D10026F0
:101BA0002DE0304EB04201D1012628E02E4EB04249
:101BB00001D1022623E02D4EB04201D103261EE0C2
:101BC0002B4EB04201D1042619E02A4EB04201D179
:101BD000052614E0284EB04201D106260FE0274E1C
:101BE000B04201D107260AE0254EB04201D10826B5
:101BF00005E0244EB04201D1092600E00A268F07F5
:101C00003F0FBE409E4224D18E07370F0F2606FAA3
:101C100007F3124E8F0856F827609E430F4F4FEA86
:101C2000910C00E015E047F82C60174E366896439B
:101C3000154F3E603E1D366896433F1D3E603E1D7B
:101C4000366896433F1D3E603E1D366896433F1DF5
:101C50003E60491C1029FFF460AFF0BD0838014018
:101C6000000002400004024000080240000C024054
:101C7000001002400014024000180240001C024004
:101C80000020024000240240003C0140F8B502461A
:101C90000B460025002400200021E6E0012606FA7C
:101CA00001F51E6806EA0504AC4273D15E68022E97
:101CB00002D05E68122E13D1CF0802F1200656F82A
:101CC00027004E07F70E0F26BE40B0434F07FF0E0A
:101CD0001E69BE403043CF0802F1200646F82700B7
:101CE00010684F000326BE40B0431E7906F003067D
:101CF0004F00BE40304310605E68012E08D05E6821
:101D0000022E05D05E68112E02D05E68122E13D10D
:101D100090684F000326BE40B0434F00DE68BE40CF
:101D200030439060506801268E40B0431E79C6F360
:101D300000168E4030435060D0684F000326BE40EE
:101D4000B0434F009E68BE403043D0605E6806F0EE
:101D50008056B6F1805FA8D100BF00260096454EA0
:101D6000366846F48046434F3E603E46366806F489
:101D70008046009600BF00BF3F4E8F0856F82700F0
:101D80008E07370F0F26BE40B0433C4EB24202D101
:101D900000262EE068E03A4EB24201D1012628E04A
:101DA000384EB24201D1022623E0374EB24201D171
:101DB00003261EE0354EB24201D1042619E0344E0E
:101DC000B24201D1052614E0324EB24201D10626BC
:101DD0000FE0314EB24201D107260AE02F4EB24247
:101DE00001D1082605E02E4EB24201D1092600E0BD
:101DF0000A268F073F0FBE4030431F4E8F0846F81C
:101E00002700284E3068A0435E6806F48036B6F599
:101E1000803F00D12043234E3060361D3068A04300
:101E20005E6806F40036B6F5003F00D120431D4E33
:101E3000361D3060361D3068A0435E6806F480169B
:101E4000B6F5801F00D12043164E08363060361D8F
:101E50003068A0435E6806F40016B6F5001F00D196
:101E60002043104E0C363060491C1029FFF416AF89
:101E7000F8BD00004438024008380140000002402C
:101E80000004024000080240000C02400010024022
:101E90000014024000180240001C024000200240D2
:101EA00000240240003C01400AB1816101E00B04C2
:101EB00083617047014800687047000004000020FB
:101EC00003480068034909780844014908607047DD
:101ED000040000200C00002010B50D48006840F4FC
:101EE00000700B4908600846006840F48060086094
:101EF0000846006840F480700860032000F07CF819
:101F00000F2000F007F800F02BF8002010BD0000B3
:101F1000003C024070B504460E4800784FF47A71D8
:101F2000B1FBF0F00C490968B1FBF0F5284600F070
:101F30001FFC08B1012070BD102C07D200222146E1
:101F4000501E00F01BF80548046001E00120F2E794
:101F50000020F0E70C000020000000200800002016
:101F6000704700BF00F01F0201219140420992001A
:101F700002F1E022C2F8001100BF70472DE9F05FC6
:101F800080460D461646002700F068FD0746394694
:101F90002A46334601F00700C0F1070ABAF1040FE0
:101FA00002D94FF0040A01E0C0F1070AD14600F15E
:101FB000040ABAF1070F02D24FF0000A01E0A0F1C3
:101FC000030AD4464FF0010A0AFA09FAAAF1010AF3
:101FD0000AEA020A0AFA0CFA4FF0010B0BFA0CFBA0
:101FE000ABF1010B0BEA030B4AEA0B042146404616
:101FF00000F03CFDBDE8F09F00BF00F00702064B7B
:1020000019684FF6FF031940044B0B4343EA0221C2
:10201000014B196000BF70470CED00E00000FA05AD
:1020200038B5002400BF002000901D48006840F033
:1020300080501B4908600846006800F080500090FE
:1020400000BF00BF012017490864FFF733FF0446B3
:1020500007E0FFF72FFF001BB0F57A7F01D90320BF
:1020600038BD1148406800F48030B0F5803FF0D1B1
:1020700001200C494864FFF71DFF044607E0FFF705
:1020800019FF001BB0F57A7F01D90320E8E7064865
:10209000406800F40030B0F5003FF0D10020DFE7E9
:1020A0004038024000000E420070004070B5044607
:1020B0000D460CB9012070BD5848006800F00F00B3
:1020C000A84209D255490D700846006800F00F007B
:1020D000A84201D00120EEE7207800F0020002289B
:1020E0001DD1207800F00400042805D14C48006878
:1020F00040F4E0504A490860207800F008000828C1
:1021000005D14748006840F46040454908604448AC
:10211000006820F0F000A168084341490860207879
:1021200000F00100A8B36068012807D13C480838D6
:102130000068C0F34040B8B90120BCE760680228DD
:1021400002D06068032807D1354808380068C0F31A
:10215000406048B90120AEE7314808380068C0F354
:10216000400008B90120A6E72D48006820F00300D0
:10217000616808432A490860FFF79CFE064609E0AB
:10218000FFF798FE801B41F28831884202D9032074
:1021900091E707E02248006800F00C006168B0EBAE
:1021A000810FEDD11D48006800F00F00A84209D949
:1021B0001A490D700846006800F00F00A84201D0CF
:1021C000012078E7207800F00400042807D11448A3
:1021D000006820F4E050E168084311490860207865
:1021E00000F00800082808D10D48006820F460407D
:1021F000216940EAC1000A49086000F03DF8084939
:102200000968C1F30311074A515CC84006490860D8
:102210000F20FFF77FFE00204DE70000003C02404A
:10222000083802407C2501080000002001480068B1
:10223000704700000000002000B5FFF7F7FF0449D9
:102240000968C1F38221034A515CC84000BD000007
:10225000083802408C25010800B5FFF7E7FF044964
:102260000968C1F34231034A515CC84000BD000017
:10227000083802408C2501082DE9F047002400258C
:102280000026A1462548006800F00C0020B1042873
:1022900005D008283AD105E0DFF8849039E0DFF86E
:1022A000849036E01D48001F006800F03F041B4882
:1022B000001F006800F4800078B11A481749091F10
:1022C0000968C1F38811A0FB017001462246002372
:1022D0003846FDF7EBFF05460EE011480F49091F90
:1022E0000968C1F38811A0FB017001462246002352
:1022F0003846FDF7DBFF05460848001F0068C0F3BD
:102300000140401C4600B5FBF6F902E0DFF81090F2
:1023100000BF00BF4846BDE8F08700000838024013
:102320000024F40040787D01F8B504460CB9012082
:10233000F8BD207800F00100002874D0F94800684A
:1023400000F00C0004280DD0F648006800F00C00E6
:10235000082813D1F348001F006800F48000B0F58E
:10236000800F0BD1EF4808380068C0F340400028C8
:1023700059D06068002856D10120D9E700BF6068B5
:10238000B0F5803F08D1E7480838006840F4803055
:10239000E449083908601EE06068B0F5A02F0DD14F
:1023A000E0480838006840F48020DE4908390860B9
:1023B0000846006840F4803008600CE0D9480838CE
:1023C000006820F48030D749083908600846006862
:1023D00020F48020086000BF606890B1FFF76AFDBC
:1023E000054606E0FFF766FD401B642801D903207F
:1023F0009EE7CC4808380068C0F340400028F1D080
:1024000011E0FFF757FD054606E0FFF753FD401BBF
:10241000642801D903208BE7C24808380068C0F35C
:1024200040400028F1D1207800F0020002285FD15E
:10243000BC48006800F00C0058B1BA48006800F0D1
:102440000C0008281CD1B748001F006800F4800069
:10245000B0B9B44808380068C0F3400020B1E06863
:10246000012801D0012063E7AE480838006820F059
:10247000F800216940EAC100AA490839086037E03C
:10248000E06800B30120A8490860FFF713FD054686
:1024900006E0FFF70FFD401B022801D9032047E7A4
:1024A000A04808380068C0F340000028F1D09D48DB
:1024B0000838006820F0F800216940EAC100994915
:1024C0000839086014E0002097490860FFF7F2FC23
:1024D000054606E0FFF7EEFC401B022801D9032069
:1024E00026E7904808380068C0F340000028F1D182
:1024F000207800F0080008282CD16069A8B10120DC
:102500008A490860FFF7D6FC054606E0FFF7D2FCD3
:10251000401B022801D903200AE782486C3000687A
:10252000C0F340000028F1D014E000207F4908608B
:10253000FFF7C0FC054606E0FFF7BCFC401B022885
:1025400001D90320F4E677486C300068C0F34000FE
:102550000028F1D1207800F00400042870D1002672
:1025600070483830006800F0805090B900BF0020FB
:1025700000906C483830006840F08050694938312C
:1025800008600846006800F08050009000BF00BF5F
:1025900001266748006800F48070B0B9644800689C
:1025A00040F4807062490860FFF784FC054606E04D
:1025B000FFF780FC401B022801D90320B8E65C48E5
:1025C000006800F480700028F2D000BFA0680128E5
:1025D00008D154486830006840F001005149683122
:1025E00008601DE0A06805280DD14E4868300068DD
:1025F00040F004004B49683108600846006840F02C
:10260000010008600CE047486830006820F00100D5
:102610004449683108600846006820F004000860FA
:1026200000BFA068A8B1FFF745FC054609E0FFF729
:1026300041FC401B41F28831884202D9032077E6F1
:1026400026E0384868300068C0F340000028EED02B
:1026500013E0FFF72FFC054608E0FFF72BFC401BBB
:1026600041F28831884201D9032061E62D48683063
:102670000068C0F340000028EFD1012E07D129489F
:102680003830006820F0805026493831086000BF9B
:10269000A069B8B32348006800F00C0008285ED099
:1026A000A069022846D100201F490866FFF702FCF6
:1026B000054606E0FFF7FEFB401B022801D9032078
:1026C00036E6184808380068C0F340600028F1D1A9
:1026D000D4E907010843616A40EA81110122A06A36
:1026E000C2EB500041EA00412C20005D41EA00604D
:1026F0000C49091F086001200B490866FFF7DAFB47
:10270000054607E02DE0FFF7D5FB401B022801D965
:1027100003200DE6034808380068C0F34060002835
:10272000F1D01EE00838024000004742800E4742C8
:102730000070004000200C490866FFF7BBFB05460F
:1027400006E0FFF7B7FB401B022801D90320EFE5A5
:1027500006480068C0F340600028F2D101E0012083
:10276000E6E50020E4E500000000474200380240B2
:1027700070B504462546681EB0F1807F01D3012064
:102780000FE0681E4FF0E02148610F214FF0FF304D
:1027900000F06CF900204FF0E0218861072008610B
:1027A000002070BD10B504460CB9012010BDA06911
:1027B00000B100E000BF94F8390028B9002084F887
:1027C0003800204600F028F8242084F839002068DA
:1027D000C06820F400502168C860204600F072FAFA
:1027E0002068006920F490402168086120684069F1
:1027F00020F02A00216848612068C06840F4005039
:102800002168C8600020E063202084F8390084F843
:102810003A000020CAE7000010B586B0044600BFA9
:10282000002000902748006840F01000254908600B
:102830000846006800F01000009000BF00BF00BF15
:10284000002000901F481438006840F001001D4926
:10285000143908600846006800F00100009000BFCD
:1028600000BF00BF002000900846006840F0010053
:1028700008600846006800F00100009000BF00BF3B
:10288000481501900220029001200390032004903B
:102890000720059001A90C48FFF7F8F94FF4806074
:1028A00001900720059001A90748FFF7EFF90122E1
:1028B00000212520FFF762FB2520FFF752FB06B021
:1028C00010BD000044380240000002402DE9F843EA
:1028D00004460D4616461F464FF0000994F839008D
:1028E00020285CD105B116B90120BDE8F88300BFEE
:1028F00094F83800012801D10220F6E7012084F87D
:10290000380000BF0020E063212084F83900FFF781
:10291000D1FA8146A684E6842BE0E08C401EE08458
:10292000A068B0F5805F16D14B460022802120467A
:10293000009700F07BFB08B10320D6E7A846B8F863
:102940000000C0F3080021684860206908B9AD1C88
:102950000FE06D1C0DE04B460022802120460097C1
:1029600000F064FB08B10320BFE715F8010B2168F4
:102970004860E08C0028D0D14B4600224021204600
:10298000009700F053FB08B10320AEE7202084F845
:10299000390000BF002084F8380000BFA5E70220FE
:1029A000A3E7000000B587B000BF002001902748D2
:1029B000006840F08000254908600846006800F083
:1029C0008000019000BF00BF00BF002001900846BA
:1029D000006840F0800008600846006800F0800051
:1029E000019000BF00BF00BF0020019008460068B2
:1029F00040F0800008600846006800F08000019008
:102A000000BF00BF0815029001200390049003202E
:102A1000059002A90E48FFF739F94FF400600290C3
:102A200002A90B48FFF732F94FF48050029002A937
:102A30000748FFF72BF94FF480600549183108600B
:102A4000400008604000086007B000BD3038024018
:102A5000001C024000BFFEE770470000024800680B
:102A6000C0F30220704700000CED00E010B5002814
:102A700007DA0A07140E054A00F00F031B1FD4548F
:102A800003E00A07130E024A135410BD18ED00E0CC
:102A900000E400E010B500BF5021EFF3118081F396
:102AA0001188BFF34F8FBFF36F8F00BF0446FFF74E
:102AB00007FA0FF03FFB012801D00EF08FFF00BF97
:102AC00084F3118800BF10BD00B593B000BF002093
:102AD00001902548006840F080502349086008466E
:102AE000006800F08050019000BF00BF00BF0020D0
:102AF00001901E48006840F440401C4908600846A8
:102B0000006800F44040019000BF00BF0120029027
:102B100000040390022008904105099119210A91AF
:102B20004FF4B4710B9102210C9107210D9102A871
:102B3000FFF7FAFB08B100BFFEE7FFF771FA0F20BD
:102B40000E9002200F90002010904FF4A050119092
:102B50004FF48050129005210EA8FFF7A7FA08B194
:102B600000BFFEE713B000BD4038024000700040D7
:102B70001448006840F47000124908601248006868
:102B800040F001001049086000200F49083108603A
:102B90000D4800680D4908400B4908600C48091DA4
:102BA0000860081F006820F48020091F08600020CA
:102BB00005490C3108604FF0006002498039086017
:102BC0007047000088ED00E000380240FFFFF6FE8D
:102BD000103000240EB5002108460DF07BFB1B4889
:102BE0001B4908601B481C4908601C481C490860B8
:102BF0001C481D4900221A4BCDE900210290164ABB
:102C000013491A4806F0A4F9184806F069FB17485A
:102C100090F82900C0F3800018B1144806F098FB22
:102C200002E0124806F062FB10484068000E009077
:102C30000E484068C0F307430C488088C0F3072261
:102C40000A4801790AA000F029FA0EBD0AC2020E54
:102C500004010020FFFF8000080100200AC27FFE5F
:102C60000C010020F90301085D4E0008E06102201C
:102C7000B1BEB5D84950B5D8D6B7CAC73A25642E23
:102C800025642E25642E25640A0A000009E0054803
:102C9000006880F48060034908604FF47A700EF099
:102CA000C9FBF4E7141C024009E00548006880F401
:102CB0000060034908604FF4FA600EF0BBFBF4E7D4
:102CC000141C02402DE9F0410446002520680569E6
:102CD00025F44055E0680543206805612068C56813
:102CE00049F20C6085432169A06808436169084383
:102CF000E169084305432068C5602068456925F4FB
:102D00004075A069054320684561E069B0F5004F52
:102D10007ED1C4492068884203D0C34920688842D4
:102D20005DD1FFF799FA00EBC00101EB001061687B
:102D30004900B0FBF1F06421B0FBF1F00601FFF7B0
:102D40008BFA00EBC00101EB001061684900B0FB99
:102D5000F1F7FFF781FA00EBC00101EB00106168A9
:102D60004900B0FBF1F06421B0FBF1F000EBC001D1
:102D700001EB0010A7EB8000322101EBC0006421C1
:102D8000B0FBF1F000F0F80006EB4006FFF764FA44
:102D900000EBC00101EB001061684900B0FBF1F7E6
:102DA000FFF75AFA00EBC00101EB0010616849001F
:102DB000B0FBF1F06421B0FBF1F000EBC00101EBDE
:102DC0000010A7EB8000322101EBC0006421B0FBB2
:102DD000F1F000F0070030442168886020E1FFF73F
:102DE0002BFA00EBC00101EB001061684900B0FB59
:102DF000F1F06421B0FBF1F00601FFF71DFA00EBE2
:102E0000C00101EB001061684900B0FBF1F700E080
:102E100045E0FFF711FA00EBC00101EB001061681B
:102E20004900B0FBF1F06421B0FBF1F000EBC00110
:102E300001EB0010A7EB8000322101EBC000642100
:102E4000B0FBF1F000F0F80006EB4006FFF7F4F9F4
:102E500000EBC00101EB001061684900B0FBF1F725
:102E6000FFF7EAF900EBC00101EB001061684900CF
:102E7000B0FBF1F06421B0FBF1F000EBC00101EB1D
:102E80000010A7EB8000322101EBC0006421B0FBF1
:102E9000F1F000F00700304421688860C0E061492B
:102EA0002068884203D06049206888425CD1FFF7DF
:102EB000D3F900EBC00101EB001061688900B0FBA1
:102EC000F1F6FFF7C9F900EBC00101EB00106168F2
:102ED0008900B0FBF1F06421B0FBF1F000EBC00120
:102EE00001EB0010A6EB8000322101EB0010642101
:102EF000B0FBF1F000F0F006FFF7AEF900EBC00117
:102F000001EB001061688900B0FBF1F06421B0FBB7
:102F1000F1F006EB0016FFF79FF900EBC00101EBA3
:102F2000001061688900B0FBF1F7FFF795F900EB3D
:102F3000C00101EB001061688900B0FBF1F0642171
:102F4000B0FBF1F000EBC00101EB0010A7EB80003B
:102F5000322101EB00106421B0FBF1F000F00F0012
:102F60003044216888605BE0FFF766F900EBC00140
:102F700001EB001061688900B0FBF1F6FFF75CF926
:102F800000EBC00101EB001061688900B0FBF1F0BB
:102F90006421B0FBF1F000EBC00101EB0010A6EBE7
:102FA0008000322101EB00106421B0FBF1F000F051
:102FB000F006FFF741F900EBC00101EB001061687A
:102FC0008900B0FBF1F06421B0FBF1F006EB0016D4
:102FD000FFF732F900EBC00101EB001061688900D6
:102FE000B0FBF1F7FFF728F900EBC00101EB00108F
:102FF00061688900B0FBF1F06421B0FBF1F000EBF7
:10300000C00101EB0010A7EB8000322101EB0010A2
:103010006421B0FBF1F000F00F00304421688860BB
:10302000BDE8F08100100140001401402DE9F0419D
:1030300004460D4617469846069E21E0701CF8B1DE
:103040002EB1FEF737FFA0EB0800B04218D9206878
:10305000C06820F4D0702168C8602068406920F002
:10306000010021684861202084F8390084F83A0082
:1030700000BF002084F8380000BF0320BDE8F081C5
:10308000206800682840A84201D1012000E000200B
:10309000B842D3D00020F1E700BFFEE70FB4054BE4
:1030A00010B503A9044A029800F0EEF810BC5DF8D0
:1030B00014FB000061530008940100200FB4084B7A
:1030C00010B504A902AA039800F0DEF8044602A98C
:1030D000002000F05CFC204610BC5DF814FB0000F2
:1030E0008F39000802E008C8121F08C1002AFAD16F
:1030F00070477047002001E001C1121F002AFBD178
:10310000704700002DE9FF5F82B00021DDE9043047
:10311000020DDDF840B0034318D044F61050A2F27F
:10312000FF3242431514119801281FD0A5EB0B0064
:10313000401C5FEA000A4FF000064E4FDFF838915E
:10314000B046504615D5CAF1000413E01198012489
:103150004AA3012801D16FEA0B010298119AC0E934
:103160000031C0E9024206B0BDE8F09FCBF100009B
:10317000DFE704460021404A491842EB0450CDE9FC
:10318000001012E0E00707D032463B464046494671
:10319000FDF735FA8046894632463B4610461946C9
:1031A000FDF72DFA06460F466410002CEAD1DDE942
:1031B0000401DDE90023BAF1000F06DAFDF71FFA7A
:1031C00042464B46FDF71BFA05E0FDF78AFA4246F8
:1031D0004B46FDF786FA04460E460022284BFDF7C3
:1031E00007FB03D84FF0FF30014607E00022254BD4
:1031F00020463146FDF75CF9FDF7E2FA102409E0BC
:10320000002C0ADB0A220023FDF750F8039B303222
:103210001A55641E50EA0102F2D1641C039AC4F1EB
:1032200011031444119A012A03D0012208430DD13D
:103230000AE0084304D000204FF0110B119072E710
:10324000A3EB0B056D1E0DE05B4504DD4FF00002A6
:1032500005F1010504E003DA4FF00002A5F10105D4
:10326000002AECD002981199C0E90231C0E900456A
:1032700079E70000000014400000F03F300000003B
:103280000000F0430000E03F2DE9FF4F95B09A4663
:10329000884606460025EEE1252877D100242746FA
:1032A000F94A0121039400E0044316F8013F203B52
:1032B00001FA03F01042F7D130782A2811D06FF0CC
:1032C0002F033078A0F13002092A16D8039A44F06F
:1032D000020402EB820203EB42021044761C0390CC
:1032E000EFE758F8042B0392002A03DA504244F423
:1032F0000054039044F00204761C30782E2816D136
:1033000016F8010F44F004042A280DD06FF02F02A4
:103310003078A0F13003092B09D807EB870302EBC3
:103320004303C718761CF3E758F8047B761C307803
:103330006C280FD006DC4C2817D068280DD06A28DE
:1033400014D104E0742810D07A280FD10DE044F491
:1033500000140AE044F4801401E044F4401472784C
:10336000824202D104F58014761C761C30786628DF
:103370000BD013DC582877D009DC002875D04528FD
:10338000F6D04628F4D047281AD193E118E06328F4
:1033900035D0642879D0652812D18BE1702873D09C
:1033A00008DC6728F1D069286FD06E280DD06F280F
:1033B00006D1ACE073282CD0752874D0782853D06F
:1033C0005246179990476D1C54E1C4F302500228ED
:1033D00009D003280DD0D8F8001004280DD00D60B6
:1033E00008F1040846E1D8F80010EA17C1E90052D4
:1033F000F6E7D8F800100D80F2E70D70F0E718F846
:10340000041B8DF8001000208DF80100EB46012010
:1034100003E058F804BB4FF0FF3061074FF00001A4
:1034200002D40DE009F101018946B9420FDA814564
:10343000F8DB1BF809100029F4D108E009F10101BB
:1034400089468142FADB1BF809100029F6D103985E
:103450005346A0EB090721463846179A00F080FA38
:10346000284400EB090507E044E008E10DE01BF803
:10347000010B524617999047B9F10109F7D253460B
:1034800021463846179AF2E039E00A21C4F3025285
:103490004FF0000B0091022A06D058F8040BC11718
:1034A000032A09D00AE023E008F1070020F0070210
:1034B000F2E80201904605E000B2C117042A01D1EA
:1034C00040B2C117002906DA0A460021404261EBEA
:1034D00002012D2202E0220504D52B228DF80420C2
:1034E000012203E0E20701D02022F7E7914657E0EE
:1034F0000A2100E010214FF0000B00910BE0102199
:103500004FF0000B44F004040827009103E008206A
:103510004FF0000B0090C4F30252022A05D058F875
:10352000040B0021032A08D008E008F1070020F06E
:103530000702F2E80201904603E080B2042A00D1BB
:10354000C0B24FF0000922072AD53278702A07D07E
:10355000DDF800C08CF0100C5CEA0B0C05D00EE01E
:1035600040228DF80420012208E050EA010306D031
:1035700030238DF804308DF8052002229146009BFF
:1035800083F0080353EA0B030AD150EA010201D188
:10359000620705D530228DF804204FF001097F1E07
:1035A0003278582A04D039A20C920CAA02920BE06D
:1035B0003BA2F9E75B46009AFCF778FE0C9B9B5C0C
:1035C000029A521E0292137050EA0102F2D102983E
:1035D00004A9081A00F1200B600702D524F48034F6
:1035E00000E001275F4502DDA7EB0B0000E00020B3
:1035F00000EB0B01009003984944401A0390E0034C
:1036000006D453462146179A039800F0A9F90544B9
:10361000002706E001A85246C05D179990476D1C2F
:103620007F1C4F45F6DBE0030CD553462146179A25
:10363000039800F095F9054404E0302052461799AC
:1036400090476D1C0099481E00900029F5DC08E0A9
:103650000298029952460078491C029117999047A6
:103660006D1CBBF10001ABF1010BF1DC5BE100F083
:1036700065F90544761C307800287FF40DAE19B04A
:103680002846BDE8F08F00000928010030313233B0
:10369000343536373839616263646566000000008E
:1036A0003031323334353637383941424344454678
:1036B00000000000600700D4062708F1070020F092
:1036C0000700F0E80223804603F0004C5FEA0C009C
:1036D00001D097A009E0200501D596A005E0E007FC
:1036E00001D095A001E0AFF24C001390307823F0A8
:1036F000004365280CD006DC452809D046281DD09B
:1037000047287FD13BE0662818D067287AD136E079
:103710000021112F01DB112000E0781CCDE9000110
:1037200004A90CA8FFF7EEFCDDE90D010C9A4FF09F
:10373000000B07F10109109200914EE04FF000409C
:103740000097CDE9011004A90CA8FFF7DBFCDDE927
:103750000D020C9B0F994FF0000B914610930092B5
:1037600011B9791C00EB0109B7EB090003D4C0F1D2
:10377000FF3B07F10109A9EB0700019042E0012F8F
:1037800000DA01270021112F01DD112000E0384669
:10379000CDE9000104A90CA8FFF7B4FCDDE90D0197
:1037A0000C9A00914FF0000BB946109221070FD4EC
:1037B000009A4A4503DA914601E0A9F10109B9F1FD
:1037C000010F05DD109AA9F10101515C3029F4D0F7
:1037D000B84202DA10F1040F03DA0121CDE9011039
:1037E00010E0002803DC8344A9EB000102E0411C47
:1037F000494500DD8946A0EB0B00401C01904FF0CD
:1038000000400290200705D40198484502DB4FF0A4
:10381000FF30019000208DF84B0002980DF14B070E
:10382000B0F1004F25D002200C902B200D90029873
:1038300000280CDA404202902D200D9007E00A216A
:103840000298FCF7C9FD3031029007F8011D0C9970
:10385000481E0C900029F2DC02980028EFD1791E56
:103860000D980870307800F0200040F0450007F80F
:10387000020D11A8C01BC01D02901398007800B162
:10388000012000EB0901019801EBE071029801446D
:103890000398401A401E0390E00306D45346214685
:1038A000179A039800F05CF805441398007818B153
:1038B0005246179990476D1CE00323D55346214685
:1038C000179A039800F04CF805441BE0BBF1000F79
:1038D00007DB0098584504DD1098179910F80B0085
:1038E00001E0179930205246904701980BF1010BE7
:1038F000401E05F10105019004D12E205246179972
:1039000090476D1CB9F10001A9F10109DEDC05E069
:1039100017F8010B5246179990476D1C0299481EE3
:1039200002900029F4DC53462146179A03989EE63C
:103930002D0000002B000000200000002DE9F041C8
:10394000044600251E461746880404D405E039467F
:103950002020B0476D1C641EF9D52846BDE8F081D3
:103960002DE9F041044600251E469046C80301D5C6
:10397000302700E02027880404D505E0414638467A
:10398000B0476D1C641EF9D52846BDE8F0810A6871
:10399000531C0B60107070472DE9F04105460E4630
:1039A000002440E007F031FA0746214800EB0410FC
:1039B0000068002833D11E4800EB0410056038462B
:1039C00007F04CFA00201A4901EB0411486000BFCF
:1039D000174800EB0410807B20B100BF15A0FFF753
:1039E0005DFB00BF00BF0020114901EB04110881FD
:1039F000287800F0F000102804D10EB1012002E078
:103A0000002000E001200A4901EB04114881002058
:103A1000074901EB041188812046BDE8F081384652
:103A200007F01CFA641C042CBCDB4FF0FF30F4E7F9
:103A300060630020736F636B6574735B695D2E73E5
:103A4000656C6563745F77616974696E67203D3D7D
:103A5000203000002DE9F04303460D46DFF804C195
:103A6000DCF800400020DFF800C1DCF8006000272F
:103A7000DFF8F8C09CF800C0BCF1000F2ED0DFF8D2
:103A8000F0C09CF800C0BCF1000F27D1DFF8E4C003
:103A9000DCF818908446401C43F82C90DFF8D4C022
:103AA000DCF814C0ACF10401DFF8CCC0DCF800C0D5
:103AB000614513D3DFF8C0C0DCF800C0DFF8BC807C
:103AC000D8F80080C4448C4508D3102806D2A842F8
:103AD00004D28446401C43F82C100127DFF890C024
:103AE0009CF800C0BCF1000F08D0A24201D22246CF
:103AF00004E004EB060C944500D2A2192CE0D2F8A5
:103B000000C0ACF1040101F0010CBCF1000F00D1C8
:103B100021E0DFF864C0DCF800C061451AD3DFF8AB
:103B200058C0DCF800C0DFF85480D8F80080C444E6
:103B30008C450FD310280DD2A8420BD2022805D1F4
:103B400027B1D3F804C08C4500D104E08446401C62
:103B500043F82C1000BF121D04EB060C9445CED880
:103B6000BDE8F0837C010020800100208D01002051
:103B70008E01002034F602208401002088010020FC
:103B80002DE9F0438DB081460E4635462C46202265
:103B9000634905A8FCF7C0FB624807686248D0F893
:103BA00000806248007848B9614A62A163A0FFF7CB
:103BB00075FA6AA0FFF772FA00BFFEE7684800785E
:103BC00048B15B4A67A15DA0FFF768FA63A0FFF701
:103BD00065FA00BFFEE701206149087064A0FFF7A5
:103BE0005DFA5EA0FFF75AFA00F002F96149886AAF
:103BF000FFF754FA59A0FFF751FA203529464846F5
:103C000007F0BAF80546BD4203D307EB0800A84207
:103C100002D20120584908702A464146384600F031
:103C20005BF95548007800284BD15249C86AFFF724
:103C300035FA4AA0FFF732FA5049206808606068F8
:103C40004860A0688860E068C860206908616069B1
:103C50004861A0698861E069C8610846C068474A50
:103C600008999268079BCDE90132CDE903104348DA
:103C7000406800904148069B026841A00599FFF703
:103C80000DFA36A0FFF70AFA3C48C0693B4A0C9986
:103C900092690B9BCDE90132CDE9031037484069A9
:103CA000009036480A9B026935A00999FFF7F6F99A
:103CB0002AA0FFF7F3F93DA0FFF7F0F927A0FFF7DF
:103CC000EDF94A4800682D4908624848001D00780F
:103CD00081F8240045481030006888624348401D40
:103CE000007881F82C0041481430006808633F4890
:103CF000801D008888863D480830006888633B48FE
:103D00000C300088C863394818300088086401F016
:103D1000A3F9284606F0D8F90DB0BDE8F0830000FD
:103D2000E82701087C010020800100208C01002090
:103D3000D4270108696E69745F6F6B0028257329A9
:103D40002068617320617373657274206661696CA9
:103D500065642061742025732E0000000D0A0000A8
:103D60008D010020216F6E5F6661756C740000002C
:103D7000000000002C2701088E01002034F60220EC
:103D8000202025733A2025303878202025733A20CA
:103D900025303878202025733A20253038782020A7
:103DA00025733A2025303878000000003D3D3D3D28
:103DB0003D3D3D3D3D3D3D3D3D3D3D3D3D3D3D3D33
:103DC0003D3D3D3D3D3D3D3D3D3D3D3D3D3D3D3D23
:103DD0003D3D3D3D3D3D3D3D3D3D3D3D3D3D3D3D13
:103DE0003D3D3D3D3D3D3D3D3D3D000024ED00E080
:103DF00010B50549054B064A08680649FFF74EF914
:103E000005A0FFF74BF910BD2C27010884F502200F
:103E100064F5022044F502200D0A00002DE9F0416E
:103E200004460D4600BF05F0030020B100BF09A005
:103E3000FFF734F900BF00BF2E4606F0E6FF074645
:103E4000A06800683060A0680660384607F006F891
:103E5000BDE8F0816D656D705F667265653A206DD5
:103E6000656D2070726F7065726C7920616C696726
:103E70006E65640070B5054606F0C7FF0646A86883
:103E800004688CB12068A968086000BF04F00300D2
:103E900020B100BF07A0FFF701F900BF00BF304607
:103EA00006F0DCFF204670BD304606F0D7FF00204C
:103EB000F9E700006D656D705F6D616C6C6F633A62
:103EC000206D656D702070726F7065726C79206105
:103ED0006C69676E6564000070B505460E46144651
:103EE0001C480078D8B11C48007840B11B4948698B
:103EF0002146FFF7D3F81AA0FFF7D0F807E01749DB
:103F000088692146FFF7CAF815A0FFF7C7F8AC4249
:103F100001D22C4603E0A819A04200D2AC190F49E7
:103F2000C868FFF7BBF80EA0FFF7B8F808E0214615
:103F30000CA02268FFF7B2F809A0FFF7AFF8241D24
:103F4000A819A042F3D80EA0FFF7A8F804A0FFF725
:103F5000A5F870BD8E010020900100202C270108DB
:103F60000D0A00002020616464723A202530387800
:103F700020202020646174613A20253038780000C8
:103F80003D3D3D3D3D3D3D3D3D3D3D3D3D3D3D3D61
:103F90003D3D3D3D3D3D3D3D3D3D3D3D3D3D3D3D51
:103FA0003D3D3D3D000000002DE9F05F07460E4617
:103FB0003C4600BF24B900BF43A0FFF76FF800BF25
:103FC00000BF06F022FF8346002060602672207F3B
:103FD00040F001002077657800206070584606F0B8
:103FE0003DFF606A20B1002204212046636A9847A1
:103FF000606A20B1002211462046636A9847606AD1
:1040000020B1002202212046636A9847304603F01F
:10401000E5FD824604F1100006F091FF20B1514603
:1040200004F1100006F07CFF04F1140006F087FF95
:1040300020B1514604F1140006F072FF012D03D0A7
:10404000042D01D0032D34D1207FC0F3800900BF9F
:1040500000BF207F00F0FB00207700BF00BFB9F158
:10406000000F25D100BF206A20B900BF1AA0FFF7BA
:1040700015F800BF00BF042D03D10020216A08718C
:1040800001E0206A0671206A006800F10C0800BF98
:10409000404606F0EFFF20B900BF16A0FEF7FEFF76
:1040A00000BF00BF00202062404606F0C5FF00BFF1
:1040B00008E000BF206A20B100BF15A0FEF7EEFFA8
:1040C00000BF00BFBDE8F09F636F6E6E20213D20F2
:1040D0004E554C4C00000000636F6E6E2D3E6375B4
:1040E0007272656E745F6D736720213D204E554C72
:1040F0004C000000696E61766C6964206F705F63CC
:104100006F6D706C657465645F73656D00000000B1
:10411000636F6E6E2D3E63757272656E745F6D7344
:1041200067203D3D204E554C4C00000001460029C3
:1041300002DC4842112801DB0520704702484A4250
:1041400050F82200F9E700009825010870B50546EF
:10415000002411E004EB4400094901EBC000067D96
:104160004EB104EB440001EBC0008068A84202D1CC
:10417000204600F043F9641C0A2CEBDB70BD000004
:10418000A06300202DE9FF5F0646894617464FF0E1
:104190000A0AD346D04600240A2003900020029049
:1041A0000190009000BF6FE004EB44006C4901EB0C
:1041B000C000057DB8F10A0F02D10DB9A04661E03B
:1041C000002D5FD000BF012D06D0022D04DA00BF04
:1041D00064A0FEF763FF00BF00BFAEB104EB440173
:1041E0005F4A02EBC1013068496888420CD13FB197
:1041F00004EB4400114601EBC0008068B84203D1D3
:10420000204604B0BDE8F09F012D28D104EB440006
:10421000534951F8300080B104EB440001EBC00079
:10422000418A029881422DDB039404EB44004C49FF
:1042300001EBC000408A029024E004EB44004849AE
:1042400001EBC000418A019881421BDBA24604EBCE
:104250004400434901EBC000408A019012E0022D66
:1042600010DB04EB44003E4901EBC000418A00989A
:10427000814207DBA34604EB4400394901EBC0004F
:10428000408A0090601C04B20A2C8DDB09F0020009
:1042900028B9B8F10A0F05D109F0010010B94FF0A3
:1042A000FF30AEE7B8F10A0F01DA444629E0BBF16E
:1042B0000A0F0DDA5C4600BF04EB4400284951F8B0
:1042C000300020B100BF37A0FEF7E8FE00BF0CE0D1
:1042D000BAF10A0F01DA544607E003980A2801DA16
:1042E000039C02E04FF0FF308BE700BF0A2C04DB99
:1042F00000BF32A0FEF7D2FE00BF00BF204600F094
:104300007DF800BF0A2C04DB00BF2CA0FEF7C6FE20
:1043100000BF00BF00BF04EB4400114901EBC00027
:10432000007D20B100BF2AA0FEF7B8FE00BF00BF8D
:1043300036B104EB44010A4A02EBC101306848601F
:10434000002004EB4401064A02EBC101488204EB61
:104350004400114601EBC0008760204651E7000091
:10436000A06300207374617465203D3D204554486E
:104370004152505F53544154455F50454E44494E5D
:1043800047207C7C207374617465203E3D20455439
:10439000484152505F53544154455F535441424C3D
:1043A000450000006172705F7461626C655B695DFD
:1043B0002E71203D3D204E554C4C000069203C2084
:1043C0004152505F5441424C455F53495A450000A9
:1043D0006172705F7461626C655B695D2E7374619C
:1043E0007465203D3D204554484152505F5354412F
:1043F00054455F454D5054590000000010B5044627
:1044000004EB44000C4951F8300060B104EB440166
:10441000094A52F8310005F063FB002004EB440127
:10442000054A42F83100002004EB4401024A02EB45
:10443000C101087510BD0000A0630020F0B587B071
:1044400007460D4600BF35B900BF2CA0FEF726FE7B
:1044500000BF07B0F0BD00BF7C682088B0F5807F4A
:1044600008D12079062805D16079042802D1608816
:10447000082803D0384605F033FBEAE7D4F80E00ED
:104480000690A0690590686808B9002607E00598BD
:104490006968884201D1012000E0002006460EB183
:1044A000012000E00220034604F1080206A9284684
:1044B00000F0AAFBE088B0F5807F03D0B0F5007F64
:1044C00015D113E086B1022206AB04F10800291DC4
:1044D000CDE90232CDE9001005F1220302461E317A
:1044E000284600F079FA00E000BF01E000E000BFDC
:1044F00000BF384605F0F4FA00BFAAE76E6574699C
:104500006620213D204E554C4C0000002DE9FE4315
:1045100004460F461546A94600BF24B900BF57A060
:10452000FEF7BCFD00BF00BF00BF27B900BF57A00A
:10453000FEF7B4FD00BF00BF00BF25B900BF56A005
:10454000FEF7ACFD00BF00BF2146286801F000F96E
:1045500010B1DFF8548186E0287800F0F000E02800
:1045600016D101208DF8040000208DF805005E2092
:104570008DF80600687800F07F008DF80700A878B5
:104580008DF80800E8788DF809000DF1040869E05D
:104590002868A1680840D4E90112114088420ED071
:1045A000288880B24FF6A961884208D0E06810B12F
:1045B00004F10C0903E06FF00300BDE8FE833B4803
:1045C000007800EB40003A4901EBC000007D022872
:1045D0001BDB3648007800EB400001EBC000806830
:1045E000A04212D13149097801EB4101304A02EB76
:1045F000C101D9F800004968884206D12B480278E9
:104600003946204600F056F8D7E7002622E006EBB0
:104610004600274901EBC000007D022818DB06EBAD
:10462000460001EBC0008068A04211D106EB4601B4
:104630001F4A02EBC101D9F800004968884207D13E
:104640001A48067032463946204600F033F8B4E77F
:10465000701CC6B20A2EDADB3A464946204600F004
:10466000A9F8AAE700BF4FF40060434604F1220214
:1046700039460090204600F0A3FB9EE76E65746902
:104680006620213D204E554C4C0000007120213DFC
:10469000204E554C4C00000069706164647220210A
:1046A0003D204E554C4C00002027010830000020D2
:1046B000A0630020F8B505460E46144600BF04EB83
:1046C00044002F4901EBC000007D022804DA00BF3E
:1046D0002CA0FEF7E3FC00BF00BF04EB4400284918
:1046E00001EBC000007D022839D104EB440001EB4E
:1046F000C000408AB0F58E7F11DD04EB44000A460D
:1047000002EBC000011D284600F0EEF938BB032083
:1047100004EB44011A4A02EBC10108751FE004EBE7
:104720004400174901EBC000408AB0F5877F16DBD3
:1047300004EB44000B4603EBC00000F10C0204EB59
:10474000440003EBC000011D284600F0D9F930B940
:10475000032004EB44010A4A02EBC10108754FF43F
:104760000060009004EB4400054901EBC00000F13B
:104770000C0305F122023146284600F021FBF8BD6A
:10478000A06300206172705F7461626C655B61722E
:10479000705F6964785D2E7374617465203E3D209E
:1047A0004554484152505F53544154455F5354411E
:1047B000424C45002DE9FE4F81460F46164609F151
:1047C000220A4FF0FF3002900020019049463868DD
:1047D00000F0BEFF38B9387800F0F000E02802D0D1
:1047E0000FB1386818B96FF00F00BDE8FE8F4A4668
:1047F00001213846FFF7C6FC8046B8F1000F02DA07
:104800004FFA88F0F1E700BFB8F17F0F04D300BF83
:1048100057A0FEF743FC00BF00BF08F0FF0404EB05
:104820004400574901EBC000007D70B901200190A0
:1048300004EB4401524A02EBC101087504EB440049
:10484000114601EBC000C0F8089000BF04EB440023
:104850004B4901EBC000007D01280BD004EB440064
:1048600001EBC000007D022804DA00BF45A0FEF77E
:1048700015FC00BF00BF019800B93EB93946484653
:1048800000F032F902900EB90298AEE700BF26B9E7
:1048900000BF46A0FEF702FC00BF00BF04EB4400CF
:1048A000374901EBC000007D022811DB424804704B
:1048B0004FF40060009004EB440001EBC00000F1F5
:1048C0000C0352463146484600F07AFA02904CE01A
:1048D00004EB44002A4901EBC000007D012844D1CB
:1048E0004FF0000B354614E000BF688929898842E3
:1048F00006D1286820B100BF30A0FEF7CFFB00BF73
:1049000000BF287B00F0400010B14FF0010B02E027
:104910002D68002DE8D100BFBBF1000F07D0324653
:104920004FF420710E2004F079FF054603E0354670
:10493000284605F00BFAA5B104EB4400104951F8E4
:10494000300030B104EB44010D4A52F8310005F05B
:10495000C7F804EB44000A4941F8305000200290A7
:1049600002E04FF0FF30029000BF02983DE70000E8
:1049700074797065206F766572666C6F77000000E1
:10498000A06300206172705F7461626C655B695D39
:104990002E7374617465203D3D2050454E44494E50
:1049A00047206F7220535441424C45007120213DF5
:1049B000204E554C4C000000300000206E6F2070DF
:1049C00061636B65742071756575657320616C6CCE
:1049D0006F776564210000002DE9FC5F06460F46F5
:1049E00090469946DDE90CAB0020019000BF26B946
:1049F00000BF2BA0FEF752FB00BF00BF4FF4207298
:104A00001C210E2004F01EFD05461DB94FF0FF309D
:104A1000BDE8FC9F00BF68891C2804DA00BF24A001
:104A2000FEF73CFB00BF00BF6C680F9802F0B1FAC4
:104A3000E08000BF96F82800062804D000BF29486F
:104A4000FEF72CFB00BF00BFD9F80000A060B9F84A
:104A50000400A081DBF80000C4F81200BBF80400D9
:104A6000E082DAF80000C4F80E000E980068A06139
:104A70004FF4807020800820608006202071042080
:104A8000607140F6060043463A462946009030469B
:104A900000F096F9284605F023F800250198B7E7BD
:104AA0006E6574696620213D204E554C4C00000017
:104AB000636865636B2074686174206669727374DF
:104AC00020706275662063616E20686F6C6420736D
:104AD0007472756374206574686172705F68647263
:104AE000000000001C29010870B504460D46034A69
:104AF0002946204600F004F870BD00002027010878
:104B00007FB504460D4616460121074A201D04F1D3
:104B100022038DE825000391324619462046FFF70F
:104B20005BFF04B070BD00002627010870B50024AB
:104B300064E004EB4400334901EBC000057D002D27
:104B40005BD004EB440001EBC000408A401C04EB46
:104B500044012C4A02EBC101488204EB4400114697
:104B600001EBC000408AB0F5967F0DDA04EB4400FB
:104B700001EBC000007D01280AD104EB440001EBE9
:104B8000C000408A052803DB2046FFF737FC34E0ED
:104B900004EB44001B4901EBC000007D032807D152
:104BA000042004EB4401174A02EBC101087524E01C
:104BB00004EB4400134901EBC000007D042807D139
:104BC000022004EB44010F4A02EBC101087514E016
:104BD00004EB44000B4901EBC000007D01280CD11F
:104BE00004EB44020B4603EBC202111D04EB44022A
:104BF00003EBC2029068FFF777FF641C0A2C98DB76
:104C000070BD0000A06300202DE9F84305460E4664
:104C10001746984600BF95F82800062804D000BF24
:104C20002CA0FEF73BFA00BF00BF5EB1306848B170
:104C30002946306800F08CFD20B9307800F0F00093
:104C4000E02803D16FF00F00BDE8F8832A46414603
:104C50003046FFF797FA0446002C01DA60B2F3E71A
:104C6000022004EB4401244A02EBC101087504EB65
:104C70004400114601EBC000856004EB440001EBE9
:104C8000C0003968C160B9880182002004EB44018A
:104C900002EBC101488204EB4400114651F8300098
:104CA000B0B104EB440051F83090002004EB440113
:104CB00042F831004FF400603B4605F122024946BC
:104CC0000090284600F07CF8484604F009FF00BF39
:104CD0000020B9E76E657469662D3E68776164648B
:104CE000725F6C656E203D3D204554485F485741DA
:104CF0004444525F4C454E00A06300202DE9F04132
:104D000004460E464FF00E0860890E2800DC4FE086
:104D1000E07B18B996F82C00401CE0736568AF89F9
:104D2000287800F00100B0B12878012809D168780E
:104D300088B9A8785E280ED1607B40F010006073BF
:104D400009E006221D492846FBF718FB18B9607BCD
:104D500040F008006073082F03D0B7F5C16F22D16F
:104D600010E096F8290000F0080000B920E0414664
:104D7000204605F00FF800B11AE03146204600F059
:104D800037FE11E096F8290000F0080000B90FE0A6
:104D90004146204604F0FEFF00B109E031462046BE
:104DA000FFF74CFB00E003E000BF0020BDE8F0810E
:104DB000204604F095FE0020F8E7000020270108B7
:104DC0002DE9F04705460E4617469846DDF8209037
:104DD000484602F0DEF882460E21304604F0E4FA3E
:104DE00000B11EE07468A4F80CA0D8F800002060A0
:104DF000B8F80400A0803868C4F80600B88860815C
:104E000000BF95F82800062804D000BF06A0FEF7D2
:104E100045F900BF00BF31462846AA699047BDE862
:104E2000F0876FF00100FAE76E657469662D3E68E1
:104E300077616464725F6C656E206D757374206257
:104E400065203620666F722065746865726E6574C1
:104E50005F6F7574707574210000000070B50446B2
:104E6000042003F017FA054655B900BF12A0FEF75B
:104E700015F914A0FEF712F900BF4FF0FF3070BD16
:104E800000BF24B900BF17A0FEF708F900BF00BF9C
:104E9000E561732084F82A0074212B200155154800
:104EA00060611548A061204601F07CFD04F12200FC
:104EB00028600020E3E700000D0A5B4552525D20A8
:104EC0003E3E200065746865726E657469665F6950
:104ED0006E69743A206F7574206F66206D656D6F12
:104EE00072790A006E6574696620213D204E554C2A
:104EF0004C0000000D450008A56C00080546002682
:104F00002C461EE000235A1E19460E4800680CF07D
:104F100005FE012815D10CF01FF9204601F008FE0E
:104F200006460CF05BF966B10CF016F921463046E6
:104F30002269904718B1304604F0D2FD00260CF0EB
:104F40004DF9DFE7E80000202DE9F84F05460E4651
:104F5000DDB1AF69002F12DA05F057FF8146A8696D
:104F6000002808DA16B9A869401EA861484605F06D
:104F700075FFBDE8F88FAF69484605F06FFF38460A
:104F800000F034FA04460CB9F3E7F2E74FF00108F9
:104F900005F03BFF8146052E24D2DFE806F0030E24
:104FA000151C20002089401C00B22081B4F90800A3
:104FB000012801DD4FF000081CE02089401E00B2EE
:104FC00020814FF0000815E0608908B14FF000081B
:104FD000012060810EE00020608180460AE001200F
:104FE000A08107E000BF00BF17A0FEF757F800BF81
:104FF00000BF00BF00BFA07B00B3B8F1000F1DD001
:10500000B4F90800002801DD012000E000208246FC
:10501000608908B1012000E000208346A08908B122
:10502000012000E000200090484605F017FF5A4696
:1050300051463846009B05F0B5FD02E0484605F0B4
:105040000DFF00BF95E70000756E6B6E6F776E20E9
:105050006576656E7400000010B5BE4890F83800A3
:10506000C0F3400030B1BC49086BFEF717F8BBA095
:10507000FEF714F8B748806BC0F3807000287DD02D
:10508000B44890F8240000285BD0B24890F824007F
:1050900000F0010030B1B049486BFDF7FFFFAFA051
:1050A000FDF7FCFFAB4890F82400C0F3400030B19E
:1050B000A949886BFDF7F2FFA8A0FDF7EFFFA5480F
:1050C00090F82400C0F3C00030B1A349C86BFDF7CD
:1050D000E5FFA2A0FDF7E2FF9E4890F82400C0F390
:1050E000001030B19C49086CFDF7D8FF9BA0FDF77C
:1050F000D5FF984890F82400C0F3401030B196498D
:10510000486CFDF7CBFF95A0FDF7C8FF914890F8DC
:105110002400C009A8B18F4890F8240000F00100D5
:1051200028B98C4890F82400C0F3400048B1894A5F
:10513000916A894AD2F88C00FDF7B0FF87A0FDF78D
:10514000ADFF844890F82C00002864D0814890F886
:105150002C0000F0010030B17F49886CFDF79EFF04
:105160007EA0FDF79BFF7B4890F82C00C0F3400029
:1051700040B17949C86CFDF791FF00E09BE077A052
:10518000FDF78CFF734890F82C00C0F3800030B11D
:105190007149086DFDF782FF70A0FDF77FFF6D4834
:1051A00090F82C00C0F3C00030B16B49486DFDF79A
:1051B00075FF6AA0FDF772FF664890F82C00C0F3F7
:1051C000001030B16449886DFDF768FF63A0FDF7FA
:1051D00065FF604890F82C00C0F3401030B15E4984
:1051E000C86DFDF75BFF5DA0FDF758FF594890F8CB
:1051F0002C00C00978B1574890F82C00C0F340004B
:1052000048B1544A116B544AD2F89000FDF746FF5A
:1052100052A0FDF743FF4F48808E00284BD04D48E9
:1052200090F8340000F0010030B14B49086EFDF7F2
:1052300035FF4AA0FDF732FF464890F83400C0F32E
:10524000400030B14449486EFDF728FF43A0FDF708
:1052500025FF404890F83400C0F3800030B13E494B
:10526000886EFDF71BFF3DA0FDF718FF394890F849
:105270003400C0F3C00030B13749C86EFDF70EFFEF
:1052800036A0FDF70BFF3348808EC0F3002030B10D
:105290003149086FFDF702FF30A0FDF7FFFE2D48F2
:1052A000808EC0F3402030B12B49486FFDF7F6FEE9
:1052B0002AA0FDF7F3FE2748806BC00F002847D0D7
:1052C0002448C06B002843D0224890F83C0000F0EE
:1052D000010030B12049886FFDF7E0FE1FA0FDF707
:1052E000DDFE1C4890F83C00C0F3400030B11A4984
:1052F000C86FFDF7D3FE19A0FDF7D0FE154890F852
:105300003C00C0F3800038B11349D1F88000FDF7AC
:10531000C5FE12A0FDF7C2FE0E4890F83C00C0F397
:10532000C00038B10C49D1F88400FDF7B7FE0BA0DE
:10533000FDF7B4FE074890F83C00C0F3001038B108
:105340000549D1F88800FDF7A9FE04A0FDF7A6FEE7
:1053500010BD000034F602202C2701080D0A0000C1
:1053600013B50C464FF47A73012269460248FDF7E3
:10537000ADFA00981CBD0000980100202DE9FC4109
:1053800005460C4605F041FD07466B4601AA21463D
:10539000284600F01FF80646384605F05FFD26B1A6
:1053A0006A462046019900F002F8BDE8FC8170B51C
:1053B00006460D461446206838B11EB1206804F038
:1053C0008FFB02E0206803F0EDF915B1284603F0E9
:1053D000F7FA70BD10B50446606818600020606080
:1053E0002068106000202060012010BD70B50546C7
:1053F00028460BF0E9F8044634B900BF09200349F8
:10540000086000BF002070BD2046FCE7F8000020C7
:1054100070B505460C4622460321284600F00AF9DD
:1054200070BD00002DE9FF5F05468A46654880682B
:105430000390039800780007860E142E00DAB8E077
:105440006889042800D2B4E06868047814B1082C94
:1054500072D100E0A8E0DFF86C9109F11409594815
:10546000007D00F0F000E02800D1A6E0554A116868
:10547000506900F06DF900B19FE02889082800D23A
:1054800097E0284600F039F920B1284604F028FBBF
:10549000BDE8FF9F06F10E01284603F085FF0028B6
:1054A0003CD0288930441FFA80FB2889584500DD0C
:1054B00083E04FF4207259460E2003F0C3FF0746E5
:1054C00007B97AE0798906F10800814203D23846AB
:1054D00004F006FB71E0324678680399FAF71CFF86
:1054E0003146384604F056FC50B100BF00BF36A02C
:1054F000FDF7D4FD00BF00BF384604F0F1FA5CE0D0
:105500002946384604F0B2F918B1384604F0E8FAF2
:1055100053E0284604F0E4FA3D460EE006F10E01A1
:10552000284604F037FC40B100BF00BF34A0FDF7AF
:10553000B5FD00BF00BF40E024E0D5F8048031464F
:10554000284603F031FFE0B96F68D9F80000F86031
:105550001C4800693861002088F80000A8F80200A3
:10556000FF2038720020788101200021FF230A46A5
:10557000CDE9010A00914946284600F021FB834607
:1055800000BF11E0032C0ED00B2C0CD00C2C0AD039
:10559000042C08D0052C06D00D2C04D00E2C02D0E3
:1055A000112C00D000BF00BF00BF284604F098FABD
:1055B0006EE7284604F094FA6AE7284604F090FA69
:1055C00000BF65E79064002069636D705F696E706D
:1055D00075743A206D6F76696E6720722D3E70612A
:1055E000796C6F616420746F2069636D70206865E9
:1055F00061646572206661696C65640A0000000080
:1056000069636D705F696E7075743A20726573744A
:105610006F72696E67206F726967696E616C207066
:105620002D3E7061796C6F6164206661696C6564A0
:105630000A0000002DE9FF470746884691464FF4CF
:1056400020722421222003F0FDFE05460DB9BDE89D
:10565000FF8700BF6889242804D200BF17A0FDF788
:105660001DFD00BF00BFD7F804A06C6884F800805F
:1056700084F801900020A080E08079686A6802F1D7
:1056800008001C22FAF748FEDAF80C00039003A881
:1056900000F08AFC06465EB10020608001200021F7
:1056A000FF2303AACDE901060091284600F088FAFD
:1056B000284604F015FA00BFC9E700006368656377
:1056C0006B207468617420666972737420706275EF
:1056D000662063616E20686F6C642069636D702062
:1056E0006D6573736167650070B505460C462246AB
:1056F0000B212846FFF79EFF70BDF0B50646002738
:105700000024354619E06989686802F025FC0444E4
:10571000A0B200EB1444688900EBD0714910A0EBF3
:10572000410149B10FB9012000E000200746E0B275
:10573000C4F3072141EA00242D68002DE3D127B1ED
:10574000E0B2C4F3072141EA0024E04380B2F0BD97
:1057500018B502460092D04300B10AB9012018BD25
:1057600091F8290000F0020008B90020F7E7486826
:10577000904201D10020F2E700988B681840D1E9EF
:1057800001342340984208D1886822EA00008C68DE
:10579000E343984201D10120E1E70020DFE7000068
:1057A0002DE9F74F8CB004460F464FF00008398CB6
:1057B000A1F11400C11700EB5171C1F3CF0A1420FD
:1057C000059060680990DDF8249099F8000000F0D9
:1057D0000F001421B1EB800F04D06FF005000FB063
:1057E000BDE8F08F00BF6089142807DA00BF6CA005
:1057F000FDF754FC00BF6FF00500F0E700BFB9F8FB
:10580000060001F0C6FB04900498C0F30C0007905A
:10581000049800F400500390208914381FFA80FB8C
:10582000B5E04FF6FF7000EACA00584501DD584662
:1058300003E04FF6FF7000EACA0008904FF42072B0
:1058400014210E2003F0FEFD054605B9A5E000BFBA
:105850006889142804DA00BF58A0FDF71FFC00BFB8
:1058600000BF142268680999FAF756FDD5F804902C
:1058700008980A9050E061890598081A80B2029051
:1058800000BF61890598814204DA00BF53A0FDF78B
:1058900005FC00BF00BF02990A98884201DA0A9805
:1058A00000E002988046B8F1000F03D10020059077
:1058B000246831E000F094FC06461EB9284604F046
:1058C0000FF96AE061680598084433464122414671
:1058D000CDE90008002003F0F5FE0B900B9830B9DD
:1058E000304600F083FC284604F0FAF855E02046E4
:1058F00004F02CFA74613D48306128460B9903F09E
:105900000BFF0A98A0EB080080B20A900A9810B129
:1059100000200590246800BF0A980028ABD10598A4
:10592000404480B20590388C1438584501DB012082
:1059300000E0002006900798C0F30C000490069841
:1059400008B1039818B1049840F4005004900498EA
:1059500001F01FFBA9F806000899143188B201F084
:1059600018FBA9F802000020A9F80A007B69294663
:1059700038460E9A9847284604F0B2F80898ABEBE0
:1059800000001FFA80FB0798504480B20790BBF1DB
:10599000000F7FF446AF002021E74FF0FF301EE7F5
:1059A0006970345F6672616728293A207062756693
:1059B00020746F6F2073686F72740000746869736D
:1059C000206E656564732061207062756620696E63
:1059D000206F6E652070696563652100702D3E6CD7
:1059E000656E203E3D20706F6666000051690008BC
:1059F0002DE9F04707460E467D6828780421B1EB73
:105A0000201F05D0384604F06BF80020BDE8F08771
:105A1000287800074FEA9068688801F0BAFA814652
:105A20003989494503DD4946384604F017F9788934
:105A3000404505DB3889484502DBB8F1140F04DA2C
:105A4000384604F04DF80020E0E728694D494861E8
:105A5000E86808610846007D00F0F000E0280AD1FF
:105A600096F8290000F0010018B1706808B13446BA
:105A70001CE000241AE0304600F088F808B13446F3
:105A800014E000243F48007D7F280FD03E48046882
:105A900009E0B44200D105E0204600F077F800B1FB
:105AA00003E000BF2468002CF3D100BF354908692A
:105AB0003146FFF74DFE28B93248007C00F0F00077
:105AC000E02804D1384604F00BF800209EE724B902
:105AD000384604F005F8002098E7E8884FF63F7153
