:020000040800F2
:10000000303802207D020008AD250008A10200085A
:10001000A9250008A1070008ED2B0008000000003A
:10002000000000000000000000000000C501000802
:10003000D10700080000000019020008E9250008A7
:10004000970200089702000897020008970200082C
:10005000970200089702000897020008970200081C
:10006000970200089702000897020008970200080C
:1000700097020008970200089702000897020008FC
:1000800097020008970200089702000897020008EC
:1000900097020008970200089702000897020008DC
:1000A00097020008970200089702000897020008CC
:1000B00097020008970200089702000897020008BC
:1000C00097020008970200089702000897020008AC
:1000D000970200089702000897020008970200089C
:1000E000970200089702000897020008970200088C
:1000F000970200089702000897020008970200087C
:10010000970200089702000897020008970200086B
:10011000970200089702000897020008970200085B
:10012000970200089702000897020008970200084B
:10013000970200086108000897020008970200086B
:10014000970200089702000897020008970200082B
:10015000970200089702000897020008970200081B
:10016000970200089702000897020008970200080B
:10017000970200089702000897020008000000009C
:1001800097020008970200089702000897020008EB
:1001900097020008970200089702000897020008DB
:1001A000970200089702000897020008DFF810D0B5
:1001B00000F01EF900480047E9750008AFF3008021
:1001C000303802202A4B19680868B0E8F04F80F3F5
:1001D0000988BFF36F8F4FF0000080F311887047DC
:1001E0000000000006480068006880F3088862B6D6
:1001F00061B6BFF34F8FBFF36F8F00DF00BF00BF4B
:1002000008ED00E0DFF80C00016841F470010160C6
:10021000704700BF88ED00E0EFF30980BFF36F8FF8
:10022000134B1A681EF0100F08BF20ED108A20E94A
:10023000F04F106008B44FF0500080F31188BFF306
:100240004F8FBFF36F8F10F01BFE4FF0000080F355
:10025000118808BC19680868B0E8F04F1EF0100F4C
:1002600008BFB0EC108A80F30988BFF36F8F704726
:100270002C010020EFF305807047000006488047FE
:1002800006480047FEE7FEE7FEE7FEE7FEE7FEE77B
:10029000FEE7FEE7FEE7FEE7C5260008AD01000821
:1002A0007046694603F03AF8FFF7FEFF2DE9F05F6C
:1002B0000546002092469B468846064681464024D5
:1002C0001BE0284641464746224600F081F8534647
:1002D0005A46C01A914110D311461846224600F0E2
:1002E00068F82D1A67EB01084F46224601200021CD
:1002F00000F05FF817EB00094E41201EA4F1010445
:10030000DFDC484631462A464346BDE8F09F000000
:100310000649074A0868504343F23902104408600E
:10032000400870470149086070470000A4010020A0
:100330006D4EC64110B5431A934209D283188818EE
:1003400003E010F8011D03F8011D521EF9D210BD83
:1003500040EA01039B0703D009E008C9121F08C047
:10036000042AFAD203E011F8013B00F8013B521EC7
:10037000F9D210BDD2B201E000F8012B491EFBD228
:1003800070470022F6E710B513460A4604461946A0
:10039000FFF7F0FF204610BD30B5044600200346AD
:1003A00000E05B1C934203D2E05CCD5C401BF8D0C4
:1003B00030BD202A04DB203A00FA02F10020704709
:1003C0009140C2F1200320FA03F319439040704793
:1003D000202A04DB203A21FA02F00021704721FA9A
:1003E00002F3D040C2F12002914008431946704701
:1003F000064C074D06E0E06840F0010394E8070072
:1004000098471034AC42F6D3FFF7D4FE6C2B0108AA
:100410008C2B010870B58C1810F8015B15F00703E0
:1004200001D110F8013B2A1106D110F8012B03E08D
:1004300010F8016B01F8016B5B1EF9D12B0705D495
:100440000023521E0DD401F8013BFAE710F8013BDE
:10045000CB1A921C03E013F8015B01F8015B521EFA
:10046000F9D5A142D8D3002070BD00001CB50124ED
:1004700002F05AF91CA002F0BBFB23A002F0B8FB6B
:1004800030A002F0B5FB3CA002F0B2FB47A002F0A6
:10049000AFFB04F0AFFA10F0B3F95248012100238A
:1004A0004A02CDE9001050A1524811F067F9044604
:1004B000012C02D150A002F09BFB574802210023DF
:1004C0000A02CDE9001055A1574811F057F904462A
:1004D000012C02D155A002F08BFB5C48006810F0A3
:1004E00039FB10F0CFF91CBDB1BEC0FDB3CCD1DDDE
:1004F000CABEBFAAB7A2B0E5BBF1C8A1CDF8D2B3BE
:10050000CAFDBEDD0A0A0000CDF8C2E7C1ACBDD30A
:10051000C4A3D0CDC8E7CFC2A3BA0A0920B5E7C4A7
:10052000D43C2D2DCDF8CFDF2D2D3EC2B7D3C93C05
:100530002D2DCDF8CFDF2D2D3EBFAAB7A2B0E50AF5
:100540000A000000CAB5D1E9D6D0CAB9D3C3544312
:1005500050D0ADD2E9B4ABCAE4CAFDBEDDA3ACBF96
:10056000AAB7A2B0E5D7F7CEAA544350205365727C
:100570007665720A0A000000B1BEC0FDB3CCB5C4F6
:100580004950B5D8D6B7BEF9D4DA557365722F6124
:100590007263682F7379735F617263682E68CEC46B
:1005A000BCFED6D0D0DEB8C40A0A0000B1BEC0FD81
:1005B000B3CCB2CEBFBC3C3C4C774950D3A6D3C3DE
:1005C000CAB5D5BDBFAAB7A2D6B8C4CF3E3EB5DA2C
:1005D0003139D5C2204854545020D0ADD2E90A0A4E
:1005E000000000001400002054657374315F5461F2
:1005F000736B0000E1270008437265617465205445
:10060000657374315F5461736B20737563657373C5
:100610002E2E2E0D0A000000180000205465737461
:10062000325F5461736B0000FD27000843726561FF
:1006300074652054657374325F5461736B207375F5
:10064000636573732E2E2E0A0A000000100000202E
:1006500010B501F0EBF900F0B1FA01F0DFFF01F0A5
:100660004BFF00F09FF802A002F0C2FA10BD00009C
:100670002D2D2D2D2D2D2D2D2D2D2D204C776970CF
:100680002064656D6F202D2D2D2D2D2D2D2D2D2DC3
:100690002D2D0A001CB5284800F08CFB00F05CFAF8
:1006A0002648006840F001002449086002208DF8C7
:1006B000000000208DF801008DF802008DF8030085
:1006C0008DF804008DF805001D481B4908600120C5
:1006D0004860002118480182C0F814D001218161CE
:1006E0000021C1614FF40001016249128160C9100B
:1006F000C16000F033FC04463CB900BF11A002F019
:1007000077FA14A002F074FA07E000BF0DA002F01F
:100710006FFA18A002F06CFA00BF08231C4A1D49AA
:10072000054800F005FB08231B4A1C49024800F05D
:10073000B9FA20461CBD0000EC01002000900240E8
:10074000008002400D0A5B44454255475D203E3E15
:1007500020000000657468206861726477617265CA
:1007600020696E6974207375636573732E2E2E0A6B
:1007700000000000657468206861726477617265CA
:1007800020696E6974206661696C642E2E2E0A00E1
:10079000D43300203403002034040020340200202D
:1007A00000BFFEE710B50848084908604FF4E13083
:1007B0004860002105488160C160016181610C21B0
:1007C000416101F099FD10BD00100140AC01002015
:1007D0007047016801F58051896941F002020168A2
:1007E00001F580518A617047016801F5805189697E
:1007F00041F40052016801F580518A6170470000A0
:1008000008B508490968C9084FF47A72B1FBF2F1DA
:100810004143009100BF00BF00994A1E0092002989
:10082000F9D108BD0000002038B504460020009032
:10083000206800F58050806940F48011206800F540
:1008400080508161206800F580508069009001200F
:10085000FFF7D6FF0099206800F58050816138BD10
:1008600010B500BF5021EFF3118081F31188BFF361
:100870004F8FBFF36F8F00BF0446044800F01BFB8F
:10088000204680F3118800BF10BD0000EC0100205D
:1008900030B503461479557944EA0520084C0C44D8
:1008A0002064D4782406957844EA0544557844EACF
:1008B0000524157844EA0500014C0C44606430BD01
:1008C0000080024070B5AEB004460E46002526B149
:1008D0004FF40061E160C900A16000201190129006
:1008E0001390149015901690E06918B94FF4806039
:1008F000179001E0002017904FF40070189000202E
:1009000019901A901B901C901D9040201E90002062
:100910001F90209021902290239024902590269043
:10092000802027900020289029902A902B902C90AE
:100930002D902068056871480540DDE911010843E4
:100940001399084314990843A1680843159908436B
:1009500016990843E1680843179908431899084312
:10096000199908431A9908431B99084305432068BD
:10097000056020680568012000F080F920680560A6
:10098000DDE91C0108431E9908431F99084320997B
:100990000843219908432299084323990843216871
:1009A000486020684568012000F068F920684560CB
:1009B00024982168886025982168C8602068856926
:1009C0004FF641700540DDE9261040EA01402899C4
:1009D0000843299908432A9908432B99084305435A
:1009E0002068856120688569012000F047F920684A
:1009F0008561DDE92C0108432168C8612068C5696B
:100A0000012000F03BF92068C561002001904FF003
:100A100000700290002003904FF40010049000201A
:100A2000059006900790089004200990C0050A9050
:100A300040120B9080010C9040120D9080200E907F
:100A400000200F901090206800F5805085692C4898
:100A50000540DDE90101084303990843049908436F
:100A600005990843069908430799084308990843DC
:100A7000099908430543206800F580508561206886
:100A800000F580508569012000F0F8F8206800F535
:100A900080508561DDE90A0108430C9908430D99EE
:100AA00008430E9908430F9940EA810010990843C2
:100AB00040F40001206800F580500160206800F5D6
:100AC00080500568012000F0D9F8206800F58050BA
:100AD0000560A069012809D1206800F58050C0692F
:100AE00008490843216801F58051C861002120466A
:100AF0006269FFF7CDFE2EB070BD00000F8120FFB0
:100B0000233FDEF84000010038B504460020009085
:100B10002068006840F004002168086020680068D0
:100B200000900120FFF76CFE00982168086038BD36
:100B300038B50446002000902068006840F00800A6
:100B4000216808602068006800900120FFF758FEC7
:100B500000982168086038BD00B587B000BF00204C
:100B600001901448006840F48070124908600846FB
:100B7000006800F48070019000BF00BF0120039066
:100B8000049002200590029002A90B4800F028FE74
:100B900000220221084800F031FF052000F06EF825
:100BA00001220221044800F029FF052000F066F828
:100BB00007B000BD303802400020024008B500BF39
:100BC000002000902C48006840F080002A4908600E
:100BD0000846006800F08000009000BF00BF00BF22
:100BE000002000900846006840F0040008600846B5
:100BF000006800F00400009000BF00BF00BF0020AC
:100C000000900846006840F001000860084600684F
:100C100000F00100009000BF00BF00BF0020009066
:100C20000846006840F0020008600846006800F0CE
:100C30000200009000BF00BF00BF002000900846E7
:100C4000006840F0400008600846006800F040007E
:100C5000009000BF00BF00BF002000900846006861
:100C600040F4807008600846006800F480700090CE
:100C700000BF00BF08BD00003038024070B5044618
:100C800000F0C2FE06462546681C10B104480078F4
:100C9000054400BF00F0B8FE801BA842FAD370BD27
:100CA0000C00002070B504460D461646002200BF19
:100CB00094F84500012801D1022070BD012084F87C
:100CC000450000BF022084F84400A56200221FE016
:100CD00005EB42114FF00040086044F2F4504860C8
:100CE000C2EBC21000EB400006EB80008860A069F8
:100CF000012803D1486820F000404860581E904207
:100D000004D905EB42102030C86000E0CD60521CD1
:100D10009A42DDD3206800F58050C560012084F838
:100D2000440000BF002084F8450000BF00BFC4E7B6
:100D300070B504460D461646002200BF94F84500E3
:100D4000012801D1022070BD012084F8450000BFB8
:100D5000022084F84400E56200221BE005EB42110A
:100D60004FF480100860C2EBC21000EB400006EBAD
:100D700080008860E06918B9086840F440000860A5
:100D8000581E904204D905EB42102030C86000E0A4
:100D9000CD60521C9A42E1D3206800F58050056175
:100DA000012084F8440000BF002084F8450000BF03
:100DB00000BFC8E710B50446022084F8440020466E
:100DC00000F01AFA002084F8440000BF84F84500BF
:100DD00000BF10BD10B5044600BF04A001F008FF1D
:100DE00005A001F005FF00BF10BD00000D0A5B4526
:100DF00052525D203E3E2000657468206572720A82
:100E0000000000000146002200BF91F845000128C3
:100E100001D102207047012081F8450000BF022067
:100E200081F84400886A006800F00040002838D14A
:100E3000886A006800F48070F0B1886B401C886399
:100E4000886B012801D1886A08638B6A4B63886AC2
:100E50000068C0F30D40021FCA63086B83680B640F
:100E6000886AC0688862012081F8440000BF0020C1
:100E700081F8450000BFCDE7886A006800F4007083
:100E800048B1886A086300234B6301238B63886A37
:100E9000C068886205E0886B401C8863886AC06807
:100EA0008862012081F8440000BF002081F84500DD
:100EB00000BF0120AEE710B50446206800F5805061
:100EC000406900F0400040280FD1204600F09EFA13
:100ED0004021206800F580504161012084F84400E1
:100EE00000BF002084F8450016E0206800F580501F
:100EF000406900F0010078B1204600F067FB012155
:100F0000206800F580504161012084F8440000BF52
:100F1000002084F8450000BF4FF48031206800F5C0
:100F200080504161206800F58050406900F4004025
:100F3000B0F5004F10D12046FFF74CFF4FF40041B1
:100F4000206800F580504161012084F8440000BF12
:100F5000002084F8450000BF10BD00002DE9FC41D1
:100F600004460025002001909C4E0027804614B9BD
:100F70000120BDE8FC8194F8440028B9002084F8E1
:100F80004500204600F070F900BF00200090944812
:100F9000006840F48040924908600846006800F408
:100FA0008040009000BF00BF8E48006820F4000021
:100FB0008C49086008460068216A0843894908602E
:100FC000206800F58050006840F00101206800F5BD
:100FD0008050016000F018FD07460FE000F014FD9E
:100FE000C01BB0F5FA7F09D9032084F8440000BF84
:100FF000002084F8450000BF0320BAE7206800F510
:101000008050006800F001000028E7D120680569E1
:1010100025F01C0500F0B4FE06467348864205D351
:101020007248864202D245F008051AE06F488642AF
:1010300005D36A48864202D245F00C0511E06748A4
:10104000864203D36A48864200D20AE06848864254
:1010500005D36848864202D245F0040501E045F018
:101060001005206805614FF400420021204600F081
:10107000AEFA48B14FF0010841462046FFF722FC86
:10108000012084F8440074E70520FFF7F7FD60684D
:10109000002871D000F0B8FC074600BF01AA01216A
:1010A000204600F069F900F0AFFCC01B41F2883126
:1010B00088420FD94FF0010841462046FFF702FC55
:1010C000012084F8440000BF002084F8450000BFE0
:1010D00003204EE7019800F004000428DED18202CC
:1010E0000021204600F073FA48B14FF00108414654
:1010F0002046FFF7E7FB012084F8440039E700F0C1
:1011000083FC074600BF01AA0121204600F034F904
:1011100000F07AFCC01B41F2883188420FD94FF0B1
:10112000010841462046FFF7CDFB012084F844002A
:1011300000BF002084F8450000BF032019E7019894
:1011400000F020002028DED101AA1F21204600F057
:1011500013F948B14FF0010841462046FFF7B2FBB2
:10116000012084F8440004E7019800F0100020B149
:101170004FF40061E16002E00DE00021E1600198C0
:1011800000F00400042802D10021A1601DE04FF40A
:101190008041A16019E0E068C0F3CF00A168C1F30D
:1011A0004F0140EA01020021204600F010FA48B148
:1011B0004FF0010841462046FFF784FB012084F8E8
:1011C0004400D6E60520FFF759FD41462046FFF7CB
:1011D00079FB012084F844000020CAE600879303CD
:1011E0004438024004380140002D3101C00E16027F
:1011F00000E1F50580D1F00810B5044614492068D7
:10120000884223D100BF1348006820F08060114954
:1012100008600846006820F0006008600846006822
:1012200020F00070086000BF32210B4800F018FA6F
:1012300086210A4800F014FA4FF40061084800F0D3
:101240000FFA4FF4C041074800F00AFA10BD000041
:101250000080024030380240000802400000024096
:10126000000402400018024010B586B004463C4914
:101270002068884271D13220019002200290002023
:101280000390032004900B20059001A9354800F03D
:10129000A7FA8620019002200290002003900320EC
:1012A00004900B20059001A92F4800F099FA4FF403
:1012B000006001900220029000200390032004901F
:1012C0000B20059001A9294800F08AFA4FF4C0408C
:1012D00001900220029000200390032004900B2034
:1012E000059001A9224800F07BFA002206213D204A
:1012F00000F0EEFB3D2000F0DEFB00BF00BF002051
:1013000000901C48006840F000701A4908600846C8
:10131000006800F00070009000BF00BF00BF002018
:1013200000900846006840F0806008600846006849
:1013300000F08060009000BF00BF00BF0020009060
:101340000846006840F0006008600846006800F049
:101350000060009000BF00BF00BF06B010BD0000DD
:1013600000800240000802400000024000040240E9
:1013700000180240303802402DE9F04104460E4684
:1013800017460025A84694F84400822802D102207E
:10139000BDE8F081822084F844002068056905F0EA
:1013A0001C05208A4FF4784101EAC020054348110A
:1013B00000EA8610054325F0020545F00105206886
:1013C000056100F021FB804612E000F01DFBA0EB60
:1013D0000800B0F5803F09D3012084F8440000BF25
:1013E000002084F8450000BF0320D1E7206805698C
:1013F00005F001000028E8D12068406980B238601B
:10140000012084F844000020C2E7000038B50446FB
:101410000020009069460748006810F0E7F800983F
:1014200038B14FF0805004490860BFF34F8FBFF3CD
:101430006F8F38BDF800002004ED00E010B50446C1
:1014400000BF94F84500012801D1022010BD012001
:1014500084F8450000BF022084F844002046FFF7CE
:1014600067FB2046FFF750FB2046FFF7DDF92046DB
:10147000FFF7BAF92046FFF7ACF9012084F84400E1
:1014800000BF002084F8450000BF00BFDEE770B554
:10149000024600230025002400BF92F845000128E1
:1014A00001D1022070BD012082F8450000BF02205A
:1014B00082F8440049B9012082F8440000BF0020AE
:1014C00082F8450000BF0120ECE7D06A006800F018
:1014D000004048B1122082F8440000BF002082F88A
:1014E000450000BF0120DDE740F2F450814208D9F9
:1014F000B1FBF0F3B1FBF0F600FB161010B15B1C72
:1015000000E00123012B13D1D06A006840F0405065
:10151000D66A3060C1F30C00D66A7060D06A006889
:1015200040F00040D66A3060D06AC068D06232E0D5
:1015300000242EE0D06A006820F04050D66A306067
:101540002CB9D06A006840F08050D66A306040F212
:10155000F450D66A7060581EA04210D1D06A00685C
:1015600040F00050D66A3060581EC0EBC01000EB4F
:101570004000A1EB8005C5F30C00D66A7060D06A0C
:10158000006840F00040D66A3060D06AC068D0621F
:10159000641C9C42CED3106800F58050406900F076
:1015A000040048B10426106800F58050466100260A
:1015B000106800F580504660012082F8440000BFAA
:1015C000002082F8450000BF00BF6BE770472DE99F
:1015D000F04104460E4617460025A84694F84400FC
:1015E000422802D10220BDE8F081422084F8440064
:1015F0002068056905F01C05208A4FF4784101EA4E
:10160000C0200543481100EA8610054345F0020555
:1016100045F00105B8B2216848612068056100F015
:10162000F3F9804612E000F0EFF9A0EB0800B0F506
:10163000803F09D3012084F8440000BF002084F8D3
:10164000450000BF0320CEE72068056905F00100D2
:101650000028E8D1012084F844000020C3E70000FE
:10166000F0B50C4600250022002300219CE0012655
:1016700006FA01F504EA0502AA427DD106684FEA9E
:10168000410C032707FA0CF7BE430660CF0800F1B0
:10169000200656F827604F074FEAD76C0F2707FA46
:1016A0000CF7BE434FEAD10C00F1200747F82C603D
:1016B00086684FEA410C032707FA0CF7BE438660A1
:1016C000476801268E40B7434760C6684FEA410C21
:1016D000032707FA0CF7BE43C660354E8F0856F84D
:1016E00027308E07370F0F26BE403340314EB042B1
:1016F00001D100262DE0304EB04201D1012628E074
:101700002E4EB04201D1022623E02D4EB04201D12F
:1017100003261EE02B4EB04201D1042619E02A4ECA
:10172000B04201D1052614E0284EB04201D1062670
:101730000FE0274EB04201D107260AE0254EB04205
:1017400001D1082605E0244EB04201D1092600E06F
:101750000A268F073F0FBE409E4224D18E07370FC7
:101760000F2606FA07F3124E8F0856F827609E439D
:101770000F4F4FEA910C00E015E047F82C60174E30
:1017800036689643154F3E603E1D366896433F1DB2
:101790003E603E1D366896433F1D3E603E1D3668E6
:1017A00096433F1D3E60491C1029FFF460AFF0BD19
:1017B00008380140000002400004024000080240D6
:1017C000000C0240001002400014024000180240C9
:1017D000001C02400020024000240240003C014066
:1017E000F8B502460B460025002400200021E6E063
:1017F000012606FA01F51E6806EA0504AC4273D11B
:101800005E68022E02D05E68122E13D1CF0802F15C
:10181000200656F827004E07F70E0F26BE40B043AD
:101820004F07FF0E1E69BE403043CF0802F120066D
:1018300046F8270010684F000326BE40B0431E79CB
:1018400006F003064F00BE40304310605E68012E74
:1018500008D05E68022E05D05E68112E02D05E6848
:10186000122E13D190684F000326BE40B0434F00A4
:10187000DE68BE4030439060506801268E40B04321
:101880001E79C6F300168E4030435060D0684F007A
:101890000326BE40B0434F009E68BE403043D06038
:1018A0005E6806F08056B6F1805FA8D100BF0026C2
:1018B0000096454E366846F48046434F3E603E46AD
:1018C000366806F48046009600BF00BF3F4E8F0882
:1018D00056F827008E07370F0F26BE40B0433C4E08
:1018E000B24202D100262EE068E03A4EB24201D167
:1018F000012628E0384EB24201D1022623E0374EBD
:10190000B24201D103261EE0354EB24201D1042677
:1019100019E0344EB24201D1052614E0324EB242F3
:1019200001D106260FE0314EB24201D107260AE06E
:101930002F4EB24201D1082605E02E4EB24201D10F
:10194000092600E00A268F073F0FBE4030431F4E96
:101950008F0846F82700284E3068A0435E6806F4DA
:101960008036B6F5803F00D12043234E3060361DCF
:101970003068A0435E6806F40036B6F5003F00D13B
:1019800020431D4E361D3060361D3068A0435E6812
:1019900006F48016B6F5801F00D12043164E083697
:1019A0003060361D3068A0435E6806F40016B6F558
:1019B000001F00D12043104E0C363060491C102906
:1019C000FFF416AFF8BD000044380240083801406B
:1019D000000002400004024000080240000C0240E7
:1019E000001002400014024000180240001C024097
:1019F0000020024000240240003C01400AB1816105
:101A000001E00B04836170470148006870470000E3
:101A1000040000200348006803490978084401498C
:101A200008607047040000200C00002010B50D482D
:101A3000006840F400700B4908600846006840F4F4
:101A4000806008600846006840F4807008600320E9
:101A500000F07CF80F2000F007F800F02BF80020D1
:101A600010BD0000003C024070B504460E480078EE
:101A70004FF47A71B1FBF0F00C490968B1FBF0F555
:101A8000284600F01FFC08B1012070BD102C07D2C1
:101A900000222146501E00F01BF80548046001E0BA
:101AA0000120F2E70020F0E70C00002000000020F9
:101AB00008000020704700BF00F01F020121914084
:101AC0004209920002F1E022C2F8001100BF704703
:101AD0002DE9F05F80460D461646002700F068FDB0
:101AE000074639462A46334601F00700C0F1070A87
:101AF000BAF1040F02D94FF0040A01E0C0F1070A5D
:101B0000D14600F1040ABAF1070F02D24FF0000AE1
:101B100001E0A0F1030AD4464FF0010A0AFA09FADB
:101B2000AAF1010A0AEA020A0AFA0CFA4FF0010BBA
:101B30000BFA0CFBABF1010B0BEA030B4AEA0B04AB
:101B40002146404600F03CFDBDE8F09F00BF00F09C
:101B50000702064B19684FF6FF031940044B0B436D
:101B600043EA0221014B196000BF70470CED00E011
:101B70000000FA0538B5002400BF002000901D4881
:101B8000006840F080501B4908600846006800F07B
:101B90008050009000BF00BF012017490864FFF784
:101BA00033FF044607E0FFF72FFF001BB0F57A7FF5
:101BB00001D9032038BD1148406800F48030B0F5E9
:101BC000803FF0D101200C494864FFF71DFF044617
:101BD00007E0FFF719FF001BB0F57A7F01D903205A
:101BE000E8E70648406800F40030B0F5003FF0D167
:101BF0000020DFE74038024000000E420070004045
:101C000070B504460D460CB9012070BD58480068F7
:101C100000F00F00A84209D255490D70084600682F
:101C200000F00F00A84201D00120EEE7207800F07C
:101C3000020002281DD1207800F00400042805D1FC
:101C40004C48006840F4E0504A490860207800F0B1
:101C50000800082805D14748006840F4604045491D
:101C600008604448006820F0F000A168084341493A
:101C70000860207800F00100A8B36068012807D14F
:101C80003C4808380068C0F34040B8B90120BCE7C0
:101C90006068022802D06068032807D135480838F8
:101CA0000068C0F3406048B90120AEE73148083809
:101CB0000068C0F3400008B90120A6E72D4800687D
:101CC00020F00300616808432A490860FFF79CFE82
:101CD000064609E0FFF798FE801B41F288318842F2
:101CE00002D9032091E707E02248006800F00C00C9
:101CF0006168B0EB810FEDD11D48006800F00F0066
:101D0000A84209D91A490D700846006800F00F0072
:101D1000A84201D0012078E7207800F004000428D0
:101D200007D11448006820F4E050E16808431149E5
:101D30000860207800F00800082808D10D480068E5
:101D400020F46040216940EAC1000A49086000F0BF
:101D50003DF808490968C1F30311074A515CC840BE
:101D6000064908600F20FFF77FFE00204DE70000C6
:101D7000003C024008380240241C010800000020FA
:101D800001480068704700000000002000B5FFF720
:101D9000F7FF04490968C1F38221034A515CC84036
:101DA00000BD000008380240341C010800B5FFF7F0
:101DB000E7FF04490968C1F34231034A515CC84056
:101DC00000BD000008380240341C01082DE9F0472E
:101DD000002400250026A1462548006800F00C00DC
:101DE00020B1042805D008283AD105E0DFF8849016
:101DF00039E0DFF8849036E01D48001F006800F0ED
:101E00003F041B48001F006800F4800078B11A48A6
:101E10001749091F0968C1F38811A0FB0170014629
:101E2000224600233846FEF741FA05460EE01148E7
:101E30000F49091F0968C1F38811A0FB0170014611
:101E4000224600233846FEF731FA05460848001FAF
:101E50000068C0F30140401C4600B5FBF6F902E003
:101E6000DFF8109000BF00BF4846BDE8F0870000D3
:101E7000083802400024F40040787D01F8B504469B
:101E80000CB90120F8BD207800F00100002874D0C2
:101E9000F948006800F00C0004280DD0F6480068EE
:101EA00000F00C00082813D1F348001F006800F46C
:101EB0008000B0F5800F0BD1EF4808380068C0F300
:101EC0004040002859D06068002856D10120D9E749
:101ED00000BF6068B0F5803F08D1E7480838006867
:101EE00040F48030E449083908601EE06068B0F5CD
:101EF000A02F0DD1E0480838006840F48020DE496A
:101F0000083908600846006840F4803008600CE03A
:101F1000D9480838006820F48030D749083908606B
:101F20000846006820F48020086000BF606890B117
:101F3000FFF76AFD054606E0FFF766FD401B6428D3
:101F400001D903209EE7CC4808380068C0F3404020
:101F50000028F1D011E0FFF757FD054606E0FFF736
:101F600053FD401B642801D903208BE7C248083881
:101F70000068C0F340400028F1D1207800F0020052
:101F800002285FD1BC48006800F00C0058B1BA4884
:101F9000006800F00C0008281CD1B748001F00683A
:101FA00000F48000B0B9B44808380068C0F34000BD
:101FB00020B1E068012801D0012063E7AE4808386D
:101FC000006820F0F800216940EAC100AA490839F8
:101FD000086037E0E06800B30120A8490860FFF717
:101FE00013FD054606E0FFF70FFD401B022801D94F
:101FF000032047E7A04808380068C0F340000028E5
:10200000F1D09D480838006820F0F800216940EAC6
:10201000C10099490839086014E000209749086018
:10202000FFF7F2FC054606E0FFF7EEFC401B022836
:1020300001D9032026E7904808380068C0F3400023
:102040000028F1D1207800F0080008282CD1606920
:10205000A8B101208A490860FFF7D6FC054606E0D2
:10206000FFF7D2FC401B022801D903200AE782486F
:102070006C300068C0F340000028F1D014E000206C
:102080007F490860FFF7C0FC054606E0FFF7BCFC8F
:10209000401B022801D90320F4E677486C30006821
:1020A000C0F340000028F1D1207800F0040004289B
:1020B00070D1002670483830006800F0805090B928
:1020C00000BF002000906C483830006840F080501D
:1020D0006949383108600846006800F08050009077
:1020E00000BF00BF01266748006800F48070B0B9E7
:1020F0006448006840F4807062490860FFF784FC1F
:10210000054606E0FFF780FC401B022801D90320AA
:10211000B8E65C48006800F480700028F2D000BF88
:10212000A068012808D154486830006840F00100D8
:102130005149683108601DE0A06805280DD14E485E
:102140006830006840F004004B4968310860084678
:10215000006840F0010008600CE047486830006803
:1021600020F001004449683108600846006820F00A
:102170000400086000BFA068A8B1FFF745FC054651
:1021800009E0FFF741FC401B41F28831884202D947
:10219000032077E626E0384868300068C0F3400046
:1021A0000028EED013E0FFF72FFC054608E0FFF70C
:1021B0002BFC401B41F28831884201D9032061E6A3
:1021C0002D4868300068C0F340000028EFD1012E90
:1021D00007D129483830006820F08050264938312E
:1021E000086000BFA069B8B32348006800F00C0085
:1021F00008285ED0A069022846D100201F49086641
:10220000FFF702FC054606E0FFF7FEFB401B022835
:1022100001D9032036E6184808380068C0F340604A
:102220000028F1D1D4E907010843616A40EA81112D
:102230000122A06AC2EB500041EA00412C20005D5F
:1022400041EA00600C49091F086001200B4908663B
:10225000FFF7DAFB054607E02DE0FFF7D5FB401B53
:10226000022801D903200DE6034808380068C0F3AE
:1022700040600028F1D01EE00838024000004742CC
:10228000800E47420070004000200C490866FFF7AE
:10229000BBFB054606E0FFF7B7FB401B022801D950
:1022A0000320EFE506480068C0F340600028F2D143
:1022B00001E00120E6E50020E4E5000000004742DF
:1022C0000038024070B504462546681EB0F1807F94
:1022D00001D301200FE0681E4FF0E02148610F217B
:1022E0004FF0FF3000F06CF900204FF0E0218861E2
:1022F00007200861002070BD10B504460CB901200C
:1023000010BDA06900B100E000BF94F8390028B901
:10231000002084F83800204600F028F8242084F8B3
:1023200039002068C06820F400502168C860204649
:1023300000F072FA2068006920F49040216808617A
:102340002068406920F02A00216848612068C06840
:1023500040F400502168C8600020E063202084F829
:10236000390084F83A000020CAE7000010B586B0B2
:10237000044600BF002000902748006840F010008D
:10238000254908600846006800F01000009000BF72
:1023900000BF00BF002000901F481438006840F0C4
:1023A00001001D49143908600846006800F001006A
:1023B000009000BF00BF00BF0020009008460068EA
:1023C00040F0010008600846006800F0010000903D
:1023D00000BF00BF48150190022002900120039029
:1023E000032004900720059001A90C48FFF7F8F995
:1023F0004FF4806001900720059001A90748FFF77E
:10240000EFF9012200212520FFF762FB2520FFF7CD
:1024100052FB06B010BD00004438024000000240EC
:102420002DE9F84304460D4616461F464FF00009B5
:1024300094F8390020285CD105B116B90120BDE817
:10244000F88300BF94F83800012801D10220F6E794
:10245000012084F8380000BF0020E063212084F8C8
:102460003900FFF7D1FA8146A684E6842BE0E08CA0
:10247000401EE084A068B0F5805F16D14B46002274
:1024800080212046009700F07BFB08B10320D6E7AF
:10249000A846B8F80000C0F3080021684860206929
:1024A00008B9AD1C0FE06D1C0DE04B4600228021E9
:1024B0002046009700F064FB08B10320BFE715F841
:1024C000010B21684860E08C0028D0D14B460022E7
:1024D00040212046009700F053FB08B10320AEE7EF
:1024E000202084F8390000BF002084F8380000BFA5
:1024F000A5E70220A3E7000000B587B000BF0020D9
:1025000001902748006840F080002549086008468F
:10251000006800F08000019000BF00BF00BF0020F5
:1025200001900846006840F0800008600846006896
:1025300000F08000019000BF00BF00BF00200190AC
:102540000846006840F0800008600846006800F017
:102550008000019000BF00BF081502900120039089
:1025600004900320059002A90E48FFF739F94FF4B3
:102570000060029002A90B48FFF732F94FF4805037
:10258000029002A90748FFF72BF94FF48060054934
:1025900018310860400008604000086007B000BDC6
:1025A00030380240001C024000BFFEE770470000C8
:1025B00002480068C0F30220704700000CED00E004
:1025C00010B5002807DA0A07140E054A00F00F03B9
:1025D0001B1FD45403E00A07130E024A135410BD04
:1025E00018ED00E000E400E010B500BF5021EFF36B
:1025F000118081F31188BFF34F8FBFF36F8F00BF3E
:102600000446FFF707FA0FF0E9F8012801D00EF0B1
:1026100039FD00BF84F3118800BF10BD00B593B031
:1026200000BF002001902548006840F080502349F9
:1026300008600846006800F08050019000BF00BFAD
:1026400000BF002001901E48006840F440401C4933
:1026500008600846006800F44040019000BF00BFD9
:102660000120029000040390022008904105099186
:1026700019210A914FF4B4710B9102210C91072199
:102680000D9102A8FFF7FAFB08B100BFFEE7FFF7C4
:1026900071FA0F200E9002200F90002010904FF43E
:1026A000A05011904FF48050129005210EA8FFF712
:1026B000A7FA08B100BFFEE713B000BD40380240E2
:1026C000007000401448006840F47000124908602F
:1026D0001248006840F001001049086000200F49CE
:1026E000083108600D4800680D4908400B49086032
:1026F0000C48091D0860081F006820F48020091F8D
:102700000860002005490C3108604FF00060024964
:10271000803908607047000088ED00E00038024012
:10272000FFFFF6FE103000240EB5002108460DF024
:10273000ABFB1B481B4908601B481C4908601C4830
:102740001C4908601C481D4900221A4BCDE9002194
:102750000290164A13491A4806F07CF9184806F008
:1027600053FB174890F82D00C0F3800018B11448AF
:1027700006F082FB02E0124806F04CFB104840686D
:10278000000E00900E484068C0F307430C48808854
:10279000C0F307220A4801790AA000F029FA0EBD09
:1027A0000AC2020E14010020FFFF80001801002061
:1027B0000AC27FFE1C010020ADFF0008E5450008AD
:1027C0008C9F0120B1BEB5D84950B5D8D6B7CAC77D
:1027D0003A25642E25642E25642E25640A0A0000FD
:1027E00009E00548006880F48060034908604FF400
:1027F0007A700EF073F9F4E7141C024009E0054802
:10280000006880F40060034908604FF4FA600EF03D
:1028100065F9F4E7141C02402DE9F0410446002557
:102820002068056925F44055E06805432068056186
:102830002068C56849F20C6085432169A068084397
:1028400061690843E169084305432068C560206861
:10285000456925F44075A069054320684561E06934
:10286000B0F5004F7ED1C4492068884203D0C349E7
:10287000206888425DD1FFF799FA00EBC00101EBB7
:10288000001061684900B0FBF1F06421B0FBF1F089
:102890000601FFF78BFA00EBC00101EB0010616845
:1028A0004900B0FBF1F7FFF781FA00EBC00101EB43
:1028B000001061684900B0FBF1F06421B0FBF1F059
:1028C00000EBC00101EB0010A7EB8000322101EB0F
:1028D000C0006421B0FBF1F000F0F80006EB400608
:1028E000FFF764FA00EBC00101EB001061684900DA
:1028F000B0FBF1F7FFF75AFA00EBC00101EB001053
:1029000061684900B0FBF1F06421B0FBF1F000EB2D
:10291000C00101EB0010A7EB8000322101EBC000E9
:102920006421B0FBF1F000F00700304421688860BA
:1029300020E1FFF72BFA00EBC00101EB001061680A
:102940004900B0FBF1F06421B0FBF1F00601FFF7A4
:102950001DFA00EBC00101EB001061684900B0FBFB
:10296000F1F700E045E0FFF711FA00EBC00101EBE1
:10297000001061684900B0FBF1F06421B0FBF1F098
:1029800000EBC00101EB0010A7EB8000322101EB4E
:10299000C0006421B0FBF1F000F0F80006EB400647
:1029A000FFF7F4F900EBC00101EB0010616849008A
:1029B000B0FBF1F7FFF7EAF900EBC00101EB001003
:1029C00061684900B0FBF1F06421B0FBF1F000EB6D
:1029D000C00101EB0010A7EB8000322101EBC00029
:1029E0006421B0FBF1F000F00700304421688860FA
:1029F000C0E061492068884203D06049206888426D
:102A00005CD1FFF7D3F900EBC00101EB0010616866
:102A10008900B0FBF1F6FFF7C9F900EBC00101EB4B
:102A2000001061688900B0FBF1F06421B0FBF1F0A7
:102A300000EBC00101EB0010A6EB8000322101EB9E
:102A400000106421B0FBF1F000F0F006FFF7AEF9E2
:102A500000EBC00101EB001061688900B0FBF1F0F0
:102A60006421B0FBF1F006EB0016FFF79FF900EBD5
:102A7000C00101EB001061688900B0FBF1F7FFF7BE
:102A800095F900EBC00101EB001061688900B0FB13
:102A9000F1F06421B0FBF1F000EBC00101EB00109C
:102AA000A7EB8000322101EB00106421B0FBF1F0B4
:102AB00000F00F003044216888605BE0FFF766F9A2
:102AC00000EBC00101EB001061688900B0FBF1F67A
:102AD000FFF75CF900EBC00101EB001061688900B1
:102AE000B0FBF1F06421B0FBF1F000EBC00101EBB1
:102AF0000010A6EB8000322101EB00106421B0FB36
:102B0000F1F000F0F006FFF741F900EBC00101EB36
:102B1000001061688900B0FBF1F06421B0FBF1F0B6
:102B200006EB0016FFF732F900EBC00101EB0010D5
:102B300061688900B0FBF1F7FFF728F900EBC001ED
:102B400001EB001061688900B0FBF1F06421B0FB7B
:102B5000F1F000EBC00101EB0010A7EB8000322187
:102B600001EB00106421B0FBF1F000F00F003044E5
:102B700021688860BDE8F081001001400014014028
:102B80002DE9F04104460D4617469846069E21E081
:102B9000701CF8B12EB1FEF737FFA0EB0800B04271
:102BA00018D92068C06820F4D0702168C8602068F7
:102BB000406920F0010021684861202084F8390034
:102BC00084F83A0000BF002084F8380000BF0320DA
:102BD000BDE8F081206800682840A84201D10120AA
:102BE00000E00020B842D3D00020F1E700BFFEE7AC
:102BF0000FB4054B10B503A9044A029800F02CF855
:102C000010BC5DF814FB0000D9490008A8010020A1
:102C10000FB4084B10B504A902AA039800F01CF8E1
:102C2000044602A9002000F042FA204610BC5DF8DC
:102C300014FB0000AF30000802E008C8121F08C1F2
:102C4000002AFAD170477047002001E001C1121F2D
:102C5000002AFBD1704700002DE9FF4F8DB00F46D1
:102C60000546002606E025280BD0DDE90F12904727
:102C70006D1C761C28780028F5D111B03046BDE8CF
:102C8000F08F0024A246A1460122E94900E0044356
:102C900015F8013F203B02FA03F00842F7D12878EB
:102CA0002A2810D06FF02F022878A0F130010929CE
:102CB00014D80AEB8A0102EB410144F0020400EB54
:102CC000010A6D1CF0E701CF5FEA000A03D544F466
:102CD0000054CAF1000A44F002046D1C28782E2822
:102CE00017D115F8010F44F004042A280ED06FF014
:102CF0002F022878A0F1300109290AD809EB8901AF
:102D000002EB410100EB01096D1CF2E757F8049B4F
:102D10006D1C28786C280FD006DC4C2817D068284A
:102D20000DD06A2814D104E0742810D07A280FD16D
:102D30000DE044F400140AE044F4801401E044F48B
:102D400040146978814202D104F580146D1C6D1C19
:102D500028786E281ED00CDC632830D004DC0028D4
:102D60008BD0582811D19FE0642867D069280CD1F6
:102D700064E073282DD004DC6F2872D0702804D151
:102D800094E075286ED078286DD0DDE90F12904759
:102D9000761C4BE1C4F30250022806D0032809D068
:102DA000042801CF09D0066040E101CFF117C0E946
:102DB00000613BE101CF068038E1067036E117F88B
:102DC000040B8DF8000000208DF80100EB46012077
:102DD00003E057F804BB4FF0FF3061074FF00001EC
:102DE00002D40DE008F10101884649450FDA80451B
:102DF000F8DB1BF808100029F4D108E008F1010104
:102E000088468142FADB1BF808100029F6D1DDE97B
:102E10000F23AAEB08008146214600F031F9304427
:102E200000EB080604E0DDE90F121BF8010B9047E8
:102E3000B8F10108F7D221464846F2E00A21C4F36E
:102E400002524FF0000B0891022A04D001CFC117A3
:102E5000032A09D00AE0FF1D27F00707F7E802015F
:102E600008E02CE01EE01FE000B2C117042A01D1E7
:102E700040B2C117021E71F1000206DA0023D0EB46
:102E8000030063EB01012D2202E0220504D52B2271
:102E90008DF82420012203E0E20701D02022F7E789
:102EA000904653E00A210BE0102109E010214FF079
:102EB000000B44F004044FF00809089103E00821D6
:102EC0004FF0000B0891C4F30252022A04D001CF44
:102ED0000021032A06D006E0FF1D27F00707F7E8C8
:102EE000020103E080B2042A00D1C0B24FF0000812
:102EF00022072BD52A78702A07D0DDF820C08CF065
:102F0000100C5CEA0B0C05D00EE040228DF824205A
:102F1000012208E050EA010306D030238DF8243066
:102F20008DF8252002229046089B83F0080353EA7F
:102F30000B030BD150EA010201D1620706D5302202
:102F40008DF824204FF00108A9F101092A78582AA8
:102F500004D038A20B9208AA0A920BE03AA2F9E731
:102F60005B46089AFDF7A2F90B9B9B5C0A9A521EDE
:102F70000A92137050EA0102F2D10A98ADEB0000F8
:102F800000F1200B600702D524F4803401E04FF0FB
:102F90000109D94502DDA9EB0B0000E0002000EBA0
:102FA0000B0141440890AAEB010AE00306D4DDE9D5
:102FB0000F232146504600F063F806444FF0000905
:102FC00008E009A911F80900DDE90F12904709F19D
:102FD0000109761CC145F4DBE0030CD5DDE90F23C4
:102FE0002146504600F04CF8064404E0DDE90F129B
:102FF00030209047761C0899481E08900029F5DC7F
:1030000008E00A980A990078491C0A91DDE90F1234
:103010009047761CBBF10001ABF1010BF1DC2146BE
:103020005046DDE90F2300F019F806446D1C21E637
:10303000092801003031323334353637383961628E
:103040006364656600000000303132333435363752
:103050003839414243444546000000002DE9F04123
:10306000044600251E461746880404D405E0394668
:103070002020B0476D1C641EF9D52846BDE8F081BC
:103080002DE9F041044600251E469046C80301D5AF
:10309000302700E02027880404D505E04146384663
:1030A000B0476D1C641EF9D52846BDE8F0810A685A
:1030B000531C0B60107070472DE9F04706460F4611
:1030C000904634461CB96FF00500BDE8F08704F166
:1030D000140007F058FC10B96FF00500F5E7A7B928
:1030E0006FF00C0004F0F8F98146494604F1140031
:1030F00007F03AFC30B9606B20B10022114620463F
:10310000636B98476FF00500DFE700BFB8F1000F71
:1031100004D000BF2CA0FFF76BFD00BF00BF2078DC
:10312000616B04F03FFF0546A5B96FF00C0004F099
:10313000D3F98146494604F1140007F015FC30B973
:10314000606B20B1002211462046636B98474FF018
:10315000FF30BAE76F60284607F010FB294604F1FC
:10316000140007F001FC30B3D5F804900021484664
:1031700007F016FF002148460BF0C2F80021484630
:103180000BF00AFC0022114648460AF031F90021F2
:10319000484608F0DBFA0020686005F1100007F0EF
:1031A000C7FB05F1100007F0DCFB284605F052F8DC
:1031B0004FF0FF3089E7606B20B1002211462046B6
:1031C000636B9847002080E7657870656374206EB4
:1031D0006577706362203D3D204E554C4C206F72E8
:1031E00020657272203D3D204552525F4F4B0000DA
:1031F0002DE9F04303460D46DFF804C1DCF800403A
:103200000020DFF800C1DCF800600027DFF8F8C01C
:103210009CF800C0BCF1000F2ED0DFF8F0C09CF885
:1032200000C0BCF1000F27D1DFF8E4C0DCF8189033
:103230008446401C43F82C90DFF8D4C0DCF814C05E
:10324000ACF10401DFF8CCC0DCF800C0614513D359
:10325000DFF8C0C0DCF800C0DFF8BC80D8F8008020
:10326000C4448C4508D3102806D2A84204D2844610
:10327000401C43F82C100127DFF890C09CF800C0D8
:10328000BCF1000F08D0A24201D2224604E004EBB8
:10329000060C944500D2A2192CE0D2F800C0ACF183
:1032A000040101F0010CBCF1000F00D121E0DFF8B6
:1032B00064C0DCF800C061451AD3DFF858C0DCF800
:1032C00000C0DFF85480D8F80080C4448C450FD388
:1032D00010280DD2A8420BD2022805D127B1D3F86D
:1032E00004C08C4500D104E08446401C43F82C10F7
:1032F00000BF121D04EB060C9445CED8BDE8F08348
:103300008C010020900100209D0100209E010020E2
:10331000E833022094010020980100202DE9F043B9
:103320008DB081460E4635462C462022634905A8BD
:10333000FDF700F8624807686248D0F800806248EC
:10334000007848B9614A62A163A0FFF751FC6AA006
:10335000FFF74EFC00BFFEE76848007848B15B4AC3
:1033600067A15DA0FFF744FC63A0FFF741FC00BF2D
:10337000FEE701206149087064A0FFF739FC5EA0F8
:10338000FFF736FC00F002F96149886AFFF730FC6C
:1033900059A0FFF72DFC20352946484607F010FAC2
:1033A0000546BD4203D307EB0800A84202D2012024
:1033B000584908702A464146384600F05BF955489E
:1033C000007800284BD15249C86AFFF711FC4AA087
:1033D000FFF70EFC50492068086060684860A068EC
:1033E0008860E068C8602069086160694861A06918
:1033F0008861E069C8610846C068474A08999268D0
:10340000079BCDE90132CDE90310434840680090A5
:103410004148069B026841A00599FFF7E9FB36A0E9
:10342000FFF7E6FB3C48C0693B4A0C9992690B9B4D
:10343000CDE90132CDE903103748406900903648A4
:103440000A9B026935A00999FFF7D2FB2AA0FFF772
:10345000CFFB3DA0FFF7CCFB27A0FFF7C9FB4A48F5
:1034600000682D4908624848001D007881F8240052
:1034700045481030006888624348401D007881F854
:103480002C0041481430006808633F48801D0088C4
:1034900088863D480830006888633B480C300088C7
:1034A000C863394818300088086401F011F92846CB
:1034B00006F08CFB0DB0BDE8F083000098210108F8
:1034C0008C010020900100209C0100208421010833
:1034D000696E69745F6F6B002825732920686173BA
:1034E00020617373657274206661696C6564206124
:1034F000742025732E0000000D0A00009D0100209D
:10350000216F6E5F6661756C740000000000000042
:10351000DC2001089E010020E833022020202573D2
:103520003A2025303878202025733A202530387805
:10353000202025733A2025303878202025733A2022
:1035400025303878000000003D3D3D3D3D3D3D3D8E
:103550003D3D3D3D3D3D3D3D3D3D3D3D3D3D3D3D9B
:103560003D3D3D3D3D3D3D3D3D3D3D3D3D3D3D3D8B
:103570003D3D3D3D3D3D3D3D3D3D3D3D3D3D3D3D7B
:103580003D3D3D3D3D3D000024ED00E010B50549C9
:10359000054B064A08680649FFF72AFB05A0FFF716
:1035A00027FB10BDDC20010838330220183302202D
:1035B000F83202200D0A00002DE9F04104460D46C4
:1035C00000BF05F0030020B100BF09A0FFF710FB0A
:1035D00000BF00BF2E4607F03CF90746A068006810
:1035E0003060A0680660384607F05CF9BDE8F081FD
:1035F0006D656D705F667265653A206D656D2070F2
:10360000726F7065726C7920616C69676E656400B9
:1036100070B5054607F01DF90646A86804688CB128
:103620002068A968086000BF04F0030020B100BF53
:1036300007A0FFF7DDFA00BF00BF304607F032F900
:10364000204670BD304607F02DF90020F9E7000054
:103650006D656D705F6D616C6C6F633A206D656D4B
:10366000702070726F7065726C7920616C69676E22
:103670006564000070B505460E4614461C48007887
:10368000D8B11C48007840B11B4948692146FFF772
:10369000AFFA1AA0FFF7ACFA07E01749886921468C
:1036A000FFF7A6FA15A0FFF7A3FAAC4201D22C4609
:1036B00003E0A819A04200D2AC190F49C868FFF76F
:1036C00097FA0EA0FFF794FA08E021460CA02268B2
:1036D000FFF78EFA09A0FFF78BFA241DA819A04264
:1036E000F3D80EA0FFF784FA04A0FFF781FA70BDAB
:1036F0009E010020A0010020DC2001080D0A00002E
:103700002020616464723A202530387820202020FF
:10371000646174613A202530387800003D3D3D3DBC
:103720003D3D3D3D3D3D3D3D3D3D3D3D3D3D3D3DC9
:103730003D3D3D3D3D3D3D3D3D3D3D3D3D3D3D3DB9
:10374000000000002DE9F05F07460E463C4600BF32
:1037500024B900BF46A0FFF74BFA00BF00BF07F037
:1037600078F8834600206060267294F82E0040F0BE
:10377000010084F82E00657800206070584607F03C
:1037800091F8606B20B1002204212046636B9847BA
:10379000606B20B1002211462046636B9847606B36
:1037A00020B1002202212046636B9847304603F087
:1037B00093FE824604F1100007F0E5F820B151466F
:1037C00004F1100007F0D0F804F1140007F0DBF862
:1037D00020B1514604F1140007F0C6F8012D03D0C2
:1037E000042D01D0032D37D194F82E00C0F38009A9
:1037F00000BF00BF94F82E0000F0FB0084F82E00FC
:1038000000BF00BFB9F1000F25D100BF206B20B968
:1038100000BF1BA0FFF7ECF900BF00BF042D03D1D0
:103820000020216B087101E0206B0671206B00689D
:1038300000F10C0800BF404607F040F920B900BF76
:1038400016A0FFF7D5F900BF00BF00202063404657
:1038500007F016F900BF08E000BF206B20B100BFE1
:1038600015A0FFF7C5F900BF00BFBDE8F09F00003D
:10387000636F6E6E20213D204E554C4C00000000C1
:10388000636F6E6E2D3E63757272656E745F6D73DD
:103890006720213D204E554C4C000000696E61763A
:1038A0006C6964206F705F636F6D706C65746564C4
:1038B0005F73656D00000000636F6E6E2D3E637573
:1038C0007272656E745F6D7367203D3D204E554C7E
:1038D0004C00000070B50546002411E004EB4400E4
:1038E000094901EBC000067D4EB104EB440001EB39
:1038F000C0008068A84202D1204600F043F9641C51
:103900000A2CEBDB70BD0000746300202DE9FF5F23
:103910000646894617464FF00A0AD346D046002489
:103920000A200390002002900190009000BF6FE0F9
:1039300004EB44006C4901EBC000057DB8F10A0FAF
:1039400002D10DB9A04661E0002D5FD000BF012D6E
:1039500006D0022D04DA00BF64A0FFF749F900BFCA
:1039600000BFAEB104EB44015F4A02EBC101306815
:10397000496888420CD13FB104EB4400114601EB89
:10398000C0008068B84203D1204604B0BDE8F09F73
:10399000012D28D104EB4400534951F8300080B187
:1039A00004EB440001EBC000418A029881422DDB08
:1039B000039404EB44004C4901EBC000408A0290A0
:1039C00024E004EB4400484901EBC000418A01981F
:1039D00081421BDBA24604EB4400434901EBC000DB
:1039E000408A019012E0022D10DB04EB44003E49B6
:1039F00001EBC000418A0098814207DBA34604EB3B
:103A00004400394901EBC000408A0090601C04B2B8
:103A10000A2C8DDB09F0020028B9B8F10A0F05D194
:103A200009F0010010B94FF0FF30AEE7B8F10A0F0E
:103A300001DA444629E0BBF10A0F0DDA5C4600BF0B
:103A400004EB4400284951F8300020B100BF37A0F2
:103A5000FFF7CEF800BF0CE0BAF10A0F01DA5446C6
:103A600007E003980A2801DA039C02E04FF0FF30D8
:103A70008BE700BF0A2C04DB00BF32A0FFF7B8F8C9
:103A800000BF00BF204600F07DF800BF0A2C04DB19
:103A900000BF2CA0FFF7ACF800BF00BF00BF04EBD5
:103AA0004400114901EBC000007D20B100BF2AA0F5
:103AB000FFF79EF800BF00BF36B104EB44010A4A8D
:103AC00002EBC10130684860002004EB4401064A63
:103AD00002EBC101488204EB4400114601EBC00037
:103AE0008760204651E7000074630020737461749E
:103AF00065203D3D204554484152505F5354415448
:103B0000455F50454E44494E47207C7C207374618C
:103B10007465203E3D204554484152505F53544106
:103B200054455F535441424C450000006172705F40
:103B30007461626C655B695D2E71203D3D204E5560
:103B40004C4C000069203C204152505F5441424C93
:103B5000455F53495A4500006172705F7461626C41
:103B6000655B695D2E7374617465203D3D2045542D
:103B7000484152505F53544154455F454D5054594C
:103B80000000000010B5044604EB44000C4951F855
:103B9000300060B104EB4401094A52F8310005F0ED
:103BA00029FD002004EB4401054A42F831000020C1
:103BB00004EB4401024A02EBC101087510BD00008C
:103BC00074630020F0B587B007460D4600BF35B9D5
:103BD00000BF2CA0FFF70CF800BF07B0F0BD00BF7E
:103BE0007C682088B0F5807F08D12079062805D12F
:103BF0006079042802D16088082803D0384605F08F
:103C0000F9FCEAE7D4F80E000690A0690590686810
:103C100008B9002607E005986968884201D10120AB
:103C200000E0002006460EB1012000E0022003461D
:103C300004F1080206A9284600F0AAFBE088B0F5C6
:103C4000807F03D0B0F5007F15D113E086B102224A
:103C500006AB04F10800291DCDE90232CDE90010C0
:103C600005F1260302462231284600F079FA00E0E9
:103C700000BF01E000E000BF00BF384605F0BAFC1D
:103C800000BFAAE76E6574696620213D204E554C41
:103C90004C0000002DE9FE4304460F461546A94698
:103CA00000BF24B900BF57A0FEF7A2FF00BF00BFAE
:103CB00000BF27B900BF57A0FEF79AFF00BF00BFA3
:103CC00000BF25B900BF56A0FEF792FF00BF00BF9E
:103CD0002146286801F059FB10B1DFF8548186E0D5
:103CE000287800F0F000E02816D101208DF80400BB
:103CF00000208DF805005E208DF80600687800F041
:103D00007F008DF80700A8788DF80800E8788DF816
:103D100009000DF1040869E02868A1680840D4E9A9
:103D20000112114088420ED0288880B24FF6A96156
:103D3000884208D0E06810B104F10C0903E06FF08C
:103D40000300BDE8FE833B48007800EB40003A49A1
:103D500001EBC000007D02281BDB3648007800EB39
:103D6000400001EBC0008068A04212D131490978BF
:103D700001EB4101304A02EBC101D9F8000049686A
:103D8000884206D12B4802783946204600F056F882
:103D9000D7E7002622E006EB4600274901EBC000EA
:103DA000007D022818DB06EB460001EBC0008068AE
:103DB000A04211D106EB46011F4A02EBC101D9F81E
:103DC00000004968884207D11A48067032463946D1
:103DD000204600F033F8B4E7701CC6B20A2EDADBD6
:103DE0003A464946204600F0A9F8AAE700BF4FF43A
:103DF0000060434604F1260239460090204600F058
:103E0000A3FB9EE76E6574696620213D204E554CEC
:103E10004C0000007120213D204E554C4C0000000C
:103E200069706164647220213D204E554C4C000045
:103E3000D02001082C00002074630020F8B505464E
:103E40000E46144600BF04EB44002F4901EBC000AE
:103E5000007D022804DA00BF2CA0FEF7C9FE00BFD7
:103E600000BF04EB4400284901EBC000007D02289C
:103E700039D104EB440001EBC000408AB0F58E7FDD
:103E800011DD04EB44000A4602EBC000011D284688
:103E900000F0EEF938BB032004EB44011A4A02EBB0
:103EA000C10108751FE004EB4400174901EBC00095
:103EB000408AB0F5877F16DB04EB44000B4603EB2A
:103EC000C00000F10C0204EB440003EBC000011D34
:103ED000284600F0D9F930B9032004EB44010A4A1E
:103EE00002EBC10108754FF40060009004EB440040
:103EF000054901EBC00000F10C0305F12602314633
:103F0000284600F021FBF8BD746300206172705FE9
:103F10007461626C655B6172705F6964785D2E7359
:103F200074617465203E3D204554484152505F53B2
:103F3000544154455F535441424C45002DE9FE4FD6
:103F400081460F46164609F1260A4FF0FF300290CF
:103F5000002001904946386801F017FA38B93878DE
:103F600000F0F000E02802D00FB1386818B96FF007
:103F70000F00BDE8FE8F4A4601213846FFF7C6FC18
:103F80008046B8F1000F02DA4FFA88F0F1E700BF7F
:103F9000B8F17F0F04D300BF57A0FEF729FE00BF82
:103FA00000BF08F0FF0404EB4400574901EBC000D8
:103FB000007D70B90120019004EB4401524A02EBEC
:103FC000C101087504EB4400114601EBC000C0F8C4
:103FD000089000BF04EB44004B4901EBC000007D9A
:103FE00001280BD004EB440001EBC000007D022847
:103FF00004DA00BF45A0FEF7FBFD00BF00BF01983B
:1040000000B93EB93946484600F032F902900EB97F
:104010000298AEE700BF26B900BF46A0FEF7E8FD54
:1040200000BF00BF04EB4400374901EBC000007D36
:10403000022811DB424804704FF40060009004EB4A
:10404000440001EBC00000F10C03524631464846E3
:1040500000F07AFA02904CE004EB44002A4901EBAC
:10406000C000007D012844D14FF0000B354614E01C
:1040700000BF68892989884206D1286820B100BF1D
:1040800030A0FEF7B5FD00BF00BF287B00F0400068
:1040900010B14FF0010B02E02D68002DE8D100BFF8
:1040A000BBF1000F07D032464FF420710E2005F00F
:1040B0003FF9054603E03546284605F0D1FBA5B19A
:1040C00004EB4400104951F8300030B104EB4401D6
:1040D0000D4A52F8310005F08DFA04EB44000A490C
:1040E00041F830500020029002E04FF0FF30029083
:1040F00000BF02983DE7000074797065206F766517
:1041000072666C6F77000000746300206172705FEC
:104110007461626C655B695D2E7374617465203DCA
:104120003D2050454E44494E47206F722053544124
:10413000424C45007120213D204E554C4C00000062
:104140002C0000206E6F207061636B6574207175A8
:104150006575657320616C6C6F7765642100000084
:104160002DE9FC5F06460F4690469946DDE90CAB0B
:104170000020019000BF26B900BF2BA0FEF738FD3C
:1041800000BF00BF4FF420721C210E2004F0EEFE91
:1041900005461DB94FF0FF30BDE8FC9F00BF6889A0
:1041A0001C2804DA00BF24A0FEF722FD00BF00BFD8
:1041B0006C680F9802F055FBE08000BF96F82C0069
:1041C000062804D000BF2948FEF712FD00BF00BF3B
:1041D000D9F80000A060B9F80400A081DBF8000065
:1041E000C4F81200BBF80400E082DAF80000C4F85A
:1041F0000E000E980068A0614FF4807020800820A7
:104200006080062020710420607140F6060043465D
:104210003A4629460090304600F096F9284605F0C7
:10422000E9F900250198B7E76E6574696620213DBC
:10423000204E554C4C000000636865636B20746829
:1042400061742066697273742070627566206361A0
:104250006E20686F6C64207374727563742065746B
:10426000686172705F68647200000000B821010824
:1042700070B504460D46034A2946204600F004F86E
:1042800070BD0000D02001087FB504460D461646DB
:104290000121074A201D04F126038DE82500039122
:1042A000324619462046FFF75BFF04B070BD0000A0
:1042B000D620010870B5002464E004EB44003349C3
:1042C00001EBC000057D002D5BD004EB440001EB49
:1042D000C000408A401C04EB44012C4A02EBC1019F
:1042E000488204EB4400114601EBC000408AB0F55F
:1042F000967F0DDA04EB440001EBC000007D01283D
:104300000AD104EB440001EBC000408A052803DB1E
:104310002046FFF737FC34E004EB44001B4901EB77
:10432000C000007D032807D1042004EB4401174A94
:1043300002EBC101087524E004EB4400134901EBD2
:10434000C000007D042807D1022004EB44010F4A7D
:1043500002EBC101087514E004EB44000B4901EBCA
:10436000C000007D01280CD104EB44020B4603EB96
:10437000C202111D04EB440203EBC2029068FFF776
:1043800077FF641C0A2C98DB70BD0000746300206A
:104390002DE9F84305460E461746984600BF95F8A6
:1043A0002C00062804D000BF2CA0FEF721FC00BF83
:1043B00000BF5EB1306848B12946306800F0E5FFC3
:1043C00020B9307800F0F000E02803D16FF00F0042
:1043D000BDE8F8832A4641463046FFF797FA04467F
:1043E000002C01DA60B2F3E7022004EB4401244A16
:1043F00002EBC101087504EB4400114601EBC0005B
:10440000856004EB440001EBC0003968C160B988E5
:104410000182002004EB440102EBC101488204EB5D
:104420004400114651F83000B0B104EB440051F89B
:104430003090002004EB440142F831004FF400605A
:104440003B4605F1260249460090284600F07CF8DC
:10445000484605F0CFF800BF0020B9E76E657469E3
:10446000662D3E6877616464725F6C656E203D3DC9
:10447000204554485F4857414444525F4C454E00E4
:10448000746300202DE9F04104460E464FF00E08FB
:1044900060890E2800DC4FE0E07B18B996F8300008
:1044A000401CE0736568AF89287800F00100B0B166
:1044B0002878012809D1687888B9A8785E280ED1B3
:1044C000607B40F01000607309E006221D49284619
:1044D000FBF762FF18B9607B40F008006073082F9B
:1044E00003D0B7F5C16F22D110E096F82D0000F08F
:1044F000080000B920E04146204605F0D5F900B19A
:104500001AE03146204601F091F811E096F82D00AE
:1045100000F0080000B90FE04146204605F0C4F95C
:1045200000B109E031462046FFF74CFB00E003E014
:1045300000BF0020BDE8F081204605F05BF80020B8
:10454000F8E70000D02001082DE9F04705460E46A7
:1045500017469846DDF82090484602F082F98246D8
:104560000E21304604F0B4FC00B11EE07468A4F8DB
:104570000CA0D8F800002060B8F80400A0803868CB
:10458000C4F80600B888608100BF95F82C000628A2
:1045900004D000BF06A0FEF72BFB00BF00BF3146D2
:1045A0002846AA699047BDE8F0876FF00100FAE756
:1045B0006E657469662D3E6877616464725F6C65D0
:1045C0006E206D757374206265203620666F7220D0
:1045D00065746865726E65745F6F7574707574214B
:1045E0000000000070B50446042003F061F90546A0
:1045F00055B900BF12A0FEF7FBFA14A0FEF7F8FAB7
:1046000000BF4FF0FF3070BD00BF24B900BF17A03E
:10461000FEF7EEFA00BF00BFE561732084F82E00BC
:1046200074212F200155154860611548A06120466E
:1046300001F0E2FE04F1260028600020E3E700001C
:104640000D0A5B4552525D203E3E20006574686550
:10465000726E657469665F696E69743A206F75740D
:10466000206F66206D656D6F72790A006E657469E2
:104670006620213D204E554C4C000000953C000822
:10468000F9660008054600262C461EE000235A1E47
:1046900019460E4800680CF095FD012815D10CF064
:1046A000AFF8204601F06EFF06460CF0EBF866B15D
:1046B0000CF0A6F8214630462269904718B13046E2
:1046C00004F098FF00260CF0DDF8DFE7F80000208A
:1046D00010B5BE4890F83800C0F3400030B1BC4976
:1046E000086BFEF785FABBA0FEF782FAB748806B2D
:1046F000C0F3807000287DD0B44890F824000028D2
:104700005BD0B24890F8240000F0010030B1B0490D
:10471000486BFEF76DFAAFA0FEF76AFAAB4890F867
:104720002400C0F3400030B1A949886BFEF760FA5D
:10473000A8A0FEF75DFAA54890F82400C0F3C000D9
:1047400030B1A349C86BFEF753FAA2A0FEF750FAA6
:104750009E4890F82400C0F3001030B19C49086CCA
:10476000FEF746FA9BA0FEF743FA984890F824001B
:10477000C0F3401030B19649486CFEF739FA95A065
:10478000FEF736FA914890F82400C009A8B18F4886
:1047900090F8240000F0010028B98C4890F824001B
:1047A000C0F3400048B1894A916A894AD2F88C0026
:1047B000FEF71EFA87A0FEF71BFA844890F82C003B
:1047C000002864D0814890F82C0000F0010030B13E
:1047D0007F49886CFEF70CFA7EA0FEF709FA7B4849
:1047E00090F82C00C0F3400040B17949C86CFEF746
:1047F000FFF900E09BE077A0FEF7FAF9734890F824
:104800002C00C0F3800030B17149086DFEF7F0F95B
:1048100070A0FEF7EDF96D4890F82C00C0F3C000D1
:1048200030B16B49486DFEF7E3F96AA0FEF7E0F995
:10483000664890F82C00C0F3001030B16449886DD0
:10484000FEF7D6F963A0FEF7D3F9604890F82C0084
:10485000C0F3401030B15E49C86DFEF7C9F95DA0E4
:10486000FEF7C6F9594890F82C00C00978B15748AE
:1048700090F82C00C0F3400048B1544A116B544AE0
:10488000D2F89000FEF7B4F952A0FEF7B1F94F4804
:10489000808E00284BD04D4890F8340000F0010085
:1048A00030B14B49086EFEF7A3F94AA0FEF7A0F914
:1048B000464890F83400C0F3400030B14449486E97
:1048C000FEF796F943A0FEF793F9404890F83400BC
:1048D000C0F3800030B13E49886EFEF789F93DA0F3
:1048E000FEF786F9394890F83400C0F3C00030B1C3
:1048F0003749C86EFEF77CF936A0FEF779F93348E0
:10490000808EC0F3002030B13149086FFEF770F996
:1049100030A0FEF76DF92D48808EC0F3402030B1F5
:104920002B49486FFEF764F92AA0FEF761F9274882
:10493000806BC00F002847D02448C06B002843D0AC
:10494000224890F83C0000F0010030B12049886F07
:10495000FEF74EF91FA0FEF74BF91C4890F83C00FB
:10496000C0F3400030B11A49C86FFEF741F919A0F1
:10497000FEF73EF9154890F83C00C0F3800038B1CE
:104980001349D1F88000FEF733F912A0FEF730F991
:104990000E4890F83C00C0F3C00038B10C49D1F883
:1049A0008400FEF725F90BA0FEF722F9074890F8DE
:1049B0003C00C0F3001038B10549D1F88800FEF77B
:1049C00017F904A0FEF714F910BD0000E833022027
:1049D000DC2001080D0A000013B50C464FF47A7371
:1049E000012269460248FDF71BFD00981CBD00002E
:1049F000AC01002008B504204302002202490090C7
:104A000002A006F063F808BDA54A00086874747037
:104A10005F7365727665725F6E6574636F6E6E004C
:104A20007FB5044603A9204603F072FD05466DBB21
:104A300001AA02A9039803F0C3F9BDF804000528F0
:104A400024DB02980078472820D102984078452836
:104A50001CD102988078542818D10298C078202858
:104A600014D1029800792F2810D1002003462C225F
:104A70000A490090204603F017FF0020034640F249
:104A8000063207490090204603F00EFF204603F04F
:104A900035FB039803F0F2F97FBD00003C1C0108D0
:104AA000691C0108F8B5064600221146102003F0E3
:104AB0007FFC054650221449284603F0EFFA00BF58
:104AC0002DB900BF11A0FEF793F800BFF8BD00BFDD
:104AD000FF21284603F042FC00BF6946284603F048
:104AE000DDF904462CB90098FFF79AFF009803F00F
:104AF0003BFB002CF1D0284603F000FB284603F0D6
:104B000033FB00BFE2E70000741F01086874747093
:104B10005F7365727665723A696E76616C6964205E
:104B2000636F6E6E0000000070B505460C462246AD
:104B30000321284600F022F970BD00002DE9FF5F37
:104B400005468A46714880680390039800780007FC
:104B5000870E142F00DAD0E06889042800D2CCE058
:104B60006868047814B1082C71D100E0C0E0DFF867
:104B70009C9109F114096548007D00F0F000E028DF
:104B800000D1BEE0614A1168506900F0FEFB00B13F
:104B9000B7E02889082800D2AFE0284600F062FB81
:104BA00020B1284604F026FDBDE8FF9F07F10E0165
:104BB000284604F08DF9002840D0288938441FFA8F
:104BC00080FB2889584500DD9BE04FF42072594650
:104BD0000E2004F0CBF98046B8F1000F00D190E030
:104BE000B8F80A1007F10800814203D2404604F0E9
:104BF00001FD86E03A46D8F804000399FBF79AFBDA
:104C00003946404604F050FE50B100BF00BF40A0FE
:104C1000FDF7EEFF00BF00BF404604F0EBFC70E084
:104C20002946404604F0ACFB18B1404604F0E2FCD3
:104C300067E0284604F0DEFC45460FE007F10E0170
:104C4000284604F031FE48B100BF00BF00E03DE05F
:104C50003DA0FDF7CDFF00BF00BF52E06E683946B2
:104C6000284604F035F980BBD5F80480D9F8000057
:104C7000C8F80C0025480069C8F810000020307002
:104C800070884FF6F771884203DD708809307080B4
:104C900002E0708808307080FF2088F8080000204B
:104CA000A8F80A003946404600F0D2FAA8F80A00EF
:104CB00001200021FF230A46CDE9010A009149465F
:104CC000284600F0C7FD834600BF11E0032C0ED03C
:104CD0000B2C0CD00C2C0AD0042C08D0052C06D0A0
:104CE0000D2C04D00E2C02D0112C00D000BF00BF20
:104CF00000BF284604F07EFC56E7284604F07AFC04
:104D000052E7284604F076FC00BF4DE764640020BB
:104D100069636D705F696E7075743A206D6F766946
:104D20006E6720722D3E7061796C6F616420746FC4
:104D30002069636D702068656164657220666169D1
:104D40006C65640A0000000069636D705F696E70D5
:104D500075743A20726573746F72696E67206F7232
:104D60006967696E616C20702D3E7061796C6F614E
:104D700064206661696C65640A0000002DE9FF47E4
:104D80000746884691464FF420722421222004F0E1
:104D9000EDF805460DB9BDE8FF8700BF68892428F6
:104DA00004D200BF19A0FDF723FF00BF00BFD7F852
:104DB00004A06C6884F8008084F801900020A08032
:104DC000E08079686A6802F108001C22FBF7B2FAF9
:104DD000DAF80C00039003A800F0C4FF064686B181
:104DE000002060806989204600F032FA608001204E
:104DF0000021FF2303AACDE901060091284600F017
:104E000029FD284604F0F6FB00BFC4E7636865632C
:104E10006B207468617420666972737420706275A7
:104E2000662063616E20686F6C642069636D70201A
:104E30006D6573736167650070B505460C46224663
:104E40000B212846FFF79AFF70BD70B504460D464A
:104E5000607A022807D0607A01280AD1608910B1EF
:104E60006089A84205DD2946204600F0ABF9012003
:104E7000607270BD03480449086004480449086032
:104E800070470000E000000130000020E000000258
:104E9000340000202DE9F84307468946904678897A
:104EA000082804DA384604F0A5FBBDE8F8837C68DE
:104EB0007989204600F0CCF918B1384604F09AFB05
:104EC000F3E74146484600F071F805461DB93846FB
:104ED00004F090FBE9E72078112802D016283DD194
:104EE00032E02249D8F800000968884214D1201D18
:104EF00008B1606880B9607808B90A206070D9F894
:104F0000206006B1366804E061783046FFF79DFF07
:104F10003668002EF8D116E0201DA0B1606890B16F
:104F20001249D8F800000968884207D160680090EB
:104F30006946484600F03AF8054600BF1DB1617861
:104F40002846FFF782FF0AE0687A012805D1002091
:104F50006881022068720020287200E000BF00BF54
:104F6000384604F047FB00BF9FE7000030000020F8
:104F7000F0B587B005460E4617461C4640F29440F1
:104F8000ADF818000020ADF81A00042006A902228E
:104F9000CDE90124CDE90310002001233A46314632
:104FA0000090284600F070FC07B0F0BD10B5024636
:104FB0000B46116A06E048681C68A04201D1084609
:104FC00010BD09680029F6D10020F9E72DE9F0416C
:104FD00006460D46376A29463046FFF7E7FF044686
:104FE00014B12046BDE8F0810A2002F0C1FE04465B
:104FF000002C31D00DB9002000E02868606000204E
:1050000060816072207220739FB900BF13492868C5
:105010000968884201D1012000E0002020B900BFCA
:105020000FA0FDF7E5FD00BF00BF00202060346247
:1050300012E000BF094928680968884201D10120AF
:1050400000E0002020B100BF1248FDF7D1FD00BFF5
:1050500000BF386820603C602046C3E73000002075
:1050600069676D705F6C6F6F6B75705F67726F757E
:10507000703A2066697273742067726F7570206D64
:1050800075737420626520616C6C73797374656DDF
:1050900073000000FC21010870B505462C6A04B1BC
:1050A000246804E005212046FFF7CFFE2468002C89
:1050B000F8D170BD2DE9F84380460E46154600270D
:1050C0000024214800680090A1464FF42072082176
:1050D000362003F04BFF0746002F32D07C6800BF1C
:1050E0007889082804D200BF18A0FDF781FD00BF11
:1050F00000BFD8F804000090162D06D106F104096F
:10510000706860600120307205E0172D03D1DFF870
:10511000789070686060162D01D0172D0ED1257023
:105120000020607060800821204600F091F86080C7
:1051300043464A4669463846FFF71AFF384604F0A8
:1051400059FABDE8F8830000741F010869676D70A3
:105150005F73656E643A20636865636B2074686191
:105160007420666972737420706275662063616E64
:1051700020686F6C64207374727563742069676D46
:10518000705F6D73670000003400002070B5054645
:105190000B492846FFF71AFF04466CB102206072E3
:1051A000207B401C2073686B20B1012204492846F3
:1051B0006B6B9847002070BD4FF0FF30FBE700009D
:1051C0003000002070B504460D46022D06DDFBF7C9
:1051D0009FF890FBF5F105FB110000E001206081D4
:1051E000608908B90120608170BD000070B5054676
:1051F0000C46607A01280BD106496068096888422C
:1052000006D002206072162221462846FFF752FF80
:1052100070BD00003000002070B50C48056811E03A
:105220002C6A0CE06089002808DD6089401E6081DE
:10523000608918B921462846FFF7D8FF2468002C5A
:10524000F0D12D68002DEBD170BD00009000002042
:1052500030B504460D462946204602F095F9C04374
:1052600080B230BDF0B5064600270024354619E06F
:105270006989686802F088F90444A0B200EB14441C
:10528000688900EBD0714910A0EB410149B10FB919
:10529000012000E000200746E0B2C4F3072141EA04
:1052A00000242D68002DE3D127B1E0B2C4F307211B
:1052B00041EA0024E04380B2F0BD2DE9F047074603
:1052C000884691461E46DDF820A03568ACB24FF600
:1052D000FF7000EA15400444DAF80050A8B2044414
:1052E0004FF6FF7000EA15400444A0B200EB1444EE
:1052F000A0B200EB144423464A464146384600F02B
:1053000002F8BDE8F0872DE9F04706460F469046C3
:105310001C464FF0000935461BE06989686802F0B9
:1053200033F90444A0B200EB1444688900EBD07157
:105330004910A0EB410159B1B9F1000F01D1012091
:1053400000E000208146E0B2C4F3072141EA0024D6
:105350002D68002DE1D1B9F1000F04D0E0B2C4F303
:10536000072141EA0024384601F07BFA0444404614
:1053700001F077FA0444A0B200EB1444A0B200EBB1
:105380001444E04380B2BDE8F08718B502460092AD
:10539000D04300B10AB9012018BD91F82D0000F0EA
:1053A000020008B90020F7E74868904201D10020C8
:1053B000F2E700988B681840D1E901342340984205
:1053C00008D1886822EA00008C68E343984201D142
:1053D0000120E1E70020DFE72DE9F74F8CB004461C
:1053E00088464FF00009B8F82410A1F11400C11745
:1053F00000EB5171C1F3CF0A142005906068099049
:10540000099E307800F00F001421B1EB800F04D01A
:105410006FF005000FB0BDE8F08F00BF6089142861
:1054200007DA00BF6DA0FDF7E3FB00BF6FF00500DA
:10543000F0E700BFF08801F014FA04900498C0F37C
:105440000C000790049800F4005003902089143851
:105450001FFA80FBB8E04FF6FF7000EACA0058451B
:1054600001DD584603E04FF6FF7000EACA000890DD
:105470004FF4207214210E2003F078FD054605B983
:10548000A8E000BF6889142804DA00BF5AA0FDF71D
:10549000AFFB00BF00BF142268680999FAF74AFF02
:1054A0006E6808980A9050E061890598081A80B2E1
:1054B000029000BF61890598814204DA00BF56A0BE
:1054C000FDF796FB00BF00BF02990A98884201DAF7
:1054D0000A9800E002988146B9F1000F03D100203C
:1054E0000590246831E000F0A7FC07461FB9284664
:1054F00004F080F86EE06168059808443B4641225C
:105500004946CDE90009002003F070FE0B900B988E
:1055100030B9384600F096FC284604F06BF859E0A4
:10552000204604F09DF97C613F48386128460B997C
:1055300003F086FE0A98A0EB090080B20A900A9850
:1055400010B100200590246800BF0A980028ABD154
:105550000598484480B20590B8F82400143858459E
:1055600001DB012000E0002006900798C0F30C004A
:105570000490069808B1039818B1049840F40050BC
:105580000490049801F06DF9F0800899143188B204
:1055900001F067F970800020708114213046FFF718
:1055A00057FE7081D8F81430294640460E9A984725
:1055B000284604F01FF80898ABEB00001FFA80FBA8
:1055C0000798504480B20790BBF1000F7FF443AFBF
:1055D00000201FE74FF0FF301CE700006970345FC8
:1055E0006672616728293A207062756620746F6F51
:1055F0002073686F7274000074686973206E65654B
:1056000064732061207062756620696E206F6E651C
:105610002070696563652100702D3E6C656E203ECB
:105620003D20706F66660000A56300082DE9F84F05
:1056300006460F464FF0010A756828780421B1EB41
:10564000201F05D0304603F0D5FF0020BDE8F88FBD
:10565000287800074FEA9068688801F002F98146CF
:105660003189494503DD4946304604F081F87089A7
:10567000404505DB3089484502DBB8F1140F04DAF8
:10568000304603F0B7FF0020E0E741462846FFF729
:10569000DFFD20B1304603F0ADFF0020D6E72869DA
:1056A0005C494861E86808610846007D00F0F00048
:1056B000E0281CD197F82D0000F02000A8B114318B
:1056C0003846FFF773FC80B1534800905148406959
:1056D0000099884207D14F48103010B11038006946
:1056E00008B94FF0000A3C461CE000241AE0384696
:1056F00000F096F808B13C4614E000244548007DCF
:105700007F280FD04548046809E0BC4200D105E07D
:10571000204600F085F800B103E000BF2468002CAB
:10572000F3D100BFBAF1000F10D03A4908693946E9
:10573000FFF72BFE28B93748007C00F0F000E02886
:1057400004D1304603F056FF00207FE724B93046ED
:1057500003F050FF002079E7E8884FF63F710840DA
:1057600038B1304600F0B8F906460EB900206DE7B2
:105770007568284804604760856028780007800EB7
:10578000244988814146304604F08EF8687A012821
:105790000FD0022812D0062806D0112815D139467C
:1057A00030460AF061FD29E03946304606F03EF900
:1057B00024E039463046FFF7C1F91FE0154A14329C
:1057C00039463046FFF766FB18E012494869214622
:1057D000FFF7DBFD70B90F48007D00F0F000E02816
:1057E00008D00FFA88F1304603F098FF02213046C6
:1057F000FFF79AF9304603F0FDFE00BF00BF00201E
:10580000044908604860886088810861486100BF79
:105810001CE7000064640020E0000001900000200C
:1058200010B5044694F82D0000F0010070B16068D6
:1058300060B1074840696168884205D004494869F9
:105840002146FFF7A2FD08B1012010BD0020FCE7B2
:10585000646400202DE9F04786B004460D461646E4
:105860001F46DDE90F9ADDF838800020CDE902A05F
:105870003B4632462946CDE900890490204600F097
:1058800003F806B0BDE8F0872DE9F04F87B0074672
:105890000C4615469846DDE913ABDDF84090129EA4
:1058A000069425B10CB1206808B9301D06901198F6
:1058B00043462A4601A9A1E8410CCDF8009038469C
:1058C000069900F003F807B0BDE8F08F2DE9FF4F0F
:1058D00083B006469A46DDF84890149F002500BF25
:1058E000B07B012804D000BF6AA0FDF781F900BF9A
:1058F00000BF059800287DD04FF0140B4FF0000832
:10590000B7B3282F04DD6FF0050007B0BDE8F08FB6
:10591000F81C20F003001FFA80F80BEB08001FFAB8
:1059200080FB4146304603F0D3FA10B16FF001001E
:10593000EBE73A4670681399FAF7FCFC474505DA3D
:10594000A8EB07017268D019FAF71BFD002001903F
:1059500007E07168019831F8100005440198401C77
:10596000019008EBD8720199B1EB620FF1DB00BF37
:105970001421304603F0ACFA10B16FF00100C4E717
:10598000746800BF7089142804D200BF44A0FDF7DA
:105990002FF900BF00BF84F808A011986072119819
:1059A00040EA0A200006010C119840EA0A2041EA68
:1059B00010200544059800682061208A80B20544C3
:1059C000206905EB104558464FEAEB710BEB9171DE
:1059D000C1F3870141F04001217010986070217877
:1059E000109840EA01200006010C2278109840EA45
:1059F000022000E02DE041EA10200544308900F04B
:105A000030FF6080608805440020E08030480088D6
:105A100000F027FFA080A08805442D480088401C86
:105A20002B490880049818B92A480068E06002E011
:105A300004980068E060A08980B20544E06805EB46
:105A40001045A8B200EB154505EB1545ED43658102
:105A50000AE07089142802DA6FF0010055E77468D3
:105A60002069029002A80590B9F8240050B130894D
:105A7000B9F82410884205DD49463046059AFFF7FB
:105A8000ABFC42E7D9F8143031464846059A9847AE
:105A90003BE70000702D3E726566203D3D203100E1
:105AA000636865636B2074686174206669727374DF
:105AB00020706275662063616E20686F6C6420736D
:105AC00074727563742069705F686472000000000E
:105AD00038000020741F01082DE9F14F84B00498AC
