:020000040800F2
:1000000080970020E1010008011200080312000897
:10001000071200080B1200080F1200080000000071
:10002000000000000000000000000000490100087E
:1000300013120008000000008D01000815120008CE
:10004000FB010008FB010008FB010008FB010008A0
:10005000FB010008FB010008FB010008FB01000890
:10006000FB010008FB010008FB010008FB01000880
:10007000FB010008FB010008FB010008FB01000870
:10008000FB010008FB010008FB010008FB01000860
:10009000FB010008FB010008FB010008FB01000850
:1000A000FB010008FB010008FB010008FB01000840
:1000B000FB010008FB010008FB010008FB01000830
:1000C000FB010008FB010008FB010008FB01000820
:1000D000FB010008FB010008FB010008FB01000810
:1000E000FB010008FB010008FB010008FB01000800
:1000F000FB010008FB010008FB010008FB010008F0
:10010000FB010008FB010008FB010008FB010008DF
:10011000FB010008FB010008FB010008FB010008CF
:10012000FB010008FB010008FB010008FB010008BF
:10013000DFF810D003F024F900480047CF10000882
:10014000AFF3008080970020224B19680868B0E860
:10015000F00F80F30988BFF36F8F4FF0000080F33A
:1001600011884EF00D0E7047000000000648006830
:10017000006880F3088862B661B6BFF34F8FBFF3A3
:100180006F8F00DF00BF00BF08ED00E0EFF30980D4
:10019000BFF36F8F0F4B1A6820E9F00F106008B59E
:1001A0004FF0500080F31188BFF34F8FBFF36F8F74
:1001B00002F029F84FF0000080F31188BDE80840F4
:1001C00019680868B0E8F00F80F30988BFF36F8FF3
:1001D000704700BF38000020EFF305807047000033
:1001E0000648804706480047FEE7FEE7FEE7FEE7D1
:1001F000FEE7FEE7FEE7FEE7FEE7FEE7E3020008B4
:10020000310100080CB50020019000906C48006896
:1002100040F480306A49086000BF6948006800F413
:10022000003000900198401C0190009818B9019886
:10023000B0F5A06FF1D16248006800F4003010B151
:100240000120009001E0002000900098012843D197
:100250005C48006840F010005A4908600846006891
:1002600020F0030008600846006840F002000860C3
:10027000534840685249486008464068486008460C
:10028000406840F4806048600846406820F47C1074
:1002900048600846406840F4E81048600846006836
:1002A00040F08070086000BF4548006800F00070B2
:1002B0000028F9D04248406820F0030040494860D7
:1002C0000846406840F00200486000BF3C48406873
:1002D00000F00C000828F9D10CBD10B5FFF792FF13
:1002E00010BD10B53648006840F001003449086080
:1002F000084640683449084031494860084600686B
:10030000324908402E4908600846006820F48020E1
:1003100008600846406820F4FE0048604FF41F0063
:100320008860FFF7DAFF4FF000602949086010BDD0
:1003300010B5002100200022214B5B6803F00C0166
:1003400021B1042906D0082928D107E0214B224CED
:10035000236027E01F4B204C236023E0184B5B6891
:1003600003F47010164B5B6803F48032022303EB36
:10037000904022B9194B4343174C23600DE0104BBA
:100380005B6803F4003323B1144B4343124C2360E6
:1003900003E0104B4343104C236003E00D4B0E4C25
:1003A000236000BF00BF064B5B68C3F303130C4C14
:1003B000E15C094B1B68CB40074C236010BD00007B
:1003C00000100240002002400000FFF8FFFFF6FE90
:1003D00008ED00E000127A000000002000093D0056
:1003E0000400002031490143314A1160704770B563
:1003F000002100230F22C47804B32D4C246804F498
:10040000E064C4F5E064210AC1F10403CA40447801
:1004100004FA03F18478144021430901254C06783D
:10042000A155047804F01F050124AC4005786D1136
:10043000AD0005F1E025C5F8004109E0047804F0BD
:100440001F050124AC401C4D0678761145F8264066
:1004500070BD1A4A0A400243154B1B1F1A607047B1
:1004600039B1134A121D12680243114B1B1D1A6049
:1004700006E00F4A121D126882430D4B1B1D1A60C5
:100480007047042808D14FF0E021096941F00401C8
:100490004FF0E022116107E04FF0E021096921F0FF
:1004A00004014FF0E0221161704700000000FA05DE
:1004B0000CED00E000E400E080E100E080FFFF1FC1
:1004C00010B50446CC48844208D10121042000F034
:1004D0002DFB0021042000F029FB46E0C7488442A0
:1004E00008D10121082000F021FB0021082000F0A4
:1004F0001DFB3AE0C248844208D10121102000F0DF
:1005000015FB0021102000F011FB2EE0BD488442B5
:1005100008D10121202000F009FB0021202000F05B
:1005200005FB22E0B848844208D10121402000F0B8
:10053000FDFA0021402000F0F9FA16E0B3488442A9
:1005400008D10121802000F0F1FA0021802000F084
:10055000EDFA0AE0AE48844207D10121801500F08F
:10056000E5FA0021A01500F0E1FA10BD10B5012157
:10057000084600F0DBFA0021012000F0D7FA10BD98
:100580002DE9F0410246002500260020002300242A
:10059000002791F803C00CF00F0591F803C00CF090
:1005A000100CBCF1000F03D091F802C04CEA050515
:1005B00091F800C0BCF1000F31D0146800202BE08E
:1005C0004FF0010C0CFA00F3B1F800C00CEA03067E
:1005D0009E4220D183004FF00F0C0CFA03F7BC436E
:1005E00005FA03FC4CEA040491F803C0BCF1280F9F
:1005F00006D14FF0010C0CFA00FCC2F814C00AE05E
:1006000091F803C0BCF1480F05D14FF0010C0CFA72
:1006100000FCC2F810C0401C0828D1D31460B1F807
:1006200000C0BCF1FF0F34DD546800202EE000F163
:10063000080C4FF0010808FA0CF3B1F800C00CEAFE
:1006400003069E4221D183004FF00F0C0CFA03F7F2
:10065000BC4305FA03FC4CEA040491F803C0BCF166
:10066000280F05D100F1080C08FA0CF8C2F8148024
:1006700091F803C0BCF1480F07D100F1080C4FF00E
:10068000010808FA0CF8C2F81080401C0828CED3E4
:100690005460BDE8F0814FF6FF7101800221817046
:1006A0000421C17070470246002093680B400BB1D3
:1006B000012000E0002070470146886880B2704742
:1006C00002460020D3680B400BB1012000E000205F
:1006D00070470146C86880B2704701617047416148
:1006E00070470AB1016100E041617047C160704725
:1006F0004FF480320A43826181618261826982693A
:10070000704702460020434B18684FF6807318402C
:1007100040EA021008433F4B186070473E49C861E9
:100720007047F0B50A46002300240021002500F0A0
:100730000046B6F1004F02D1364EF16901E0354E68
:100740007168C0F3034583B200F44016B6F5401F4C
:1007500008D121F070612F4E766826F070662D4F1B
:100760007E6012E000F48016B6F5801F06D10326E5
:1007700006FA05F4A14341F0706106E0460D36012A
:1007800003FA06F6B14341F0706122B1460D36011D
:1007900003FA06F6314300F00046B6F1004F02D1ED
:1007A0001C4EF16101E01B4E7160F0BD30B50022BE
:1007B0008B071C0F0F2303FA04F2164B08338C101F
:1007C00053F824309343134C08348D1044F82530EB
:1007D00023468C1053F824308C07240F00FA04F4BD
:1007E00023430C4C08348D1044F8253030BD0A49A1
:1007F000DC3108607047000000080140000C014037
:10080000001001400014014000180140001C01408C
:10081000002001400000014000002042DF48006845
:1008200040F00100DD49086008464068DC490840A6
:10083000DA49486008460068DA490840D749086044
:100840000846006820F4802008600846406820F4CC
:10085000FE0048604FF41F0088607047CF49096868
:1008600021F48031CD4A11601146096821F48021BC
:100870001160B0F5803F03D0B0F5802F0ED106E0B7
:10088000C649096841F48031C44A116007E0C34990
:10089000096841F4A021C14A116000E000BF00BF17
:1008A000704710B501460022002300204A11012A9A
:1008B00002D1BA4C236806E0022A02D1B74C236A5F
:1008C00001E0B64C636A01F01F02012494401C4011
:1008D0000CB1012000E0002010BD38B500200090D0
:1008E0000024002500BF3120FFF7DBFF05460098FC
:1008F000401C00900098B0F5A06F01D0002DF2D000
:100900003120FFF7CEFF08B1012400E0002420468B
:1009100038BD01460020A14A106820F0F80040EAE6
:10092000C10010607047A04908607047024600206F
:100930009A4B586820F47C1042EA01031843974B05
:100940005860704798490866704701460020934AEE
:10095000506820F003000843506070478F4840689B
:1009600000F00C007047014600208C4A506820F0CF
:10097000F00008435060704701460020874A5068E5
:1009800020F4E06008435060704701460020834A2D
:10099000506820F4605040EAC1005060704729B1AF
:1009A0007E4A527A02437D4B5A7204E07B4A527A65
:1009B00082437A4B5A7270477B49D831086070473E
:1009C00001460020754A506820F4404008435060BA
:1009D00070470021714A20321170704A82F820104D
:1009E000012802D004280AD104E001216B4A2032F8
:1009F000117005E00521694A2032117000E000BF46
:100A000000BF70476949086070476449096A01433B
:100A1000624A11627047654944390860704730B5D1
:100A200000210022002400235C4D6D6805F00C01BC
:100A300021B1042905D0082923D105E05C4D0560CA
:100A400022E05B4D05601FE0544D6D6805F47012A7
:100A5000524D6D6805F48034022505EB92421CB9B5
:100A6000544D554305600BE04C4D6D6805F4003561
:100A70001DB1504D5543056002E04D4D5543056095
:100A800002E04B4D056000BF00BF444D6D6805F0AE
:100A9000F0010909484D6B5C0568DD4045603F4D3C
:100AA0006D6805F4E061090A434D6B5C4568DD4003
:100AB00085603A4D6D6805F46051C90A3E4D6B5C26
:100AC0004568DD40C560354D6D6805F44041890BD2
:100AD0003A4D6B5CC568B5FBF3F5056130BD29B1D6
:100AE0002E4A526902432D4B5A6104E02B4A526947
:100AF00082432A4B5A61704729B1284A92690243BE
:100B0000264B9A6104E0254A92698243234B9A61FD
:100B1000704729B1214AD2690243204BDA6104E0CF
:100B20001E4AD26982431D4BDA61704729B11B4AC4
:100B3000D2680243194BDA6004E0184AD268824353
:100B4000164BDA60704729B1144A12690243134BFD
:100B50001A6104E0114A12698243104B1A6170470E
:100B600012494039086070470F49C86470470B4903
:100B7000C87170470948406A40F080700749486270
:100B8000704701460020054A92680A400AB10120D8
:100B900000E0002070470149887270470010024051
:100BA0000000FFF8FFFFF6FE0000424280044242D0
:100BB00000127A0000093D001400002024000020EB
:100BC00010B50446FB48844209D101218803FFF790
:100BD000ADFF00214FF48040FFF7A8FF32E0F64858
:100BE000844209D101214804FFF7ADFF00214FF4F1
:100BF0000030FFF7A8FF25E0F048844209D1012129
:100C00008804FFF7A0FF00214FF48020FFF79BFF2F
:100C100018E0EB48844209D10121C804FFF793FF93
:100C200000214FF40020FFF78EFF0BE0E5488442DF
:100C300008D101210805FFF786FF00214FF480103D
:100C4000FFF781FF10BD2DE9F04786B005460E463F
:100C50000024A24600BFA1460027B08900B100BF12
:100C60002F462C8A4CF6FF700440F08804432C82F7
:100C7000AC894EF6F3100440B0883189084371897D
:100C800008430443AC81AC8A4FF6FF400440B0896E
:100C90000443AC8201A8FFF7C2FEC648874202D1D6
:100CA000DDF810A001E0DDF80CA0A88900F40040F8
:100CB00040B10AEBCA0000EB0A1031684900B0FBF2
:100CC000F1F807E00AEBCA0000EB0A10316889006E
:100CD000B0FBF1F86420B8FBF0F0040120096421B6
:100CE00001FB1089A88900F4004040B1322000EBDC
:100CF000C900B0FBF1F000F00700044308E0322027
:100D000000EB09106421B0FBF1F000F00F00044388
:100D10002C8106B0BDE8F0874FF416510160002128
:100D20008180C18001810C21418100218181704736
:100D300010B502460020108A4FF2FF0318400B88BE
:100D40004C8823438C882343CC8823431843108248
:100D500010BD0021018041808180C180704721B198
:100D6000828942F40052828104E082894DF6FF7349
:100D70001A4082817047F0B5034600240026002502
:100D8000002040F66A17B94200D100BF1846C1F3EF
:100D9000421401F01F06012707FA06F5012C01D1C4
:100DA0000C3004E0022C01D1103000E014301AB1F4
:100DB00007682F43076002E00768AF430760F0BD94
:100DC0001AB1838A0B43838202E0838A8B43838236
:100DD0007047028A4FF6F0731A400282028A0A4371
:100DE0000282704782894FF2FF731A4082818289A2
:100DF0000A438281704721B1828942F002028281D6
:100E000004E082894FF6FD731A4082817047028A9E
:100E10004FF6DF731A400282028A0A430282704749
:100E200021B1028A42F48042028204E0028A4BF637
:100E3000FF731A4002827047C1F308028280704734
:100E400001468888C0F308007047818941F001019C
:100E500081817047028BD2B20283028B42EA012267
:100E600002837047028B02F47F420283028B0A43A3
:100E70000283704721B1828A42F02002828204E01C
:100E8000828A4FF6DF731A408282704721B1828ACC
:100E900042F01002828204E0828A4FF6EF731A4019
:100EA0008282704721B1828A42F00802828204E085
:100EB000828A4FF6F7731A408282704721B1828985
:100EC00042F40042828103E08289C2F30E028281F1
:100ED000704721B1828A42F40062828204E0828AF1
:100EE0004FF2FF731A4082827047828A4FF6FB737B
:100EF0001A408282828A0A438282704721B1828AA2
:100F000042F00202828204E0828A4FF6FD731A40A8
:100F10008282704702460020B1F5007F00D100BFF9
:100F200013880B400BB1012000E00020704701F452
:100F30000072B2F5007F00D100BFCA430280704743
:100F400070B50246002400230025002040F66A16F2
:100F5000B14200D100BFC1F3421501F01F030126C9
:100F600006FA03F3012D02D19689334006E0022DE3
:100F700002D1168A334001E0968A33400C120126D2
:100F800006FA04F41688344013B10CB1012000E0D5
:100F9000002070BD10B50022002340F66A14A14263
:100FA00000D100BF0A1201249440A3B2DC430480A4
:100FB00010BD0000003801400044004000480040DF
:100FC000004C0040005000401FE001214E4800F05E
:100FD00046FA012807D14DA002F0E4F901214E485C
:100FE000006800F062FA4FF400514C4800F037FA04
:100FF000012807D14AA002F0D5F90221464800682D
:1010000000F053FA142000F0D5FFDEE708B51BE02E
:101010004FF0FF3001231A46032100903E4800683C
:1010200000F021FB044604F00300032809D13FA08F
:1010300002F0B8F94248006880F02000404908609A
:1010400002E040A002F0AEF9E2E71CB5012401F095
:1010500084FF00F01DFA304908600846006810B1AE
:101060003BA002F09FF94348022100230A02CDE988
:10107000001041A1434800F01BFD0446012C02D1A1
:1010800041A002F08FF94548032100234FF400727C
:10109000CDE9001042A1454800F00AFD0446012CAC
:1010A00002D143A002F07EF94648006800F04EFDF0
:1010B00001F076FF1CBD10B54FF44070FFF792F9B8
:1010C00000F0B0F800F0F1F800F0AEF910BD1CB57A
:1010D0000124FFF7F0FF3CA002F064F93948012138
:1010E00000234A02CDE9001040A1444800F0E0FC92
:1010F0000446012C02D101F008FA02E04FF0FF3063
:101100001CBD00BFFEE70000000801404B455931FF
:10111000B1BBB0B4CFC20A003400002000100140BF
:101120004B455932B1BBB0B4CFC20A004B4559311F
:10113000BACD4B455932B6BCB0B4CFC20A0000009C
:101140000C0C0140CAC2BCFEB4EDCEF30A00000094
:10115000B4B4BDA84576656E745F48616E646C6515
:10116000CAC2BCFEC1BFB4B4BDA8B3C9B9A6A3A1CD
:101170000D0A00002C0000204C45445F5461736B45
:10118000000000000D100008B4B4BDA84C45445F39
:101190005461736BB3C9B9A60D0A0000300000207A
:1011A0004B45595F5461736B00000000C90F000884
:1011B000B4B4BDA84B45595F5461736BB3C9B9A6AC
:1011C0000D0A000028000020D5E2CAC7D2BBB8F63D
:1011D0004672656552544F532DCAC2BCFEB1EAD661
:1011E000BED7E9CAB5D1E9A3A10D0A004170705478
:1011F00061736B4372656174650000004B100008F9
:10120000704700BFFEE700BFFEE700BFFEE700BF7C
:10121000FEE7704710B501F01FFB012801D001F077
:10122000D7FE10BD08B501210820FFF765FC20207E
:10123000ADF8000010208DF8030003208DF80200A7
:1012400069460F48FFF79CF90120ADF80000694698
:101250000B48FFF795F90220ADF8000069460848F1
:10126000FFF78EF920210648FFF737FA01210448DD
:10127000FFF733FA02210248FFF72FFA08BD0000FA
:10128000000C014008B54FF4A060FFF7ABF8252033
:101290008DF8000001208DF801008DF802008DF816
:1012A00003006846FFF7A3F808BD00B585B001212B
:1012B0000420FFF721FC01218803FFF71DFC4FF4F8
:1012C0000070ADF8100018208DF8130003208DF881
:1012D000120004A95248FFF753F94FF48060ADF8AB
:1012E000100004208DF8130004A94D48FFF748F9B9
:1012F0004FF4E13000900020ADF80400ADF8060096
:10130000ADF80800ADF80C000C20ADF80A006946F5
:101310004448FFF798FCFFF7B5FF012240F2255142
:101320004048FFF728FD01213E48FFF718FD05B0B2
:1013300000BD70B504460D4629462046FFF77CFDEA
:1013400000BF80212046FFF7E5FD0028F9D070BDE1
:101350002DE9F04107460D461646002405E0295DBB
:101360003846FFF7E6FF601CC4B2B442F7DB00BFAB
:1013700040213846FFF7CEFD0028F9D0BDE8F081C6
:1013800070B506460C46002500BF615D3046FFF78C
:10139000D0FF6D1C605D0028F7D100BF40213046B2
:1013A000FFF7B8FD0028F9D070BD2DE9F0410546E2
:1013B0000C46260AE7B231462846FFF73DFD00BF3E
:1013C00080212846FFF7A6FD0028F9D03946284697
:1013D000FFF732FD00BF80212846FFF79BFD002864
:1013E000F9D0BDE8F08170B504460D46E1B20D4874
:1013F000FFF722FD00BF80210A48FFF78BFD002880
:10140000F9D0204670BD10B5044600BF2021054824
:10141000FFF780FD0028F9D00248FFF711FD10BD4D
:10142000000801400038014008B501211420FFF7F1
:1014300063FB0120ADF8000004208DF8030069462D
:101440001148FFF79DF84FF40050ADF8000004205C
:101450008DF8030069460D48FFF792F808BD70B596
:1014600004460D4629462046FFF71DF9012808D1FC
:1014700000BF29462046FFF716F90128F9D00120C0
:1014800070BD0020FCE70000000801400010014092
:1014900010B5182001F06DFE044624B10020206034
:1014A000201D00F0FDF9204610BD2DE9FE4F074636
:1014B0008846002001903C4600902FB940F21D2242
:1014C000E9A1F2A001F06EFF08F07F4008B9012009
:1014D00000E0002028B940F21E22E3A1EBA001F0B9
:1014E00061FF04F1040909F10800029000F001FD18
:1014F000D9F80C60206840EA0800206026E0D6F8A1
:1015000004B035680020009005F07F4A25F07F4543
:101510000AF0806028B92068284040B1012000907E
:1015200005E020682840A84201D1012000900098E1
:1015300058B10AF0807010B10198284301902068DA
:1015400040F00071304601F0E9F85E4602988642AC
:10155000D5D1206801998843206000F01FFC2068E5
:10156000BDE8FE8F2DE9F84F8346884614461F4696
:101570005D460020009004F07F4008B9012000E0A3
:10158000002020B9D722B8A1C0A001F00BFF0CB1F8
:10159000012000E0002020B9D822B3A1BBA001F0B7
:1015A00001FF01F059F900B90FB9012000E0002056
:1015B00020B9DB22ACA1B5A001F0F4FE00F099FC4B
:1015C000D5F8009041465846FFF76FFF49EA0800FA
:1015D0002040A04206D149EA08062868A0432860B6
:1015E000002709E03FB144F0A0613A46281D01F010
:1015F0002CF8002600E02E6800F0D0FB824607B3EE
:10160000BAF1000F07D14FF08050A4490860BFF332
:101610004F8FBFF36F8F01F0D5F9064606F00070CB
:1016200068B901F09AFC2E6806EA0400A04202D1D3
:101630002868A043286001F0B3FC0120009026F048
:101640007F463046BDE8F88F10B50346002022B92A
:1016500003EA010434B1012004E003EA01048C42EE
:1016600000D1012010BD2DE9FF4F83B081460D460A
:101670001746DDF840804C464FF0000A00200190EC
:10168000B9F1000F05D140F24D1277A17FA001F012
:1016900089FE05F07F4008B9012000E0002028B94C
:1016A0004FF4A77270A179A001F07CFE0DB101206A
:1016B00000E0002028B940F24F126BA173A001F0A6
:1016C00071FE01F0C9F810B9B8F1000F01D1012085
:1016D00000E0002028B94FF4A97263A16BA001F0CB
:1016E00061FE00F006FC206800902946069A0098EA
:1016F000FFF7AAFF0290029838B1009E4FF0000851
:10170000B7B12068A843206012E0B8F1000F01D102
:10171000009E0DE00FB14AF0807A069808B14AF0B9
:10172000806A45EA0A014246201D00F08EFF00262D
:1017300000F034FB8346B8F1000F23D0BBF1000F5B
:1017400007D14FF0805055490860BFF34F8FBFF36A
:101750006F8F01F037F9064606F0007080B901F08E
:10176000FCFB266829463046069AFFF76DFF18B144
:1017700017B12068A843206001F012FC00200190FE
:1017800026F07F46304607B0BDE8F08F2DE9F041E6
:1017900005460E462C462DB940F2DF1232A13BA081
:1017A00001F000FE06F07F4008B9012000E00020B3
:1017B00028B94FF4F0722CA134A001F0F3FD01F030
:1017C000CCFB27682068B043206001F0E9FB384675
:1017D000BDE8F08170B501460B4600BF5025EFF320
:1017E000118085F31188BFF34F8FBFF36F8F00BF58
:1017F00002461C68104680F3118800BF204670BD69
:1018000070B505462E46341D00F073FB13E004F15D
:101810000800E168814201D0012000E0002028B9E1
:1018200040F27D2210A119A001F0BCFD4FF0007123
:10183000E06800F073FF20680028E8D1304601F02E
:101840001BFD00F0ABFA70BD70B504460D4629468D
:101850002046FFF72AFE70BD70B504460D462946A6
:101860002046FFF793FF70BD2E2E5C2E2E5C467235
:10187000656552544F535C7372635C6576656E7434
:101880005F67726F7570732E630000004572726F30
:10189000723A25732C25640D0A00000004ED00E067
:1018A00000F1080141604FF0FF31816000F1080153
:1018B000C160016100210160704700210161704732
:1018C00042684A6093688B609368596091600861D0
:1018D00003685B1C0360704710B502460B685C1C14
:1018E0000CB9106907E002F1080000E040684468A4
:1018F00024689C42FAD944684C604C68A1608860B6
:1019000041600A611468641C146010BD01460A69D4
:10191000D1E901309860D1E90103586050688842EC
:1019200001D188685060002008611068401E106076
:101930001068704710B5002407E004EB8401F74AF3
:1019400002EB8100FFF7ACFF641C202CF5D3F448B8
:10195000FFF7A6FFF348FFF7A3FFF348FFF7A0FF49
:10196000F248FFF79DFFF248FFF79AFFEC48F14974
:101970000860EC48F049086010BD10B5044601F05D
:10198000ECFAEE480068401CEC490860EC4800683E
:1019900040B9EB4804600846006801280DD1FFF704
:1019A000C9FF0AE0E748006838B9E5480068C06A3E
:1019B000E16A884201D8E2480460E3480068401CBC
:1019C000E149086094F82C1001208840DF4909683B
:1019D0000843DE490860E16A01EB8101CF4A02EB6E
:1019E0008100211DFFF76CFF01F0DAFAD54800688D
:1019F00068B1D3480068C06AE16A884207D24FF0F4
:101A00008050D3490860BFF34F8FBFF36F8F10BD75
:101A10002DE9FF5F81460F469246DDE90E6B109C73
:101A2000AAF10100216B01EB800828F0070808F0FB
:101A3000070008B9012000E0002028B940F22B324D
:101A4000C4A1CBA001F0AEFC002507E0795D04F154
:101A500034004155785D00B902E06D1C102DF5D3BE
:101A600000BF002143200155202E00D31F26E6622F
:101A700066640020A064201DFFF71FFF04F118001A
:101A8000FFF71BFF2461C6F12000A0616462002003
:101A9000E06484F8500049464046039A01F0EAF9B0
:101AA0002060BBF1000F01D0CBF80040BDE8FF9FE4
:101AB0002DE9FF4F85B0804689461746DDE912AB18
:101AC000B80001F056FB064656B1542001F051FB18
:101AD00004460CB1266304E0304601F0CDFB00E083
:101AE00000247CB10020CDE900ABCDE902403A46AC
:101AF00049464046089BFFF78BFF2046FFF73DFF16
:101B0000012501E04FF0FF35284609B0BDE8F08F10
:101B100088490968096809B9012100E0002121B15B
:101B20004FF0FF31964A116006E082490968C968A2
:101B3000C868934A41681160704710B50446206B2D
:101B400001F09AFB204601F097FB10BD70B50546E9
:101B500001F003FA15B97A48006800E02846044607
:101B6000201DFFF7D3FE78B9E06A00EB80006B49D7
:101B700051F8200040B994F82C1001208840734996
:101B80000968814371480160A06A18B104F1180026
:101B9000FFF7BCFE6C480068401C6B490860684851
:101BA0000068844209D1211D6048FFF789FE75480D
:101BB0000068401C7349086009E060480068401EE6
:101BC0005E4908602046FFF7B8FFFFF7A1FF01F06C
:101BD000E7F95C480068C0B159480068844214D1F4
:101BE0006948006808B9012000E0002028B940F2E7
:101BF000654258A15EA001F0D5FB4FF080505449DA
:101C00000860BFF34F8FBFF36F8F70BD2DE9F041B8
:101C10004FF000085C480068002872D15B480068FB
:101C2000451C5A480560EDB942480068006808B98B
:101C3000012000E0002028B940F6D91245A14CA0AF
:101C400001F0B0FB3B4807683B4800683949086031
:101C5000394807604E480068401C4D490860FFF74E
:101C600057FF00BF4648006885423CD300BF31485B
:101C70000068006808B9012000E0002020B14FF0A2
:101C8000FF303F4908602DE02A480068C068C468FA
:101C90006668B54202D23A48066023E0201DFFF78D
:101CA00035FEA06A18B104F11800FFF72FFE94F872
:101CB0002C10012088402549096808432349086001
:101CC000E16A01EB8101154A02EB8100211DFFF75A
:101CD000F7FD1B49E06A0968C96A8842C7D34FF01B
:101CE0000108C4E700BF16480068C06A00EB800026
:101CF0000A4951F82000012801D94FF0010805E0F8
:101D0000FFE724480068401C224908602248006818
:101D100008B14FF001084046BDE8F0819C0000206A
:101D20001C0300203003002044030020580300203F
:101D30006C0300203C0000204000002048000020F0
:101D400038000020540000206400002050000020D3
:101D500004ED00E02E2E5C2E2E5C4672656552541A
:101D60004F535C7372635C7461736B732E6300001A
:101D70004572726F723A25732C25640D0A000000BB
:101D80006800002044000020700000204C0000206B
:101D900060000020580000205C00002070B5002486
:101DA0000026FE48006838B94FF4FD62AFF25C01CE
:101DB000AFF2440001F0F6FA01F0CFF8F7480068FE
:101DC000401EF64908600846006800284FD1F448D4
:101DD000006800284BD024E0F248C068C46804F1D1
:101DE0001800FFF793FD201DFFF790FD94F82C10CD
:101DF00001208840EC4909680843EB490860E16A22
:101E000001EB8101E94A02EB8100211DFFF758FD3A
:101E1000E749E06A0968C96A884202D30120E549B6
:101E20000860E048006808B9012000E000200028B0
:101E3000D2D00CB1FFF76CFEDF48056865B100BF7A
:101E4000FFF7E4FE10B10120DA4908606D1E002D95
:101E5000F6D10020D8490860D648006838B101267C
:101E60003007D6490860BFF34F8FBFF36F8F01F083
:101E700097F8304670BD2DE9F04105460E46D04832
:101E80000768CB480068001DFFF740FD50B9C848FF
:101E9000006890F82C1001208840C34909688143EC
:101EA000C1480160681C38B936B1C1480168091DD4
:101EB000C448FFF705FD1AE07C19BD48006844607E
:101EC000BC4207D2BA480168091DBF480068FFF745
:101ED00003FD0CE0B6480168091DBC480068FFF727
:101EE000FBFCBB480068844201D2B9480460BDE8ED
:101EF000F081AA480068401CA849086070472DE995
:101F0000F04704460F464FF000093CB940F27942D1
:101F1000AFF2C011AFF2A81001F044FA0FB10120E6
:101F200000E0002038B940F27A42AFF2D811AFF2A7
:101F3000C01001F037FA9948006808B9012000E0A4
:101F4000002038B940F27B42AFF2F811AFF2E01056
:101F500001F028FAFFF7CDFF994806682068C519F7
:101F60002068B04207D92068A8420BD9B54209D9E8
:101F70004FF0010906E02068A84201D8B54201D916
:101F80004FF001092560B9F1000F03D0A81B002113
:101F9000FFF771FFFFF702FF8046B8F1000F07D18E
:101FA0004FF0805085490860BFF34F8FBFF36F8FAC
:101FB000BDE8F08770B504460025BCB177480068DD
:101FC00008B9012000E0002038B940F2CF42AFF25A
:101FD0007C21AFF2642001F0E5F9FFF78AFF0021D0
:101FE0002046FFF748FFFFF7D9FE05463DB94FF001
:101FF000805072490860BFF34F8FBFF36F8F70BD81
:102000002DE9F04107463E463EB940F2FB42AFF2B1
:10201000BC21AFF2A42001F0C5F9654800688642F2
:1020200001D100241EE000F098FF756900F0B8FFB0
:1020300066480068854203D063480068854201D144
:1020400002240FE05F48854205D1B06A08B9032435
:1020500008E0022406E05F48854200D00DB9042460
:1020600000E001242046BDE8F08170B5044600F090
:1020700074FF14B94E48006800E020460646F56A31
:1020800000F08EFF284670BD2DE9F041054600F0B6
:10209000B7FF00BF5021EFF3118081F31188BFF328
:1020A0004F8FBFF36F8F00BF044615B940480068DB
:1020B00000E028460746FE6A00BF84F3118800BF8F
:1020C0003046BDE8F0812DE9F04780460D464FF0DF
:1020D0000009202D01D2012000E0002038B94FF482
:1020E000B062AFF29031AFF2783001F05BF9202DA1
:1020F00000D31F2500F031FFB8F1000F02D12C48AA
:10210000006800E040460446666CAE4277D0B542B7
:102110000BD92748006884420DD025480068C06A62
:10212000A84208D84FF0010905E021480068844220
:1021300001D14FF00109E76AE16A606C884200D181
:10214000E5626564A06900F0004010B9C5F12000A7
:10215000A06107EB8701154A02EB810160698842A3
:1021600001D1012000E00020B0B3201DFFF7CEFB1D
:1021700030B90120B8400C49096881430A48016020
:1021800094F82C1001208840074909680843064943
:102190000860E16A01EB8101044A1FE07000002041
:1021A0004800002044030020500000209C00002034
:1021B000380000205C0000205800002004ED00E002
:1021C0004C0000206C030020400000203C00002058
:1021D000680000205803002005E010E002EB8100B9
:1021E000211DFFF76DFBB9F1000F07D04FF08050B4
:1021F000F8490860BFF34F8FBFF36F8F00BF00F047
:10220000CFFEBDE8F08710B5F348006818B1012093
:10221000F24908602FE00020F0490860F0480068AB
:10222000B0FA80F0C0F11F0404EB8400ED4951F8CE
:10223000200008B1012000E0002038B940F6F62265
:10224000AFF2F041AFF2D84001F0ACF804EB8401FA
:10225000E44A02EB810041684968416000F10801ED
:1022600042688A4202D14168496841604168C96850
:10227000DD4A116000BF10BD70B5054600F06DFE6F
:1022800015B9D948006800E028460446201DFFF72C
:102290003DFB78B9E06A00EB8000D24951F820009C
:1022A00040B994F82C1001208840CD490968814339
:1022B000CB480160A06A18B104F11800FFF726FBB3
:1022C000211DCA48FFF7FCFA00F06AFEC848006802
:1022D00028B100F042FEFFF71BFC00F061FEC2488F
:1022E0000068844226D1C2480068B8B1BA48006884
:1022F00008B9012000E0002038B940F25762AFF27F
:10230000AC51AFF2945001F04DF84FF08050B1490C
:102310000860BFF34F8FBFF36F8F0BE0B3480068C7
:10232000B4490968884203D10020AF49086001E040
:10233000FFF769FF70BD70B5054600262C463DB914
:1023400040F28162AFF2F451AFF2DC5001F02AF8B2
:10235000A6496069884201D1012000E0002070B1E7
:10236000A549A06A884201D1012000E0002030B9CF
:10237000A06A08B9012000E0002000B10126304623
:1023800070BD70B505462C463DB940F2AB62AFF268
:102390003C61AFF2246001F005F874B39248006824
:1023A00084422AD000F0D9FD2046FFF7C4FF10B3C5
:1023B000201DFFF7ABFA94F82C10012088408849C3
:1023C0000968084386490860E16A01EB8101854A92
:1023D00002EB8100211DFFF773FA8349E06A096867
:1023E000C96A884207D34FF080507A490860BFF32A
:1023F0004F8FBFF36F8F00F0D3FD70BD2DE9F0411B
:102400000646002734463EB940F2E262AFF2BC61B4
:10241000AFF2A46000F0C6FF00F0F2FD00BF502153
:10242000EFF3118081F31188BFF34F8FBFF36F8FEC
:1024300000BF05462046FFF77EFF20B366480068D0
:10244000E0B96949E06A0968C96A884200D301278E
:10245000201DFFF75BFA94F82C100120884060499A
:10246000096808435E490860E16A01EB81015D4A41
:1024700002EB8100211DFFF723FA04E004F11801AB
:102480005D48FFF71DFA00BF85F3118800BF38468D
:10249000BDE8F08170B523E0FFF72BFD57480068D9
:1024A00008B9012000E000200546FFF777FCBDB920
:1024B00000F053FD5148C068C468201DFFF726FA9C
:1024C0004C480068401E4B4908604D480068401E5B
:1024D0004B49086000F064FD2046FFF72EFB00BF6B
:1024E000474800680028D7D170BD00BFFFF7D2FF72
:1024F0003C4800680128F9D94FF080503549086000
:10250000BFF34F8FBFF36F8FF0E71CB53D4800213D
:102510000B468022CDE900103BA13D48FFF7C8FAE9
:102520000446012C15D100BF502080F31188BFF361
:102530004F8FBFF36F8F00BF4FF0FF3035490860FA
:1025400001202B49086000203349086000F0AEFCF0
:102550000DE0601C08B1012000E0002038B940F215
:102560008472AFF61001AFF2F87000F01BFF1CBDD3
:1025700010B500BF502080F31188BFF34F8FBFF319
:102580006F8F00BF00201A49086000F0D5FC10BD15
:1025900021490868704770B500F032FD00251E48DB
:1025A0000468204670BD13480068704770B5044643
:1025B00014B90D48006800E0204605463DB940F6D4
:1025C0008C02AFF67001AFF6580000F0EBFE05F19B
:1025D000340070BD04ED00E0700000205C000020BD
:1025E000500000209C000020380000206C030020D8
:1025F000540000204800002044030020580300201D
:10260000440000206C00002049444C4500000000BC
:10261000EB240008680000204C00002070B5044640
:102620000D463CB940F60632AFF6D801AFF6C00011
:1026300000F0B8FEFE48016818312046FFF74CF95B
:1026400001212846FFF717FC70BD70B504460D4602
:1026500016463CB940F61732AFF60811AFF6F00057
:1026600000F0A0FEF348006808B1012000E000205F
:1026700038B940F61B32AFF62411AFF60C1000F05B
:1026800091FE45F00040EA4909688861E848016820
:1026900018312046FFF714F901213046FFF7EBFB14
:1026A00070BD70B50646F068C4683CB940F661324A
:1026B000AFF66011AFF6481000F074FE04F1180098
:1026C000FFF724F9DB480068A8B9201DFFF71EF9C1
:1026D00094F82C1001208840D74909680843D6494E
:1026E0000860E16A01EB8101D44A02EB8100211DFF
:1026F000FFF7E6F804E004F11801D148FFF7E0F82D
:10270000CB49E06A0968C96A884204D901250120D9
:10271000CC49086000E00025284670BD2DE9F04155
:1027200005460F46C348006808B1012000E00020BC
:1027300038B940F69932AFF6E411AFF6CC1000F09C
:1027400031FE47F000402860EC683CB940F6A13209
:10275000AFF60021AFF6E81000F024FE2846FFF7A0
:10276000D5F8201DFFF7D2F894F82C1001208840EE
:10277000B14909680843B0490860E16A01EB810189
:10278000AE4A02EB8100211DFFF79AF8A849E06AE2
:102790000968C96A884204D901260120A94908604C
:1027A00000E000263046BDE8F08110B504463CB993
:1027B00040F6C132AFF66421AFF64C2000F0F2FDD6
:1027C000A14800682060A1480068606010BD2DE944
:1027D000F04104460D463CB940F6CB32AFF68C21B1
:1027E000AFF6742000F0DEFD3DB940F6CC32AFF616
:1027F0009C21AFF6842000F0D5FD00F0AEFB93489D
:1028000007682868401C08B9002619E08E4920682E
:102810000968884204D06068B84201D801260FE0F8
:102820006068381A2968884209D228686168791A6C
:10283000401A28602046FFF7B8FF002600E0012676
:1028400000F0AEFB3046BDE8F08101207D49086014
:1028500070477749086870477D49096809B90120C0
:1028600005E07449096809B9022000E000207047BA
:1028700070B505462C46002D4BD06D49E06A0968BD
:10288000C96A884245D2A06900F0004028B968486A
:102890000068C06AC0F12000A061E16A01EB81011B
:1028A000664A02EB81016069884201D1012000E0A3
:1028B000002050B3201DFFF729F878B9E06A00EB3B
:1028C00080005E4951F8200040B994F82C10012096
:1028D0008840594909688143574801605448006855
:1028E000C06AE06294F82C100120884052490968BF
:1028F000084351490860E16A01EB81014F4A02EB4C
:102900008100211DFEF7DCFF03E049480068C06A32
:10291000E06270BD70B505462C460026002D4FD0F4
:1029200043480068844201D1012000E0002038B90A
:1029300040F6C762AFF6E431AFF6CC3000F032FDBE
:10294000A06C38B940F6C962AFF6F831AFF6E030A6
:1029500000F028FDA06C401EA064616CE06A884213
:102960002ED0A06C60BB201DFEF7D0FF78B9E06AC6
:1029700000EB8000314951F8200040B994F82C1048
:10298000012088402C49096881432B480160606C14
:10299000E062E06AC0F12000A06194F82C100120F0
:1029A000884025490968084323490860E16A01EB2A
:1029B0008101224A02EB8100211DFEF781FF0126E1
:1029C000304670BD1A490968886919490968C96A99
:1029D000C1F12001164A12689161704714480068DD
:1029E00030B11349096801F14800896C491C016044
:1029F0000F480068704770B506460D4600F0ADFA06
:102A00000B480068C06C88B901200949096881F841
:102A100050005DB101212846FFF72DFA4FF080509C
:102A20000C490860BFF34F8FBFF36F8F14E00000B5
:102A30003800002070000020500000209C00002082
:102A4000440300205C000020600000204C000020B7
:102A50005400002004ED00E000F0A2FA00F07DFA3E
:102A6000F0480068C46C4CB126B10020ED490968FB
:102A7000C86403E0601EEB490968C8640020E949A6
:102A8000096881F8500000F08BFA204670BD2DE9EE
:102A9000F0410746884614461D4600F05EFAE148BC
:102AA000006890F85000022818D0DE49096801F14A
:102AB0004C00C96CB94301600120DA49096881F80A
:102AC00050005DB101212846FFF7D5F94FF0805045
:102AD000D5490860BFF34F8FBFF36F8F00F060FAE6
:102AE00000F03BFA1CB1CF480068C06C2060CD48B4
:102AF000006890F85000012801D1002608E0C9497B
:102B0000096801F14C00C96C21EA08010160012645
:102B10000020C449096881F8500000F041FA3046AD
:102B2000BDE8F0812DE9F04706460D461746984668
:102B30004FF0010A3EB941F2FD02AFF6E851AFF69F
:102B4000D05000F02FFC344600F007FAB8F1000F27
:102B500002D0E06CC8F8000094F85090022084F88D
:102B60005000052F17D2DFE807F01503070B0D0003
:102B7000E06C2843E0640EE0E06C401CE0640AE096
:102B8000E56408E0B9F1020F01D0E56401E04FF01F
:102B9000000A00E000BF00BFB9F1010F30D1201DD5
:102BA000FEF7B4FE94F82C10012088409F49096874
:102BB00008439E490860E16A01EB81019C4A02EBEF
:102BC0008100211DFEF77CFEA06A08B9012000E00B
:102BD000002038B941F23512AFF68861AFF6706067
:102BE00000F0E0FB8F49E06A0968C96A884207D9AA
:102BF0004FF080508C490860BFF34F8FBFF36F8F49
:102C000000F0CEF95046BDE8F0872DE9F84F0746B1
:102C10000E4690469946DDF828B0012000903FB955
:102C200041F26812AFF6D461AFF6BC6000F0BAFBB7
:102C300000F0E6F93C4600BF5021EFF3118081F32C
:102C40001188BFF34F8FBFF36F8F00BF0546B9F1F7
:102C5000000F02D0E06CC9F8000094F850A00220E8
:102C600084F85000B8F1050F17D2DFE808F015031B
:102C7000070B0D00E06C3043E0640EE0E06C401C9C
:102C8000E0640AE0E66408E0BAF1020F01D0E6640D
:102C900001E00020009000E000BF00BFBAF1010F8A
:102CA0003BD1A06A08B9012000E0002038B941F208
:102CB000AF12AFF66071AFF6487000F073FB5D487D
:102CC0000068A8B9201DFEF721FE94F82C10012001
:102CD000884056490968084354490860E16A01EB95
:102CE0008101534A02EB8100211DFEF7E9FD04E05A
:102CF00004F118015048FEF7E3FD4A49E06A09680B
:102D0000C96A884209D9BBF1000F03D00120CBF872
:102D1000000002E001204949086000BF85F31188E6
:102D200000BF0098BDE8F88F2DE9F04105460F4639
:102D30003DB941F2E312AFF6E471AFF6CC7000F0AA
:102D400031FB00F05DF92C4600BF5021EFF31180FC
:102D500081F31188BFF34F8FBFF36F8F00BF06461B
:102D600094F85080022084F85000E06C401CE0642D
:102D7000B8F1010F37D1A06A08B9012000E00020A6
:102D800030B941F209222E4901F11C0000F00AFB82
:102D900028480068A8B9201DFEF7B8FD94F82C104B
:102DA0000120884021490968084320490860E16AF8
:102DB00001EB81011E4A02EB8100211DFEF780FD1F
:102DC00004E004F118011C48FEF77AFD1549E06A99
:102DD0000968C96A884206D917B10120386002E043
:102DE00001201649086000BF86F3118800BFBDE8C6
:102DF000F08170B5054615B90A48006800E028461C
:102E0000064600F0AAF896F85000022804D10020E7
:102E100086F85000012400E0002400F0C1F82046AC
:102E200070BD00003800002004ED00E050000020DC
:102E30009C00002070000020440300205C00002063
:102E4000541D000884480068401C08B9012000E0B7
:102E5000002020B9F42281A18BA000F0A3FA00BFCA
:102E6000502080F31188BFF34F8FBFF36F8F00BFE7
:102E700000BFFEE7001F4FF080730360001F21F0CA
:102E800001030360001F844B036014380260203884
:102E90007047824800684FF47A71B0FBF1F0401E31
:102EA0004FF0E02148610720086170471CB57C485D
:102EB000014609780191FF21024611700146097807
:102EC00000919DF8001001F05001764A1170072121
:102ED000754A116009E074490968491E724A116017
:102EE0009DF800104906090E00919DF8001001F0B0
:102EF00080018029EFD06C49096809026A4A116093
:102F00001146098801F4E0611160654A0199117068
:102F10006648006840F4700064490860084600682C
:102F200040F070400860FFF7B4FF00204A49086095
:102F3000FDF71CF900201CBD10B547480068B0F52E
:102F40007A7F01D1012000E0002028B94FF4B5724A
:102F500042A14DA000F026FA10BD10B500BF5020D0
:102F600080F31188BFF34F8FBFF36F8F00BF3A48D4
:102F70000068401C384908600846006801280ED1E6
:102F80004A481C380068C0B208B9012000E000209F
:102F900028B94FF4BD7231A13BA000F003FA10BD77
:102FA00010B52D48006828B940F281122BA136A037
:102FB00000F0F8F928480068401E274908600846D4
:102FC000006820B9002080F3118800BF00BF10BD49
:102FD00010B500BF502080F31188BFF34F8FBFF3AF
:102FE0006F8F00BFFEF712FE20B14FF080502F49C7
:102FF0001C39086000BF002080F3118800BF10BD9D
:1030000070B5FDF7E9F80546102D11D305F1E02064
:1030100090F8F04323480078844201DB012000E06F
:10302000002028B94FF42A720CA117A000F0BAF9B9
:103030001E481438006800F4E0601B4909688842A3
:1030400001D8012000E0002028B94FF42E7203A11E
:103050000DA000F0A7F970BD740000202E2E5C2E8C
:103060002E5C4672656552544F535C70726F74618A
:10307000626C655C525644535C41524D5F434D3324
:103080005C706F72742E63004572726F723A2573B2
:103090002C25640D0A000000452E000800000020C9
:1030A00000E400E0780000207C00002020ED00E03B
:1030B00010B50146924800E0006803688B42FBD3DC
:1030C0000246436813448B4204D143684C6823444E
:1030D000436001460A464B6813440468A34211D179
:1030E000884C03682468A34208D04B68046864686D
:1030F00023444B6003681B680B6005E0814B1B6831
:103100000B6001E003680B60884200D0016010BDD5
:1031100030B54FF410437C4800F007042CB1C01DBB
:1031200020F00700784C041B1B1B0246744C2260E5
:103130000024734D6C60D018083820F00700714CE3
:10314000206000246F4D2D686C606E4D2D682C60E2
:103150001146441A4C606B4C24680C606B4D4C68F3
:103160002C606B4D4C682C604FF00044694D2C6016
:1031700030BD2DE9F04104464FF00008FEF7B9FEDE
:103180006048006808B9FFF7C3FF62480068204044
:1031900000285FD1A4B1083404F0070080B104F026
:1031A0000700C0F10800044404F0070008B901203A
:1031B00000E0002020B9BF2257A162A000F0F2F881
:1031C000002C47D052480068844243D84C4E3046C9
:1031D000056801E02E462D686868A04202D2286882
:1031E0000028F7D147480068854233D0306800F1A5
:1031F0000808286830606868001B102813D92F1948
:1032000007F0070008B9012000E0002020B9EC22F7
:1032100041A14CA000F0C6F86868001B78606C60A3
:103220003846FFF745FF3A4968680968081A38497F
:1032300008600846006835490968884203D2344866
:103240000068324908603349686809680843686063
:1032500000202860FEF7A2FD08F0070008B9012051
:1032600000E0002028B94FF496722BA135A000F0A1
:1032700099F84046BDE8F08170B506463546002E07
:1032800035D0083D2C46234960680968084008B1DC
:10329000012000E0002028B94FF4A0721EA129A04F
:1032A00000F080F8206808B9012000E0002028B96B
:1032B00040F2411218A123A000F074F8154960688B
:1032C0000968084098B1206888B91249606809689F
:1032D00088436060FEF70DFE0D4960680968084488
:1032E0000B4908602046FFF7E3FEFEF757FD70BD6F
:1032F000074800687047054800687047704700003D
:103300008000002088000020800300209000002022
:103310008C000020940000202E2E5C2E2E5C467225
:10332000656552544F535C70726F7461626C655C7A
:103330004D656D4D616E675C686561705F342E63CD
:10334000000000004572726F723A25732C25640DDF
:103350000A00000030B50B4601460020202201245F
:1033600009E021FA02F59D4205D303FA02F5491B53
:1033700004FA02F52844151EA2F10102F1DC30BD69
:10338000064C074D06E0E06840F0010394E80700B2
:1033900098471034AC42F6D3FCF7CEFE9C350008BB
:1033A000BC3500080FB4054B10B503A9044A0298B8
:1033B00000F018F810BC5DF814FB0000E7130008DB
:1033C0009800002002E008C8121F08C1002AFAD1A4
:1033D00070477047002001E001C1121F002AFBD195
:1033E000704700002DE9FF4F8BB09A460F46054607
:1033F000002606E025280BD052460D9990476D1CFB
:10340000761C28780028F5D10FB03046BDE8F08F43
:103410000024A0460122604900E0044315F8013F62
:10342000203B02FA03F00842F7D128782E2817D162
:1034300015F8010F44F004042A280ED06FF02F0273
:103440002878A0F1300109290AD808EB880102EB9D
:10345000410100EB01086D1CF2E757F8048B6D1C6D
:10346000287869283ED006DC0028CDD063280BD010
:10347000642804D136E0732810D075284BD052460A
:103480000D999047761C85E017F8040B8DF8000025
:1034900000208DF80100E946012003E057F8049B65
:1034A0004FF0FF3061074FF0000401D40AE0641CC4
:1034B00044450DDA8442FADB19F804100029F6D1EC
:1034C00006E0641C8442FCDB19F804100029F8D1E2
:1034D000264404E019F8010B52460D999047641EEA
:1034E000F8D257E001CF4FF00A0B002802DA404231
:1034F0002D2102E0210504D52B218DF82410012176
:1035000003E0E10705D02021F7E70DF1200908913C
:103510000CE00021F9E701CF4FF00A0BF9E759461B
:10352000FFF718FF01F1300209F8012D0028F6D14C
:10353000ADEB090000F1200B600701D44FF001084A
:10354000D84502DDA8EB0B0000E0002080460024F7
:1035500006E009A85246005D0D999047641C761C50
:1035600008988442F5DB04E0302052460D999047DC
:10357000761CB8F10001A8F10108F5DC05E019F8A6
:10358000010B52460D999047761CBBF10001ABF13F
:10359000010BF4DC6D1C34E709280100BC35000880
:1035A000000000209C000000C433000858360008CA
:1035B0009C000020E4960000D433000800A24A04D6
:1035C00000000000000000000102030406070809D3
:1035D00000000000010203040102030406070809B9
:1035E00002040608000000000000000000000000C7
:1035F00000000000000000000000000000000000CB
:1036000000000000000000000000000000000000BA
:1036100000000000000000000000000000000000AA
:10362000000000000000000000000000000000009A
:10363000AAAAAAAA000000000000000000000000E2
:10364000000000000000000000000000000000007A
:08365000000000000000000072
:0400000508000131BD
:00000001FF
