:020000040800F2
:10000000D08A02207D02000819470008A1020008DA
:1000100015470008E9160008914F0008000000008D
:10002000000000000000000000000000C501000802
:10003000351C00080000000019020008D54800081F
:10004000970200089702000897020008970200082C
:10005000970200089702000897020008970200081C
:10006000970200089702000897020008970200080C
:1000700097020008970200089702000897020008FC
:1000800097020008970200089702000897020008EC
:1000900097020008970200089702000897020008DC
:1000A00097020008970200089702000897020008CC
:1000B00097020008970200089702000897020008BC
:1000C00097020008970200089702000897020008AC
:1000D000970200089702000897020008970200089C
:1000E000970200089702000897020008970200088C
:1000F000970200089702000897020008970200087C
:10010000970200089702000897020008970200086B
:10011000970200089702000897020008970200085B
:10012000970200089702000897020008970200084B
:1001300097020008C51C00089702000897020008F3
:10014000970200089702000897020008970200082B
:10015000970200089702000897020008970200081B
:10016000970200089702000897020008970200080B
:10017000970200089702000897020008000000009C
:1001800097020008970200089702000897020008EB
:1001900097020008970200089702000897020008DB
:1001A000970200089702000897020008DFF810D0B5
:1001B00000F046FE00480047C5CC0008AFF30080C1
:1001C000D08A02202A4B19680868B0E8F04F80F303
:1001D0000988BFF36F8F4FF0000080F311887047DC
:1001E0000000000006480068006880F3088862B6D6
:1001F00061B6BFF34F8FBFF36F8F00DF00BF00BF4B
:1002000008ED00E0DFF80C00016841F470010160C6
:10021000704700BF88ED00E0EFF30980BFF36F8FF8
:10022000134B1A681EF0100F08BF20ED108A20E94A
:10023000F04F106008B44FF0500080F31188BFF306
:100240004F8FBFF36F8F18F04BF84FF0000080F323
:10025000118808BC19680868B0E8F04F1EF0100F4C
:1002600008BFB0EC108A80F30988BFF36F8F704726
:1002700050010020EFF305807047000006488047DA
:1002800006480047FEE7FEE7FEE7FEE7FEE7FEE77B
:10029000FEE7FEE7FEE7FEE7B1490008AD01000812
:1002A0007046694605F0AEFFFFF7FEFF2DE9F05FEF
:1002B0000546002092469B468846064681464024D5
:1002C0001BE0284641464746224600F0E2FB5346E3
:1002D0005A46C01A914110D311461846224600F0E2
:1002E000C9FB2D1A67EB01084F4622460120002169
:1002F00000F0C0FB17EB00094E41201EA4F10104E1
:10030000DFDC484631462A464346BDE8F09F000000
:1003100000487047C094010810B50446FFF7F8FF85
:100320000068005D00F0010010BDA0F14101192935
:1003300000D82030704700000649074A086850433B
:1003400043F23902104408604008704701490860D0
:1003500070470000E40100206D4EC64110B5431AFD
:10036000934209D28318881803E010F8011D03F89E
:10037000011D521EF9D210BD40EA01039B0703D0B4
:1003800009E008C9121F08C0042AFAD203E011F8D4
:10039000013B00F8013B521EF9D210BDD2B201E080
:1003A00000F8012B491EFBD270470022F6E710B57A
:1003B00013460A4604461946FFF7F0FF204610BDD3
:1003C000421C10F8011B0029FBD1801A704710B5A0
:1003D000002200E0521C835C8C5CA34201D1002B04
:1003E000F8D1D8B2E1B2401A10BD30B504460020B1
:1003F000034600E05B1C934203D2E05CCD5C401BF3
:10040000F8D030BD034611F8012B00F8012B002A6B
:10041000F9D11846704730B505460020034600E084
:100420005B1C934205D2EC5CC85C201A01D1002C05
:10043000F6D130BD0FB400B58DB010A909900B9066
:1004400000914FF0FF300A9000200C900548069074
:10045000054807906A4609A80F9900F031FB0DB0D6
:100460005DF814FBDD0A0008FB0A00082DE9FF4FC8
:10047000087883B09946FF2805D0491C2D2804D060
:100480000024002008E000200BE00124F9E700EB45
:10049000800003EB4000491C0B78FF2BF7D104B11F
:1004A000404200230293147819461D462D2C01D09A
:1004B0002B2C04D1521C2D2C13D000240294AA46BC
:1004C0001478FF2C0FD00A25A3FB057801FB0581CA
:1004D0004FF0000C03FB0C11521CE3194AEB010115
:1004E000EEE70124EAE7814453EA010002D019F55E
:1004F000C87F06DA03980021C0E9001107B0BDE803
:10050000F08F0025AE4E2F46DFF8B882184600F077
:1005100057FCCDE90001B9F1000002DAC9F100048D
:1005200000E004460023A74A1AEB030B42EB045AEF
:1005300012E0E00707D02A4633463846414600F02D
:1005400045F9074688462A4633461046194600F0C4
:100550003DF905460E466410002CEAD1DDE90001A4
:10056000B9F1000F5A46534606DA00F0A1F93A46AF
:10057000434600F09DF905E000F028F93A4643466D
:1005800000F024F9029A0AB181F00041039AC2E90D
:100590000001B3E72DE9FF4F1F468DB0D7E90146B3
:1005A0004FF0FF382E2045464FF000090B90B969F7
:1005B0006D1C0E988847396A824688470028F6D114
:1005C000BAF1FF3F0AD024F4D064002E11DDBAF155
:1005D0002B0F08D0BAF12D0F0BD102E0404611B01D
:1005E0008DE744F48064B9696D1C0E988847824693
:1005F000761E6946600501D52D2000E02B208DF880
:10060000000001F1010B0DF1200809E0B9696D1C32
:100610000E98884782460F9844F40074761E056051
:10062000002E02DDBAF1300FF0D00B998A453ED191
:1006300044F0800406E00F99681CA9F1010944F414
:1006400000740860B9696D1C761E0E988847824652
:100650003028F0D02BE00B998A4505D1200603D431
:1006600044F08004761E18E0504604F087FE08B37C
:100670000DF11301761E44F400748B4508D2AAF1E3
:1006800030000BF8010B200607D5A9F1010003E0AB
:10069000200602D409F101008146A00502D50F9978
:1006A000681C0860B9696D1C0E9888478246002E48
:1006B000D1DC53E0002E51DDBAF1650F02D0BAF162
:1006C000450F4BD1A00549D5B9696D1C24F4407480
:1006D000761E0E9888478246002E0CDD2B2804D00B
:1006E000BAF12D0F07D144F48074B9696D1C0E98CE
:1006F00088478246761EE00501D52D2100E02B219A
:1007000008F8011BCDF82C8021E00DF12901761E9F
:1007100044F4007488450CD2AAF1300010F0FF00B8
:1007200088F8000002D10B99884509D908F1010821
:1007300006E0E00501D5244801E042F20F70814651
:10074000B9696D1C0E98884782460F980560002E87
:1007500004DD504604F012FE0028D6D1F9690E9847
:100760008847FF208BF8000088F8000000200690E2
:1007700007904B466A4608A906A8FFF777FEA00532
:1007800002D46FF001002AE714F0240F0AD0E0072A
:1007900014D1DDE906123868031D3B600068C0E92A
:1007A00000120BE0DDE9060100F02EFB0146E00738
:1007B00004D13868021D3A600068016028460EE7DF
:1007C000000014400000F03FF1D8FFFF2DE9FE4F7C
:1007D00081EA030404F0004421F0004100944FF04A
:1007E000000B23F0004350EA01045ED052EA0304F8
:1007F0005BD0C3F30A54C1F30A552C44A4F2F3347A
:100800000194A0FB0254C1F3130141F48011C3F31E
:10081000130343F4801301FB024400FB034E840ADC
:10082000970A44EA815447EA8357A4FB0768029574
:100830008D0A05FB07854FEA932C04FB0C54270512
:10084000029D4FEA065847EA1637B5EB08056EEBEE
:10085000070C870E920E47EA811742EA8312A7FB24
:100860000201B6EB0B0164EB00042B0D43EA0C33E1
:100870005E1844EB1C50DA465146E7FB0201C5F313
:1008800013044FEA0B3343EA14534FEA0432019C3A
:1008900043EA0603A4F10C040294009CCDE900B4E1
:1008A00000F099F903B0BDE8F08F00200146F9E7A8
:1008B0002DE9F04D81EA030404F0004B21F00045DE
:1008C00014464FF0000A23F0004150EA050220D000
:1008D00054EA01021DD0C5F30A570246C5F31303BB
:1008E000C1F31300C1F30A5640F4801543F480139A
:1008F000A7EB0608101BD64608F2FD3873EB05007F
:1009000002D308F1010801E092185B41B8F1000F31
:1009100003DA00200146BDE8F08D00204FF480117D
:10092000064684460EE0171B73EB050705D3121B22
:1009300063EB050306434CEA010C49084FEA30001B
:1009400092185B4150EA0107EDD152EA030012D040
:1009500082EA040083EA0501084305D0101BAB417D
:1009600006D20122002306E000224FF0004302E0FD
:100970006FF0010253101AEB06004CEB085110EB1C
:100980000A0041EB0B01BDE8F04D00F015B90EB5C2
:1009900040F2334102910021CDE900110A460B4695
:1009A00000F019F903B000BD70B5C1F30A5201F0AF
:1009B00000450024C1F3130140F2FF3341F48011DC
:1009C0009A4201DA002070BD40F233439A42A2F20B
:1009D000334203DC524200F05CF800E090402C43CC
:1009E000F1D0404270BD000030B5041E71F100042A
:1009F00004DB4FF00044404264EB0101141E73F12C
:100A0000000405DB1C464FF00043524263EB040335
:100A10008B4208BF824230BD30B5041E71F1000424
:100A200004DB4FF00044404264EB0101141E73F1FB
:100A3000000405DB1C464FF00043524263EB040305
:100A4000994208BF904230BD30B50B4601460020A8
:100A50002022012409E021FA02F59D4205D303FA80
:100A600002F5491B04FA02F52844151EA2F1010201
:100A7000F1DC30BD202A04DB203A00FA02F100202C
:100A800070479140C2F1200320FA03F319439040CC
:100A90007047202A04DB203A21FA02F00021704737
:100AA00021FA02F3D040C2F12002914008431946D6
:100AB00070470000026811441378016018467047BF
:100AC000D16004495161044911620021116111464C
:100AD00000F0DAB9B50A000819030008426842B10B
:100AE000016811F8013B23B1521EC0E900121846FB
:100AF00070470121C160881E704742685AB1C368BF
:100B0000016843B983688B4205D0491E521CC0E975
:100B10000012002070474FF0FF3070470FB40023E1
:100B200000B589B00CA900910B996FF00042CB6021
:100B30001E4B06931E4B07930423CDE901321D4A39
:100B4000089202466B460020FFF724FD09B05DF8CD
:100B500014FB70B586B006464FF0FF300091CDE92A
:100B60000101002015460C4604903246694604A84F
:100B7000FFF7D4FF02460498211825B108B10846B2
:100B800000E020462860049800280DD0002A02DDED
:100B90000098884208D0081B0094CDE90104324631
:100BA000694604A8FFF7BAFF06B070BDDD0A000869
:100BB000FB0A00081903000810B5141E73F10004A5
:100BC00008DA401C41F1000192185B411A4301D13F
:100BD00020F0010010BD2DE9F04D92469B4611B169
:100BE000B1FA81F202E0B0FA80F220329046FFF7CB
:100BF00041FF04460F4640EA0A0041EA0B01534612
:100C00005A46084313D0114653EA010019D0C8F1DF
:100C100040025046FFF73DFF05460E4650465946F6
:100C20004246FFF727FF084305D0012004E0204695
:100C30003946BDE8F08D0020054346EAE0762C43B6
:100C400037430A986305E40AA0EB08000022FD0A76
:100C500044EA47540A3002D500200146E9E701057D
:100C600010196941DDE9084500196941BDE8F04DF9
:100C7000A2E72DE9FE4F804681EA0300C00F0C4633
:100C8000009021F0004123F00045B8EB0200A9419B
:100C900005D24046214690461C460B46024623F0AC
:100CA0000040104347D0270DC7F30A00C3F30A5191
:100CB0000290401A019040286BDAC3F3130040F40D
:100CC000801B0098924620B10023D2EB030A63EB0D
:100CD0000B0B01985946C0F140025046FFF7CAFE7F
:100CE00006460D4650465946019A00F0BBF810EBF7
:100CF00008006141002487EA115284EAE7731A432D
:100D000040D0009A62B3019A012A4FEA075215DCDB
:100D1000001B61EB02014FF0004202EA0752CDE9ED
:100D20000042001C41F5801132462B46FFF753FF6D
:100D300003B0BDE8F08F40462146F9E7001B61EBA8
:100D40000201001C41F5801300185B412018A2F538
:100D5000001747EB030140EAD570B6196D4111E069
:100D60006D084FEA360645EAC0754FEA0752001B88
:100D700061EB0201001C41F5801149084FEA300087
:100D80000019514132462B4603B0BDE8F04FFFF742
:100D900013BF0098012240000023D0EB020263EB56
:100DA000E073009821464FEAE074B8EB000061EB75
:100DB0000401E9E783F000435BE781F0004158E775
:100DC0000EB540F2334202920022CDE900221346D2
:100DD000FFF701FF03B000BDC1F30A52C1F31301D5
:100DE00040F2FF3341F480119A4202DA00200146BA
:100DF000704740F233439A42A2F2334202DC52423D
:100E0000FFF747BEFFF736BE01F0004330B421F0D4
:100E1000004150EA010206D00A0DA2F56072C1F34A
:100E20001301002A02DC30BC00207047440F44EA62
:100E3000C104C100E01830BC00EBC25000F0BCB9E6
:100E4000064C074D06E0E06840F0010394E8070017
:100E500098471034AC42F6D3FFF7ACF96C9F010809
:100E60008C9F0108202A06DBCB17203A41FA02F0BA
:100E700043EAE07306E041FA02F3D040C2F12002F7
:100E800091400843194670472DE9F34F8BB04FF05E
:100E9000000801F10C000C464FF0010B46460DF125
:100EA000080A01906269012101989047051E2DD022
:100EB000252D2CD0216A8847C0B162690121019893
:100EC0009047216A88470028F7D1411E626901983E
:100ED000904700E0761CA1690B988847216A8847F3
:100EE0000028F7D1E1690B988847DBE7A1690B98E7
:100EF00088470746A84201D1761CD3E7E1690B98E1
:100F000088477F1C02D1B8F1000F6FD047E100275E
:100F100062693D463946019890472A2804D16269A2
:100F20000121019890470125DFF88892626901212B
:100F300001989047A0F130010A290AD24F45E5DC1B
:100F400007EB870100EB4107303FDFD445F0100588
:100F5000ECE7E90601D46FF000476C280AD04C2872
:100F600014D0682815D06A280DD074281CD07A288F
:100F70001AD01DE062690121019890476C2802D0C7
:100F800045F0040514E045F002050DE045F02005AC
:100F90000AE06269012101989047682802D045F073
:100FA000080505E045F40065626901210198904754
:100FB000C4E9015765283DD019DC58287AD00CDCEB
:100FC000452837D004DC252826D0412831D131E00E
:100FD00046282FD047282CD12CE05B2877D06128D9
:100FE00028D063287CD0642823D15AE0D1E06F2830
:100FF00048D008DC66281DD067281BD0692821D07E
:101000006E2816D127E0702845D0732868D075283F
:1010100047D078280DD14DE0A1690B988847054647
:1010200025283FF469AFE1690B9888476D1C3FF4B0
:101030006AAFB4E023466A466FF001000B99FFF7F0
:10104000A9FA9FE045F040006060A80723464FF0F2
:10105000000236D43EE0E8077FF447AF2068011D68
:1010600021600068290501D506701BE7290701D515
:10107000068017E7A90703D5F117C0E9006111E75A
:1010800006600FE745F040006060A80723464FF078
:10109000080216D41EE040F60E0125EA0100606049
:1010A00016E045F040006060A80723464FF00A02B2
:1010B00007D40FE045F040006060A80708D523463C
:1010C00010226FF001000B99AFF300805AE007E0A7
:1010D000234610226FF001000B99AFF3008051E01E
:1010E0004FF000094F464B46632802D05B2807D0DB
:1010F00041E02079C00601D40120A06001273AE038
:1011000062690121019890475E2805D14FF00109DD
:101110006269494601989047216939B900210A4618
:10112000534643F82120491C0829FADBB0B3216952
:1011300069B9C11700EBD16253110AEB830122F0A8
:101140001F02821A01200B68904003430B60626902
:101150000121019890475D28E8D1B9F1000F09D02D
:101160000020514651F82020D24341F82020401C55
:101170000828F7DB02AB224600976FF001000B99BD
:10118000AFF3008000280CDA401C08D1BBF1000F3F
:1011900005D04FF0FF300DB0BDE8F08FFFE74046BF
:1011A000F9E7E90701D108F1010806444FF0000B07
:1011B00078E60000CCCCCC0C0029A8BF7047401CBE
:1011C000490008BF20F00100704710B4B0FA80FC5D
:1011D00000FA0CF050EA010404BF10BC704749B19A
:1011E000CCF1200421FA04F411FA0CF118BF01210A
:1011F00021430843A3EB0C01CB1D4FEA00614FEAEA
:10120000102042BF002010BC704700EBC3501044B8
:101210000029A4BF10BC7047401C490008BF20F043
:10122000010010BC704730B58C1810F8012B12F07B
:101230000F0301D110F8013B120906D110F8012B60
:1012400003E010F8015B01F8015B5B1EF9D101E0DE
:1012500001F8013B521EFBD1A142E6D3002030BD74
:101260001CB5012400220421084617F0F1F9324987
:1012700008600846006810B130A003F073FF03F067
:10128000C9FB0CF013FB36A003F06CFF414803F0E0
:1012900069FF414803F066FF40A003F063FF4CA0E4
:1012A00003F060FF5AA003F05DFF644803F05AFFAB
:1012B00041F2727262A167A003F054FF6FA172A0A5
:1012C00003F050FF76A178A003F04CFF7CA17EA034
:1012D00003F048FF82A185A003F044FF88A18CA001
:1012E00003F040FF16F0BCFC9048012100234A02A5
:1012F000CDE900108EA1914817F0C2FC0446012CE4
:1013000002D18FA003F02EFF9548022100230A028C
:10131000CDE9001093A1964817F0B2FC0446012CC9
:1013200002D194A003F01EFF9A48006816F042FE16
:1013300016F0D8FC1CBD00001C000020B4B4BDA8F1
:101340004D5154545F446174615F5175657565CF4B
:10135000FBCFA2B6D3C1D0B3C9B9A6210D0A0000F4
:10136000B1BEC0FDB3CCCAB9D3C3BFAAB7A2B0E562
:10137000BDD3C8EBB0D9B6C8D4C6A3ACB2A2C7D24D
:10138000C9CFB1A8CEC2CAAAB6C8CAFDBEDD0A0A74
:10139000000000001895010874950108B1BEC0FD59
:1013A000B3CCB5C44950B5D8D6B7BEF9D4DA557365
:1013B00065722F617263682F7379735F61726368FE
:1013C0002E68CEC4BCFED6D0D0DEB8C40A0A000057
:1013D000B1BEC0FDB3CCB2CEBFBC3C3C4C77495093
:1013E000D3A6D3C3CAB5D5BDBFAAB7A2D6B8C4CFFA
:1013F0003E3EB5DA3232D5C220C1ACBDD3B5BDB0A8
:10140000D9B6C8CCECB9A4CEEFBDD3C8EB0A0A005C
:10141000D4DABFAAB7A2B0E5B5C46468743131BDEF
:10142000D3BFDABDD3C9CF4448543131CEC2CAAAE2
:10143000B6C8B4ABB8D0C6F70A0A0000C494010815
:101440006D7174742E6865636C6F7564732E636F51
:101450006D000000B0D9B6C8D4C6D3F2C3FB2F4983
:1014600050B5D8D6B7203A202573200920B6CBBF77
:10147000DABAC5203A202564200A0A003531383707
:101480003235303439000000B0D9B6C8D4C6434C28
:1014900049454E545F4944203A2025730A0A00000A
:1014A0003231373533370000B0D9B6C8D4C65553BA
:1014B00045525F4E414D45203A2025730A0A0000EF
:1014C0003132333435000000B0D9B6C8D4C65041EB
:1014D0005353574F5244203A2025730A0A00000004
:1014E00074656D705F68756D00000000B0D9B6C896
:1014F000D4C6544F504943203A2025730A0A0000AD
:10150000746573745F6D65737361676500000000D7
:10151000B0D9B6C8D4C6544553545F4D4553534112
:101520004745203A2025730A0A00000014000020D5
:1015300054657374315F5461736B0000CD4A0008C9
:101540004372656174652054657374315F546173CF
:101550006B207375636573732E2E2E0D0A000000C9
:101560001800002054657374325F5461736B00007F
:10157000A14B000843726561746520546573743231
:101580005F5461736B207375636573732E2E2E0A1F
:101590000A0000001000002010B501F08BFC00F0E4
:1015A0003FFD03F0B1F902F0EBF900F017FA02A0E9
:1015B00003F0D8FD10BD00002D2D2D2D2D2D2D2D2E
:1015C0002D2D2D204C7769702064656D6F202D2D99
:1015D0002D2D2D2D2D2D2D2D2D2D0A001CB52848FE
:1015E00000F024FE00F0EAFC2648006840F001000C
:1015F0002449086002208DF8000000208DF80100C9
:101600008DF802008DF803008DF804008DF80500B8
:101610001D481B49086001204860002118480182CC
:10162000C0F814D0012181610021C1614FF4000193
:10163000016249128160C910C16000F0CBFE04460E
:101640003CB900BF11A003F08DFD14A003F08AFD8A
:1016500007E000BF0DA003F085FD18A003F082FD98
:1016600000BF08231C4A1D49054800F09DFD0823C2
:101670001B4A1C49024800F051FD20461CBD0000D9
:101680004802002000900240008002400D0A5B44A6
:10169000454255475D203E3E2000000065746820AD
:1016A000686172647761726520696E697420737510
:1016B000636573732E2E2E0A000000006574682087
:1016C000686172647761726520696E697420666111
:1016D000696C642E2E2E0A00303400209003002006
:1016E000900400209002002000BFFEE70748006839
:1016F00040F08070054908600020054948600846B0
:10170000006840F00100086070470000FCED00E058
:10171000001000E00148406870470000001000E041
:1017200031B500BFB425009800FB05F40023FFF796
:10173000F1FF024611E0FFF7EDFF014691420CD0A8
:10174000914202D9881A034403E0C2F1FF300844F1
:1017500003440A46A34200D300E0ECE700BF38BDD3
:1017600038B5694640A00CF099FB684608F0B2FB1A
:10177000044600BF41A003F0F5FC22463AA143A075
:1017800003F0F0FC00BF00BF00BF3CA003F0EAFC88
:1017900046A003F0E7FC00BF00BF38A003F0E2FC66
:1017A00041F2727221464AA003F0DCFC00BF1FE048
:1017B00041F27271204615F061FB4E4908600846FF
:1017C0000068002808DB00BF2CA003F0CBFC4AA077
:1017D00003F0C8FC00BF0CE000BF28A003F0C2FC6F
:1017E0004BA003F0BFFC00BF40F6B83016F0A6FBDC
:1017F000DEE700BF00BF21A003F0B4FC50A003F05F
:10180000B1FC00BF02F07CFE50B100BF1BA003F092
:10181000A9FC53A003F0A6FC00BF15F007FBB3E73B
:1018200000BF16A003F09EFC56A003F09BFC00BF77
:10183000012259A12F48006802F0C0FD00280ADAF1
:1018400000BF0EA003F08EFC56A003F08BFC00BF7F
:1018500015F0ECFA98E700BF08A003F083FC57A04E
:1018600003F080FC00BF38BD6D7174742E68656331
:101870006C6F7564732E636F6D0000000D0A5B441E
:10188000454255475D203E3E20000000686F73745E
:10189000206E616D65203A202573202C20686F73BF
:1018A000745F6970203A2025730A0000312EBFAAA8
:1018B000CABCC1ACBDD3B6D4D3A6D4C6C6BDCCA811
:1018C000B5C4B7FECEF1C6F72E2E2E0A00000000DA
:1018D000B7FECEF1C6F74950B5D8D6B7A3BA25732F
:1018E000A3ACB6CBBFDABAC5A3BA253064A3A10AAC
:1018F0000000000020000020C1ACBDD3D4C6C6BD8E
:10190000CCA8B7FECEF1C6F7B3C9B9A6A3A10A0009
:10191000C1ACBDD3D4C6C6BDCCA8B7FECEF1C6F708
:10192000CAA7B0DCA3ACB5C8B4FD33C3EBD4D9B3FC
:10193000A2CAD4D6D8D0C2C1ACBDD3A3A10A0000DC
:10194000322E4D515454D3C3BBA7C3FBD3EBC3DCDE
:10195000D4BFD1E9D6A4B5C7C2BC2E2E2E0A000032
:101960004D515454D3C3BBA7C3FBD3EBC3DCD4BF8B
:10197000D1E9D6A4B5C7C2BCCAA7B0DC2E2E2E0AA8
:1019800000000000332EBFAACABCB6A9D4C4CFFB46
:10199000CFA22E2E2E0A000074656D705F68756DE3
:1019A00000000000BFCDBBA7B6CBB6A9D4C4CFFB07
:1019B000CFA2CAA7B0DC2E2E2E0A0000342EBFAA5A
:1019C000CABCD1ADBBB7BDD3CAD5B6A9D4C4B5C402
:1019D000CFFBCFA22E2E2E0A0000000010B5084823
:1019E000084908604FF4E1304860002105488160F3
:1019F000C160016181610C21416101F0C1FE10BD36
:101A0000001001400802002008B500BF002000902F
:101A10000A48006840F0100008490860084600685D
:101A200000F01000009000BF00BF00F01BF8012282
:101A30000421034801F026FA08BD000030380240B6
:101A40000010024000B585B00420009000200190F5
:101A5000012002906946024801F0FEF805B000BD81
:101A60000010024000B585B00420009001200190D4
:101A7000022003906946024801F0EEF805B000BD6F
:101A80000010024070B5002600243AE009E0681C0E
:101A900085B2B5F57A7F01DD002070BD0120FFF72A
:101AA0003FFE0421194801F0E5F90028EFD032206B
:101AB000FFF736FE00250421144801F0DBF9012868
:101AC00018D109E0681C85B2B5F57A7F01DD0020E8
:101AD000E3E70120FFF724FE04210C4801F0CAF9D6
:101AE0000128EFD00025C4F1070101208840C0B2D1
:101AF000064304E0C4F10701012088408643601CCE
:101B0000C4B2082CC2DB3046C7E700000010024018
:101B10002DE9F0412DED028B0446FFF7A3FF0022D3
:101B20000421414801F0AEF944F25060FFF7F8FD9E
:101B3000012204213C4801F0A5F91E20FFF7F0FD29
:101B4000FFF780FF0421384801F094F9002868D19C
:101B500000250BE0681C85B2642D04DD0020BDEC7F
:101B6000028BBDE8F0810120FFF7DAFD04212E4849
:101B700001F080F90028EDD0002508E0681C85B24E
:101B8000642D01DD0020EAE70120FFF7C9FD0421F3
:101B9000254801F06FF90128F0D0FFF773FF20709E
:101BA000FFF770FF6070FFF76DFFA070FFF76AFF2F
:101BB000E070FFF767FF20716078217801EBC102C8
:101BC00002EB011100EB81073846FEF7E0FE9FEDC6
:101BD000170B53EC102BFEF76BFEC4E90201E07803
:101BE000A17801EBC10202EB011100EB810738463D
:101BF000FEF7CDFE9FED0D0B53EC102BFEF758FEBC
:101C0000C4E90401207861780844A1780844E178A7
:101C10000844C6B22079B04201D101209FE70020DC
:101C20009DE700209BE7000000100240000000003C
:101C3000000059407047016801F58051896941F001
:101C40000202016801F580518A617047016801F55F
:101C50008051896941F40052016801F580518A611F
:101C60007047000008B508490968C9084FF47A723E
:101C7000B1FBF2F14143009100BF00BF00994A1E41
:101C800000920029F9D108BD0000002038B50446B3
:101C900000200090206800F58050806940F4801199
:101CA000206800F580508161206800F580508069CF
:101CB00000900120FFF7D6FF0099206800F58050C2
:101CC000816138BD10B500BF5021EFF3118081F361
:101CD0001188BFF34F8FBFF36F8F00BF04460448D6
:101CE00000F025FB204680F3118800BF10BD0000E6
:101CF0004802002030B503461479557944EA05209E
:101D0000084C0C442064D4782406957844EA0544B1
:101D1000557844EA0524157844EA0500014C0C4442
:101D2000606430BD0080024070B5AEB004460E461F
:101D3000002526B14FF40061E160C900A1600020D8
:101D4000119012901390149015901690E06918B9A4
:101D50004FF48060179001E0002017904FF400705E
:101D60001890002019901A901B901C901D904020F4
:101D70001E9000201F90209021902290239024906C
:101D800025902690802027900020289029902A9046
:101D90002B902C902D902068056871480540DDE956
:101DA000110108431399084314990843A168084393
:101DB0001599084316990843E168084317990843A1
:101DC00018990843199908431A9908431B9908431D
:101DD00005432068056020680568012000F08AF945
:101DE00020680560DDE91C0108431E9908431F991E
:101DF00008432099084321990843229908432399CD
:101E000008432168486020684568012000F072F9A5
:101E10002068456024982168886025982168C860FA
:101E2000206885694FF641700540DDE9261040EADB
:101E3000014028990843299908432A9908432B9976
:101E4000084305432068856120688569012000F00A
:101E500051F920688561DDE92C0108432168C861DA
:101E60002068C569012000F045F92068C56100209F
:101E700001904FF000700290002003904FF400108A
:101E80000490002005900690079008900420099087
:101E9000C0050A9040120B9080010C9040120D90EA
:101EA00080200E9000200F901090206800F5805048
:101EB00085692C480540DDE9010108430399084381
:101EC000049908430599084306990843079908436C
:101ED00008990843099908430543206800F5805094
:101EE0008561206800F580508569012000F002F9C5
:101EF000206800F580508561DDE90A0108430C99EE
:101F000008430D9908430E9908430F9940EA810050
:101F10001099084340F40001206800F580500160EA
:101F2000206800F580500568012000F0E3F8206883
:101F300000F580500560A069012809D1206800F5EE
:101F40008050C06908490843216801F58051C86183
:101F5000002120466269FFF7CDFE2EB070BD000063
:101F60000F8120FF233FDEF84000010038B5044612
:101F7000002000902068006840F00400216808609C
:101F80002068006800900120FFF76CFE009821682F
:101F9000086038BD38B5044600200090206800680D
:101FA00040F0080021680860206800680090012067
:101FB000FFF758FE00982168086038BD00B587B06B
:101FC00000BF002001901448006840F4807012495E
:101FD00008600846006800F48070019000BF00BFF0
:101FE00001200390049002200590029002A90B4862
:101FF00000F032FE00220221084800F043FF0520D5
:1020000000F078F801220221044800F03BFF05208F
:1020100000F070F807B000BD3038024000200240E8
:1020200008B500BF002000902C48006840F08000F8
:102030002A4908600846006800F08000009000BF50
:1020400000BF00BF002000900846006840F0040078
:1020500008600846006800F00400009000BF00BF60
:1020600000BF002000900846006840F001000860B2
:102070000846006800F00100009000BF00BF00BFEC
:10208000002000900846006840F002000860084602
:10209000006800F00200009000BF00BF00BF0020F9
:1020A00000900846006840F040000860084600685C
:1020B00000F04000009000BF00BF00BF0020009073
:1020C0000846006840F4807008600846006800F424
:1020D0008070009000BF00BF08BD00003038024093
:1020E0000348008802490988491C014A1180704749
:1020F0002800002070B5044600F0CAFE06462546BA
:10210000681C10B104480078054400BF00F0C0FE10
:10211000801BA842FAD370BD0C00002070B50446A5
:102120000D461646002200BF94F84500012801D153
:10213000022070BD012084F8450000BF022084F811
:102140004400A56200221FE005EB42114FF0004061
:10215000086044F2F4504860C2EBC21000EB40004B
:1021600006EB80008860A069012803D1486820F050
:1021700000404860581E904204D905EB42102030C0
:10218000C86000E0CD60521C9A42DDD3206800F5A3
:102190008050C560012084F8440000BF002084F80E
:1021A000450000BF00BFC4E770B504460D461646A3
:1021B000002200BF94F84500012801D1022070BD23
:1021C000012084F8450000BF022084F84400E56245
:1021D00000221BE005EB42114FF480100860C2EBB7
:1021E000C21000EB400006EB80008860E06918B97F
:1021F000086840F440000860581E904204D905EB7E
:1022000042102030C86000E0CD60521C9A42E1D3F9
:10221000206800F580500561012084F8440000BF6B
:10222000002084F8450000BF00BFC8E710B5044691
:10223000022084F84400204600F01AFA002084F8B6
:10224000440000BF84F8450000BF10BD10B504462F
:1022500000BF04A002F086FF05A002F083FF00BFCC
:1022600010BD00000D0A5B4552525D203E3E20002D
:10227000657468206572720A000000000146002241
:1022800000BF91F84500012801D1022070470120CC
:1022900081F8450000BF022081F84400886A006888
:1022A00000F00040002838D1886A006800F480708F
:1022B000F0B1886B401C8863886B012801D1886A63
:1022C00008638B6A4B63886A0068C0F30D40021F85
:1022D000CA63086B83680B64886AC06888620120DF
:1022E00081F8440000BF002081F8450000BFCDE721
:1022F000886A006800F4007048B1886A08630023A7
:102300004B6301238B63886AC068886205E0886B31
:10231000401C8863886AC0688862012081F8440094
:1023200000BF002081F8450000BF0120AEE710B5D6
:102330000446206800F58050406900F040004028C5
:102340000FD1204600F09EFA4021206800F5805011
:102350004161012084F8440000BF002084F845005A
:1023600016E0206800F58050406900F0010078B167
:10237000204600F067FB0121206800F58050416194
:10238000012084F8440000BF002084F8450000BF0D
:102390004FF48031206800F580504161206800F5DD
:1023A0008050406900F40040B0F5004F10D1204645
:1023B000FFF74CFF4FF40041206800F58050416169
:1023C000012084F8440000BF002084F8450000BFCD
:1023D00010BD00002DE9FC410446002500200190BD
:1023E0009C4E0027804614B90120BDE8FC8194F87A
:1023F000440028B9002084F84500204600F070F918
:1024000000BF002000909448006840F4804092494A
:1024100008600846006800F48040009000BF00BFDC
:102420008E48006820F400008C4908600846006867
:10243000216A084389490860206800F580500068D7
:1024400040F00101206800F58050016000F020FD9F
:1024500007460FE000F01CFDC01BB0F5FA7F09D95C
:10246000032084F8440000BF002084F8450000BF2A
:102470000320BAE7206800F58050006800F00100F2
:102480000028E7D12068056925F01C0500F0BCFE96
:1024900006467348864205D37248864202D245F00A
:1024A00008051AE06F48864205D36A48864202D280
:1024B00045F00C0511E06748864203D36A4886421E
:1024C00000D20AE06848864205D36848864202D2B4
:1024D00045F0040501E045F01005206805614FF462
:1024E00000420021204600F0AEFA48B14FF001084A
:1024F00041462046FFF718FC012084F8440074E7A9
:102500000520FFF7F7FD6068002871D000F0C0FCDF
:10251000074600BF01AA0121204600F069F900F03A
:10252000B7FCC01B41F2883188420FD94FF0010837
:1025300041462046FFF7F8FB012084F8440000BF25
:10254000002084F8450000BF03204EE7019800F00A
:1025500004000428DED182020021204600F073FA34
:1025600048B14FF0010841462046FFF7DDFB01204E
:1025700084F8440039E700F08BFC074600BF01AA4D
:102580000121204600F034F900F082FCC01B41F22A
:10259000883188420FD94FF0010841462046FFF7A5
:1025A000C3FB012084F8440000BF002084F84500EC
:1025B00000BF032019E7019800F020002028DED199
:1025C00001AA1F21204600F013F948B14FF001087D
:1025D00041462046FFF7A8FB012084F8440004E7A9
:1025E000019800F0100020B14FF40061E16002E0BA
:1025F0000DE00021E160019800F00400042802D100
:102600000021A1601DE04FF48041A16019E0E06865
:10261000C0F3CF00A168C1F34F0140EA01020021DD
:10262000204600F010FA48B14FF00108414620461C
:10263000FFF77AFB012084F84400D6E60520FFF777
:1026400059FD41462046FFF76FFB012084F8440006
:102650000020CAE600879303443802400438014052
:10266000002D3101C00E160200E1F50580D1F00801
:1026700010B5044614492068884223D100BF13488E
:10268000006820F08060114908600846006820F06A
:10269000006008600846006820F00070086000BF15
:1026A00032210B4800F018FA86210A4800F014FA8B
:1026B0004FF40061084800F00FFA4FF4C04107489A
:1026C00000F00AFA10BD00000080024030380240DD
:1026D00000080240000002400004024000180240CE
:1026E00010B586B004463C492068884271D132203A
:1026F00001900220029000200390032004900B2000
:10270000059001A9354800F0A7FA86200190022023
:10271000029000200390032004900B20059001A953
:102720002F4800F099FA4FF40060019002200290C7
:1027300000200390032004900B20059001A9294854
:1027400000F08AFA4FF4C04001900220029000206D
:102750000390032004900B20059001A9224800F06B
:102760007BFA002206213D2000F0F6FB3D2000F020
:10277000E6FB00BF00BF002000901C48006840F04E
:1027800000701A4908600846006800F00070009068
:1027900000BF00BF00BF002000900846006840F066
:1027A000806008600846006800F08060009000BF0C
:1027B00000BF00BF002000900846006840F00060A5
:1027C00008600846006800F00060009000BF00BF8D
:1027D00000BF06B010BD00000080024000080240AB
:1027E000000002400004024000180240303802405D
:1027F0002DE9F04104460E4617460025A84694F8F8
:102800004400822802D10220BDE8F081822084F8B1
:1028100044002068056905F01C05208A4FF47841C2
:1028200001EAC0200543481100EA8610054325F05F
:10283000020545F001052068056100F029FB80468E
:1028400012E000F025FBA0EB0800B0F5803F09D3B3
:10285000012084F8440000BF002084F8450000BF38
:102860000320D1E72068056905F001000028E8D1C0
:102870002068406980B23860012084F8440000205C
:10288000C2E7000038B504460020009069460748BA
:10289000006816F02DF9009838B14FF080500449C7
:1028A0000860BFF34F8FBFF36F8F38BD1C0100204E
:1028B00004ED00E010B5044600BF94F8450001287F
:1028C00001D1022010BD012084F8450000BF022084
:1028D00084F844002046FFF75DFB2046FFF746FBE7
:1028E0002046FFF7D3F92046FFF7B0F92046FFF75F
:1028F000A2F9012084F8440000BF002084F84500BC
:1029000000BF00BFDEE770B50246002300250024AB
:1029100000BF92F84500012801D1022070BD0120BE
:1029200082F8450000BF022082F8440049B9012026
:1029300082F8440000BF002082F8450000BF01205B
:10294000ECE7D06A006800F0004048B1122082F83D
:10295000440000BF002082F8450000BF0120DDE7F1
:1029600040F2F450814208D9B1FBF0F3B1FBF0F62C
:1029700000FB161010B15B1C00E00123012B13D1EA
:10298000D06A006840F04050D66A3060C1F30C0055
:10299000D66A7060D06A006840F00040D66A306045
:1029A000D06AC068D06232E000242EE0D06A0068AD
:1029B00020F04050D66A30602CB9D06A006840F0F0
:1029C0008050D66A306040F2F450D66A7060581E6B
:1029D000A04210D1D06A006840F00050D66A306042
:1029E000581EC0EBC01000EB4000A1EB8005C5F302
:1029F0000C00D66A7060D06A006840F00040D66A69
:102A00003060D06AC068D062641C9C42CED310682B
:102A100000F58050406900F0040048B104261068B9
:102A200000F5805046610026106800F58050466031
:102A3000012082F8440000BF002082F8450000BF5A
:102A400000BF6BE770472DE9F04104460E4617467C
:102A50000025A84694F84400422802D10220BDE88F
:102A6000F081422084F844002068056905F01C05C7
:102A7000208A4FF4784101EAC0200543481100EA5A
:102A80008610054345F0020545F00105B8B22168FE
:102A900048612068056100F0FBF9804612E000F013
:102AA000F7F9A0EB0800B0F5803F09D3012084F8C6
:102AB000440000BF002084F8450000BF0320CEE79B
:102AC0002068056905F001000028E8D1012084F89C
:102AD00044000020C3E70000F0B50C4600250022AA
:102AE000002300219CE0012606FA01F504EA050214
:102AF000AA427DD106684FEA410C032707FA0CF77A
:102B0000BE430660CF0800F1200656F827604F0745
:102B10004FEAD76C0F2707FA0CF7BE434FEAD10CE8
:102B200000F1200747F82C6086684FEA410C032724
:102B300007FA0CF7BE438660476801268E40B7430C
:102B40004760C6684FEA410C032707FA0CF7BE43FB
:102B5000C660354E8F0856F827308E07370F0F2680
:102B6000BE403340314EB04201D100262DE0304E00
:102B7000B04201D1012628E02E4EB04201D10226FA
:102B800023E02D4EB04201D103261EE02B4EB04271
:102B900001D1042619E02A4EB04201D1052614E0E5
:102BA000284EB04201D106260FE0274EB04201D197
:102BB00007260AE0254EB04201D1082605E0244E42
:102BC000B04201D1092600E00A268F073F0FBE4020
:102BD0009E4224D18E07370F0F2606FA07F3124EB6
:102BE0008F0856F827609E430F4F4FEA910C00E084
:102BF00015E047F82C60174E36689643154F3E6037
:102C00003E1D366896433F1D3E603E1D3668964326
:102C10003F1D3E603E1D366896433F1D3E60491C89
:102C20001029FFF460AFF0BD0838014000000240F9
:102C30000004024000080240000C02400010024064
:102C40000014024000180240001C02400020024014
:102C500000240240003C0140F8B502460B46002526
:102C6000002400200021E6E0012606FA01F51E6896
:102C700006EA0504AC4273D15E68022E02D05E689B
:102C8000122E13D1CF0802F1200656F827004E0766
:102C9000F70E0F26BE40B0434F07FF0E1E69BE4021
:102CA0003043CF0802F1200646F8270010684F0095
:102CB0000326BE40B0431E7906F003064F00BE4017
:102CC000304310605E68012E08D05E68022E05D089
:102CD0005E68112E02D05E68122E13D190684F00EC
:102CE0000326BE40B0434F00DE68BE4030439060D4
:102CF000506801268E40B0431E79C6F300168E4000
:102D000030435060D0684F000326BE40B0434F00B0
:102D10009E68BE403043D0605E6806F08056B6F1D3
:102D2000805FA8D100BF00260096454E366846F465
:102D30008046434F3E603E46366806F48046009625
:102D400000BF00BF3F4E8F0856F827008E07370F91
:102D50000F26BE40B0433C4EB24202D100262EE0C8
:102D600068E03A4EB24201D1012628E0384EB24224
:102D700001D1022623E0374EB24201D103261EE0E4
:102D8000354EB24201D1042619E0344EB24201D18F
:102D9000052614E0324EB24201D106260FE0314E34
:102DA000B24201D107260AE02F4EB24201D10826D5
:102DB00005E02E4EB24201D1092600E00A268F0717
:102DC0003F0FBE4030431F4E8F0846F82700284E65
:102DD0003068A0435E6806F48036B6F5803F00D1C7
:102DE0002043234E3060361D3068A0435E6806F4F1
:102DF0000036B6F5003F00D120431D4E361D306031
:102E0000361D3068A0435E6806F48016B6F5801F54
:102E100000D12043164E08363060361D3068A0437E
:102E20005E6806F40016B6F5001F00D12043104E70
:102E30000C363060491C1029FFF416AFF8BD0000B5
:102E400044380240083801400000024000040240BB
:102E500000080240000C0240001002400014024032
:102E600000180240001C02400020024000240240E2
:102E7000003C0140024613690B400BB1012000E009
:102E8000002070470AB1816101E00B048361704743
:102E900001480068704700000400002003480068F3
:102EA000034909780844014908607047040000207C
:102EB0000C00002010B50D48006840F400700B496C
:102EC00008600846006840F48060086008460068B2
:102ED00040F480700860032000F07CF80F2000F0C0
:102EE00007F800F02BF8002010BD0000003C024065
:102EF00070B504460E4800784FF47A71B1FBF0F0DB
:102F00000C490968B1FBF0F5284600F01FFC08B138
:102F1000012070BD102C07D200222146501E00F067
:102F20001BF80548046001E00120F2E70020F0E70B
:102F30000C0000200000002008000020704700BFA7
:102F400000F01F02012191404209920002F1E022AB
:102F5000C2F8001100BF70472DE9F05F80460D46B2
:102F60001646002701F0DAFB074639462A46334663
:102F700001F00700C0F1070ABAF1040F02D94FF0BF
:102F8000040A01E0C0F1070AD14600F1040ABAF1CF
:102F9000070F02D24FF0000A01E0A0F1030AD44665
:102FA0004FF0010A0AFA09FAAAF1010A0AEA020A2A
:102FB0000AFA0CFA4FF0010B0BFA0CFBABF1010B08
:102FC0000BEA030B4AEA0B042146404601F0AEFB34
:102FD000BDE8F09F00BF00F00702064B19684FF6EE
:102FE000FF031940044B0B4343EA0221014B1960D4
:102FF00000BF70470CED00E00000FA0538B5002472
:1030000000BF002000901D48006840F080501B4920
:1030100008600846006800F08050009000BF00BFC4
:10302000012017490864FFF733FF044607E0FFF764
:103030002FFF001BB0F57A7F01D9032038BD11485E
:10304000406800F48030B0F5803FF0D101200C4999
:103050004864FFF71DFF044607E0FFF719FF001B58
:10306000B0F57A7F01D90320E8E70648406800F40C
:103070000030B0F5003FF0D10020DFE740380240DB
:1030800000000E420070004070B504460D460CB9B9
:10309000012070BD5848006800F00F00A84209D216
:1030A00055490D700846006800F00F00A84201D095
:1030B0000120EEE7207800F0020002281DD12078E0
:1030C00000F00400042805D14C48006840F4E050AA
:1030D0004A490860207800F00800082805D14748D0
:1030E000006840F46040454908604448006820F0AA
:1030F000F000A168084341490860207800F0010011
:10310000A8B36068012807D13C4808380068C0F3BC
:103110004040B8B90120BCE76068022802D060686E
:10312000032807D1354808380068C0F3406048B923
:103130000120AEE7314808380068C0F3400008B904
:103140000120A6E72D48006820F0030061680843CD
:103150002A490860FFF79CFE064609E0FFF798FE43
:10316000801B41F28831884202D9032091E707E0B1
:103170002248006800F00C006168B0EB810FEDD1CF
:103180001D48006800F00F00A84209D91A490D70C7
:103190000846006800F00F00A84201D0012078E73F
:1031A000207800F00400042807D11448006820F4B7
:1031B000E050E168084311490860207800F00800F9
:1031C000082808D10D48006820F46040216940EAD1
:1031D000C1000A49086000F03DF808490968C1F3D8
:1031E0000311074A515CC840064908600F20FFF7E9
:1031F0007FFE00204DE70000003C024008380240FE
:103200002891010800000020014800687047000074
:103210000000002000B5FFF7F7FF04490968C1F37B
:103220008221034A515CC84000BD000008380240BA
:103230003891010800B5FFF7E7FF04490968C1F3B9
:103240004231034A515CC84000BD000008380240CA
:10325000389101082DE9F047002400250026A146F9
:103260002548006800F00C0020B1042805D008288B
:103270003AD105E0DFF8849039E0DFF8849036E059
:103280001D48001F006800F03F041B48001F006835
:1032900000F4800078B11A481749091F0968C1F382
:1032A0008811A0FB01700146224600233846FCF736
:1032B000FDFF05460EE011480F49091F0968C1F3DB
:1032C0008811A0FB01700146224600233846FCF716
:1032D000EDFF05460848001F0068C0F30140401C90
:1032E0004600B5FBF6F902E0DFF8109000BF00BF22
:1032F0004846BDE8F0870000083802400024F4008A
:1033000040787D01F8B504460CB90120F8BD20785D
:1033100000F00100002874D0F948006800F00C00AB
:1033200004280DD0F648006800F00C00082813D1DE
:10333000F348001F006800F48000B0F5800F0BD147
:10334000EF4808380068C0F34040002859D0606852
:10335000002856D10120D9E700BF6068B0F5803F52
:1033600008D1E7480838006840F48030E44908395B
:1033700008601EE06068B0F5A02F0DD1E048083865
:10338000006840F48020DE4908390860084600687B
:1033900040F4803008600CE0D9480838006820F418
:1033A0008030D749083908600846006820F480203A
:1033B000086000BF606890B1FFF76AFD054606E04F
:1033C000FFF766FD401B642801D903209EE7CC4827
:1033D00008380068C0F340400028F1D011E0FFF742
:1033E00057FD054606E0FFF753FD401B642801D951
:1033F00003208BE7C24808380068C0F3404000282B
:10340000F1D1207800F0020002285FD1BC480068AA
:1034100000F00C0058B1BA48006800F00C00082811
:103420001CD1B748001F006800F48000B0B9B44850
:1034300008380068C0F3400020B1E068012801D0DE
:10344000012063E7AE480838006820F0F8002169E1
:1034500040EAC100AA490839086037E0E06800B3D3
:103460000120A8490860FFF713FD054606E0FFF7B5
:103470000FFD401B022801D9032047E7A048083868
:103480000068C0F340000028F1D09D48083800686B
:1034900020F0F800216940EAC10099490839086024
:1034A00014E0002097490860FFF7F2FC054606E0AB
:1034B000FFF7EEFC401B022801D9032026E79048C5
:1034C00008380068C0F340000028F1D1207800F0EF
:1034D000080008282CD16069A8B101208A49086039
:1034E000FFF7D6FC054606E0FFF7D2FC401B02289A
:1034F00001D903200AE782486C300068C0F340001D
:103500000028F1D014E000207F490860FFF7C0FCDC
:10351000054606E0FFF7BCFC401B022801D903204A
:10352000F4E677486C300068C0F340000028F1D121
:10353000207800F00400042870D10026704838304C
:10354000006800F0805090B900BF002000906C48E7
:103550003830006840F080506949383108600846CA
:10356000006800F08050009000BF00BF012667484F
:10357000006800F48070B0B96448006840F480705E
:1035800062490860FFF784FC054606E0FFF780FC0F
:10359000401B022801D90320B8E65C48006800F40B
:1035A00080700028F2D000BFA068012808D15448DC
:1035B0006830006840F001005149683108601DE042
:1035C000A06805280DD14E486830006840F004001E
:1035D0004B49683108600846006840F00100086007
:1035E0000CE047486830006820F001004449683129
:1035F00008600846006820F00400086000BFA0686A
:10360000A8B1FFF745FC054609E0FFF741FC401B68
:1036100041F28831884202D9032077E626E0384813
:1036200068300068C0F340000028EED013E0FFF7D8
:103630002FFC054608E0FFF72BFC401B41F28831C8
:10364000884201D9032061E62D4868300068C0F344
:1036500040000028EFD1012E07D1294838300068FA
:1036600020F0805026493831086000BFA069B8B307
:103670002348006800F00C0008285ED0A0690228EA
:1036800046D100201F490866FFF702FC054606E008
:10369000FFF7FEFB401B022801D9032036E618483D
:1036A00008380068C0F340600028F1D1D4E9070170
:1036B0000843616A40EA81110122A06AC2EB50000E
:1036C00041EA00412C20005D41EA00600C49091FDD
:1036D000086001200B490866FFF7DAFB054607E0A2
:1036E0002DE0FFF7D5FB401B022801D903200DE692
:1036F000034808380068C0F340600028F1D01EE09D
:103700000838024000004742800E474200700040E7
:1037100000200C490866FFF7BBFB054606E0FFF7F3
:10372000B7FB401B022801D90320EFE506480068DB
:10373000C0F340600028F2D101E00120E6E500205E
:10374000E4E50000000047420038024070B504463E
:103750002546681EB0F1807F01D301200FE0681E6E
:103760004FF0E02148610F214FF0FF3000F0DEFF05
:1037700000204FF0E021886107200861002070BD23
:1037800010B504460CB9012010BDA06900B100E0DD
:1037900000BF94F8390028B9002084F8380020468A
:1037A00000F028F8242084F839002068C06820F44C
:1037B00000502168C860204601F000FA20680069C6
:1037C00020F49040216808612068406920F02A00B8
:1037D000216848612068C06840F400502168C860D2
:1037E0000020E063202084F8390084F83A000020AB
:1037F000CAE7000010B586B0044600BF0020009064
:103800002748006840F01000254908600846006815
:1038100000F01000009000BF00BF00BF002000902B
:103820001F481438006840F001001D491439086031
:103830000846006800F00100009000BF00BF00BF14
:10384000002000900846006840F00100086008462B
:10385000006800F00100009000BF00BF4815019013
:10386000022002900120039003200490072005907D
:1038700001A90C48FFF7F0F94FF480600190072090
:10388000059001A90748FFF7E7F90122002125204B
:10389000FFF762FB2520FFF752FB06B010BD0000CA
:1038A00044380240000002402DE9F84304460D462A
:1038B00016461F464FF0000994F8390020285CD1C5
:1038C00005B116B90120BDE8F88300BF94F83800AF
:1038D000012801D10220F6E7012084F8380000BF5A
:1038E0000020E063212084F83900FFF7D1FA8146F7
:1038F000A684E6842BE0E08C401EE084A068B0F54E
:10390000805F16D14B46002280212046009701F0AF
:1039100009FB08B10320D6E7A846B8F80000C0F3B9
:10392000080021684860206908B9AD1C0FE06D1CD3
:103930000DE04B46002280212046009701F0F2FA6C
:1039400008B10320BFE715F8010B21684860E08C3F
:103950000028D0D14B46002240212046009701F09C
:10396000E1FA08B10320AEE7202084F8390000BF57
:10397000002084F8380000BFA5E70220A3E700007C
:1039800000B587B000BF002001902748006840F0D4
:103990008000254908600846006800F0800001901A
:1039A00000BF00BF00BF002001900846006840F043
:1039B000800008600846006800F08000019000BFA9
:1039C00000BF00BF002001900846006840F0800062
:1039D00008600846006800F08000019000BF00BF4A
:1039E000081502900120039004900320059002A97D
:1039F0000E48FFF731F94FF40060029002A90B481E
:103A0000FFF72AF94FF48050029002A90748FFF708
:103A100023F94FF4806005491831086040000860C0
:103A20004000086007B000BD30380240001C024072
:103A30002DE9FE4F04460D4616461F46DDF830A020
:103A40000020029001978046814601A80DF052FBAC
:103A50008DF808000298C0F3C00028700298C0F3E7
:103A6000031020706946019800F0E2F9814601993F
:103A700008440190DDE9001000EB01080198A8EB73
:103A80000000022800DA06E001A80DF03AFB3080C1
:103A90004FF0010900BF4846BDE8FE8F2DE9FF4702
:103AA00004460D46164699460020039002960027CC
:103AB0008046009002A80DF01DFB8DF80C000398C5
:103AC000C0F30310022800D01FE001A9029800F003
:103AD000AFF98046029908440290DDE901104718C9
:103AE0000298381A022800DA0FE002A80DF002FB53
:103AF0008DF80000009800F00100207002A80DF081
:103B0000F9FA28704FF0010800BF404604B0BDE844
:103B1000F0872DE9FF5F06460C4617469846DDE91B
:103B20000FABDDF83890002003901198029000252B
:103B300000200190009002A80DF0DCFA8DF80C0036
:103B40000398C0F30310032800D032E00398C0F3B9
:103B5000C00030700398C0F341002060039800F06B
:103B6000010038706946029800F062F901900299EC
:103B7000084402900099029845182A4602A948462E
:103B80000DF0CCFA10B10298281A00D511E0206887
:103B9000002804DD02A80DF0B4FAA8F8000002988D
:103BA000281ACBF800000298CAF800000120019002
:103BB00000BF019804B0BDE8F09F2DE9FE4F054617
:103BC0000E4614461F46DDE90C9B00200290CDF8FE
:103BD00004908046824601A80DF08CFA8DF808000A
:103BE0000298C0F30310092800D02CE06946019820
:103BF00000F01EF98246019908440190DDE90010A9
:103C000000EB01080198A8EB0000022800DA1AE096
:103C100001A80DF076FA2880002020600DE02068D1
:103C2000B04202DD4FF0FF3A0DE001A80DF062FA5C
:103C30002268511C216047F8220001984045EED3CC
:103C40004FF0010A00BF5046BDE8FE8F2DE9F04F4E
:103C5000ADF5097D80460E4614461F46DDF84892B4
:103C60004FF0000A4FF4FA700B9000200890099072
:103C70000A9083460896012C01D0022C03D1FEF74E
:103C80002FFA834602E00024A246A346CDE9057937
:103C900008A807C802AB07C30AF0FF0023460022AA
:103CA000CDE9000B0CA80B9900F07CFA0546002D1D
:103CB00005DC4FF0FF300DF5097DBDE8F08F29469A
:103CC0000CA813F00FF9002802DA6FF00100F2E7F8
:103CD0000CB90020EFE7012C0AD10522042140464F
:103CE00001F018FA002801DA201FE4E70120E2E7DA
:103CF000022C28D105221146404601F00BFA00287B
:103D000001DA601FD7E700220CA8079B0B9900F08F
:103D1000B2FA054615B96FF00300CCE729460CA8A6
:103D200013F0E0F8002802DA6FF00500C3E705227F
:103D30001146404601F0EEF9002802DA6FF0060065
:103D4000B9E70220B7E76FF00700B4E72DE9F84FB5
:103D500082460F4690461E4600253046FCF730FB53
:103D600085B2E81C0DF0F8F80446B8F1010F06D052
:103D7000B8F1030F06D0B8F1050F09D105E0012015
:103D8000207006E00320207003E00520207000E092
:103D900016E000BF03202070280A6070A5702A4634
:103DA0003146E01CFCF7DAFAE81C80B223463A46BA
:103DB00007A1009007480068FFF748FF814600BF51
:103DC000204613F0C5FF00244846BDE8F88F0000E8
:103DD00024647000200000202DE9F84305460C46BD
:103DE000012600270020206000BF4FF0FF38781C1C
:103DF0000746042801DD00BF17E001216846A847F7
:103E00008046B8F1010F00D00FE09DF8001001F0DE
:103E10007F01206801FB06002060F6019DF800008C
:103E200000F080000028E0D100BF3846BDE8F883EC
:103E300070B504460D460348046029460248FFF762
:103E4000CBFF70BDB0010020FD5B000830B502461D
:103E5000002300BF0846CD1701EB5565ED11A1EB1E
:103E6000C515ECB2CD1701EB5565E911002901DD4F
:103E700044F0800418465B1C14540029EADC184600
:103E800030BD0000401C802801DA401C0AE0B0F57B
:103E9000804F01DA801C05E00349884201DAC01C2A
:103EA00000E0001D70470000FFFF1F002DE9FC41EE
:103EB00004460F4615464FF0FF38002001900026BB
:103EC000009001212046A847012800D01EE00126CD
:103ED00069462846FFF780FF601C0099FFF7B6FF90
:103EE000064400983044B84200DD0FE0009830B13D
:103EF000A0190099A8470099884200D006E02078D0
:103F00008DF804000198C0F3031800BF4046BDE8D7
:103F1000FC812DE9FC4704460E4615461F46DDF898
:103F200028800020019081460094042E02DA6FF070
:103F3000010924E0019865F307100190019867F3E7
:103F4000C3000190062D01D1012100E0002101985C
:103F500061F3420001909DF80410684614F02AFABB
:103F600002210098FFF772FF009908440090414633
:103F7000684614F025FA0098A0EB040900BF4846F3
:103F8000BDE8FC872DE9FE4305460E461446029522
:103F900000200190009000274FF0FF38204600F0ED
:103FA000A5F807468146FFF76DFFB04202DD6FF0CE
:103FB00001088FE000208DF80400019820F0F00047
:103FC000103001909DF8041002A814F0F3F939465E
:103FD0000298FFF73BFF029908440290207A0428D8
:103FE00008D13EA102A814F0D1F9042102A814F0CE
:103FF000E1F907E03BA102A814F0C8F9032102A8E7
:1040000014F0D8F900208DF80000A17E009861F32B
:1040100041000090E07E08B1012100E000210098FD
:1040200061F3820000900098C0F3800058B194F8CA
:104030003D10009861F3C400009094F83C10009883
:1040400061F345100090206C08B9A06C20B1009875
:1040500020F0800080300090E06C08B9606D20B1E5
:10406000009820F04000403000909DF8001002A819
:1040700014F0A0F9218B02A814F0A2F902A8D4E947
:104080000423E16814F0B4F9E07E58B102A8D4E941
:104090000A23616A14F0ACF902A8D4E90D23216B5C
:1040A00014F0A6F90098C0F3C01028B102A8D4E912
:1040B0001123216C14F09CF90098C0F3801028B1F2
:1040C00002A8D4E91423E16C14F092F90298A0EB51
:1040D000050800BF4046BDE8FE8300004D51545422
:1040E000000000004D5149736470000070B5044633
:1040F0000025207A032801D10C2503E0207A04282A
:1041000000D10A25D4E90412E06800F0F7FA801C17
:104110000544E07E68B1D4E90A12606A00F0EEFA64
:10412000861CD4E90D12206B00F0E8FA3044801CA4
:104130000544206C08B9A06C30B1D4E91112206C90
:1041400000F0DCFA801C0544E06C08B9606D30B109
:10415000D4E91412E06C00F0D1FA801C0544284622
:1041600070BD70B504460D460C222946204600F06D
:10417000FEF870BDF8B505460E461446002304222D
:10418000314628460094FFF7C4FEF8BDF8B5054651
:104190000E46144600230722314628460094FFF7B6
:1041A000B8FEF8BD2DE9F04F87B005460F469046A2
:1041B0001C46DDE915B6DDE9109A0695002005904C
:1041C000049003900096204612A90EC900F042F810
:1041D00004900290FFF756FEB84203DD6FF0010035
:1041E000039033E0059820F0F000303005900598FA
:1041F00068F3C3000590059864F3420005900598A4
:1042000069F3000005909DF8141006A814F0D2F888
:1042100004990698FFF71AFE06990844069006A826
:1042200012A90EC914F0E4F8002C03DD514606A8CB
:1042300014F0C6F8324659460698FCF78FF80698EF
:10424000304406900698401B039000BF039807B0C7
:10425000BDE8F08F7FB50546089E002401A807C879
:1042600000F04CFA801C30440444002D00DDA41CF6
:10427000204604B070BDF8B506460F4614461D46EC
:1042800023460622394630460095FFF742FEF8BD28
:104290002DE9FF5F05460E4617469846DDE90E9A62
:1042A000039500200290019000900024514648465A
:1042B00000F046F883460190FFF7E4FDB04202DDCE
:1042C000A01E009038E000208DF80800029820F031
:1042D000F00080300290029867F3C30002900298C9
:1042E00020F00600801C02909DF8081003A814F02E
:1042F00061F801990398FFF7A9FD03990844039019
:10430000414603A814F05CF800240FE004EB4400DD
:104310000AEB800C03A89CE80E0014F069F81098D2
:1043200010F8241003A814F045F8641C4C45EDDB8C
:104330000398401B009000BF009804B0BDE8F09FB8
:104340002DE9F04105460E46022700240AE004EB61
:10435000440006EB800393E8070000F0CFF9C01C8F
:104360000744641CAC42F2DB3846BDE8F0812DE91D
:10437000FC4104460D46164600200190471E00945D
:10438000022D01DA871E15E000208DF80400019847
:1043900066F3071001909DF80410684614F00AF8BF
:1043A00000210098FFF752FD009908440090009802
:1043B000071B00BF3846BDE8FC8100002DE9F04135
:1043C000A6B004460D46164600202590249064278A
:1043D000089009900A900220039000200490059014
:1043E00000BF2046042819DA2046002816D42046AB
:1043F000C21700EB5272D21005AB9A5C234603F051
:10440000070C012303FA0CF31A432146CB1701EBE7
:104410005373DB100DF1140C0CF8032000BF08954A
:10442000079607A808A90122CDE900210290324889
:1044300001880068401C304A8BB210600022394667
:104440000BA8FFF725FF804641460BA812F04AFD56
:10445000002804DA4FF0FF3026B0BDE8F08103A851
:1044600000231A4605A90090601C07F015FE10B93C
:104470006FF00100F0E72146042910DA21460029F7
:104480000DD42046C11700EB5171C91005AA515C2B
:10449000224602F0070301229A40114000E0002169
:1044A00011B96FF00200D7E7144A39460BA8FFF79D
:1044B000FDFC092802D06FF00300CDE70BA806AB86
:1044C00024AA0121CDE9000725A8FFF776FB0128E2
:1044D00002D06FF00400BFE70698802806D0064897
:1044E0000068401EBDF89410884202D06FF00500AD
:1044F000B2E70020B0E70000240000205D6E010854
:1045000030B5CBB05822294935A8FBF727FFC8247E
:10451000002527A038903220ADF8EC0027A0459068
:1045200028A0489004208DF8DC0001208DF8EE00D2
:1045300035AA214603A8FFF725FD0546294603A80D
:1045400012F0D0FC214A214603A8FFF7AFFC022855
:1045500021D1234603AA01A902A8FFF79FFA012847
:1045600002D19DF8040060B100BF19A000F0FAFD6F
:104570009DF804101AA000F0F5FD00BF01204BB01B
:1045800030BD00BF12A000F0EDFD1CA000F0EAFD60
:1045900000BF0020F3E700BF0DA000F0E3FD21A065
:1045A00000F0E0FD00BF0220E9E7000040910108B3
:1045B0003531383732353034390000003231373553
:1045C0003337000031323334350000005D6E0108AE
:1045D0000D0A5B44454255475D203E3E20000000E9
:1045E000CEDEB7A8C1ACBDD3A3ACB4EDCEF3B4FA64
:1045F000C2EBCAC73A202564A3A10A00D3C3BBA754
:10460000C3FBD3EBC3DCD4BFD1E9D6A4B3C9B9A6ED
:10461000A3AC4D515454C1ACBDD3B3C9B9A6A3A1E9
:104620000A0000004D515454C1ACBDD3CEDECFECD6
:10463000D3A6A3A10A000000F0B5B7B00446C82570
:104640000520029000200390049000BF204604281B
:1046500016DA2046002813D42046C21700EB527207
:10466000D21004AB9A5C234603F007070123BB403A
:104670001A432146CB1701EB5373DB1004AFFA54F6
:1046800000BF294605A8FFF76CFD0646314605A880
:1046900012F028FC02A800231A4604A90090601C0E
:1046A00007F0FAFC18B94FF0FF3037B0F0BD2146E3
:1046B000042910DA214600290DD42046C11700EB49
:1046C0005171C91004AA515C224602F0070301226D
:1046D0009A40114000E0002111B96FF00100E4E7B9
:1046E000054A294605A8FFF7E1FB0D2802D06FF027
:1046F0000200DAE70020D8E75D6E010837B5002434
:10470000009820B10098FBF75BFE044600E0019C96
:1047100020463EBD00BFFEE770470000024800682B
:10472000C0F30220704700000CED00E010B5002837
:1047300007DA0A07140E054A00F00F031B1FD454B2
:1047400003E00A07130E024A135410BD18ED00E0EF
:1047500000E400E02DE9FC41074600BF19A000F08D
:1047600001FD1CA000F0FEFC00BF384601F0BAFBC2
:1047700080461DA1404601F07DFB05461CA1404638
:1047800001F078FB06461CA1404601F073FB04468D
:1047900000BF0CA000F0E6FC94ED060B8DED000BC5
:1047A00096ED061BB0EE410AF0EE610A53EC102BB9
:1047B00012A0296900F0D6FC00BF404601F02EFB94
:1047C000BDE8FC810D0A5B44454255475D203E3EF5
:1047D00020000000BFAACABCBDE2CEF64A534F4E2D
:1047E000CAFDBEDD000000006E616D6500000000C6
:1047F00074656D700000000068756D006E616D6518
:104800003A25730A2074656D705F6E756D3A256682
:104810000A2068756D5F6E756D3A25660A000000A6
:104820002DE9FF4104460E4617461D46002D49D08E
:10483000019500200290039000BF2046042819DA59
:104840002046002816D42046C21700EB5272D21020
:1048500003AB9A5C234603F0070C012303FA0CF325
:104860001A432146CB1701EB5373DB100DF10C0CEF
:104870000CF8032000BF01A800231A4603A90090EA
:10488000601C07F009FC20B94FF0FF3004B0BDE810
:10489000F0812146042910DA214600290DD4204652
:1048A000C11700EB5171C91003AA515C224602F0F6
:1048B000070301229A40114000E0002111B94FF096
:1048C000FF30E3E7024A39463046FFF7EFFADDE70B
:1048D0005D6E010810B500BF5021EFF3118081F328
:1048E0001188BFF34F8FBFF36F8F00BF0446FEF7F1
:1048F000D5FA14F0F5F9012801D013F045FE00BFF8
:1049000084F3118800BF10BD00B593B000BF002034
:1049100001902548006840F080502349086008460F
:10492000006800F08050019000BF00BF00BF002071
:1049300001901E48006840F440401C490860084649
:10494000006800F44040019000BF00BF01200290C9
:1049500000040390022008904105099119210A9151
:104960004FF4B4710B9102210C9107210D9102A813
:10497000FEF7C8FC08B100BFFEE7FEF73FFB0F20C3
:104980000E9002200F90002010904FF4A050119034
:104990004FF48050129005210EA8FEF775FB08B168
:1049A00000BFFEE713B000BD403802400070004079
:1049B0001448006840F4700012490860124800680A
:1049C00040F001001049086000200F4908310860DC
:1049D0000D4800680D4908400B4908600C48091D46
:1049E0000860081F006820F48020091F086000206C
:1049F00005490C3108604FF00060024980390860B9
:104A00007047000088ED00E000380240FFFFF6FE2E
:104A1000103000240EB50021084612F08DF81C4815
:104A20001C4908606FF07F401B4908601B481C4907
:104A300008601C481C490022194BCDE90021029056
:104A4000154A1449194809F055FE18480AF02CF87F
:104A5000164890F82D00C0F3800018B113480AF0F2
:104A60005BF802E011480AF025F810484068000E93
:104A700000900E484068C0F307430C488088C0F39C
:104A800007220A4801790AA000F06CFB0EBD000065
:104A9000C0A8007A380100203C010020C0A8000115
:104AA000400100205D6C0108E18000082CF201202B
:104AB000B1BEB5D84950B5D8D6B7CAC73A25642EC5
:104AC00025642E25642E25640A0A00000EB50125F2
:104AD000FCF70CFEFCF798FF36E013F0C1F81B481A
:104AE000FDF716F8044613F0FDF818480290012C63
:104AF00020D190ED040B8DED000B90ED021BB0EE7C
:104B0000410AF0EE610A53EC102B11A000F02AFBD1
:104B100000231A4602A91748006813F015FF05463E
:104B2000012D07D100BF14A000F01CFB16A000F05F
:104B300019FB00BF1948006880F4806017490860BD
:104B40004FF47A7013F0FAF9C7E70000F001002083
:104B500068756D6964697479203D202566202C2074
:104B600074656D7065726174757265203D2025668F
:104B70000A0000001C0000200D0A5B444542554716
:104B80005D203E3E20000000B7A2CBCDCFFBCFA2E0
:104B9000CAFDBEDDB3C9B9A600000000141C024066
:104BA00009E00548006880F40060034908604FF49C
:104BB000FA6013F0C3F9F4E7141C02402DE9F04148
:104BC000044600252068056925F44055E068054342
:104BD000206805612068C56849F20C608543216939
:104BE000A068084361690843E169084305432068F8
:104BF000C5602068456925F44075A06905432068B3
:104C00004561E069B0F5004F7ED1C4492068884213
:104C100003D0C349206888425DD1FEF70BFB00EB4F
:104C2000C00101EB001061684900B0FBF1F06421A4
:104C3000B0FBF1F00601FEF7FDFA00EBC00101EB5D
:104C4000001061684900B0FBF1F7FEF7F3FA00EBE2
:104C5000C00101EB001061684900B0FBF1F0642174
:104C6000B0FBF1F000EBC00101EB0010A7EB8000FE
:104C7000322101EBC0006421B0FBF1F000F0F8003C
:104C800006EB4006FEF7D6FA00EBC00101EB001080
:104C900061684900B0FBF1F7FEF7CCFA00EBC00108
:104CA00001EB001061684900B0FBF1F06421B0FB3A
:104CB000F1F000EBC00101EB0010A7EB8000322106
:104CC00001EBC0006421B0FBF1F000F007003044BC
:104CD0002168886020E1FEF79DFA00EBC00101EB3E
:104CE000001061684900B0FBF1F06421B0FBF1F005
:104CF0000601FEF78FFA00EBC00101EB00106168BE
:104D00004900B0FBF1F700E045E0FEF783FA00EB65
:104D1000C00101EB001061684900B0FBF1F06421B3
:104D2000B0FBF1F000EBC00101EB0010A7EB80003D
:104D3000322101EBC0006421B0FBF1F000F0F8007B
:104D400006EB4006FEF766FA00EBC00101EB00102F
:104D500061684900B0FBF1F7FEF75CFA00EBC001B7
:104D600001EB001061684900B0FBF1F06421B0FB79
:104D7000F1F000EBC00101EB0010A7EB8000322145
:104D800001EBC0006421B0FBF1F000F007003044FB
:104D900021688860C0E061492068884203D060498A
:104DA000206888425CD1FEF745FA00EBC00101EBB8
:104DB000001061688900B0FBF1F6FEF73BFA00EBEA
:104DC000C00101EB001061688900B0FBF1F06421C3
:104DD000B0FBF1F000EBC00101EB0010A6EB80008E
:104DE000322101EB00106421B0FBF1F000F0F0067D
:104DF000FEF720FA00EBC00101EB001061688900AA
:104E0000B0FBF1F06421B0FBF1F006EB0016FEF709
:104E100011FA00EBC00101EB001061688900B0FBE2
:104E2000F1F7FEF707FA00EBC00101EB0010616833
:104E30008900B0FBF1F06421B0FBF1F000EBC001A0
:104E400001EB0010A7EB8000322101EB0010642180
:104E5000B0FBF1F000F00F003044216888605BE0A7
:104E6000FEF7D8F900EBC00101EB00106168890082
:104E7000B0FBF1F6FEF7CEF900EBC00101EB00103C
:104E800061688900B0FBF1F06421B0FBF1F000EB48
:104E9000C00101EB0010A6EB8000322101EB0010F5
:104EA0006421B0FBF1F000F0F006FEF7B3F900EB7F
:104EB000C00101EB001061688900B0FBF1F06421D2
:104EC000B0FBF1F006EB0016FEF7A4F900EBC00111
:104ED00001EB001061688900B0FBF1F7FEF79AF969
:104EE00000EBC00101EB001061688900B0FBF1F03C
:104EF0006421B0FBF1F000EBC00101EB0010A7EB67
:104F00008000322101EB00106421B0FBF1F000F0D1
:104F10000F00304421688860BDE8F0810010014036
:104F2000001401402DE9F04104460D46174698460D
:104F3000069E21E0701CF8B12EB1FDF7A9FFA0EB91
:104F40000800B04218D92068C06820F4D0702168E9
:104F5000C8602068406920F0010021684861202075
:104F600084F8390084F83A0000BF002084F8380043
:104F700000BF0320BDE8F081206800682840A842F7
:104F800001D1012000E00020B842D3D00020F1E799
:104F900000BFFEE710B5044600BF2BA000F0E2F80A
:104FA0002DA000F0DFF800BF207820B101280BD041
:104FB00002281BD111E000BF23A000F0D3F82EA0DF
:104FC00000F0D0F800BF1AE000BF1FA000F0CAF840
:104FD0002FA000F0C7F800BF11E000BF1AA000F03A
:104FE000C1F831A000F0BEF800BF08E000BF16A075
:104FF00000F0B8F832A000F0B5F800BF00BF00BF65
:1050000000BF11A000F0AEF804F5FE7132A000F070
:10501000A9F800BF00BF0CA000F0A4F8611C33A0E9
:1050200000F0A0F800BF00BF07A000F09BF834A07C
:10503000D4F8F81100F096F800BF601CFFF78AFB67
:10504000002084F8300210BD0D0A5B4445425547EC
:105050005D203E3E200000002A2A2A2A2ACAD5B511
:10506000BDB6A9D4C4B5C4CFFBCFA2A3A12A2A2A16
:105070002A2A2A0A000000004D5154543E3ECFFB1C
:10508000CFA2D6CAC1BFA3BA516F53300A000000E5
:105090004D5154543E3ECFFBCFA2D6CAC1BFA3BA96
:1050A000516F53310A0000004D5154543E3ECFFB26
:1050B000CFA2D6CAC1BFA3BA516F53320A000000B3
:1050C0004D5154543E3EB4EDCEF3B5C4CFFBCFA208
:1050D000D6CAC1BF0A0000004D5154543E3ECFFB1A
:1050E000CFA2D6F7CCE2A3BA25730A004D5154548F
:1050F0003E3ECFFBCFA2C0E0C8DDA3BA25730A00B5
:105100004D5154543E3ECFFBCFA2B3A4B6C8A3BA70
:1051100025640A002DE9F043FDB080460D46164691
:1051200000274FF4FA7900BF02234A4669464046F9
:10513000FFF776FB0446601C20B1E0B24A466946A0
:1051400008F0ACF9781CC7B2AC4201D0B742EBDB37
:10515000AC4203D100207DB0BDE8F0834FF0FF30BA
:10516000F9E700000FB4054B10B503A9044A0298F3
:1051700000F00CF910BC5DF814FB0000E585000898
:10518000E80100200FB4084B10B504A902AA039847
:1051900000F0FCF8044602A9002000F07AFC20464A
:1051A00010BC5DF814FB0000935A000800000000DA
:1051B00000B583B09FED060B0A4601468DED000B4E
:1051C0006846FBF7C6FC9DED000B03B000BD000078
:1051D000000000000000000002E008C8121F08C123
:1051E000002AFAD170477047002001E001C1121F68
:1051F000002AFBD1704700002DE9FF5F82B000213B
:10520000DDE90430020DDDF840B0034318D044F668
:105210001050A2F2FF3242431514119801281FD0FA
:10522000A5EB0B00401C5FEA000A4FF000064E4F52
:10523000DFF83891B046504615D5CAF1000413E0A6
:10524000119801244AA3012801D16FEA0B010298A9
:10525000119AC0E90031C0E9024206B0BDE8F09FF2
:10526000CBF10000DFE704460021404A491842EB39
:105270000450CDE9001012E0E00707D032463B466B
:1052800040464946FBF7A2FA8046894632463B46ED
:1052900010461946FBF79AFA06460F466410002C92
:1052A000EAD1DDE90401DDE90023BAF1000F06DAF5
:1052B000FBF78CFA42464B46FBF788FA05E0FBF712
:1052C000F7FA42464B46FBF7F3FA04460E46002235
:1052D000284BFBF7A1FB03D84FF0FF30014607E056
:1052E0000022254B20463146FBF7C3FCFBF774FD3B
:1052F000102409E0002C0ADB0A220023FAF7D6FF6B
:10530000039B30321A55641E50EA0102F2D1641C2C
:10531000039AC4F111031444119A012A03D0012203
:1053200008430DD10AE0084304D000204FF0110BD0
:10533000119072E7A3EB0B056D1E0DE05B4504DDDC
:105340004FF0000205F1010504E003DA4FF000021E
:10535000A5F10105002AECD002981199C0E90231AB
:10536000C0E9004579E70000000014400000F03F6C
:10537000300000000000F0430000E03F30380A2811
:1053800001D2012070470020704700002DE9FF4F37
:1053900095B09A46884606460025EEE1252877D145
:1053A00000242746F94A0121039400E0044316F83B
:1053B000013F203B01FA03F01042F7D130782A2850
:1053C00011D06FF02F033078A0F13002092A16D8DF
:1053D000039A44F0020402EB820203EB42021044FF
:1053E000761C0390EFE758F8042B0392002A03DAA7
:1053F000504244F40054039044F00204761C307888
:105400002E2816D116F8010F44F004042A280DD0D6
:105410006FF02F023078A0F13003092B09D807EB89
:10542000870302EB4303C718761CF3E758F8047BA5
:10543000761C30786C280FD006DC4C2817D06828F2
:105440000DD06A2814D104E0742810D07A280FD126
:105450000DE044F400140AE044F4801401E044F444
:1054600040147278824202D104F58014761C761CB6
:10547000307866280BD013DC582877D009DC002858
:1054800075D04528F6D04628F4D047281AD193E1A4
:1054900018E0632835D0642879D0652812D18BE1D3
:1054A000702873D008DC6728F1D069286FD06E2887
:1054B0000DD06F2806D1ACE073282CD0752874D09D
:1054C000782853D05246179990476D1C54E1C4F385
:1054D0000250022809D003280DD0D8F80010042863
:1054E0000DD00D6008F1040846E1D8F80010EA1765
:1054F000C1E90052F6E7D8F800100D80F2E70D7010
:10550000F0E718F8041B8DF8001000208DF801005A
:10551000EB46012003E058F804BB4FF0FF30610771
:105520004FF0000102D40DE009F101018946B942B2
:105530000FDA8145F8DB1BF809100029F4D108E0E7
:1055400009F1010189468142FADB1BF809100029A3
:10555000F6D103985346A0EB090721463846179A1F
:1055600000F080FA284400EB090507E044E008E178
:105570000DE01BF8010B524617999047B9F101094C
:10558000F7D2534621463846179AF2E039E00A210D
:10559000C4F302524FF0000B0091022A06D058F8D3
:1055A000040BC117032A09D00AE023E008F1070021
:1055B00020F00702F2E80201904605E000B2C117B0
:1055C000042A01D140B2C117002906DA0A46002197
:1055D000404261EB02012D2202E0220504D52B227C
:1055E0008DF80420012203E0E20701D02022F7E732
:1055F000914657E00A2100E010214FF0000B009186
:105600000BE010214FF0000B44F004040827009138
:1056100003E008204FF0000B0090C4F30252022A6E
:1056200005D058F8040B0021032A08D008E008F13F
:10563000070020F00702F2E80201904603E080B282
:10564000042A00D1C0B24FF0000922072AD53278CF
:10565000702A07D0DDF800C08CF0100C5CEA0B0C4F
:1056600005D00EE040228DF80420012208E050EA27
:10567000010306D030238DF804308DF80520022276
:105680009146009B83F0080353EA0B030AD150EACA
:10569000010201D1620705D530228DF804204FF0B8
:1056A00001097F1E3278582A04D039A20C920CAA24
:1056B00002920BE03BA2F9E75B46009AFAF7F6FD8F
:1056C0000C9B9B5C029A521E0292137050EA0102DC
:1056D000F2D1029804A9081A00F1200B600702D544
:1056E00024F4803400E001275F4502DDA7EB0B00C6
:1056F00000E0002000EB0B01009003984944401AA1
:105700000390E00306D453462146179A039800F00D
:10571000A9F90544002706E001A85246C05D179983
:1057200090476D1C7F1C4F45F6DBE0030CD55346BC
:105730002146179A039800F095F9054404E03020BB
:105740005246179990476D1C0099481E00900029F9
:10575000F5DC08E00298029952460078491C029153
:10576000179990476D1CBBF10001ABF1010BF1DC07
:105770005BE100F065F90544761C307800287FF481
:105780000DAE19B02846BDE8F08F000009280100D1
:1057900030313233343536373839616263646566A7
:1057A0000000000030313233343536373839414269
:1057B0004344454600000000600700D4062708F176
:1057C000070020F00700F0E80223804603F0004CB9
:1057D0005FEA0C0001D097A009E0200501D596A052
:1057E00005E0E00701D095A001E0AFF24C00139076
:1057F000307823F0004365280CD006DC452809D01A
:1058000046281DD047287FD13BE0662818D067285E
:105810007AD136E00021112F01DB112000E0781C45
:10582000CDE9000104A90CA8FFF7E6FCDDE90D01B4
:105830000C9A4FF0000B07F10109109200914EE015
:105840004FF000400097CDE9011004A90CA8FFF724
:10585000D3FCDDE90D020C9B0F994FF0000B914634
:105860001093009211B9791C00EB0109B7EB090004
:1058700003D4C0F1FF3B07F10109A9EB0700019038
:1058800042E0012F00DA01270021112F01DD112054
:1058900000E03846CDE9000104A90CA8FFF7ACFCF4
:1058A000DDE90D010C9A00914FF0000BB946109202
:1058B00021070FD4009A4A4503DA914601E0A9F185
:1058C0000109B9F1010F05DD109AA9F10101515C3F
:1058D0003029F4D0B84202DA10F1040F03DA0121C2
:1058E000CDE9011010E0002803DC8344A9EB00019E
:1058F00002E0411C494500DD8946A0EB0B00401C3D
:1059000001904FF000400290200705D401984845CF
:1059100002DB4FF0FF30019000208DF84B00029821
:105920000DF14B07B0F1004F25D002200C902B2039
:105930000D90029800280CDA404202902D200D9024
:1059400007E00A210298FBF77FF83031029007F850
:10595000011D0C99481E0C900029F2DC02980028C9
:10596000EFD1791E0D980870307800F0200040F0DB
:10597000450007F8020D11A8C01BC01D0290139826
:10598000007800B1012000EB0901019801EBE07102
:10599000029801440398401A401E0390E00306D485
:1059A00053462146179A039800F05CF80544139873
:1059B000007818B15246179990476D1CE00323D523
:1059C00053462146179A039800F04CF805441BE013
:1059D000BBF1000F07DB0098584504DD10981799BC
:1059E00010F80B0001E017993020524690470198BB
:1059F0000BF1010B401E05F10105019004D12E2091
:105A00005246179990476D1CB9F10001A9F101099F
:105A1000DEDC05E017F8010B5246179990476D1C24
:105A20000299481E02900029F4DC53462146179A39
:105A300003989EE62D0000002B00000020000000CF
:105A40002DE9F041044600251E461746880404D47B
:105A500005E039462020B0476D1C641EF9D5284664
:105A6000BDE8F0812DE9F041044600251E46904630
:105A7000C80301D5302700E02027880404D505E0BD
:105A800041463846B0476D1C641EF9D52846BDE82E
:105A9000F0810A68531C0B601070704770B50446A3
:105AA0000E46002506B10CB9002070BDA5680DB9E1
:105AB000A66008E000E02D6828680028FBD1314688
:105AC00028460BF08FFD0120EFE72DE9F047074650
:105AD0000D4614461E46DDF820904FF00008C246E1
