:020000040800F2
:10000000E08802207D020008D1250008A102000836
:10001000CD250008C5070008712C0008000000006D
:10002000000000000000000000000000C501000802
:10003000F507000800000000190200080D2600085E
:10004000970200089702000897020008970200082C
:10005000970200089702000897020008970200081C
:10006000970200089702000897020008970200080C
:1000700097020008970200089702000897020008FC
:1000800097020008970200089702000897020008EC
:1000900097020008970200089702000897020008DC
:1000A00097020008970200089702000897020008CC
:1000B00097020008970200089702000897020008BC
:1000C00097020008970200089702000897020008AC
:1000D000970200089702000897020008970200089C
:1000E000970200089702000897020008970200088C
:1000F000970200089702000897020008970200087C
:10010000970200089702000897020008970200086B
:10011000970200089702000897020008970200085B
:10012000970200089702000897020008970200084B
:100130009702000885080008970200089702000847
:10014000970200089702000897020008970200082B
:10015000970200089702000897020008970200081B
:10016000970200089702000897020008970200080B
:10017000970200089702000897020008000000009C
:1001800097020008970200089702000897020008EB
:1001900097020008970200089702000897020008DB
:1001A000970200089702000897020008DFF810D0B5
:1001B00000F030F90048004749AE0008AFF3008076
:1001C000E08802202A4B19680868B0E8F04F80F3F5
:1001D0000988BFF36F8F4FF0000080F311887047DC
:1001E0000000000006480068006880F3088862B6D6
:1001F00061B6BFF34F8FBFF36F8F00DF00BF00BF4B
:1002000008ED00E0DFF80C00016841F470010160C6
:10021000704700BF88ED00E0EFF30980BFF36F8FF8
:10022000134B1A681EF0100F08BF20ED108A20E94A
:10023000F04F106008B44FF0500080F31188BFF306
:100240004F8FBFF36F8F14F0CFFE4FF0000080F39D
:10025000118808BC19680868B0E8F04F1EF0100F4C
:1002600008BFB0EC108A80F30988BFF36F8F704726
:1002700094010020EFF30580704700000648804796
:1002800006480047FEE7FEE7FEE7FEE7FEE7FEE77B
:10029000FEE7FEE7FEE7FEE7E9260008AD010008FD
:1002A0007046694603F066F9FFF7FEFF2DE9F05F3F
:1002B0000546002092469B468846064681464024D5
:1002C0001BE0284641464746224600F092F8534636
:1002D0005A46C01A914110D311461846224600F0E2
:1002E00079F82D1A67EB01084F46224601200021BC
:1002F00000F070F817EB00094E41201EA4F1010434
:10030000DFDC484631462A464346BDE8F09F000000
:1003100000487047DC600108A0F14101192900D8AC
:10032000203070470649074A0868504343F23902B3
:100330001044086040087047014908607047000099
:100340000C0200206D4EC64110B5431A934209D2EB
:100350008318881803E010F8011D03F8011D521ED0
:10036000F9D210BD40EA01039B0703D009E008C998
:10037000121F08C0042AFAD203E011F8013B00F86A
:10038000013B521EF9D210BDD2B201E000F8012BA0
:10039000491EFBD270470022F6E710B513460A4605
:1003A00004461946FFF7F0FF204610BD421C10F826
:1003B000011B0029FBD1801A704730B5044600208C
:1003C000034600E05B1C934203D2E05CCD5C401B23
:1003D000F8D030BD202A04DB203A00FA02F10020D8
:1003E00070479140C2F1200320FA03F31943904073
:1003F0007047202A04DB203A21FA02F000217047DE
:1004000021FA02F3D040C2F120029140084319467C
:1004100070470000064C074D06E0E06840F001031D
:1004200094E8070098471034AC42F6D3FFF7C2FEB9
:10043000286B0108486B010870B58C1810F8015B37
:1004400015F0070301D110F8013B2A1106D110F86D
:10045000012B03E010F8016B01F8016B5B1EF9D171
:100460002B0705D40023521E0DD401F8013BFAE7F7
:1004700010F8013BCB1A921C03E013F8015B01F862
:10048000015B521EF9D5A142D8D3002070BD0000F7
:100490001CB5012402F05AF91CA002F0EBFB23A0CA
:1004A00002F0E8FB30A002F0E5FB3CA002F0E2FB2A
:1004B00047A002F0DFFB02F0B7FF14F055FA5248F4
:1004C000012100234A02CDE9001050A1524815F045
:1004D00009FA0446012C02D150A002F0CBFB574888
:1004E000022100230A02CDE9001055A1574815F05A
:1004F000F9F90446012C02D155A002F0BBFB5C487F
:10050000006814F0DBFB14F071FA1CBDB1BEC0FD35
:10051000B3CCD1DDCABEBFAAB7A2B0E5BBF1C8A1BA
:10052000CDF8D2B3CAFDBEDD0A0A0000CDF8C2E79D
:10053000C1ACBDD3C4A3D0CDC8E7CFC2A3BA0A090A
:1005400020B5E7C4D43C2D2DCDF8CFDF2D2D3EC2F4
:10055000B7D3C93C2D2DCDF8CFDF2D2D3EBFAAB787
:10056000A2B0E50A0A000000CAB5D1E9D6D0CAB9DE
:10057000D3C3544350D0ADD2E9B4ABCAE4CAFDBE34
:10058000DDA3ACBFAAB7A2B0E5D7F7CEAA544350BB
:10059000205365727665720A0A000000B1BEC0FD84
:1005A000B3CCB5C44950B5D8D6B7BEF9D4DA557373
:1005B00065722F617263682F7379735F617263680C
:1005C0002E68CEC4BCFED6D0D0DEB8C40A0A000065
:1005D000B1BEC0FDB3CCB2CEBFBC3C3C4C774950A1
:1005E000D3A6D3C3CAB5D5BDBFAAB7A2D6B8C4CF08
:1005F0003E3EB5DA3139D5C2204854545020D0ADF2
:10060000D2E90A0A00000000180000205465737443
:10061000315F5461736B00006528000843726561A7
:1006200074652054657374315F5461736B20737506
:10063000636573732E2E2E0D0A0000001C0000202F
:1006400054657374325F5461736B00008128000835
:100650004372656174652054657374325F546173CD
:100660006B207375636573732E2E2E0A0A000000CB
:100670001400002010B501F0EBF900F0B1FA01F020
:10068000DFFF01F04BFF00F09FF802A002F0F2FA4A
:1006900010BD00002D2D2D2D2D2D2D2D2D2D2D207E
:1006A0004C7769702064656D6F202D2D2D2D2D2DBB
:1006B0002D2D2D2D2D2D0A001CB5284800F08CFB6A
:1006C00000F05CFA2648006840F001002449086008
:1006D00002208DF8000000208DF801008DF8020046
:1006E0008DF803008DF804008DF805001D481B49A6
:1006F000086001204860002118480182C0F814D029
:10070000012181610021C1614FF4000101624912A0
:100710008160C910C16000F033FC04463CB900BFE1
:1007200011A002F0A7FA14A002F0A4FA07E000BF9B
:100730000DA002F09FFA18A002F09CFA00BF082357
:100740001C4A1D49054800F005FB08231B4A1C49AB
:10075000024800F0B9FA20461CBD000054020020F7
:1007600000900240008002400D0A5B44454255471C
:100770005D203E3E20000000657468206861726460
:100780007761726520696E69742073756365737330
:100790002E2E2E0A000000006574682068617264C5
:1007A0007761726520696E6974206661696C642E78
:1007B0002E2E0A003C3400209C0300209C040020C4
:1007C0009C02002000BFFEE710B5084808490860F9
:1007D0004FF4E1304860002105488160C16001614B
:1007E00081610C21416101F099FD10BD00100140B3
:1007F000140200207047016801F58051896941F0B9
:100800000202016801F580518A617047016801F5B3
:100810008051896941F40052016801F580518A6173
:100820007047000008B508490968C9084FF47A7292
:10083000B1FBF2F14143009100BF00BF00994A1E95
:1008400000920029F9D108BD0000002038B5044607
:1008500000200090206800F58050806940F48011ED
:10086000206800F580508161206800F58050806923
:1008700000900120FFF7D6FF0099206800F5805016
:10088000816138BD10B500BF5021EFF3118081F3B5
:100890001188BFF34F8FBFF36F8F00BF044604482A
:1008A00000F01BFB204680F3118800BF10BD000044
:1008B0005402002030B503461479557944EA0520E6
:1008C000084C0C442064D4782406957844EA054406
:1008D000557844EA0524157844EA0500014C0C4497
:1008E000606430BD0080024070B5AEB004460E4674
:1008F000002526B14FF40061E160C900A16000202D
:10090000119012901390149015901690E06918B9F8
:100910004FF48060179001E0002017904FF40070B2
:100920001890002019901A901B901C901D90402048
:100930001E9000201F9020902190229023902490C0
:1009400025902690802027900020289029902A909A
:100950002B902C902D902068056871480540DDE9AA
:10096000110108431399084314990843A1680843E7
:100970001599084316990843E168084317990843F5
:1009800018990843199908431A9908431B99084371
:1009900005432068056020680568012000F080F9A3
:1009A00020680560DDE91C0108431E9908431F9972
:1009B0000843209908432199084322990843239921
:1009C00008432168486020684568012000F068F904
:1009D0002068456024982168886025982168C8604F
:1009E000206885694FF641700540DDE9261040EA30
:1009F000014028990843299908432A9908432B99CB
:100A0000084305432068856120688569012000F05E
:100A100047F920688561DDE92C0108432168C86138
:100A20002068C569012000F03BF92068C5610020FD
:100A300001904FF000700290002003904FF40010DE
:100A400004900020059006900790089004200990DB
:100A5000C0050A9040120B9080010C9040120D903E
:100A600080200E9000200F901090206800F580509C
:100A700085692C480540DDE90101084303990843D5
:100A800004990843059908430699084307990843C0
:100A900008990843099908430543206800F58050E8
:100AA0008561206800F580508569012000F0F8F824
:100AB000206800F580508561DDE90A0108430C9942
:100AC00008430D9908430E9908430F9940EA8100A5
:100AD0001099084340F40001206800F5805001603F
:100AE000206800F580500568012000F0D9F82068E2
:100AF00000F580500560A069012809D1206800F543
:100B00008050C06908490843216801F58051C861D7
:100B1000002120466269FFF7CDFE2EB070BD0000B7
:100B20000F8120FF233FDEF84000010038B5044666
:100B3000002000902068006840F0040021680860F0
:100B40002068006800900120FFF76CFE0098216883
:100B5000086038BD38B50446002000902068006861
:100B600040F00800216808602068006800900120BB
:100B7000FFF758FE00982168086038BD00B587B0BF
:100B800000BF002001901448006840F480701249B2
:100B900008600846006800F48070019000BF00BF44
:100BA00001200390049002200590029002A90B48B6
:100BB00000F028FE00220221084800F031FF052045
:100BC00000F06EF801220221044800F029FF052000
:100BD00000F066F807B000BD303802400020024047
:100BE00008B500BF002000902C48006840F080004D
:100BF0002A4908600846006800F08000009000BFA5
:100C000000BF00BF002000900846006840F00400CC
:100C100008600846006800F00400009000BF00BFB4
:100C200000BF002000900846006840F00100086006
:100C30000846006800F00100009000BF00BF00BF40
:100C4000002000900846006840F002000860084656
:100C5000006800F00200009000BF00BF00BF00204D
:100C600000900846006840F04000086008460068B0
:100C700000F04000009000BF00BF00BF00200090C7
:100C80000846006840F4807008600846006800F478
:100C90008070009000BF00BF08BD000030380240E7
:100CA00070B5044600F0C2FE06462546681C10B129
:100CB00004480078054400BF00F0B8FE801BA8423D
:100CC000FAD370BD0C00002070B504460D461646E0
:100CD000002200BF94F84500012801D1022070BD18
:100CE000012084F8450000BF022084F84400A5627A
:100CF00000221FE005EB42114FF00040086044F273
:100D0000F4504860C2EBC21000EB400006EB8000DC
:100D10008860A069012803D1486820F0004048603D
:100D2000581E904204D905EB42102030C86000E004
:100D3000CD60521C9A42DDD3206800F58050C5601A
:100D4000012084F8440000BF002084F8450000BF63
:100D500000BFC4E770B504460D461646002200BF2A
:100D600094F84500012801D1022070BD012084F8CB
:100D7000450000BF022084F84400E56200221BE029
:100D800005EB42114FF480100860C2EBC21000EB7B
:100D9000400006EB80008860E06918B9086840F4FC
:100DA00040000860581E904204D905EB42102030E4
:100DB000C86000E0CD60521C9A42E1D3206800F583
:100DC00080500561012084F8440000BF002084F8B1
:100DD000450000BF00BFC8E710B50446022084F8F4
:100DE0004400204600F01AFA002084F8440000BFB6
:100DF00084F8450000BF10BD10B5044600BF04A034
:100E000001F038FF05A001F035FF00BF10BD000064
:100E10000D0A5B4552525D203E3E200065746820FD
:100E20006572720A000000000146002200BF91F8BE
:100E30004500012801D102207047012081F84500BA
:100E400000BF022081F84400886A006800F000407A
:100E5000002838D1886A006800F48070F0B1886B8F
:100E6000401C8863886B012801D1886A08638B6AFB
:100E70004B63886A0068C0F30D40021FCA63086BA9
:100E800083680B64886AC0688862012081F8440026
:100E900000BF002081F8450000BFCDE7886A0068E8
:100EA00000F4007048B1886A086300234B63012393
:100EB0008B63886AC068886205E0886B401C886321
:100EC000886AC0688862012081F8440000BF002061
:100ED00081F8450000BF0120AEE710B50446206848
:100EE00000F58050406900F0400040280FD12046B6
:100EF00000F09EFA4021206800F5805041610120F9
:100F000084F8440000BF002084F8450016E0206803
:100F100000F58050406900F0010078B1204600F0F3
:100F200067FB0121206800F580504161012084F8B1
:100F3000440000BF002084F8450000BF4FF480311A
:100F4000206800F580504161206800F580504069BC
:100F500000F40040B0F5004F10D12046FFF74CFFE1
:100F60004FF40041206800F580504161012084F871
:100F7000440000BF002084F8450000BF10BD000001
:100F80002DE9FC4104460025002001909C4E0027DD
:100F9000804614B90120BDE8FC8194F8440028B9CA
:100FA000002084F84500204600F070F900BF0020C2
:100FB00000909448006840F48040924908600846D8
:100FC000006800F48040009000BF00BF8E480068B9
:100FD00020F400008C49086008460068216A084334
:100FE00089490860206800F58050006840F00101E0
:100FF000206800F58050016000F018FD07460FE002
:1010000000F014FDC01BB0F5FA7F09D9032084F865
:10101000440000BF002084F8450000BF0320BAE769
:10102000206800F58050006800F001000028E7D13A
:101030002068056925F01C0500F0B4FE06467348DB
:10104000864205D37248864202D245F008051AE06E
:101050006F48864205D36A48864202D245F00C05A5
:1010600011E06748864203D36A48864200D20AE00C
:101070006848864205D36848864202D245F0040596
:1010800001E045F01005206805614FF400420021A1
:10109000204600F0AEFA48B14FF001084146204624
:1010A000FFF722FC012084F8440074E70520FFF7D5
:1010B000F7FD6068002871D000F0B8FC074600BF5B
:1010C00001AA0121204600F069F900F0AFFCC01B25
:1010D00041F2883188420FD94FF00108414620463D
:1010E000FFF702FC012084F8440000BF002084F8D0
:1010F000450000BF03204EE7019800F004000428DB
:10110000DED182020021204600F073FA48B14FF090
:10111000010841462046FFF7E7FB012084F8440020
:1011200039E700F083FC074600BF01AA01212046F1
:1011300000F034F900F07AFCC01B41F2883188429B
:101140000FD94FF0010841462046FFF7CDFB0120A3
:1011500084F8440000BF002084F8450000BF03204D
:1011600019E7019800F020002028DED101AA1F21F4
:10117000204600F013F948B14FF0010841462046DF
:10118000FFF7B2FB012084F8440004E7019800F067
:10119000100020B14FF40061E16002E00DE0002199
:1011A000E160019800F00400042802D10021A16050
:1011B0001DE04FF48041A16019E0E068C0F3CF006A
:1011C000A168C1F34F0140EA01020021204600F06E
:1011D00010FA48B14FF0010841462046FFF784FB62
:1011E000012084F84400D6E60520FFF759FD41466A
:1011F0002046FFF779FB012084F844000020CAE66E
:10120000008793034438024004380140002D310127
:10121000C00E160200E1F50580D1F00810B50446B5
:1012200014492068884223D100BF1348006820F089
:101230008060114908600846006820F0006008607E
:101240000846006820F00070086000BF32210B489B
:1012500000F018FA86210A4800F014FA4FF40061F1
:10126000084800F00FFA4FF4C041074800F00AFAAE
:1012700010BD0000008002403038024000080240EB
:1012800000000240000402400018024010B586B081
:1012900004463C492068884271D1322001900220E6
:1012A000029000200390032004900B20059001A9D8
:1012B000354800F0A7FA8620019002200290002015
:1012C0000390032004900B20059001A92F4800F003
:1012D00099FA4FF4006001900220029000200390E0
:1012E000032004900B20059001A9294800F08AFAF8
:1012F0004FF4C04001900220029000200390032090
:1013000004900B20059001A9224800F07BFA0022EE
:1013100006213D2000F0EEFB3D2000F0DEFB00BF8B
:1013200000BF002000901C48006840F000701A497F
:1013300008600846006800F00070009000BF00BF21
:1013400000BF002000900846006840F08060086000
:101350000846006800F08060009000BF00BF00BF3A
:10136000002000900846006840F0006008600846D1
:10137000006800F00060009000BF00BF00BF06B032
:1013800010BD000000800240000802400000024042
:101390000004024000180240303802402DE9F041BC
:1013A00004460E4617460025A84694F844008228B5
:1013B00002D10220BDE8F081822084F84400206838
:1013C000056905F01C05208A4FF4784101EAC02028
:1013D0000543481100EA8610054325F0020545F053
:1013E00001052068056100F021FB804612E000F055
:1013F0001DFBA0EB0800B0F5803F09D3012084F865
:10140000440000BF002084F8450000BF0320D1E75E
:101410002068056905F001000028E8D120684069CE
:1014200080B23860012084F844000020C2E7000048
:1014300038B504460020009069460748006814F05B
:1014400089F9009838B14FF0805004490860BFF323
:101450004F8FBFF36F8F38BD6001002004ED00E0B7
:1014600010B5044600BF94F84500012801D10220C0
:1014700010BD012084F8450000BF022084F844001C
:101480002046FFF767FB2046FFF750FB2046FFF79B
:10149000DDF92046FFF7BAF92046FFF7ACF9012045
:1014A00084F8440000BF002084F8450000BF00BF5E
:1014B000DEE770B5024600230025002400BF92F845
:1014C0004500012801D1022070BD012082F84500AD
:1014D00000BF022082F8440049B9012082F844008C
:1014E00000BF002082F8450000BF0120ECE7D06A71
:1014F000006800F0004048B1122082F8440000BFAC
:10150000002082F8450000BF0120DDE740F2F450E2
:10151000814208D9B1FBF0F3B1FBF0F600FB1610E5
:1015200010B15B1C00E00123012B13D1D06A0068CD
:1015300040F04050D66A3060C1F30C00D66A70604B
:10154000D06A006840F00040D66A3060D06AC06857
:10155000D06232E000242EE0D06A006820F04050D3
:10156000D66A30602CB9D06A006840F08050D66AE4
:10157000306040F2F450D66A7060581EA04210D11C
:10158000D06A006840F00050D66A3060581EC0EB48
:10159000C01000EB4000A1EB8005C5F30C00D66A3B
:1015A0007060D06A006840F00040D66A3060D06A4F
:1015B000C068D062641C9C42CED3106800F5805095
:1015C000406900F0040048B10426106800F580501E
:1015D00046610026106800F580504660012082F8C0
:1015E000440000BF002082F8450000BF00BF6BE749
:1015F00070472DE9F04104460E4617460025A846DF
:1016000094F84400422802D10220BDE8F081422033
:1016100084F844002068056905F01C05208A4FF411
:10162000784101EAC0200543481100EA86100543CD
:1016300045F0020545F00105B8B22168486120680F
:10164000056100F0F3F9804612E000F0EFF9A0EB3D
:101650000800B0F5803F09D3012084F8440000BFA2
:10166000002084F8450000BF0320CEE7206805690C
:1016700005F001000028E8D1012084F84400002092
:10168000C3E70000F0B50C4600250022002300212E
:101690009CE0012606FA01F504EA0502AA427DD182
:1016A00006684FEA410C032707FA0CF7BE430660B1
:1016B000CF0800F1200656F827604F074FEAD76C95
:1016C0000F2707FA0CF7BE434FEAD10C00F12007B1
:1016D00047F82C6086684FEA410C032707FA0CF79D
:1016E000BE438660476801268E40B7434760C668A0
:1016F0004FEA410C032707FA0CF7BE43C660354E8C
:101700008F0856F827308E07370F0F26BE4033401C
:10171000314EB04201D100262DE0304EB04201D111
:10172000012628E02E4EB04201D1022623E02D4EA4
:10173000B04201D103261EE02B4EB04201D1042657
:1017400019E02A4EB04201D1052614E0284EB042DD
:1017500001D106260FE0274EB04201D107260AE04C
:10176000254EB04201D1082605E0244EB04201D1F9
:10177000092600E00A268F073F0FBE409E4224D173
:101780008E07370F0F2606FA07F3124E8F0856F80A
:1017900027609E430F4F4FEA910C00E015E047F899
:1017A0002C60174E36689643154F3E603E1D3668D6
:1017B00096433F1D3E603E1D366896433F1D3E608A
:1017C0003E1D366896433F1D3E60491C1029FFF4BC
:1017D00060AFF0BD08380140000002400004024044
:1017E00000080240000C02400010024000140240B9
:1017F00000180240001C0240002002400024024069
:10180000003C0140F8B502460B46002500240020AC
:101810000021E6E0012606FA01F51E6806EA050445
:10182000AC4273D15E68022E02D05E68122E13D1D4
:10183000CF0802F1200656F827004E07F70E0F26B4
:10184000BE40B0434F07FF0E1E69BE403043CF0875
:1018500002F1200646F8270010684F000326BE401C
:10186000B0431E7906F003064F00BE4030431060BF
:101870005E68012E08D05E68022E05D05E68112ECB
:1018800002D05E68122E13D190684F000326BE402E
:10189000B0434F00DE68BE40304390605068012680
:1018A0008E40B0431E79C6F300168E403043506020
:1018B000D0684F000326BE40B0434F009E68BE4034
:1018C0003043D0605E6806F08056B6F1805FA8D1E4
:1018D00000BF00260096454E366846F48046434FCA
:1018E0003E603E46366806F48046009600BF00BF64
:1018F0003F4E8F0856F827008E07370F0F26BE4041
:10190000B0433C4EB24202D100262EE068E03A4E8F
:10191000B24201D1012628E0384EB24201D102265E
:1019200023E0374EB24201D103261EE0354EB242CB
:1019300001D1042619E0344EB24201D1052614E04B
:10194000324EB24201D106260FE0314EB24201D1F1
:1019500007260AE02F4EB24201D1082605E02E4E9E
:10196000B24201D1092600E00A268F073F0FBE4090
:1019700030431F4E8F0846F82700284E3068A0439A
:101980005E6806F48036B6F5803F00D12043234ED2
:101990003060361D3068A0435E6806F40036B6F548
:1019A000003F00D120431D4E361D3060361D30688B
:1019B000A0435E6806F48016B6F5801F00D1204370
:1019C000164E08363060361D3068A0435E6806F457
:1019D0000016B6F5001F00D12043104E0C363060C3
:1019E000491C1029FFF416AFF8BD0000443802402E
:1019F0000838014000000240000402400008024094
:101A0000000C024000100240001402400018024086
:101A1000001C02400020024000240240003C014023
:101A20000AB1816101E00B048361704701480068DD
:101A3000704700000400002003480068034909784B
:101A40000844014908607047040000200C00002091
:101A500010B50D48006840F400700B490860084656
:101A6000006840F4806008600846006840F48070B8
:101A70000860032000F07CF80F2000F007F800F069
:101A80002BF8002010BD0000003C024070B5044659
:101A90000E4800784FF47A71B1FBF0F00C490968F8
:101AA000B1FBF0F5284600F01FFC08B1012070BD25
:101AB000102C07D200222146501E00F01BF80548CA
:101AC000046001E00120F2E70020F0E70C000020B4
:101AD0000000002008000020704700BF00F01F0237
:101AE000012191404209920002F1E022C2F8001166
:101AF00000BF70472DE9F05F80460D46164600276F
:101B000000F068FD074639462A46334601F00700D3
:101B1000C0F1070ABAF1040F02D94FF0040A01E03C
:101B2000C0F1070AD14600F1040ABAF1070F02D248
:101B30004FF0000A01E0A0F1030AD4464FF0010A79
:101B40000AFA09FAAAF1010A0AEA020A0AFA0CFADE
:101B50004FF0010B0BFA0CFBABF1010B0BEA030B83
:101B60004AEA0B042146404600F03CFDBDE8F09FE8
:101B700000BF00F00702064B19684FF6FF0319403B
:101B8000044B0B4343EA0221014B196000BF70472D
:101B90000CED00E00000FA0538B5002400BF00207D
:101BA00000901D48006840F080501B4908600846BE
:101BB000006800F08050009000BF00BF012017496E
:101BC0000864FFF733FF044607E0FFF72FFF001B11
:101BD000B0F57A7F01D9032038BD1148406800F480
:101BE0008030B0F5803FF0D101200C494864FFF708
:101BF0001DFF044607E0FFF719FF001BB0F57A7FD1
:101C000001D90320E8E70648406800F40030B0F549
:101C1000003FF0D10020DFE74038024000000E42D4
:101C20000070004070B504460D460CB9012070BD2F
:101C30005848006800F00F00A84209D255490D70BD
:101C40000846006800F00F00A84201D00120EEE72E
:101C5000207800F0020002281DD1207800F0040056
:101C6000042805D14C48006840F4E0504A49086017
:101C7000207800F00800082805D14748006840F4A3
:101C80006040454908604448006820F0F000A168C1
:101C9000084341490860207800F00100A8B360685B
:101CA000012807D13C4808380068C0F34040B8B963
:101CB0000120BCE76068022802D06068032807D1D1
:101CC000354808380068C0F3406048B90120AEE7E5
:101CD000314808380068C0F3400008B90120A6E781
:101CE0002D48006820F00300616808432A49086015
:101CF000FFF79CFE064609E0FFF798FE801B41F2C5
:101D00008831884202D9032091E707E02248006821
:101D100000F00C006168B0EB810FEDD11D48006848
:101D200000F00F00A84209D91A490D700846006852
:101D300000F00F00A84201D0012078E7207800F0E1
:101D40000400042807D11448006820F4E050E1683A
:101D5000084311490860207800F00800082808D1DD
:101D60000D48006820F46040216940EAC1000A493A
:101D7000086000F03DF808490968C1F30311074AFB
:101D8000515CC840064908600F20FFF77FFE002025
:101D90004DE70000003C0240083802408C5D01081D
:101DA000000000200148006870470000000000208B
:101DB00000B5FFF7F7FF04490968C1F38221034A20
:101DC000515CC84000BD0000083802409C5D01081D
:101DD00000B5FFF7E7FF04490968C1F34231034A40
:101DE000515CC84000BD0000083802409C5D0108FD
:101DF0002DE9F047002400250026A146254800686B
:101E000000F00C0020B1042805D008283AD105E0E4
:101E1000DFF8849039E0DFF8849036E01D48001F39
:101E2000006800F03F041B48001F006800F48000B9
:101E300078B11A481749091F0968C1F38811A0FB36
:101E400001700146224600233846FEF72FFA054668
:101E50000EE011480F49091F0968C1F38811A0FB62
:101E600001700146224600233846FEF71FFA054658
:101E70000848001F0068C0F30140401C4600B5FB45
:101E8000F6F902E0DFF8109000BF00BF4846BDE859
:101E9000F0870000083802400024F40040787D01FB
:101EA000F8B504460CB90120F8BD207800F0010017
:101EB000002874D0F948006800F00C0004280DD008
:101EC000F648006800F00C00082813D1F348001F02
:101ED000006800F48000B0F5800F0BD1EF4808389F
:101EE0000068C0F34040002859D06068002856D1EF
:101EF0000120D9E700BF6068B0F5803F08D1E7480E
:101F00000838006840F48030E449083908601EE071
:101F10006068B0F5A02F0DD1E0480838006840F4A3
:101F20008020DE49083908600846006840F48030A7
:101F300008600CE0D9480838006820F48030D749A0
:101F4000083908600846006820F48020086000BF57
:101F5000606890B1FFF76AFD054606E0FFF766FD91
:101F6000401B642801D903209EE7CC48083800684C
:101F7000C0F340400028F1D011E0FFF757FD0546BF
:101F800006E0FFF753FD401B642801D903208BE7CF
:101F9000C24808380068C0F340400028F1D12078DA
:101FA00000F0020002285FD1BC48006800F00C007D
:101FB00058B1BA48006800F00C0008281CD1B74896
:101FC000001F006800F48000B0B9B4480838006809
:101FD000C0F3400020B1E068012801D0012063E790
:101FE000AE480838006820F0F800216940EAC100D6
:101FF000AA490839086037E0E06800B30120A84921
:102000000860FFF713FD054606E0FFF70FFD401BD4
:10201000022801D9032047E7A04808380068C0F328
:1020200040000028F1D09D480838006820F0F800F2
:10203000216940EAC10099490839086014E000208C
:1020400097490860FFF7F2FC054606E0FFF7EEFC53
:10205000401B022801D9032026E790480838006871
:10206000C0F340000028F1D1207800F008000828D3
:102070002CD16069A8B101208A490860FFF7D6FC1D
:10208000054606E0FFF7D2FC401B022801D90320D9
:102090000AE782486C300068C0F340000028F1D0A5
:1020A00014E000207F490860FFF7C0FC054606E009
:1020B000FFF7BCFC401B022801D90320F4E6774857
:1020C0006C300068C0F340000028F1D1207800F0A7
:1020D0000400042870D1002670483830006800F0F1
:1020E000805090B900BF002000906C4838300068E4
:1020F00040F080506949383108600846006800F0B7
:102100008050009000BF00BF01266748006800F4BF
:102110008070B0B96448006840F48070624908601B
:10212000FFF784FC054606E0FFF780FC401B022811
:1021300001D90320B8E65C48006800F480700028EC
:10214000F2D000BFA068012808D154486830006868
:1021500040F001005149683108601DE0A068052881
:102160000DD14E486830006840F004004B4968319A
:1021700008600846006840F0010008600CE047482D
:102180006830006820F00100444968310860084662
:10219000006820F00400086000BFA068A8B1FFF745
:1021A00045FC054609E0FFF741FC401B41F2883140
:1021B000884202D9032077E626E038486830006874
:1021C000C0F340000028EED013E0FFF72FFC0546D7
:1021D00008E0FFF72BFC401B41F28831884201D90F
:1021E000032061E62D4868300068C0F340000028F5
:1021F000EFD1012E07D129483830006820F08050F7
:1022000026493831086000BFA069B8B32348006888
:1022100000F00C0008285ED0A069022846D10020FA
:102220001F490866FFF702FC054606E0FFF7FEFBC4
:10223000401B022801D9032036E6184808380068F8
:10224000C0F340600028F1D1D4E907010843616A76
:1022500040EA81110122A06AC2EB500041EA00412C
:102260002C20005D41EA00600C49091F0860012034
:102270000B490866FFF7DAFB054607E02DE0FFF79C
:10228000D5FB401B022801D903200DE6034808387E
:102290000068C0F340600028F1D01EE0083802401A
:1022A00000004742800E47420070004000200C4969
:1022B0000866FFF7BBFB054606E0FFF7B7FB401BD0
:1022C000022801D90320EFE506480068C0F340600A
:1022D0000028F2D101E00120E6E50020E4E500005D
:1022E000000047420038024070B504462546681E8B
:1022F000B0F1807F01D301200FE0681E4FF0E02194
:1023000048610F214FF0FF3000F06CF900204FF0D2
:10231000E021886107200861002070BD10B50446E7
:102320000CB9012010BDA06900B100E000BF94F815
:10233000390028B9002084F83800204600F028F839
:10234000242084F839002068C06820F400502168F7
:10235000C860204600F0A2FA2068006920F490408E
:10236000216808612068406920F02A0021684861DE
:102370002068C06840F400502168C8600020E06315
:10238000202084F8390084F83A000020CAE70000D1
:1023900010B586B0044600BF0020009027480068B2
:1023A00040F01000254908600846006800F0100061
:1023B000009000BF00BF00BF002000901F481438ED
:1023C000006840F001001D491439086008460068A3
:1023D00000F00100009000BF00BF00BF002000908F
:1023E0000846006840F0010008600846006800F0F8
:1023F0000100009000BF00BF48150190022002902C
:1024000001200390032004900720059001A90C48A7
:10241000FFF7F8F94FF4806001900720059001A9BB
:102420000748FFF7EFF9012200212520FFF762FBA3
:102430002520FFF752FB06B010BD000044380240D3
:10244000000002402DE9F84304460D4616461F469B
:102450004FF0000994F8390020285CD105B116B975
:102460000120BDE8F88300BF94F83800012801D1AD
:102470000220F6E7012084F8380000BF0020E06366
:10248000212084F83900FFF7D1FA8146A684E6843A
:102490002BE0E08C401EE084A068B0F5805F16D190
:1024A0004B46002280212046009700F0ABFB08B18C
:1024B0000320D6E7A846B8F80000C0F3080021685A
:1024C0004860206908B9AD1C0FE06D1C0DE04B465B
:1024D000002280212046009700F094FB08B10320E1
:1024E000BFE715F8010B21684860E08C0028D0D1C7
:1024F0004B46002240212046009700F083FB08B1A4
:102500000320AEE7202084F8390000BF002084F8C3
:10251000380000BFA5E70220A3E7000000B587B0A0
:1025200000BF002001902748006840F08000254946
:1025300008600846006800F08000019000BF00BFFE
:1025400000BF002001900846006840F0800008604D
:102550000846006800F08000019000BF00BF00BF87
:10256000002001900846006840F08000086008469E
:10257000006800F08000019000BF00BF08150290C5
:102580000120039004900320059002A90E48FFF754
:1025900039F94FF40060029002A90B48FFF732F9B5
:1025A0004FF48050029002A90748FFF72BF94FF42F
:1025B00080600549183108604000086040000860EC
:1025C00007B000BD30380240001C024000BFFEE7EB
:1025D0007047000002480068C0F302207047000006
:1025E0000CED00E010B5002807DA0A07140E054AC2
:1025F00000F00F031B1FD45403E00A07130E024A16
:10260000135410BD18ED00E000E400E010B500BF69
:102610005021EFF3118081F31188BFF34F8FBFF387
:102620006F8F00BF0446FFF707FA13F08BF90128FC
:1026300001D012F0DBFD00BF84F3118800BF10BD94
:1026400000B593B000BF002001902548006840F01D
:102650008050234908600846006800F080500190CF
:1026600000BF00BF00BF002001901E48006840F47A
:1026700040401C4908600846006800F44040019052
:1026800000BF00BF012002900004039002200890C8
:102690004105099119210A914FF4B4710B9102215E
:1026A0000C9107210D9102A8FFF7FAFB08B100BFBA
:1026B000FEE7FFF771FA0F200E9002200F90002026
:1026C00010904FF4A05011904FF4805012900521BB
:1026D0000EA8FFF7A7FA08B100BFFEE713B000BDD0
:1026E00040380240007000401448006840F4700018
:1026F000124908601248006840F001001049086063
:1027000000200F49083108600D4800680D49084055
:102710000B4908600C48091D0860081F006820F478
:102720008020091F0860002005490C3108604FF027
:1027300000600249803908607047000088ED00E0C1
:1027400000380240FFFFF6FE103000243EB50021A5
:10275000084611F08FF900202649086026490860D4
:1027600026490860264827490022244BCDE900214C
:102770000290214A1F49244809F038FE22480AF0F5
:102780000FF8214890F83100C0F3800018B11E48BE
:102790000AF03EF802E01C480AF008F81B4800F076
:1027A00069FA194802F0C4FA04461CB918A000F0EE
:1027B00061FA02E01DA000F05DFA02E0012012F0D3
:1027C00041FA114840680B4909688842F6D00E4822
:1027D0004068000E00900C484068C0F307430A4868
:1027E0008088C0F307220848017917A000F042FA58
:1027F0003EBD00007C0100208001002084010020FB
:10280000993B01087D6A000838F00120C062010888
:102810006C776970206468637020696E69742073D6
:102820007563636573732E2E2E0A0A006C776970C8
:10283000206468637020696E6974206661696C2E1B
:102840002E2E0A0A00000000B1BEB5D84950B5D8F6
:10285000D6B7CAC73A25642E25642E25642E256472
:102860000A0A000009E00548006880F48060034916
:1028700008604FF47A7012F0E5F9F4E7141C024096
:1028800009E00548006880F40060034908604FF4DF
:10289000FA6012F0D7F9F4E7141C02402DE9F04178
:1028A000044600252068056925F44055E068054385
:1028B000206805612068C56849F20C60854321697C
:1028C000A068084361690843E1690843054320683B
:1028D000C5602068456925F44075A06905432068F6
:1028E0004561E069B0F5004F7ED1C4492068884257
:1028F00003D0C349206888425DD1FFF769FA00EB35
:10290000C00101EB001061684900B0FBF1F06421E7
:10291000B0FBF1F00601FFF75BFA00EBC00101EB41
:10292000001061684900B0FBF1F7FFF751FA00EBC6
:10293000C00101EB001061684900B0FBF1F06421B7
:10294000B0FBF1F000EBC00101EB0010A7EB800041
:10295000322101EBC0006421B0FBF1F000F0F8007F
:1029600006EB4006FFF734FA00EBC00101EB001064
:1029700061684900B0FBF1F7FFF72AFA00EBC001EC
:1029800001EB001061684900B0FBF1F06421B0FB7D
:10299000F1F000EBC00101EB0010A7EB8000322149
:1029A00001EBC0006421B0FBF1F000F007003044FF
:1029B0002168886020E1FFF7FBF900EBC00101EB23
:1029C000001061684900B0FBF1F06421B0FBF1F048
:1029D0000601FFF7EDF900EBC00101EB00106168A3
:1029E0004900B0FBF1F700E045E0FFF7E1F900EB4B
:1029F000C00101EB001061684900B0FBF1F06421F7
:102A0000B0FBF1F000EBC00101EB0010A7EB800080
:102A1000322101EBC0006421B0FBF1F000F0F800BE
:102A200006EB4006FFF7C4F900EBC00101EB001014
:102A300061684900B0FBF1F7FFF7BAF900EBC0019C
:102A400001EB001061684900B0FBF1F06421B0FBBC
:102A5000F1F000EBC00101EB0010A7EB8000322188
:102A600001EBC0006421B0FBF1F000F0070030443E
:102A700021688860C0E061492068884203D06049CD
:102A8000206888425CD1FFF7A3F900EBC00101EB9D
:102A9000001061688900B0FBF1F6FFF799F900EBCF
:102AA000C00101EB001061688900B0FBF1F0642106
:102AB000B0FBF1F000EBC00101EB0010A6EB8000D1
:102AC000322101EB00106421B0FBF1F000F0F006C0
:102AD000FFF77EF900EBC00101EB0010616889008F
:102AE000B0FBF1F06421B0FBF1F006EB0016FFF74C
:102AF0006FF900EBC00101EB001061688900B0FBC9
:102B0000F1F7FFF765F900EBC00101EB0010616818
:102B10008900B0FBF1F06421B0FBF1F000EBC001E3
:102B200001EB0010A7EB8000322101EB00106421C3
:102B3000B0FBF1F000F00F003044216888605BE0EA
:102B4000FFF736F900EBC00101EB00106168890066
:102B5000B0FBF1F6FFF72CF900EBC00101EB001020
:102B600061688900B0FBF1F06421B0FBF1F000EB8B
:102B7000C00101EB0010A6EB8000322101EB001038
:102B80006421B0FBF1F000F0F006FFF711F900EB63
:102B9000C00101EB001061688900B0FBF1F0642115
:102BA000B0FBF1F006EB0016FFF702F900EBC001F5
:102BB00001EB001061688900B0FBF1F7FFF7F8F84E
:102BC00000EBC00101EB001061688900B0FBF1F07F
:102BD0006421B0FBF1F000EBC00101EB0010A7EBAA
:102BE0008000322101EB00106421B0FBF1F000F015
:102BF0000F00304421688860BDE8F081001001407A
:102C0000001401402DE9F04104460D461746984650
:102C1000069E21E0701CF8B12EB1FEF707FFA0EB75
:102C20000800B04218D92068C06820F4D07021682C
:102C3000C8602068406920F00100216848612020B8
:102C400084F8390084F83A0000BF002084F8380086
:102C500000BF0320BDE8F081206800682840A8423A
:102C600001D1012000E00020B842D3D00020F1E7DC
:102C700000BFFEE70FB4054B10B503A9044A029844
:102C800000F02CF810BC5DF814FB0000816F000808
:102C9000100200200FB4084B10B504A902AA039833
:102CA00000F01CF8044602A9002000F042FA204679
:102CB00010BC5DF814FB00003331000802E008C8C6
:102CC000121F08C1002AFAD170477047002001E0A6
:102CD00001C1121F002AFBD1704700002DE9FF4FF0
:102CE0008DB00F460546002606E025280BD0DDE90D
:102CF0000F1290476D1C761C28780028F5D111B072
:102D00003046BDE8F08F0024A246A1460122E949E1
:102D100000E0044315F8013F203B02FA03F00842AB
:102D2000F7D128782A2810D06FF02F022878A0F148
:102D30003001092914D80AEB8A0102EB410144F061
:102D4000020400EB010A6D1CF0E701CF5FEA000A04
:102D500003D544F40054CAF1000A44F002046D1C87
:102D600028782E2817D115F8010F44F004042A28DA
:102D70000ED06FF02F022878A0F1300109290AD86F
:102D800009EB890102EB410100EB01096D1CF2E73F
:102D900057F8049B6D1C28786C280FD006DC4C2853
:102DA00017D068280DD06A2814D104E0742810D0F8
:102DB0007A280FD10DE044F400140AE044F48014A2
:102DC00001E044F440146978814202D104F5801492
:102DD0006D1C6D1C28786E281ED00CDC632830D04A
:102DE00004DC00288BD0582811D19FE0642867D0DC
:102DF00069280CD164E073282DD004DC6F2872D0D0
:102E0000702804D194E075286ED078286DD0DDE963
:102E10000F129047761C4BE1C4F30250022806D0F3
:102E2000032809D0042801CF09D0066040E101CF72
:102E3000F117C0E900613BE101CF068038E106707F
:102E400036E117F8040B8DF8000000208DF8010022
:102E5000EB46012003E057F804BB4FF0FF30610759
:102E60004FF0000102D40DE008F101018846494508
:102E70000FDA8045F8DB1BF808100029F4D108E0D0
:102E800008F1010188468142FADB1BF8081000298D
:102E9000F6D1DDE90F23AAEB08008146214600F0B8
:102EA00031F9304400EB080604E0DDE90F121BF8AD
:102EB000010B9047B8F10108F7D221464846F2E0ED
:102EC0000A21C4F302524FF0000B0891022A04D0E9
:102ED00001CFC117032A09D00AE0FF1D27F0070719
:102EE000F7E8020108E02CE01EE01FE000B2C11785
:102EF000042A01D140B2C117021E71F1000206DAA4
:102F00000023D0EB030063EB01012D2202E0220538
:102F100004D52B228DF82420012203E0E20701D002
:102F20002022F7E7904653E00A210BE0102109E048
:102F300010214FF0000B44F004044FF008090891F1
:102F400003E008214FF0000B0891C4F30252022A5B
:102F500004D001CF0021032A06D006E0FF1D27F090
:102F60000707F7E8020103E080B2042A00D1C0B2EB
:102F70004FF0000822072BD52A78702A07D0DDF8F9
:102F800020C08CF0100C5CEA0B0C05D00EE0402247
:102F90008DF82420012208E050EA010306D03023F6
:102FA0008DF824308DF8252002229046089B83F06E
:102FB000080353EA0B030BD150EA010201D1620767
:102FC00006D530228DF824204FF00108A9F101091F
:102FD0002A78582A04D038A20B9208AA0A920BE049
:102FE0003AA2F9E75B46089AFDF760F90B9B9B5CF8
:102FF0000A9A521E0A92137050EA0102F2D10A98FC
:10300000ADEB000000F1200B600702D524F4803402
:1030100001E04FF00109D94502DDA9EB0B0000E00A
:10302000002000EB0B0141440890AAEB010AE003E9
:1030300006D4DDE90F232146504600F063F806442C
:103040004FF0000908E009A911F80900DDE90F12A5
:10305000904709F10109761CC145F4DBE0030CD56A
:10306000DDE90F232146504600F04CF8064404E009
:10307000DDE90F1230209047761C0899481E089011
:103080000029F5DC08E00A980A990078491C0A91A1
:10309000DDE90F129047761CBBF10001ABF1010B8B
:1030A000F1DC21465046DDE90F2300F019F8064413
:1030B0006D1C21E6092801003031323334353637B2
:1030C0003839616263646566000000003031323374
:1030D0003435363738394142434445460000000014
:1030E0002DE9F041044600251E461746880404D405
:1030F00005E039462020B0476D1C641EF9D52846EE
:10310000BDE8F0812DE9F041044600251E469046B9
:10311000C80301D5302700E02027880404D505E046
:1031200041463846B0476D1C641EF9D52846BDE8B7
:10313000F0810A68531C0B60107070472DE9F04154
:1031400005460E46002440E00BF025FA07462148CC
:1031500000EB04100068002833D11E4800EB041077
:10316000056038460BF040FA00201A4901EB0411C3
:10317000486000BF174800EB0410807B20B100BFFF
:1031800015A0FFF777FD00BF00BF0020114901EB3C
:1031900004110881287800F0F000102804D10EB145
:1031A000012002E0002000E001200A4901EB0411A7
:1031B00048810020074901EB041188812046BDE8C1
:1031C000F08138460BF010FA641C042CBCDB4FF085
:1031D000FF30F4E70C640020736F636B6574735BFE
:1031E000695D2E73656C6563745F77616974696E80
:1031F00067203D3D2030000086B04FF0FF3541F2A2
:1032000088300AF09BFE01A93DA008F0D5FC01A87A
:1032100005F012FB064600BF3DA0FFF72BFD32462E
:1032200037A13FA0FFF726FD00BF41F2893144A03E
:10323000FFF720FD62E000220121022007F01AFDC5
:103240000546002D06DA43A0FFF714FD0A2011F011
:10325000F9FC53E002208DF8090041F2893006F0B4
:103260002EF9ADF80A00304605F0FAFD0390002073
:1032700004900590102202A9284606F077F8401C19
:1032800048B938A0FFF7F6FC284606F01FF80A20D8
:1032900011F0D8FC32E038A0FFF7ECFC3E493F4883
:1032A0000068FDF778F83EA0FFF7E4FC39224C49AE
:1032B000284607F0BEFD0FE00023374A3748016873
:1032C000284607F027F90446002C00DC05E03348C7
:1032D000016844A0FFF7CEFCEEE700BF42A0FFF775
:1032E000C9FC2D492D480068FDF755F8284605F022
:1032F000EDFF42F2107011F0A5FC00BF9BE700004B
:10330000656D626564666972652E636F6D000000AD
:103310000D0A5B44454255475D203E3E20000000BB
:10332000686F7374206E616D65203A202573202CC0
:10333000686F73745F6970203A202573200A00005B
:10334000C4BFB1EAB6CBBFDABAC5CAC7A3BA202593
:10335000640A0A00536F636B6574206572726F7242
:10336000200A0000436F6E6E656374206661696CAD
:103370006564210A00000000436F6E6E656374206F
:10338000746F2073657276657220737563636573FD
:103390007366756C20210A00801A06002000002048
:1033A0000A2A2A2A2A2A2A2A2A2A2A2A2A2A2A2A9D
:1033B0002A2A2A2A2A2A2A2A2A2A2A2A2A2A2A2A6D
:1033C0002A2A2A2A2A2A2A2A2A2A2A2A2A2A2A2A5D
:1033D0002A2A2A2A2A2A2A2A2A2A2A2A2A0A0000C1
:1033E0002400002025730A000A2A2A2A2A2A2A2AC7
:1033F0002A2A2A2A2A2A2A2A2A2A2A2A2A2A2A2A2D
:103400002A2A2A2A2A2A2A2A2A2A2A2A2A2A2A2A1C
:103410002A2A2A2A2A2A2A2A2A2A2A2A2A2A2A2A0C
:103420002A2A2A0A0000000008B5042043020022CC
:103430000249009002A00BF0EBF908BDF931000839
:10344000636C69656E7400002DE9F04303460D4618
:10345000DFF804C1DCF800400020DFF800C1DCF830
:1034600000600027DFF8F8C09CF800C0BCF1000F36
:103470002ED0DFF8F0C09CF800C0BCF1000F27D1BF
:10348000DFF8E4C0DCF818908446401C43F82C9028
:10349000DFF8D4C0DCF814C0ACF10401DFF8CCC014
:1034A000DCF800C0614513D3DFF8C0C0DCF800C011
:1034B000DFF8BC80D8F80080C4448C4508D31028BD
:1034C00006D2A84204D28446401C43F82C1001279F
:1034D000DFF890C09CF800C0BCF1000F08D0A242F9
:1034E00001D2224604E004EB060C944500D2A21956
:1034F0002CE0D2F800C0ACF1040101F0010CBCF1E9
:10350000000F00D121E0DFF864C0DCF800C06145A5
:103510001AD3DFF858C0DCF800C0DFF85480D8F8C0
:103520000080C4448C450FD310280DD2A8420BD282
:10353000022805D127B1D3F804C08C4500D104E09E
:103540008446401C43F82C1000BF121D04EB060CEF
:103550009445CED8BDE8F083F4010020F8010020A6
:10356000050200200602002098840220FC010020B1
:10357000000200202DE9F0438DB081460E4635460D
:103580002C462022634905A8FCF7DEFE6248076846
:103590006248D0F800806248007848B9614A62A168
:1035A00063A0FFF767FB6AA0FFF764FB00BFFEE7BD
:1035B0006848007848B15B4A67A15DA0FFF75AFBF5
:1035C00063A0FFF757FB00BFFEE7012061490870C9
:1035D00064A0FFF74FFB5EA0FFF74CFB00F002F981
:1035E0006149886AFFF746FB59A0FFF743FB203586
:1035F000294648460AF086FF0546BD4203D307EB3D
:103600000800A84202D20120584908702A464146C3
:10361000384602F067FA5548007800284BD15249E5
:10362000C86AFFF727FB4AA0FFF724FB5049206830
:10363000086060684860A0688860E068C8602069C9
:10364000086160694861A0698861E069C8610846ED
:10365000C068474A08999268079BCDE90132CDE9D5
:1036600003104348406800904148069B026841A00F
:103670000599FFF7FFFA36A0FFF7FCFA3C48C0694E
:103680003B4A0C9992690B9BCDE90132CDE90310BD
:1036900037484069009036480A9B026935A009996D
:1036A000FFF7E8FA2AA0FFF7E5FA3DA0FFF7E2FAF4
:1036B00027A0FFF7DFFA4A4800682D49086248480A
:1036C000001D007881F824004548103000688862A9
:1036D0004348401D007881F82C00414814300068B0
:1036E00008633F48801D008888863D480830006890
:1036F00088633B480C300088C8633948183000881C
:10370000086403F0B9FA28460AF0A2F80DB0BDE843
:10371000F083000038600108F4010020F801002067
:103720000402002024600108696E69745F6F6B00F9
:103730002825732920686173206173736572742072
:103740006661696C65642061742025732E00000039
:103750000D0A000005020020216F6E5F6661756C26
:1037600074000000000000007C5F010806020020D9
:1037700098840220202025733A2025303878202094
:1037800025733A2025303878202025733A202530BB
:103790003878202025733A20253038780000000042
:1037A0003D3D3D3D3D3D3D3D3D3D3D3D3D3D3D3D49
:1037B0003D3D3D3D3D3D3D3D3D3D3D3D3D3D3D3D39
:1037C0003D3D3D3D3D3D3D3D3D3D3D3D3D3D3D3D29
:1037D0003D3D3D3D3D3D3D3D3D3D3D3D3D3D000093
:1037E00024ED00E010B50549054B064A0868064976
:1037F000FFF740FA05A0FFF73DFA10BD7C5F010816
:10380000E8830220C8830220A88302200D0A00005A
:1038100070B505460E4600BF2DB900BF09A0FFF7E1
:1038200029FA00BF70BD00BF2C6A4CB1607908282E
:1038300006D13068E169884202D1284600F006FAD4
:1038400000BFEFE76E6574696620213D204E554C40
:103850004C0000007CB5064600BF2EB900BF42A058
:10386000FFF708FA00BF7CBD00BF346A00BF2CB967
:1038700000BF44A0FFF7FEF900BFF4E700BF00203F
:103880006082A06A401C70B1A06A1E303C21B0FB6F
:10389000F1F5B5F5803F01D34FF6FF75A582A08AFB
:1038A00008B90120A082E06A401C80B1E06A1E30A5
:1038B0003C21B0FBF1F5B5F5803F01D34FF6FF7524
:1038C0006581608908B9012060816089E081206B91
:1038D000401C80B1206B1E303C21B0FBF1F5B5F5EA
:1038E000803F01D34FF6FF75A581A08908B901205B
:1038F000A081A08920826089A189884204DBA089F7
:10390000002801DD00206081E07910B1206A01907B
:103910000FE0207F7F2802DCFF21019108E0C02812
:1039200003DB6FF07F41019102E04FF6FF710191DF
:1039300000BF606A0090009848B900BFE069019933
:103940000840009000BF009840F0807000900A216D
:10395000204601F0E5F96B4601AA04F11C0130464E
:1039600008F0EEFE00BF7EE7646863705F62696E18
:10397000643A206E6574696620213D204E554C4C9A
:1039800000000000646863705F62696E643A2064DE
:1039900068637020213D204E554C4C002DE9F041CC
:1039A00005462C6A0821204601F0BAF9002204F1EC
:1039B0001C01284602F00EFD0746A079FF2802DA16
:1039C000A079401CA0714FF4FA7606F2F31031464C
:1039D00090FBF1F02081BDE8F081000070B518483F
:1039E000056829E02C6A34B3607920B3A08A68B1F5
:1039F000608A401C80B26082A18A884206D1284633
:103A000000F0D4FF284601F093F914E0208A40B179
:103A1000218A481E2082012903D1284601F02FFA6D
:103A200009E0E08938B1E189481EE081012902D12D
:103A3000284601F003FA2D68002DD3D170BD000097
:103A4000F80000202DE9F05F07460D4616469A461D
:103A500000BF3FB900BF42A0FFF70CF900BF002034
:103A6000BDE8F09F00BF00BF35B900BF44A0FFF71D
:103A700001F900BF0020F3E700BF4FF420724FF4BC
:103A80009A71362008F03EFF8146B9F1000F01D14E
:103A90000020E5E700BFB9F80A00B0F59A7F04D22C
:103AA00000BF3FA0FFF7E6F800BF00BF032E02D122
:103AB0006879032808D1A87918B9FCF733FC48497C
:103AC0000860474800682860D9F804404FF49A71AC
:103AD0002046FCF760FC01202070607097F83000F1
:103AE000A070286805F0DEFC6060082E0BD0042E64
:103AF00009D0072E07D0032E07D16879052802D0F8
:103B00006879042801D17868E0604FF000080BE084
:103B100007F12A0010F8081004F11C0000F8081042
:103B200008F101001FFA80F8B8F1060FF0D32D4814
:103B3000C4F8EC000123352204F1F001002000F06C
:103B400053FA8346324604F1F001584600F06AFA0F
:103B50008346BAF1000F01D0AAF800B048467FE7CB
:103B6000646863705F6372656174655F6D73673A03
:103B7000206E6574696620213D204E554C4C000036
:103B8000646863705F6372656174655F6D73673AE3
:103B9000206468637020213D204E554C4C0000008D
:103BA000646863705F6372656174655F6D73673AC3
:103BB00020636865636B2074686174206669727342
:103BC0007420706275662063616E20686F6C64207B
:103BD00073747275637420646863705F6D736700DB
:103BE000800000206382536310B500BF0C4800784A
:103BF000002804DC00BF0BA0FFF73CF800BF00BFAB
:103C000007480078401E064908700846007830B919
:103C10000D48006810F092FB00200B49086010BDB1
:103C20007C000020646863705F7063625F72656629
:103C3000636F756E7428293A20726566636F756EBE
:103C400074206572726F7200780000202DE9FE4FBB
:103C50000646346A0C21204601F062F802AB0422C9
:103C600021463046FFF7EEFE054665B3D5F80480E1
:103C70000423322208F1F001BDF8080000F0B4F985
:103C80000290E06905F00EFC8246524608F1F00110
:103C9000BDF8080000F0F6F902902A4608F1F0019C
:103CA000BDF8080000F06AFA11484323114A29467A
:103CB000CDE900601048006810F0C2FC07462846B5
:103CC00009F06EF901E04FF0FF37A079FF2802DA22
:103CD000A079401CA07142F2107909F2F3104FF460
:103CE000FA7190FBF1F020813846BDE8FE8F0000AC
:103CF000EC5D0108F05D0108780000202DE9FE4F21
:103D000007463C6A4FF0000A0020E0610621204689
:103D100001F006F802AB012221463846FFF792FE79
:103D20000546002D42D06E680223392206F1F001CB
:103D3000BDF8080000F058F902903A8D06F1F00144
:103D4000BDF8080000F0E2F902900423372206F1E2
:103D5000F001BDF8080000F047F90290D0460DE0F0
:103D6000224810F8082006F1F001BDF8080000F024
:103D700059F9029008F1010000F0FF08B8F1040FB2
:103D8000EED32A4606F1F001BDF8080000F0F6F97E
:103D900017484323174A2946CDE9007016480068A2
:103DA00010F04EFC284609F0FBF800BFA079FF2870
:103DB00002DAA079401CA071A079062803DAA17963
:103DC0000120884000E03C2000EB4001C1EBC01026
:103DD0004FF6FF7101EAC00909F2F3104FF4FA71CE
:103DE00090FBF1F020815046BDE8FE8F740000206A
:103DF000EC5D0108F05D01087800002070B50C480A
:103E0000056812E02C6A7CB12089012803DD208935
:103E1000401E208108E02089012805D12089401E0C
:103E20002081284601F04FF82D68002DEAD170BDA1
:103E3000F8000020F8B506460F46346A00202062DC
:103E400060622648C07810B12548C068A062234847
:103E5000007918B122480069E06202E0A06A4008D7
:103E6000E0621E48407918B11D484069206304E0B3
:103E7000A06AC0EBC000C00820633869E061174841
:103E8000807938B11649886905F00CFB2062012061
:103E9000E07101E00020E0711048C07920B11049C4
:103EA000C86905F0FFFA606200250DE005F1080120
:103EB0000B4A52F8210005F0F5FA009069462846B1
:103EC00001F064FD681CC5B2022D05DA05F1080099
:103ED0000249085C0028E9D1F8BD000074640020A4
:103EE0004C64002070B50446256A0C21284600F079
:103EF00017FF054B1A461146204608F021FC2046C4
:103F0000FFF7FCFE70BD0000EC5D010870B50546D2
:103F10000E462C6A0748807858B100202081064957
:103F2000886805F0BFFAA0613069E061284600F0BA
:103F300019FE70BD746400204C64002010B51C484C
:103F4000007800282DD100BF1A48006820B100BFBA
:103F500019A0FEF78FFE00BF00BF10F08FF91549C2
:103F600008600846006810B94FF0FF3010BD1148D6
:103F70000068407A40F020000E49096848724422E7
:103F800017490C4800680FF013FF432214490948F1
:103F900000680FF06FFF002212490648006810F019
:103FA000AFF903480078401C014908700020DDE7A4
:103FB0007C00002078000020646863705F696E6395
:103FC0005F7063625F726566636F756E7428293A0D
:103FD000206D656D6F7279206C65616B000000006B
:103FE000EC5D0108854800082DE9F04104460D46C6
:103FF00017461E4600BFA01C3044442804D900BF09
:104000000748FEF737FE00BF00BF2046611C8CB298
:104010002F542046611C8CB22E542046BDE8F081FE
:10402000E060010870B504460D46164600BF442CFA
:1040300004D300BF05A0FEF71DFE00BF00BF204651
:10404000611C8CB22E54204670BD00006468637001
:104050005F6F7074696F6E5F627974653A206F701C
:1040600074696F6E735F6F75745F6C656E203C2052
:10407000444843505F4F5054494F4E535F4C454E58
:104080000000000070B504460D46164600BF201D16
:10409000442804D900BF0EA0FEF7ECFD00BF00BF0E
:1040A000320E2046611C8CB22A54C6F307422046C9
:1040B000611C8CB22A54C6F307222046611C8CB2C4
:1040C0002A542046611C8CB22E54204670BD00003C
:1040D000646863705F6F7074696F6E5F6C6F6E673A
:1040E0003A206F7074696F6E735F6F75745F6C6583
:1040F0006E202B2034203C3D20444843505F4F50DD
:1041000054494F4E535F4C454E00000070B5044675
:104110000D46164600BFA01C442804D900BF08A0C5
:10412000FEF7A8FD00BF00BF320A2046611C8CB21A
:104130002A542046611C8CB22E54204670BD0000CB
:10414000646863705F6F7074696F6E5F73686F72BD
:10415000743A206F7074696F6E735F6F75745F6C03
:10416000656E202B2032203C3D20444843505F4F59
:104170005054494F4E535F4C454E000070B50446B5
:104180000D461646FF222046611C8CB22A5404E0DC
:1041900000222046611C8CB22A54442C02D304F025
:1041A000030008B1442CF3D304F1F00081B230468F
:1041B00008F0E8FF70BD00002DE9F04F8BB081469C
:1041C0000020079006900A21F948FCF7E4F8B9F8B6
:1041D0000A002C2804D26FF001000BB0BDE8F08F6C
:1041E000D9F8040005904FF0F00AB9F808000890DB
:1041F00000BF4C460AE06089AAEB00001FFA80FA73
:1042000061890898401A80B20890246814B16089C6
:104210005045F0DD14B96FF00100DEE7564608980E
:10422000099060680A9097E10A98805D04900027E1
:104230004FF0FF38B01C1FFA80FBB34501DAB81EFF
:10424000CBE76189701C814203DD711C0A98455CD3
:1042500007E0206818B120684068007800E000207E
:1042600005462F46049834286DD00BDC032825D052
:1042700003DC80B1012871D111E006282ED033284B
:10428000F9D151E035287ED0362869D03A2868D057
:104290003B28F0D1A4E0002005460746B3E000BF6C
:1042A000042D07D000BFC3A0FEF7E4FC00BF6FF0F1
:1042B000050092E700BF4FF00608A4E0042700BF06
:1042C000BD4207DA00BFBEA0FEF7D4FC00BF6FF00E
:1042D000050082E700BF4FF0070894E000BFE91730
:1042E00005EB91718910A5EB810139B100BFB9A02F
:1042F000FEF7C0FC00BF6FF005006EE700BF082DA1
:1043000001DA284600E00820074600BFBD4207DA70
:1043100000BFABA0FEF7AEFC00BF6FF005005CE78E
:1043200000BF4FF008086EE000BF042D07D000BFAB
:10433000A0A0FEF79FFC00BF6FF005004DE700BF97
:104340004FF003085FE000BF012D0BD000BFA5A018
:10435000FEF790FC00BF6FF005003EE74FE012E073
:1043600020E02EE000BF00BFBAF1F00F07D000BF81
:104370009FA0FEF77FFC00BF6FF005002DE700BF98
:104380004FF000083FE000BF012D07D000BF95A00F
:10439000FEF770FC00BF6FF005001EE700BF4FF096
:1043A000010830E000BF042D07D000BF81A0FEF758
:1043B00061FC00BF6FF005000FE700BF4FF002087F
:1043C00021E000BF042D07D000BF7AA0FEF752FC09
:1043D00000BF6FF0050000E700BF4FF0040812E0D7
:1043E00000BF042D07D000BF72A0FEF743FC00BF42
:1043F0006FF00500F1E600BF4FF0050803E000276D
:1044000000BF00BF00BF00BF049810B9701C86B287
:1044100081E07019801CB0F5803F02DB6FF0010075
:10442000DBE67019801C86B2002F74DD002003903B
:1044300000BF00BFB8F1000F02DBB8F10A0F04DBC8
:1044400000BF71A0FEF716FC00BF00BF584810F86F
:104450000800D8BB042F01DA384600E0042002909F
:104460005B4603A92046029A08F02EFD01460298F9
:10447000814202D06FF00100AFE6042F2CDD00BFB7
:10448000F91707EB91718910A7EB810139B100BFD2
:1044900062A0FEF7EFFB00BF6FF005009DE600BFD6
:1044A0000120434901F80800039804F0FBFF61492B
:1044B00041F82800381FC7B20BF1040080B2019008
:1044C0000198584503DA6FF0010086E622E0DDF836
:1044D00004B008F10108ACE7042F04D1039804F0FC
:1044E000E1FF03900EE000BF012F07D000BF52A0F4
:1044F000FEF7C0FB00BF6FF005006EE600BF9DF841
:104500000C00039001202A4901F80800494903984A
:1045100041F8280000BF6089B0421CDC6089301A75
:1045200086B261890998401A80B20990099886423A
:104530000EDA246800BF3CB900BF44A0FEF79AFB26
:1045400000BF6FF0050048E600BF60680A9002E017
:104550006FF0010041E600BF3CB10998864204DAE1
:104560000A98805DFF287FF45FAE11480078A0B103
:104570003049086800210E4A1170012802D101213A
:10458000079109E0022802D10121069104E00328E5
:1045900002D101210691079100BF079830B1002098
:1045A00007904FF06C0AEC20089022E658E00000DB
:1045B000746400206C656E203D3D203400000000D6
:1045C0006C656E203E3D206465636F64655F6C655D
:1045D0006E0000006C656E2025252034203D3D20B6
:1045E000300000006C656E203D3D20310000000071
:1045F0006F7665726C6F616420696E2066696C65A8
:104600002F736E616D650000636865636B20646580
:10461000636F64655F696478000000006465636FC0
:1046200064655F6C656E2025252034203D3D20307B
:10463000000000004C640020696E76616C696420A3
:104640006465636F64655F6C656E00006E657874A9
:10465000207062756620776173206E756C6C000047
:10466000069830B1002006904FF02C0A6C2008907C
:10467000BFE50020B1E500002DE9FC4707463C6A94
:104680000421204600F04CFB01AB032221463846B2
:10469000FFF7D8F90546002D42D06E680223392273
:1046A00006F1F001BDF80400FFF79EFC01903A8D81
:1046B00006F1F001BDF80400FFF728FD0190042386
:1046C000372206F1F001BDF80400FFF78DFC0190E0
:1046D0004FF000080DE0224810F8082006F1F00124
:1046E000BDF80400FFF79EFC019008F1010000F006
:1046F000FF08B8F1040FEED32A4606F1F001BDF829
:104700000400FFF73BFD4323164A2946164800974D
:1047100000680FF007FF8146284608F041FC01E0E1
:104720004FF0FF39A079FF2802DAA079401CA07170
:10473000A0790A2805DAA0794FF47A7110FB01F00C
:1047400001E042F210701FFA80FA0AF2F3104FF4FF
:10475000FA7190FBF1F020814846BDE8FC8700002B
:1047600074000020F05D0108780000202DE9FC5F56
:104770008046D8F820400321204600F0D1FA01AB52
:10478000032221464046FFF75DF90646002E54D02D
:1047900075680223392205F1F001BDF80400FFF726
:1047A00023FC01904FF4107205F1F001BDF80400F4
:1047B000FFF7ACFC01900423322205F1F001BDF8B3
:1047C0000400FFF711FC0190E06904F06BFE8346E2
:1047D0005A4605F1F001BDF80400FFF753FC0190C3
:1047E0000423372205F1F001BDF80400FFF7FCFBBC
:1047F000019000270AE02048C25D05F1F001BDF8F4
:104800000400FFF70FFC0190781CC7B2042FF2D30D
:10481000324605F1F001BDF80400FFF7AFFC432379
:10482000164A31461648CDF8008000680FF07AFE2F
:104830008146304608F0B4FB01E04FF0FF39A07923
:10484000FF2802DAA079401CA071A0790A2805DAB5
:10485000A0794FF47A7110FB01F001E042F2107080
:104860001FFA80FA0AF2F3104FF4FA7190FBF1F09C
:1048700020814846BDE8FC9F74000020F05D0108DF
:10488000780000202DE9F05F1646DDF828B0444896
:1048900047683C6AD6F804900CB1207900B97AE0F8
:1048A00000BF00BF70892C2800DA74E099F800007E
:1048B000022800D06FE000250AE007F12A00415DE0
:1048C00009F11C00405D814200D064E0681CC5B263
:1048D00097F83000A84201DD062DEED3D9F8040088
:1048E00004F0E0FD2168884200D054E021463046C3
:1048F000FFF762FC00B14EE02A48407800B94AE078
:10490000D6F804A0284890F80480B8F1050F24D107
:104910006079012810D151463846FFF78BFA97F895
:10492000310000F0080018B13846FFF737F831E0E1
:104930003846FEF78FFF2DE06079032805D06079B7
:10494000042802D06079052824D151463846FFF763
:1049500071FA3846FEF77EFF1CE0B8F1060F0FD162
:104960006079032808D06079012805D0607904288F
:1049700002D06079052803D13846FFF7B3FA09E081
:10498000B8F1020F06D16079062803D151463846A6
:10499000FFF7BCFA00BF304608F002FBBDE8F09F0D
:1049A000006A0020746400204C6400202DE9FE435E
:1049B0000646346A0CB9BDE8FE83607900B9FAE7AF
:1049C000A06902900020A061E06120626062206323
:1049D000E062A062A08260822082E081304600F026
:1049E00019FA88B301AB072221463046FFF72AF8AF
:1049F000054645B36F680423362207F1F001BDF880
:104A00000400FFF7F1FA0190029804F04BFD804694
:104A1000424607F1F001BDF80400FFF733FB0190B7
:104A20002A4607F1F001BDF80400FFF7A7FB432376
:104A300002AA29460D48009600680FF073FD28462B
:104A400008F0AEFA00BF00BF094B1A4611463046C7
:104A500007F076FE0021204600F062F9207918B1B7
:104A6000FFF7C2F80020207100BFA4E77800002003
:104A7000EC5D01082DE9FC4707463C6A052120460C
:104A800000F04EF901AB032221463846FEF7DAFF6B
:104A90000546002D43D06E680223392206F1F0014D
:104AA000BDF80400FFF7A0FA01903A8D06F1F0017D
:104AB000BDF80400FFF72AFB01900423372206F11A
:104AC000F001BDF80400FFF78FFA01904FF00008E5
:104AD0000DE0224810F8082006F1F001BDF80400AE
:104AE000FFF7A0FA019008F1010000F0FF08B8F10B
:104AF000040FEED32A4606F1F001BDF80400FFF7DB
:104B00003DFB432304F1180229461548009700682D
:104B10000FF008FD8146284608F042FA01E04FF008
:104B2000FF39A079FF2802DAA079401CA071A07992
:104B30000A2805DAA0794FF4FA6110FB01F001E0D0
:104B400044F620601FFA80FA0AF2F3104FF4FA716B
:104B500090FBF1F020814846BDE8FC8774000020FE
:104B6000780000202DE9FE4F074600BF47B900BF7F
:104B700059A0FEF77FF800BF6FF00F00BDE8FE8F71
:104B800000BF3C6A00BF3CB900BF5AA0FEF772F8F4
:104B900000BF6FF00500F1E700BF0121204600F0E3
:104BA000BFF802AB032221463846FEF74BFF06460C
:104BB000002E6FD075680223392205F1F001BDF88F
:104BC0000800FFF711FA02903A8D05F1F001BDF8E7
:104BD0000800FFF79BFA02900423322205F1F0014E
:104BE000BDF80800FFF700FA0290E06904F05AFCF3
:104BF00083465A4605F1F001BDF80800FFF742FA76
:104C000002900423362205F1F001BDF80800FFF7F9
:104C1000EBF90290A06904F045FC83465A4605F181
:104C2000F001BDF80800FFF72DFA029004233722A7
:104C300005F1F001BDF80800FFF7D6F902904FF03A
:104C400000080DE0324810F8082005F1F001BDF829
:104C50000800FFF7E7F9029008F1010000F0FF08F3
:104C6000B8F1040FEED3324605F1F001BDF80800AB
:104C7000FFF784FA27484323274A3146CDE90070DD
:104C8000264800680FF0DCFC8146304608F088F9C1
:104C900002E0FFE74FF0FF39A079FF2802DAA079A0
:104CA000401CA071A079062803DAA1790120884070
:104CB00000E03C2000EB4001C1EBC0104FF6FF715B
:104CC00001EAC00A0AF2F3104FF4FA7190FBF1F016
:104CD0002081484652E70000646863705F73656C2A
:104CE0006563743A206E6574696620213D204E55D7
:104CF0004C4C0000646863705F73656C6563743A64
:104D0000206468637020213D204E554C4C0000000B
:104D100074000020EC5D0108F05D010878000020BF
:104D200042798A4203D04171002282710281704728
:104D300070B5044600BF3CB900BF29A0FDF79AFF3B
:104D400000BF6FF00F0070BD00BF00BF94F83100CE
:104D500000F0010038B900BF25A0FDF78BFF00BFB0
:104D60006FF00F00EFE700BF256A208DB0F5107FD0
:104D700002DA4FF0FF30E6E74DB9342006F0C8F90B
:104D8000054615B94FF0FF30DDE7256203E02879CD
:104D900008B1FEF729FF34212846FBF7FCFAFFF79C
:104DA000CDF810B14FF0FF30CDE70120287194F815
:104DB0003100C0F3800028B902212846FFF7B0FF78
:104DC0000020C0E72046FEF799FF06462EB1204698
:104DD000FFF7ECFD4FF0FF30B5E73046B3E70000DA
:104DE0006E6574696620213D204E554C4C000000D4
:104DF0006E65746966206973206E6F742075702CFF
:104E0000206F6C64207374796C6520706F72743FCE
:104E100000000000014679B1086A68B10A6A507959
:104E20000A2805D05079052802D05079042801D1EC
:104E3000012070470020FCE70020FAE770B5054626
:104E40002C6A6079012805D060790A2802D060793F
:104E5000052813D12846FFF70DFEA189628A881A1A
:104E600000EBD0710122B2EB610F07DCA189628AED
:104E7000881A00EBD071C1F34F01E18170BD70B5AC
:104E800005462C6A6079012808D060790A2805D087
:104E90006079052802D06079042813D12846FFF7ED
:104EA000EBFBA18A628A881A00EBD0710122B2EB77
:104EB000610F07DCA18A628A881A00EBD071C1F306
:104EC0004F01218270BD70B505462C6A60790C28AF
:104ED00002D06079062803D12846FEF70FFF2BE0A9
:104EE000607901280DD1A079052803DC2846FFF759
:104EF00039FE21E02846FFF759FD2846FFF718FF45
:104F00001AE0607908280AD1A079012803DC284634
:104F1000FEF744FD10E02846FEF79CFC0CE06079AB
:104F2000032809D1A079022803DA2846FFF71EFCDE
:104F300002E02846FEF7E2FE70BD000070B50024D6
:104F400006E0194850F8240000B903E0601CC4B220
:104F5000042CF6DB00BF042C0CDA00F029F812490F
:104F600041F82400084650F8240018B10F48047096
:104F7000204670BD00240D480078401CC5B20EE0EC
:104F8000042D00DB0025084850F8250018B107481B
:104F900005702846EDE7601CC4B2681CC5B2042C3D
:104FA000EEDB0420E5E7000080650020A000002083
:104FB00070B52E200FF071F905460DB9002070BDB7
:104FC00000BFFBF7AFF986B2B6F5806F06DB32465D
:104FD0000C4928460EF0ECFE044601E06FF0070491
:104FE00004F108000028ECD024B128460FF0A6F9FF
:104FF0000020E4E70022044928460FF081F9284602
:10500000DDE70000EC5D01081156000801460020B4
:1050100051B1CA7A521C022A06DACA7A521C034BD0
:1050200053F8222002B1012070470000A4000020A4
:105030002DE9F04105460E46002428E004EB44002B
:105040003A4951F8200000B304EB440001EB800022
:10505000007AA84219D104EB4401344F07EB8101D7
:105060004A6805EB0511324F07EB011101F1100001
:1050700004EB44012D4F57F821303146984700206A
:1050800004EB44013A4642F82100601CC4B2042CEF
:10509000D4DB002421E0AC4200D11CE004EB04107E
:1050A000234901EB0010807A022813D104EB04108D
:1050B00001EB0010C07B05EB05111D4A02EB01114D
:1050C000C97B884206D1042005EB051102EB0111D2
:1050D000C87304E000BF601CC4B2042CDBDB00BF5B
:1050E00005EB0510124901EB0010C07B04281BDA08
:1050F00005EB05110E4A02EB0111C97B0D4A52F86E
:1051000021000FF01BF9002005EB0511084A02EB06
:105110000111C97B074A42F82100042005EB051163
:10512000034A02EB0111C873BDE8F081D069002089
:10513000906500208065002010B5002404E0204622
:1051400000F006F8601CC4B2042CF8DB10BD0000AF
:1051500070B5054605EB05102F4901EB001400BFA3
:10516000042D04DB00BF2DA0FDF784FD00BF00BFB0
:10517000A07A002845D0012804D0022812D00328A4
:1051800040D135E000F0E4F820810220A072002038
:10519000E0720120207300206073284600F036FB87
:1051A000064637E0207B401EC0B22073F8B9607B12
:1051B000401CC0B26073042812D12046FFF726FFBE
:1051C00038B1E07A401CE072012020730020607347
:1051D00008E000212846FFF72BFF0020A07219E00D
:1051E000607B2073284600F011FB064600BF11E0EB
:1051F000206818B12068401E206008B90020A07205
:1052000008E007E000BF00BF0BA0FDF733FD00BFC3
:1052100000BF00BF00BF70BD906500206172726169
:105220007920696E646578206F7574206F662062DE
:105230006F756E6473000000756E6B6E6F776E2015
:10524000646E735F7461626C6520656E7472792040
:1052500073746174653A00002DE9F04706460F4605
:105260009046444600BF2146384608F083F905467B
:10527000002D03DB4FF6FF70844203D14FF6FF7021
:10528000BDE8F087601C84B205F0C000C02802D1E0
:105290004FF6FF70F4E721E02146384608F06AF93E
:1052A0008146B9F1000F02DA4FF6FF70E8E7307877
:1052B000FBF732F8824609F0FF00FBF72DF8824534
:1052C00002D04FF6FF70DBE74FF6FF70844200D14B
:1052D000D6E7601C84B2761C6D1E00BF002DDBDC9F
:1052E000761C2146384608F045F90546002D02DABD
:1052F0004FF6FF70C4E7002DB5D14FF6FF70844222
:1053000000D1BDE7601C80B2BAE7000070B5054669
:105310000E4605EB05100C4901EB00140320A072AA
:1053200026600A492068884201D908462060211D6C
:105330002846FFF77DFE206820B9A07A032801D116
:105340000020A07270BD000090650020803A090026
:1053500070B500BFFAF7E6FF85B2002411E004EB58
:1053600004100A4901EB0010807A022807D104EBEF
:10537000041001EB00100089A84200D1EAE7601C8C
:10538000C4B2042CEBDB284670BD00009065002001
:105390002DE9FF4F83B08B4691469A4600250024A5
:1053A00036E004EB04105B4901EB0010807A022820
:1053B0002CD104EB04100A4602EB001000F110019E
:1053C0004FF48072039805F014FDF8B900261BE035
:1053D00006EB4600504951F8200098B906EB46000C
:1053E00041F8209006EB460001EB8000C0F804A0D5
:1053F00006EB460001EB800004726FF0040007B07A
:10540000BDE8F08F701CC6B2042EE1DB601CC4B294
:10541000042CC6DB002002904FF00408002417E0A3
:1054200004EB04103B4901EB0015A87A00B911E028
:10543000A87A03280AD1A97B384A1278511AC8B22F
:105440000299884201DD0290A04600BF601CC4B2F0
:10545000042CE5DB00BF042C13D1B8F1040F07DAEC
:1054600008EB08102B4901EB0010807A032802D0CA
:105470004FF0FF30C3E7444604EB0410254901EB2D
:105480000015002700260CE006EB4600224951F8E3
:10549000200020B906EB460001EB800703E0701CFA
:1054A000C6B2042EF0DB00BF17B94FF0FF30A6E7FD
:1054B0003C720120A87219480078A873C7F80090C0
:1054C000C7F804A0BBF1FF0F01D2584600E0FF204F
:1054D000019005F11000019A0399FAF735FF0022B7
:1054E00005F1100101980A54FFF728FDE873E87BE5
:1054F000042804DB0020A8723860401E7FE70748BC
:105500000078401C054908702046FFF721FE6FF027
:10551000040074E790650020D0690020A1000020FD
:105520002DE9F04705460E4617469846DDF82090CF
:1055300016B10DB1287818B96FF00F00BDE8F087EB
:105540002846FAF733FF0446FF2C02D96FF00F000C
:10555000F4E73146284603F09DF808B10020EDE756
:105560003146284600F026F808B90020E6E706484C
:10557000006810B96FF00500E0E743463A4621465F
:105580002846FFF705FFD9E7A400002008B506A0CC
:1055900003F066FC00906946002000F0F7F900BFB8
:1055A00000BF00BF00BF08BD3232332E352E352E6E
:1055B0003500000070B506460D46002421E004EBDE
:1055C0000410124901EB0010807A032817D104EB74
:1055D00004100A4602EB001000F110014FF4807233
:1055E000304605F006FC50B900BF35B104EB04109D
:1055F000064901EB001040682860002070BD601C67
:10560000C4B2042CDBDB6FF00F00F7E790650020DD
:105610002DE9F04F89B017469A463889102800DAEC
:10562000EBE000230C2206A9384607F04DFC0C28BD
:1056300073D1BDF8180003F042FF81460025D8E081
:1056400005EB05106F4901EB0016B07A02286ED108
:1056500030894845FBD1BDF81C0003F030FF83467C
:10566000BDF81E0003F02BFF80469DF81A0000F0E5
:10567000800000B9C1E0BBF1010F00D0BDE0F17ABC
:10568000614A52F82110DAF80000884200D0B4E0F4
:105690000C22394606F11000FFF7DEFD04464FF6F6
:1056A000FF718C4200D1A8E02346042202A93846AB
:1056B00007F00AFC042800D09FE0BDF80A00B0F50E
:1056C000807F05D100BFBDF80800B0F5807F00D015
:1056D00093E0201DB0F5803F00DB8EE0201D84B2FA
:1056E0009DF81B0000F00F0060B13046FFF78EFC04
:1056F00000286DD003207073012030732846FFF717
:1057000027FD7AE05EE02146384600F051F9044674
:105710004FF6FF70844201D16FE06DE023460A220C
:1057200003A9384607F0D0FB0A2801D065E05EE007
:1057300004F10A00B0F5803F00DB5EE004F10A00EE
:1057400084B2BDF80E00B0F5807F28D1BDF80C0002
:10575000B0F5807F22D1BDF81400B0F5806F1DD167
:105760002346042201A9384607F0AEFB042800D0E6
:1057700043E005EB0511234A02EB01110198486053
:10578000384607F00DFC049803F08CFE01460090AB
:105790002846FFF7BBFD09B0BDE8F08F00BFBDF89C
:1057A000140003F08CFE2044B0F5803F00DB24E0C1
:1057B000BDF8140003F083FE204484B2A8F1010078
:1057C0001FFA80F8B8F1000F02DD3889A0429ADC98
:1057D000384607F0E5FB00212846FFF729FC0020AA
:1057E00005EB0511074A02EB01118872D3E7681C2B
:1057F000C5B2042DFFF624AF00BF384607F0D0FB3A
:1058000000BFC8E790650020A40000202DE9F04FFC
:1058100089B083460BEB0B10534901EB001500BF19
:10582000E87A022804DB00BF50A0FDF723FA00BF8E
:1058300000BFE87A534951F8200040B9002158468A
:10584000FFF7F6FB0020A87209B0BDE8F08F05F164
:105850001000FAF7ABFD123080B24FF4207201460F
:105860000290362007F04EF80746002F71D0002036
:10587000069007900890288903F021FEADF81800E3
:1058800001208DF81A000002ADF81C000C2206A9B8
:10589000384607F079FD05F11004641E0C2600BFA0
:1058A000641CA0464FF0000904E009F1010000F07B
:1058B000FF09641C20782E2802D020780028F4D11B
:1058C000A4EB080080B2049006EB0900401CB0F580
:1058D000803F00DB41E04A463146384607F03DFC58
:1058E000701C83B241463846049A07F0EFFD06EB80
:1058F0000900401C86B220780028D1D10022314610
:10590000384607F02AFC701C86B24FF48070ADF860
:105910001400ADF816003346042205A9384607F0F6
:10592000D5FDE97B039135200190E97A154800EB1C
:1059300081000290144A039952F821003946DDE9AA
:1059400001320EF06BFD8246384607F029FB02E07B
:10595000FFE74FF0FF3A504676E7384607F020FB66
:105960006FF0050070E7000090650020646E732002
:10597000736572766572206F7574206F6620617230
:1059800072617900A40000208065002002280ADAF4
:1059900021B1054A0B6842F8203004E0024A034B6B
:1059A0001B6842F820307047A4000020EC5D01081D
:1059B0002DE9F04106460F463C4600BF2146621CD9
:1059C00094B2304607F0D6FD0546002D00DB1CB929
:1059D0004FF6FF70BDE8F08105F0C000C02800D18F
:1059E00014E060193189884202DB4FF6FF70F1E75D
:1059F000601984B22146304607F0BCFD0546002DF3
:105A000002DA4FF6FF70E5E7002DD7D100BF4FF661
:105A1000FF70844200D1DDE7601C80B2DAE710B588
:105A2000FFF78AFB10BD00002DE9F04104460D464A
:105A300000BF05F0030020B100BF09A0FDF71AF96F
:105A400000BF00BF2E4608F0A6FD0746A06800680C
:105A50003060A0680660384608F0C6FDBDE8F081F9
:105A60006D656D705F667265653A206D656D20705D
:105A7000726F7065726C7920616C69676E65640025
:105A800070B5054608F087FD0646A86804688CB125
:105A90002068A968086000BF04F0030020B100BFBF
:105AA00007A0FDF7E7F800BF00BF304608F09CFDF7
:105AB000204670BD304608F097FD0020F9E7000051
:105AC0006D656D705F6D616C6C6F633A206D656DB7
:105AD000702070726F7065726C7920616C69676E8E
